{
  "_format": "hh-sol-artifact-1",
  "contractName": "MockUSDC",
  "sourceName": "contracts/mocks/MockUSDC.sol",
  "abi": [
    {
      "inputs": [],
      "stateMutability": "nonpayable",
      "type": "constructor"
    },
    {
      "inputs": [
        {
          "internalType": "address",
          "name": "spender",
          "type": "address"
        },
        {
          "internalType": "uint256",
          "name": "allowance",
          "type": "uint256"
        },
        {
          "internalType": "uint256",
          "name": "needed",
          "type": "uint256"
        }
      ],
      "name": "ERC20InsufficientAllowance",
      "type": "error"
    },
    {
      "inputs": [
        {
          "internalType": "address",
          "name": "sender",
          "type": "address"
        },
        {
          "internalType": "uint256",
          "name": "balance",
          "type": "uint256"
        },
        {
          "internalType": "uint256",
          "name": "needed",
          "type": "uint256"
        }
      ],
      "name": "ERC20InsufficientBalance",
      "type": "error"
    },
    {
      "inputs": [
        {
          "internalType": "address",
          "name": "approver",
          "type": "address"
        }
      ],
      "name": "ERC20InvalidApprover",
      "type": "error"
    },
    {
      "inputs": [
        {
          "internalType": "address",
          "name": "receiver",
          "type": "address"
        }
      ],
      "name": "ERC20InvalidReceiver",
      "type": "error"
    },
    {
      "inputs": [
        {
          "internalType": "address",
          "name": "sender",
          "type": "address"
        }
      ],
      "name": "ERC20InvalidSender",
      "type": "error"
    },
    {
      "inputs": [
        {
          "internalType": "address",
          "name": "spender",
          "type": "address"
        }
      ],
      "name": "ERC20InvalidSpender",
      "type": "error"
    },
    {
      "inputs": [
        {
          "internalType": "address",
          "name": "owner",
          "type": "address"
        }
      ],
      "name": "OwnableInvalidOwner",
      "type": "error"
    },
    {
      "inputs": [
        {
          "internalType": "address",
          "name": "account",
          "type": "address"
        }
      ],
      "name": "OwnableUnauthorizedAccount",
      "type": "error"
    },
    {
      "anonymous": false,
      "inputs": [
        {
          "indexed": true,
          "internalType": "address",
          "name": "owner",
          "type": "address"
        },
        {
          "indexed": true,
          "internalType": "address",
          "name": "spender",
          "type": "address"
        },
        {
          "indexed": false,
          "internalType": "uint256",
          "name": "value",
          "type": "uint256"
        }
      ],
      "name": "Approval",
      "type": "event"
    },
    {
      "anonymous": false,
      "inputs": [
        {
          "indexed": true,
          "internalType": "address",
          "name": "previousOwner",
          "type": "address"
        },
        {
          "indexed": true,
          "internalType": "address",
          "name": "newOwner",
          "type": "address"
        }
      ],
      "name": "OwnershipTransferred",
      "type": "event"
    },
    {
      "anonymous": false,
      "inputs": [
        {
          "indexed": true,
          "internalType": "address",
          "name": "from",
          "type": "address"
        },
        {
          "indexed": true,
          "internalType": "address",
          "name": "to",
          "type": "address"
        },
        {
          "indexed": false,
          "internalType": "uint256",
          "name": "value",
          "type": "uint256"
        }
      ],
      "name": "Transfer",
      "type": "event"
    },
    {
      "inputs": [
        {
          "internalType": "address",
          "name": "owner",
          "type": "address"
        },
        {
          "internalType": "address",
          "name": "spender",
          "type": "address"
        }
      ],
      "name": "allowance",
      "outputs": [
        {
          "internalType": "uint256",
          "name": "",
          "type": "uint256"
        }
      ],
      "stateMutability": "view",
      "type": "function"
    },
    {
      "inputs": [
        {
          "internalType": "address",
          "name": "spender",
          "type": "address"
        },
        {
          "internalType": "uint256",
          "name": "value",
          "type": "uint256"
        }
      ],
      "name": "approve",
      "outputs": [
        {
          "internalType": "bool",
          "name": "",
          "type": "bool"
        }
      ],
      "stateMutability": "nonpayable",
      "type": "function"
    },
    {
      "inputs": [
        {
          "internalType": "address",
          "name": "account",
          "type": "address"
        }
      ],
      "name": "balanceOf",
      "outputs": [
        {
          "internalType": "uint256",
          "name": "",
          "type": "uint256"
        }
      ],
      "stateMutability": "view",
      "type": "function"
    },
    {
      "inputs": [
        {
          "internalType": "uint256",
          "name": "amount",
          "type": "uint256"
        }
      ],
      "name": "burn",
      "outputs": [],
      "stateMutability": "nonpayable",
      "type": "function"
    },
    {
      "inputs": [],
      "name": "decimals",
      "outputs": [
        {
          "internalType": "uint8",
          "name": "",
          "type": "uint8"
        }
      ],
      "stateMutability": "pure",
      "type": "function"
    },
    {
      "inputs": [
        {
          "internalType": "uint256",
          "name": "amount",
          "type": "uint256"
        }
      ],
      "name": "faucet",
      "outputs": [],
      "stateMutability": "nonpayable",
      "type": "function"
    },
    {
      "inputs": [
        {
          "internalType": "address",
          "name": "to",
          "type": "address"
        },
        {
          "internalType": "uint256",
          "name": "amount",
          "type": "uint256"
        }
      ],
      "name": "mint",
      "outputs": [],
      "stateMutability": "nonpayable",
      "type": "function"
    },
    {
      "inputs": [],
      "name": "name",
      "outputs": [
        {
          "internalType": "string",
          "name": "",
          "type": "string"
        }
      ],
      "stateMutability": "view",
      "type": "function"
    },
    {
      "inputs": [],
      "name": "owner",
      "outputs": [
        {
          "internalType": "address",
          "name": "",
          "type": "address"
        }
      ],
      "stateMutability": "view",
      "type": "function"
    },
    {
      "inputs": [],
      "name": "renounceOwnership",
      "outputs": [],
      "stateMutability": "nonpayable",
      "type": "function"
    },
    {
      "inputs": [],
      "name": "symbol",
      "outputs": [
        {
          "internalType": "string",
          "name": "",
          "type": "string"
        }
      ],
      "stateMutability": "view",
      "type": "function"
    },
    {
      "inputs": [],
      "name": "totalSupply",
      "outputs": [
        {
          "internalType": "uint256",
          "name": "",
          "type": "uint256"
        }
      ],
      "stateMutability": "view",
      "type": "function"
    },
    {
      "inputs": [
        {
          "internalType": "address",
          "name": "to",
          "type": "address"
        },
        {
          "internalType": "uint256",
          "name": "value",
          "type": "uint256"
        }
      ],
      "name": "transfer",
      "outputs": [
        {
          "internalType": "bool",
          "name": "",
          "type": "bool"
        }
      ],
      "stateMutability": "nonpayable",
      "type": "function"
    },
    {
      "inputs": [
        {
          "internalType": "address",
          "name": "from",
          "type": "address"
        },
        {
          "internalType": "address",
          "name": "to",
          "type": "address"
        },
        {
          "internalType": "uint256",
          "name": "value",
          "type": "uint256"
        }
      ],
      "name": "transferFrom",
      "outputs": [
        {
          "internalType": "bool",
          "name": "",
          "type": "bool"
        }
      ],
      "stateMutability": "nonpayable",
      "type": "function"
    },
    {
      "inputs": [
        {
          "internalType": "address",
          "name": "newOwner",
          "type": "address"
        }
      ],
      "name": "transferOwnership",
      "outputs": [],
      "stateMutability": "nonpayable",
      "type": "function"
    }
  ],
  "bytecode": "0x60806040523461040357604080519081016001600160401b0381118282101761030e57604090815260088252672aa9a21021b7b4b760c11b602083015280519081016001600160401b0381118282101761030e5760405260048152635553444360e01b602082015281516001600160401b03811161030e57600354600181811c911680156103f9575b60208210146102ee57601f8111610394575b50602092601f821160011461032f5792819293600092610324575b50508160011b916000199060031b1c1916176003555b80516001600160401b03811161030e57600454600181811c91168015610304575b60208210146102ee57601f8111610289575b50602091601f82116001146102255791819260009261021a575b50508160011b916000199060031b1c1916176004555b33156102045760058054336001600160a01b0319821681179092556001600160a01b03167f8be0079c531659141344cd1fd0a4f28419497f9722a3daafe3b4186f6b6457e0600080a3600060025466038d7ea4c6800081018091116101f05760025550336000526000602052604060002066038d7ea4c68000815401905560405166038d7ea4c68000815260007fddf252ad1be2c89b69c2b068fc378daa952ba7f163c4a11628f55a4df523b3ef60203393a360405161097e90816104098239f35b634e487b7160e01b82526011600452602482fd5b631e4fbdf760e01b600052600060045260246000fd5b015190503880610118565b601f198216926004600052806000209160005b85811061027157508360019510610258575b505050811b0160045561012e565b015160001960f88460031b161c1916905538808061024a565b91926020600181928685015181550194019201610238565b60046000527f8a35acfbc15ff81a39ae7d344fd709f28e8600b4aa8c65c6b64bfe7fe36bd19b601f830160051c810191602084106102e4575b601f0160051c01905b8181106102d857506100fe565b600081556001016102cb565b90915081906102c2565b634e487b7160e01b600052602260045260246000fd5b90607f16906100ec565b634e487b7160e01b600052604160045260246000fd5b0151905038806100b5565b601f198216936003600052806000209160005b86811061037c5750836001959610610363575b505050811b016003556100cb565b015160001960f88460031b161c19169055388080610355565b91926020600181928685015181550194019201610342565b60036000527fc2575a0e9e593c00f959f8c92f12db2869c3395a3b0502d05e2516446f71f85b601f830160051c810191602084106103ef575b601f0160051c01905b8181106103e3575061009a565b600081556001016103d6565b90915081906103cd565b90607f1690610088565b600080fdfe608080604052600436101561001357600080fd5b60003560e01c90816306fdde03146106b357508063095ea7b31461062d57806318160ddd1461060f57806323b872dd14610522578063313ce5671461050657806340c10f19146104d957806342966c681461043357806357915897146103b657806370a082311461037c578063715018a61461031f5780638da5cb5b146102f657806395d89b41146101d5578063a9059cbb146101a4578063dd62ed3e146101535763f2fde38b146100c457600080fd5b3461014e57602036600319011261014e576100dd6107cf565b6100e56108aa565b6001600160a01b0316801561013857600580546001600160a01b0319811683179091556001600160a01b03167f8be0079c531659141344cd1fd0a4f28419497f9722a3daafe3b4186f6b6457e0600080a3005b631e4fbdf760e01b600052600060045260246000fd5b600080fd5b3461014e57604036600319011261014e5761016c6107cf565b6101746107e5565b6001600160a01b039182166000908152600160209081526040808320949093168252928352819020549051908152f35b3461014e57604036600319011261014e576101ca6101c06107cf565b60243590336107fb565b602060405160018152f35b3461014e57600036600319011261014e5760405160006004548060011c906001811680156102ec575b6020831081146102d8578285529081156102bc5750600114610265575b50819003601f01601f191681019067ffffffffffffffff82118183101761024f5761024b82918260405282610786565b0390f35b634e487b7160e01b600052604160045260246000fd5b905060046000527f8a35acfbc15ff81a39ae7d344fd709f28e8600b4aa8c65c6b64bfe7fe36bd19b6000905b8282106102a65750602091508201018261021b565b6001816020925483858801015201910190610291565b90506020925060ff191682840152151560051b8201018261021b565b634e487b7160e01b84526022600452602484fd5b91607f16916101fe565b3461014e57600036600319011261014e576005546040516001600160a01b039091168152602090f35b3461014e57600036600319011261014e576103386108aa565b600580546001600160a01b031981169091556000906001600160a01b03167f8be0079c531659141344cd1fd0a4f28419497f9722a3daafe3b4186f6b6457e08280a3005b3461014e57602036600319011261014e576001600160a01b0361039d6107cf565b1660005260006020526020604060002054604051908152f35b3461014e57602036600319011261014e576004356402540be40081116103e2576103e090336108d3565b005b60405162461bcd60e51b8152602060048201526024808201527f4d6f636b555344433a204d61782031302c3030302055534443207065722066616044820152631d58d95d60e21b6064820152608490fd5b3461014e57602036600319011261014e5760043533156104c3576000338152806020526040812054918083106104aa578082933384528360205203604083205580600254036002556040519081527fddf252ad1be2c89b69c2b068fc378daa952ba7f163c4a11628f55a4df523b3ef60203392a380f35b60649263391434e360e21b835233600452602452604452fd5b634b637e8f60e11b600052600060045260246000fd5b3461014e57604036600319011261014e576103e06104f56107cf565b6104fd6108aa565b602435906108d3565b3461014e57600036600319011261014e57602060405160068152f35b3461014e57606036600319011261014e5761053b6107cf565b6105436107e5565b6001600160a01b0382166000818152600160209081526040808320338452909152902054909260443592916000198110610583575b506101ca93506107fb565b8381106105f25784156105dc5733156105c6576101ca946000526001602052604060002060018060a01b0333166000526020528360406000209103905584610578565b634a1406b160e11b600052600060045260246000fd5b63e602df0560e01b600052600060045260246000fd5b8390637dc7a0d960e11b6000523360045260245260445260646000fd5b3461014e57600036600319011261014e576020600254604051908152f35b3461014e57604036600319011261014e576106466107cf565b6024359033156105dc576001600160a01b03169081156105c657336000526001602052604060002082600052602052806040600020556040519081527f8c5be1e5ebec7d5bd14f71427d1e84f3dd0314c0f7b2291e5b200ac8c7c3b92560203392a3602060405160018152f35b3461014e57600036600319011261014e5760006003548060011c9060018116801561077c575b6020831081146102d8578285529081156102bc57506001146107255750819003601f01601f191681019067ffffffffffffffff82118183101761024f5761024b82918260405282610786565b905060036000527fc2575a0e9e593c00f959f8c92f12db2869c3395a3b0502d05e2516446f71f85b6000905b8282106107665750602091508201018261021b565b6001816020925483858801015201910190610751565b91607f16916106d9565b91909160208152825180602083015260005b8181106107b9575060409293506000838284010152601f8019910116010190565b8060208092870101516040828601015201610798565b600435906001600160a01b038216820361014e57565b602435906001600160a01b038216820361014e57565b6001600160a01b03169081156104c3576001600160a01b031691821561089457600082815280602052604081205482811061087a5791604082827fddf252ad1be2c89b69c2b068fc378daa952ba7f163c4a11628f55a4df523b3ef958760209652828652038282205586815280845220818154019055604051908152a3565b916064928463391434e360e21b8452600452602452604452fd5b63ec442f0560e01b600052600060045260246000fd5b6005546001600160a01b031633036108be57565b63118cdaa760e01b6000523360045260246000fd5b6001600160a01b031690811561089457600254818101809111610932576002557fddf252ad1be2c89b69c2b068fc378daa952ba7f163c4a11628f55a4df523b3ef602060009284845283825260408420818154019055604051908152a3565b634e487b7160e01b600052601160045260246000fdfea26469706673582212205fde92e9dfc12c2534d062433cb1557a0308ee41cef30b758b42b4bb3802c7bd64736f6c634300081c0033",
  "linkReferences": {},
  "deployedLinkReferences": {}
}