{
  "_format": "hh-sol-artifact-1",
  "contractName": "NearVrfYieldStrategy",
  "sourceName": "contracts/NearVrfStrategy.sol",
  "abi": [
    {
      "inputs": [
        {
          "internalType": "address",
          "name": "_vault",
          "type": "address"
        },
        {
          "internalType": "address",
          "name": "_underlying",
          "type": "address"
        },
        {
          "internalType": "address",
          "name": "_yieldSource",
          "type": "address"
        }
      ],
      "stateMutability": "nonpayable",
      "type": "constructor"
    },
    {
      "inputs": [
        {
          "internalType": "bytes",
          "name": "reason",
          "type": "bytes"
        }
      ],
      "name": "ClaimFailed",
      "type": "error"
    },
    {
      "inputs": [
        {
          "internalType": "bytes",
          "name": "reason",
          "type": "bytes"
        }
      ],
      "name": "DepositFailed",
      "type": "error"
    },
    {
      "inputs": [
        {
          "internalType": "bytes",
          "name": "reason",
          "type": "bytes"
        }
      ],
      "name": "GetBalanceFailed",
      "type": "error"
    },
    {
      "inputs": [],
      "name": "InvalidAmount",
      "type": "error"
    },
    {
      "inputs": [],
      "name": "InvalidTokenAddress",
      "type": "error"
    },
    {
      "inputs": [],
      "name": "NoUnderlyingBalance",
      "type": "error"
    },
    {
      "inputs": [],
      "name": "NoVaultSet",
      "type": "error"
    },
    {
      "inputs": [],
      "name": "ReentrancyGuardReentrantCall",
      "type": "error"
    },
    {
      "inputs": [
        {
          "internalType": "address",
          "name": "token",
          "type": "address"
        }
      ],
      "name": "SafeERC20FailedOperation",
      "type": "error"
    },
    {
      "inputs": [],
      "name": "StrategyPaused",
      "type": "error"
    },
    {
      "inputs": [
        {
          "internalType": "bytes",
          "name": "reason",
          "type": "bytes"
        }
      ],
      "name": "WithdrawFailed",
      "type": "error"
    },
    {
      "anonymous": false,
      "inputs": [
        {
          "indexed": false,
          "internalType": "uint256",
          "name": "amount",
          "type": "uint256"
        }
      ],
      "name": "Claim",
      "type": "event"
    },
    {
      "anonymous": false,
      "inputs": [
        {
          "indexed": false,
          "internalType": "bytes",
          "name": "reason",
          "type": "bytes"
        }
      ],
      "name": "ClaimRewardsFailed",
      "type": "event"
    },
    {
      "anonymous": false,
      "inputs": [
        {
          "indexed": false,
          "internalType": "uint256",
          "name": "amount",
          "type": "uint256"
        }
      ],
      "name": "Deposit",
      "type": "event"
    },
    {
      "anonymous": false,
      "inputs": [
        {
          "indexed": false,
          "internalType": "uint256",
          "name": "balance",
          "type": "uint256"
        },
        {
          "indexed": false,
          "internalType": "bytes",
          "name": "data",
          "type": "bytes"
        }
      ],
      "name": "EmergencyExited",
      "type": "event"
    },
    {
      "anonymous": false,
      "inputs": [
        {
          "indexed": false,
          "internalType": "uint256",
          "name": "amount",
          "type": "uint256"
        },
        {
          "indexed": false,
          "internalType": "bytes",
          "name": "data",
          "type": "bytes"
        }
      ],
      "name": "Executed",
      "type": "event"
    },
    {
      "anonymous": false,
      "inputs": [
        {
          "indexed": false,
          "internalType": "bytes",
          "name": "data",
          "type": "bytes"
        }
      ],
      "name": "Harvested",
      "type": "event"
    },
    {
      "anonymous": false,
      "inputs": [
        {
          "indexed": false,
          "internalType": "bool",
          "name": "isPaused",
          "type": "bool"
        }
      ],
      "name": "PausedState",
      "type": "event"
    },
    {
      "anonymous": false,
      "inputs": [
        {
          "indexed": true,
          "internalType": "address",
          "name": "token",
          "type": "address"
        }
      ],
      "name": "RewardTokenAdded",
      "type": "event"
    },
    {
      "anonymous": false,
      "inputs": [
        {
          "indexed": true,
          "internalType": "address",
          "name": "token",
          "type": "address"
        },
        {
          "indexed": false,
          "internalType": "uint256",
          "name": "amount",
          "type": "uint256"
        }
      ],
      "name": "TokensForwarded",
      "type": "event"
    },
    {
      "anonymous": false,
      "inputs": [
        {
          "indexed": false,
          "internalType": "address",
          "name": "vault",
          "type": "address"
        }
      ],
      "name": "VaultSet",
      "type": "event"
    },
    {
      "anonymous": false,
      "inputs": [
        {
          "indexed": true,
          "internalType": "address",
          "name": "winner",
          "type": "address"
        },
        {
          "indexed": false,
          "internalType": "uint256",
          "name": "amount",
          "type": "uint256"
        }
      ],
      "name": "WinnerAwarded",
      "type": "event"
    },
    {
      "anonymous": false,
      "inputs": [
        {
          "indexed": false,
          "internalType": "uint256",
          "name": "amount",
          "type": "uint256"
        }
      ],
      "name": "Withdraw",
      "type": "event"
    },
    {
      "anonymous": false,
      "inputs": [
        {
          "indexed": false,
          "internalType": "uint256",
          "name": "amount",
          "type": "uint256"
        }
      ],
      "name": "YieldDeposited",
      "type": "event"
    },
    {
      "inputs": [],
      "name": "CADENCE_ARCH",
      "outputs": [
        {
          "internalType": "address",
          "name": "",
          "type": "address"
        }
      ],
      "stateMutability": "view",
      "type": "function"
    },
    {
      "inputs": [
        {
          "internalType": "address",
          "name": "tokenAddress",
          "type": "address"
        }
      ],
      "name": "addRewardToken",
      "outputs": [],
      "stateMutability": "nonpayable",
      "type": "function"
    },
    {
      "inputs": [
        {
          "internalType": "bytes",
          "name": "data",
          "type": "bytes"
        }
      ],
      "name": "claimRewards",
      "outputs": [],
      "stateMutability": "nonpayable",
      "type": "function"
    },
    {
      "inputs": [],
      "name": "claimSelector",
      "outputs": [
        {
          "internalType": "bytes4",
          "name": "",
          "type": "bytes4"
        }
      ],
      "stateMutability": "pure",
      "type": "function"
    },
    {
      "inputs": [
        {
          "internalType": "address",
          "name": "",
          "type": "address"
        }
      ],
      "name": "depositAmounts",
      "outputs": [
        {
          "internalType": "uint256",
          "name": "",
          "type": "uint256"
        }
      ],
      "stateMutability": "view",
      "type": "function"
    },
    {
      "inputs": [],
      "name": "depositSelector",
      "outputs": [
        {
          "internalType": "bytes4",
          "name": "",
          "type": "bytes4"
        }
      ],
      "stateMutability": "pure",
      "type": "function"
    },
    {
      "inputs": [
        {
          "internalType": "uint256",
          "name": "yieldAmount",
          "type": "uint256"
        }
      ],
      "name": "depositYield",
      "outputs": [],
      "stateMutability": "nonpayable",
      "type": "function"
    },
    {
      "inputs": [
        {
          "internalType": "uint256",
          "name": "",
          "type": "uint256"
        }
      ],
      "name": "depositors",
      "outputs": [
        {
          "internalType": "address",
          "name": "",
          "type": "address"
        }
      ],
      "stateMutability": "view",
      "type": "function"
    },
    {
      "inputs": [
        {
          "internalType": "bytes",
          "name": "data",
          "type": "bytes"
        }
      ],
      "name": "emergencyExit",
      "outputs": [],
      "stateMutability": "nonpayable",
      "type": "function"
    },
    {
      "inputs": [
        {
          "internalType": "uint256",
          "name": "amount",
          "type": "uint256"
        },
        {
          "internalType": "bytes",
          "name": "data",
          "type": "bytes"
        }
      ],
      "name": "execute",
      "outputs": [],
      "stateMutability": "nonpayable",
      "type": "function"
    },
    {
      "inputs": [],
      "name": "getBalance",
      "outputs": [
        {
          "internalType": "uint256",
          "name": "",
          "type": "uint256"
        }
      ],
      "stateMutability": "view",
      "type": "function"
    },
    {
      "inputs": [],
      "name": "getBalanceSelector",
      "outputs": [
        {
          "internalType": "bytes4",
          "name": "",
          "type": "bytes4"
        }
      ],
      "stateMutability": "pure",
      "type": "function"
    },
    {
      "inputs": [
        {
          "internalType": "bytes",
          "name": "data",
          "type": "bytes"
        }
      ],
      "name": "harvest",
      "outputs": [],
      "stateMutability": "nonpayable",
      "type": "function"
    },
    {
      "inputs": [
        {
          "internalType": "address",
          "name": "token",
          "type": "address"
        }
      ],
      "name": "knownRewardTokens",
      "outputs": [
        {
          "internalType": "bool",
          "name": "",
          "type": "bool"
        }
      ],
      "stateMutability": "view",
      "type": "function"
    },
    {
      "inputs": [],
      "name": "lastWinner",
      "outputs": [
        {
          "internalType": "address",
          "name": "",
          "type": "address"
        }
      ],
      "stateMutability": "view",
      "type": "function"
    },
    {
      "inputs": [],
      "name": "paused",
      "outputs": [
        {
          "internalType": "bool",
          "name": "",
          "type": "bool"
        }
      ],
      "stateMutability": "view",
      "type": "function"
    },
    {
      "inputs": [],
      "name": "protocol",
      "outputs": [
        {
          "internalType": "address",
          "name": "",
          "type": "address"
        }
      ],
      "stateMutability": "pure",
      "type": "function"
    },
    {
      "inputs": [
        {
          "internalType": "bytes4",
          "name": "selector",
          "type": "bytes4"
        },
        {
          "internalType": "bytes",
          "name": "params",
          "type": "bytes"
        }
      ],
      "name": "queryProtocol",
      "outputs": [
        {
          "internalType": "bytes",
          "name": "",
          "type": "bytes"
        }
      ],
      "stateMutability": "view",
      "type": "function"
    },
    {
      "inputs": [],
      "name": "rewardTokensList",
      "outputs": [
        {
          "internalType": "address[]",
          "name": "",
          "type": "address[]"
        }
      ],
      "stateMutability": "view",
      "type": "function"
    },
    {
      "inputs": [
        {
          "internalType": "bool",
          "name": "_paused",
          "type": "bool"
        }
      ],
      "name": "setPaused",
      "outputs": [],
      "stateMutability": "nonpayable",
      "type": "function"
    },
    {
      "inputs": [
        {
          "internalType": "address",
          "name": "_vault",
          "type": "address"
        }
      ],
      "name": "setVault",
      "outputs": [],
      "stateMutability": "nonpayable",
      "type": "function"
    },
    {
      "inputs": [],
      "name": "totalDeposited",
      "outputs": [
        {
          "internalType": "uint256",
          "name": "",
          "type": "uint256"
        }
      ],
      "stateMutability": "view",
      "type": "function"
    },
    {
      "inputs": [],
      "name": "underlyingToken",
      "outputs": [
        {
          "internalType": "address",
          "name": "",
          "type": "address"
        }
      ],
      "stateMutability": "view",
      "type": "function"
    },
    {
      "inputs": [],
      "name": "vault",
      "outputs": [
        {
          "internalType": "address",
          "name": "",
          "type": "address"
        }
      ],
      "stateMutability": "view",
      "type": "function"
    },
    {
      "inputs": [],
      "name": "withdrawSelector",
      "outputs": [
        {
          "internalType": "bytes4",
          "name": "",
          "type": "bytes4"
        }
      ],
      "stateMutability": "pure",
      "type": "function"
    },
    {
      "inputs": [],
      "name": "yieldSource",
      "outputs": [
        {
          "internalType": "address",
          "name": "",
          "type": "address"
        }
      ],
      "stateMutability": "view",
      "type": "function"
    }
  ],
  "bytecode": "0x60e0346100ea57601f61117538819003918201601f19168301916001600160401b038311848410176100ef578084926060946040528339810103126100ea5761004781610105565b90610060604061005960208401610105565b9201610105565b60016000556080929092526001600160a01b031660a05260c05260405161105b908161011a823960805181818161019f015281816103410152818161092b01528181610bba0152610d77015260a05181818161020701528181610385015281816107a701528181610b5501528181610bff01528181610d280152610e32015260c051816106dc0152f35b600080fd5b634e487b7160e01b600052604160045260246000fd5b51906001600160a01b03821682036100ea5756fe608080604052600436101561001357600080fd5b60003560e01c90816312065fe014610e095750806316c38b3c14610d575780631c03e6cc146108175780632495a59914610d125780632c1c127614610b8757806338c1d46714610b2a578063504ee05a146107275780635805dc1614610b0657806359efcb15146108eb5780635c975abb146108c55780635d2e047014610727578063633f14ef1461081c5780636817031b146108175780637cf4c01b1461072c578063870240b314610727578063870e4bef146107275780638ce744261461070b578063b2470e5c146106c6578063bf0294d014610688578063ce5c7f6114610305578063e190febc146102d2578063e4b2fb7914610290578063ea8ec92a146101ce578063fbfa77cf14610189578063fe188184146101605763ff50abdc1461013d57600080fd5b3461015b57600036600319011261015b576020600354604051908152f35b600080fd5b3461015b57600036600319011261015b576004546040516001600160a01b039091168152602090f35b3461015b57600036600319011261015b576040517f00000000000000000000000000000000000000000000000000000000000000006001600160a01b03168152602090f35b3461015b57600036600319011261015b57604080516101ed8282610f16565b600181526020810190601f19830136833780511561027a577f00000000000000000000000000000000000000000000000000000000000000006001600160a01b031682528251602080825291519181018290529283929083019160005b818110610258575050500390f35b82516001600160a01b031684528594506020938401939092019160010161024a565b634e487b7160e01b600052603260045260246000fd5b3461015b57602036600319011261015b5760043560015481101561015b576102b9602091610efb565b905460405160039290921b1c6001600160a01b03168152f35b3461015b57602036600319011261015b5760043567ffffffffffffffff811161015b57610303903690600401610ecd565b005b3461015b57602036600319011261015b5760043567ffffffffffffffff811161015b57610336903690600401610ecd565b9061033f610fa8565b7f00000000000000000000000000000000000000000000000000000000000000006001600160a01b03163303610643576040516370a0823160e01b8152306004820152917f00000000000000000000000000000000000000000000000000000000000000006020846024816001600160a01b0385165afa93841561063757600094610600575b50600354808503948086116105ea571415806105df575b610425575b7fac04581c930eefb60cf2509de6e2388cbcde488697b9c13ca8dc5cddc8171860838361041b604051928392602084526020840191610f38565b0390a16001600055005b6000806040516020810190630382fd5960e51b825260048152610449602482610f16565b5190680100000000000000015afa3d156105d7573d9067ffffffffffffffff82116105c15760405191610486601f8201601f191660200184610f16565b82523d6000602084013e5b156105685760208180518101031261015b576020015167ffffffffffffffff811680910361015b57600154801561055257856105457fac04581c930eefb60cf2509de6e2388cbcde488697b9c13ca8dc5cddc8171860976105166020947fd1b693e213ce4bf8034bcd0bf93c8892052c4334939c8354078feb05a6ab71e79606610efb565b60018060a01b0391549060031b1c168096816bffffffffffffffffffffffff60a01b6004541617600455610f66565b604051908152a2836103e1565b634e487b7160e01b600052601260045260246000fd5b60405162461bcd60e51b815260206004820152602b60248201527f4661696c656420746f2066657463682072616e646f6d206e756d62657220667260448201526a37b690233637bb902b292360a91b6064820152608490fd5b634e487b7160e01b600052604160045260246000fd5b606090610491565b5060015415156103dc565b634e487b7160e01b600052601160045260246000fd5b90936020823d60201161062f575b8161061b60209383610f16565b8101031261062c57505192846103c5565b80fd5b3d915061060e565b6040513d6000823e3d90fd5b60405162461bcd60e51b815260206004820152601b60248201527f4f6e6c79207661756c742063616e2063616c6c206861727665737400000000006044820152606490fd5b3461015b57602036600319011261015b576004356001600160a01b0381169081900361015b5760005260026020526020604060002054604051908152f35b3461015b57600036600319011261015b576040517f00000000000000000000000000000000000000000000000000000000000000006001600160a01b03168152602090f35b3461015b57600036600319011261015b57602060405160008152f35b61070b565b3461015b57602036600319011261015b57600435610748610fa8565b80156107d95760207f6efedac2f5ab810f0507b22f5e395fa2d33dec417590d47b2b677e13ecdb0619916107cb6040516323b872dd60e01b84820152336024820152306044820152826064820152606481526107a5608482610f16565b7f0000000000000000000000000000000000000000000000000000000000000000610fca565b604051908152a16001600055005b60405162461bcd60e51b81526020600482015260166024820152755969656c64206d75737420626520706f73697469766560501b6044820152606490fd5b610ea8565b3461015b57604036600319011261015b576004356001600160e01b031981160361015b5760243567ffffffffffffffff811161015b57610860903690600401610ecd565b505060206040516108718282610f16565b60008152604051828193825282519081818401526000935b8285106108ac575050604092506000838284010152601f80199101168101030190f35b8481018201518686016040015293810193859350610889565b3461015b57600036600319011261015b57602060ff60045460a01c166040519015158152f35b3461015b57604036600319011261015b5760043560243567ffffffffffffffff811161015b5761091f903690600401610ecd565b5050610929610fa8565b7f00000000000000000000000000000000000000000000000000000000000000006001600160a01b03163303610ac85760ff60045460a01c16610a8e578015610a4957326000526002602052604060002054156109dc575b60207f4d6ce1e535dbade1c23defba91e23b8f791ce5edc0cc320257a2b364e4e3842691326000526002825260406000206109bd828254610f59565b90556109cb81600354610f59565b600355604051908152a16001600055005b600154680100000000000000008110156105c1577f4d6ce1e535dbade1c23defba91e23b8f791ce5edc0cc320257a2b364e4e3842691610a2482600160209401600155610efb565b81546001600160a01b0360039290921b91821b19163290911b17905591506109819050565b60405162461bcd60e51b815260206004820152601760248201527f416d6f756e74206d75737420626520706f7369746976650000000000000000006044820152606490fd5b60405162461bcd60e51b815260206004820152601260248201527114dd1c985d1959de481a5cc81c185d5cd95960721b6044820152606490fd5b60405162461bcd60e51b81526020600482015260166024820152754f6e6c79207661756c742063616e206578656375746560501b6044820152606490fd5b3461015b57600036600319011261015b576020604051680100000000000000018152f35b3461015b57602036600319011261015b576004356001600160a01b0381169081900361015b576040517f00000000000000000000000000000000000000000000000000000000000000006001600160a01b03169091148152602090f35b3461015b57602036600319011261015b5760043567ffffffffffffffff811161015b57610bb8903690600401610ecd565b7f00000000000000000000000000000000000000000000000000000000000000006001600160a01b0381163303610cd7576040516370a0823160e01b8152306004820152907f0000000000000000000000000000000000000000000000000000000000000000906020836024816001600160a01b0386165afa92831561063757600093610ca1575b5093610c8b91837f33707543538a74978cfbe255a9a187ce79ed7695a03a48d36b5a3cf8b569aa529681610c90575b5050506040519384938452604060208501526040840191610f38565b0390a1005b610c9992610f66565b858381610c6f565b90926020823d602011610ccf575b81610cbc60209383610f16565b8101031261062c57505191610c8b610c40565b3d9150610caf565b60405162461bcd60e51b815260206004820152601360248201527213db9b1e481d985d5b1d0818d85b88195e1a5d606a1b6044820152606490fd5b3461015b57600036600319011261015b576040517f00000000000000000000000000000000000000000000000000000000000000006001600160a01b03168152602090f35b3461015b57602036600319011261015b5760043580151580910361015b577f00000000000000000000000000000000000000000000000000000000000000006001600160a01b03163303610dc4576004805460ff60a01b191660a09290921b60ff60a01b16919091179055005b60405162461bcd60e51b815260206004820152601860248201527f4f6e6c79207661756c742063616e2073657420706175736500000000000000006044820152606490fd5b3461015b57600036600319011261015b576370a0823160e01b81523060048201526020816024817f00000000000000000000000000000000000000000000000000000000000000006001600160a01b03165afa801561063757600090610e75575b602090604051908152f35b506020813d602011610ea0575b81610e8f60209383610f16565b8101031261015b5760209051610e6a565b3d9150610e82565b3461015b57602036600319011261015b576004356001600160a01b0381160361015b57005b9181601f8401121561015b5782359167ffffffffffffffff831161015b576020838186019501011161015b57565b60015481101561027a57600160005260206000200190600090565b90601f8019910116810190811067ffffffffffffffff8211176105c157604052565b908060209392818452848401376000828201840152601f01601f1916010190565b919082018092116105ea57565b60405163a9059cbb60e01b60208201526001600160a01b039092166024830152604480830193909352918152610fa691610fa1606483610f16565b610fca565b565b600260005414610fb9576002600055565b633ee5aeb560e01b60005260046000fd5b906000602091828151910182855af115610637576000513d61101c57506001600160a01b0381163b155b610ffb5750565b635274afe760e01b60009081526001600160a01b0391909116600452602490fd5b60011415610ff456fea2646970667358221220c11881848308e9ba287fdccc1b86a83f6462e1663f33d2285bb64f78be9b63fb64736f6c634300081c0033",
  "linkReferences": {},
  "deployedLinkReferences": {}
}