{
  "_format": "hh-sol-artifact-1",
  "contractName": "CompoundV3Strategy",
  "sourceName": "contracts/strategies/ethereum/CompoundV3Strategy.sol",
  "abi": [
    {
      "inputs": [
        {
          "internalType": "address",
          "name": "_vault",
          "type": "address"
        }
      ],
      "stateMutability": "nonpayable",
      "type": "constructor"
    },
    {
      "inputs": [],
      "name": "AccessControlBadConfirmation",
      "type": "error"
    },
    {
      "inputs": [
        {
          "internalType": "address",
          "name": "account",
          "type": "address"
        },
        {
          "internalType": "bytes32",
          "name": "neededRole",
          "type": "bytes32"
        }
      ],
      "name": "AccessControlUnauthorizedAccount",
      "type": "error"
    },
    {
      "inputs": [
        {
          "internalType": "bytes",
          "name": "reason",
          "type": "bytes"
        }
      ],
      "name": "ClaimFailed",
      "type": "error"
    },
    {
      "inputs": [
        {
          "internalType": "bytes",
          "name": "reason",
          "type": "bytes"
        }
      ],
      "name": "DepositFailed",
      "type": "error"
    },
    {
      "inputs": [
        {
          "internalType": "bytes",
          "name": "reason",
          "type": "bytes"
        }
      ],
      "name": "GetBalanceFailed",
      "type": "error"
    },
    {
      "inputs": [],
      "name": "InvalidAmount",
      "type": "error"
    },
    {
      "inputs": [],
      "name": "InvalidTokenAddress",
      "type": "error"
    },
    {
      "inputs": [],
      "name": "NoUnderlyingBalance",
      "type": "error"
    },
    {
      "inputs": [],
      "name": "NoVaultSet",
      "type": "error"
    },
    {
      "inputs": [],
      "name": "OnlyVault",
      "type": "error"
    },
    {
      "inputs": [],
      "name": "ReentrancyGuardReentrantCall",
      "type": "error"
    },
    {
      "inputs": [
        {
          "internalType": "address",
          "name": "token",
          "type": "address"
        }
      ],
      "name": "SafeERC20FailedOperation",
      "type": "error"
    },
    {
      "inputs": [],
      "name": "StrategyPaused",
      "type": "error"
    },
    {
      "inputs": [
        {
          "internalType": "bytes",
          "name": "reason",
          "type": "bytes"
        }
      ],
      "name": "WithdrawFailed",
      "type": "error"
    },
    {
      "anonymous": false,
      "inputs": [
        {
          "indexed": false,
          "internalType": "uint256",
          "name": "amount",
          "type": "uint256"
        }
      ],
      "name": "Claim",
      "type": "event"
    },
    {
      "anonymous": false,
      "inputs": [
        {
          "indexed": false,
          "internalType": "bytes",
          "name": "reason",
          "type": "bytes"
        }
      ],
      "name": "ClaimRewardsFailed",
      "type": "event"
    },
    {
      "anonymous": false,
      "inputs": [
        {
          "indexed": false,
          "internalType": "uint256",
          "name": "amount",
          "type": "uint256"
        }
      ],
      "name": "Deposit",
      "type": "event"
    },
    {
      "anonymous": false,
      "inputs": [
        {
          "indexed": false,
          "internalType": "uint256",
          "name": "balance",
          "type": "uint256"
        },
        {
          "indexed": false,
          "internalType": "bytes",
          "name": "data",
          "type": "bytes"
        }
      ],
      "name": "EmergencyExited",
      "type": "event"
    },
    {
      "anonymous": false,
      "inputs": [
        {
          "indexed": false,
          "internalType": "uint256",
          "name": "amount",
          "type": "uint256"
        },
        {
          "indexed": false,
          "internalType": "bytes",
          "name": "data",
          "type": "bytes"
        }
      ],
      "name": "Executed",
      "type": "event"
    },
    {
      "anonymous": false,
      "inputs": [
        {
          "indexed": false,
          "internalType": "bytes",
          "name": "data",
          "type": "bytes"
        }
      ],
      "name": "Harvested",
      "type": "event"
    },
    {
      "anonymous": false,
      "inputs": [
        {
          "indexed": false,
          "internalType": "bool",
          "name": "isPaused",
          "type": "bool"
        }
      ],
      "name": "PausedState",
      "type": "event"
    },
    {
      "anonymous": false,
      "inputs": [
        {
          "indexed": true,
          "internalType": "address",
          "name": "token",
          "type": "address"
        }
      ],
      "name": "RewardTokenAdded",
      "type": "event"
    },
    {
      "anonymous": false,
      "inputs": [
        {
          "indexed": true,
          "internalType": "bytes32",
          "name": "role",
          "type": "bytes32"
        },
        {
          "indexed": true,
          "internalType": "bytes32",
          "name": "previousAdminRole",
          "type": "bytes32"
        },
        {
          "indexed": true,
          "internalType": "bytes32",
          "name": "newAdminRole",
          "type": "bytes32"
        }
      ],
      "name": "RoleAdminChanged",
      "type": "event"
    },
    {
      "anonymous": false,
      "inputs": [
        {
          "indexed": true,
          "internalType": "bytes32",
          "name": "role",
          "type": "bytes32"
        },
        {
          "indexed": true,
          "internalType": "address",
          "name": "account",
          "type": "address"
        },
        {
          "indexed": true,
          "internalType": "address",
          "name": "sender",
          "type": "address"
        }
      ],
      "name": "RoleGranted",
      "type": "event"
    },
    {
      "anonymous": false,
      "inputs": [
        {
          "indexed": true,
          "internalType": "bytes32",
          "name": "role",
          "type": "bytes32"
        },
        {
          "indexed": true,
          "internalType": "address",
          "name": "account",
          "type": "address"
        },
        {
          "indexed": true,
          "internalType": "address",
          "name": "sender",
          "type": "address"
        }
      ],
      "name": "RoleRevoked",
      "type": "event"
    },
    {
      "anonymous": false,
      "inputs": [
        {
          "indexed": true,
          "internalType": "address",
          "name": "token",
          "type": "address"
        },
        {
          "indexed": false,
          "internalType": "uint256",
          "name": "amount",
          "type": "uint256"
        }
      ],
      "name": "TokensForwarded",
      "type": "event"
    },
    {
      "anonymous": false,
      "inputs": [
        {
          "indexed": false,
          "internalType": "address",
          "name": "vault",
          "type": "address"
        }
      ],
      "name": "VaultSet",
      "type": "event"
    },
    {
      "anonymous": false,
      "inputs": [
        {
          "indexed": false,
          "internalType": "uint256",
          "name": "amount",
          "type": "uint256"
        }
      ],
      "name": "Withdraw",
      "type": "event"
    },
    {
      "inputs": [],
      "name": "COMET_USDC",
      "outputs": [
        {
          "internalType": "address",
          "name": "",
          "type": "address"
        }
      ],
      "stateMutability": "view",
      "type": "function"
    },
    {
      "inputs": [],
      "name": "DEFAULT_ADMIN_ROLE",
      "outputs": [
        {
          "internalType": "bytes32",
          "name": "",
          "type": "bytes32"
        }
      ],
      "stateMutability": "view",
      "type": "function"
    },
    {
      "inputs": [],
      "name": "USDC",
      "outputs": [
        {
          "internalType": "address",
          "name": "",
          "type": "address"
        }
      ],
      "stateMutability": "view",
      "type": "function"
    },
    {
      "inputs": [],
      "name": "VAULT_ROLE",
      "outputs": [
        {
          "internalType": "bytes32",
          "name": "",
          "type": "bytes32"
        }
      ],
      "stateMutability": "view",
      "type": "function"
    },
    {
      "inputs": [
        {
          "internalType": "address",
          "name": "tokenAddress",
          "type": "address"
        }
      ],
      "name": "addRewardToken",
      "outputs": [],
      "stateMutability": "nonpayable",
      "type": "function"
    },
    {
      "inputs": [
        {
          "internalType": "bytes",
          "name": "data",
          "type": "bytes"
        }
      ],
      "name": "claimRewards",
      "outputs": [],
      "stateMutability": "nonpayable",
      "type": "function"
    },
    {
      "inputs": [],
      "name": "claimSelector",
      "outputs": [
        {
          "internalType": "bytes4",
          "name": "",
          "type": "bytes4"
        }
      ],
      "stateMutability": "pure",
      "type": "function"
    },
    {
      "inputs": [],
      "name": "deploymentTime",
      "outputs": [
        {
          "internalType": "uint256",
          "name": "",
          "type": "uint256"
        }
      ],
      "stateMutability": "view",
      "type": "function"
    },
    {
      "inputs": [],
      "name": "depositSelector",
      "outputs": [
        {
          "internalType": "bytes4",
          "name": "",
          "type": "bytes4"
        }
      ],
      "stateMutability": "pure",
      "type": "function"
    },
    {
      "inputs": [
        {
          "internalType": "bytes",
          "name": "data",
          "type": "bytes"
        }
      ],
      "name": "emergencyExit",
      "outputs": [],
      "stateMutability": "nonpayable",
      "type": "function"
    },
    {
      "inputs": [
        {
          "internalType": "uint256",
          "name": "amount",
          "type": "uint256"
        },
        {
          "internalType": "bytes",
          "name": "data",
          "type": "bytes"
        }
      ],
      "name": "execute",
      "outputs": [],
      "stateMutability": "nonpayable",
      "type": "function"
    },
    {
      "inputs": [],
      "name": "getBalance",
      "outputs": [
        {
          "internalType": "uint256",
          "name": "",
          "type": "uint256"
        }
      ],
      "stateMutability": "view",
      "type": "function"
    },
    {
      "inputs": [],
      "name": "getBalanceSelector",
      "outputs": [
        {
          "internalType": "bytes4",
          "name": "",
          "type": "bytes4"
        }
      ],
      "stateMutability": "pure",
      "type": "function"
    },
    {
      "inputs": [],
      "name": "getCurrentAPY",
      "outputs": [
        {
          "internalType": "uint256",
          "name": "apy",
          "type": "uint256"
        }
      ],
      "stateMutability": "view",
      "type": "function"
    },
    {
      "inputs": [],
      "name": "getCurrentSupplyRate",
      "outputs": [
        {
          "internalType": "uint64",
          "name": "rate",
          "type": "uint64"
        }
      ],
      "stateMutability": "view",
      "type": "function"
    },
    {
      "inputs": [],
      "name": "getHealthMetrics",
      "outputs": [
        {
          "internalType": "bool",
          "name": "healthy",
          "type": "bool"
        },
        {
          "internalType": "uint256[]",
          "name": "metrics",
          "type": "uint256[]"
        }
      ],
      "stateMutability": "view",
      "type": "function"
    },
    {
      "inputs": [
        {
          "internalType": "bytes32",
          "name": "role",
          "type": "bytes32"
        }
      ],
      "name": "getRoleAdmin",
      "outputs": [
        {
          "internalType": "bytes32",
          "name": "",
          "type": "bytes32"
        }
      ],
      "stateMutability": "view",
      "type": "function"
    },
    {
      "inputs": [
        {
          "internalType": "bytes32",
          "name": "role",
          "type": "bytes32"
        },
        {
          "internalType": "address",
          "name": "account",
          "type": "address"
        }
      ],
      "name": "grantRole",
      "outputs": [],
      "stateMutability": "nonpayable",
      "type": "function"
    },
    {
      "inputs": [
        {
          "internalType": "bytes",
          "name": "data",
          "type": "bytes"
        }
      ],
      "name": "harvest",
      "outputs": [],
      "stateMutability": "nonpayable",
      "type": "function"
    },
    {
      "inputs": [
        {
          "internalType": "bytes32",
          "name": "role",
          "type": "bytes32"
        },
        {
          "internalType": "address",
          "name": "account",
          "type": "address"
        }
      ],
      "name": "hasRole",
      "outputs": [
        {
          "internalType": "bool",
          "name": "",
          "type": "bool"
        }
      ],
      "stateMutability": "view",
      "type": "function"
    },
    {
      "inputs": [
        {
          "internalType": "address",
          "name": "token",
          "type": "address"
        }
      ],
      "name": "knownRewardTokens",
      "outputs": [
        {
          "internalType": "bool",
          "name": "",
          "type": "bool"
        }
      ],
      "stateMutability": "pure",
      "type": "function"
    },
    {
      "inputs": [],
      "name": "lastHarvest",
      "outputs": [
        {
          "internalType": "uint256",
          "name": "",
          "type": "uint256"
        }
      ],
      "stateMutability": "view",
      "type": "function"
    },
    {
      "inputs": [],
      "name": "paused",
      "outputs": [
        {
          "internalType": "bool",
          "name": "",
          "type": "bool"
        }
      ],
      "stateMutability": "view",
      "type": "function"
    },
    {
      "inputs": [],
      "name": "protocol",
      "outputs": [
        {
          "internalType": "address",
          "name": "",
          "type": "address"
        }
      ],
      "stateMutability": "pure",
      "type": "function"
    },
    {
      "inputs": [
        {
          "internalType": "bytes4",
          "name": "selector",
          "type": "bytes4"
        },
        {
          "internalType": "bytes",
          "name": "params",
          "type": "bytes"
        }
      ],
      "name": "queryProtocol",
      "outputs": [
        {
          "internalType": "bytes",
          "name": "",
          "type": "bytes"
        }
      ],
      "stateMutability": "view",
      "type": "function"
    },
    {
      "inputs": [
        {
          "internalType": "bytes32",
          "name": "role",
          "type": "bytes32"
        },
        {
          "internalType": "address",
          "name": "callerConfirmation",
          "type": "address"
        }
      ],
      "name": "renounceRole",
      "outputs": [],
      "stateMutability": "nonpayable",
      "type": "function"
    },
    {
      "inputs": [
        {
          "internalType": "bytes32",
          "name": "role",
          "type": "bytes32"
        },
        {
          "internalType": "address",
          "name": "account",
          "type": "address"
        }
      ],
      "name": "revokeRole",
      "outputs": [],
      "stateMutability": "nonpayable",
      "type": "function"
    },
    {
      "inputs": [],
      "name": "rewardTokensList",
      "outputs": [
        {
          "internalType": "address[]",
          "name": "",
          "type": "address[]"
        }
      ],
      "stateMutability": "pure",
      "type": "function"
    },
    {
      "inputs": [
        {
          "internalType": "bool",
          "name": "_paused",
          "type": "bool"
        }
      ],
      "name": "setPaused",
      "outputs": [],
      "stateMutability": "nonpayable",
      "type": "function"
    },
    {
      "inputs": [
        {
          "internalType": "address",
          "name": "_vault",
          "type": "address"
        }
      ],
      "name": "setVault",
      "outputs": [],
      "stateMutability": "nonpayable",
      "type": "function"
    },
    {
      "inputs": [
        {
          "internalType": "bytes4",
          "name": "interfaceId",
          "type": "bytes4"
        }
      ],
      "name": "supportsInterface",
      "outputs": [
        {
          "internalType": "bool",
          "name": "",
          "type": "bool"
        }
      ],
      "stateMutability": "view",
      "type": "function"
    },
    {
      "inputs": [],
      "name": "totalDeposited",
      "outputs": [
        {
          "internalType": "uint256",
          "name": "",
          "type": "uint256"
        }
      ],
      "stateMutability": "view",
      "type": "function"
    },
    {
      "inputs": [],
      "name": "underlyingToken",
      "outputs": [
        {
          "internalType": "address",
          "name": "",
          "type": "address"
        }
      ],
      "stateMutability": "pure",
      "type": "function"
    },
    {
      "inputs": [],
      "name": "vault",
      "outputs": [
        {
          "internalType": "address",
          "name": "",
          "type": "address"
        }
      ],
      "stateMutability": "view",
      "type": "function"
    },
    {
      "inputs": [],
      "name": "withdrawSelector",
      "outputs": [
        {
          "internalType": "bytes4",
          "name": "",
          "type": "bytes4"
        }
      ],
      "stateMutability": "pure",
      "type": "function"
    }
  ],
  "bytecode": "0x60a0806040523461014d57602081611e4d803803809161001f8285610166565b83398101031261014d57516001600160a01b0381169081810361014d576001600055600280546001600160a01b0319168317905542608081905260045561006f906100693361019f565b5061021b565b5060405163095ea7b360e01b815273c3d688b66703497daa19211eedff47f25384cdc360048201526000196024820152602081604481600073a0b86991c6218b36c1d19d4a2e9eb0ce3606eb485af1801561015a5761011a575b7fe7ae49f883c825b05681b3e00e8be6fdea9ed2a8a45e4c6ecb9390fc44cce615602083604051908152a1604051611b3990816102b482396080518181816102210152818161162b01526116a90152f35b6020813d602011610152575b8161013360209383610166565b8101031261014d5751801515810361014d575060206100c9565b600080fd5b3d9150610126565b6040513d6000823e3d90fd5b601f909101601f19168101906001600160401b0382119082101761018957604052565b634e487b7160e01b600052604160045260246000fd5b6001600160a01b0381166000908152600080516020611e0d833981519152602052604090205460ff16610215576001600160a01b03166000818152600080516020611e0d83398151915260205260408120805460ff19166001179055339190600080516020611ded8339815191528180a4600190565b50600090565b6001600160a01b0381166000908152600080516020611e2d833981519152602052604090205460ff16610215576001600160a01b03166000818152600080516020611e2d83398151915260205260408120805460ff191660011790553391907f31e0210044b4f6757ce6aa31f9c6e8d4896d24a755014887391a926c5224d95990600080516020611ded8339815191529080a460019056fe608080604052600436101561001357600080fd5b600090813560e01c90816301ffc9a7146111945750806312065fe01461117957806316c38b3c1461110b5780631c03e6cc146110c9578063248a9ca31461109b5780632495a599146107c05780632c1c127614610e8f5780632f2ff15d14610e4e57806336568abe14610e0957806338c1d46714610dc65780634166cc1014610797578063504ee05a14610da357806359efcb1514610afa5780635c74105f146109685780635c975abb146109425780635d2e04701461091f578063633f14ef146108c75780636817031b14610834578063870240b314610811578063870e4bef146107ef57806389a30271146107c05780638ce744261461079757806391d148541461074b578063962ca4961461072857806398c4f1ac146106ff578063a217fddf146106e3578063a874baf4146106b6578063ce5c7f6114610466578063d547741f1461041c578063e190febc146102db578063ea8ec92a14610244578063ecda10f514610209578063f1a392da146101eb578063fbfa77cf146101c25763ff50abdc146101a257600080fd5b346101bf57806003193601126101bf576020600354604051908152f35b80fd5b50346101bf57806003193601126101bf576002546040516001600160a01b039091168152602090f35b50346101bf57806003193601126101bf576020600454604051908152f35b50346101bf57806003193601126101bf5760206040517f00000000000000000000000000000000000000000000000000000000000000008152f35b50346101bf57806003193601126101bf57604080519161026482846112a0565b600183526020830190601f19830136833773a0b86991c6218b36c1d19d4a2e9eb0ce3606eb48610293856113df565b52825193849360208501916020865251809252840192915b8181106102b9575050500390f35b82516001600160a01b03168452859450602093840193909201916001016102ab565b50346101bf5760203660031901126101bf5760043567ffffffffffffffff81116104185761030d903690600401611229565b9060018060a01b0360025416331415806103e6575b6103d757600080516020611ac48339815191523b156103c85760405163bfe69c8d60e01b81523060048201528390818160248183600080516020611ac48339815191525af180156103cc576103b3575b50507fac04581c930eefb60cf2509de6e2388cbcde488697b9c13ca8dc5cddc8171860916103ad604051928392602084526020840191611367565b0390a180f35b816103bd916112a0565b6103c8578238610372565b8280fd5b6040513d84823e3d90fd5b638d1af8bd60e01b8352600483fd5b50600080516020611ae48339815191528352600160209081526040808520336000908152925290205460ff1615610322565b5080fd5b50346101bf5760403660031901126101bf5761046260043561043c611213565b9061045d61045882600052600160205260016040600020015490565b6117ee565b611a3d565b5080f35b50346101bf5760203660031901126101bf5760043567ffffffffffffffff811161041857610498903690600401611229565b9060018060a01b036002541633141580610684575b6103d7576104b961182b565b600080516020611ac48339815191523b156103c85760405163bfe69c8d60e01b81523060048201528390818160248183600080516020611ac48339815191525af180156103cc5761066f575b505061050f6112d8565b600354808211156106665761052391611442565b915b82610533575b836001815580f35b600080516020611ac48339815191523b156106625760405163f3fef3a360e01b815273a0b86991c6218b36c1d19d4a2e9eb0ce3606eb4860048201526024810184905284808260448183600080516020611ac48339815191525af19182610649575b50506105c3576105bf6105a661139f565b604051639e7e26a360e01b815291829160048301611257565b0390fd5b7f7bb2b3c10797baccb6f8c4791f1edd6ca2f0d028ee0eda64b01a9a57e3a653f760208461061c7fac04581c930eefb60cf2509de6e2388cbcde488697b9c13ca8dc5cddc81718609660018060a01b036002541661184d565b42600455604051908152a161063e604051928392602084526020840191611367565b0390a138808061052b565b81610653916112a0565b61065e578438610595565b8480fd5b8380fd5b50508291610525565b81610679916112a0565b6103c8578238610505565b50600080516020611ae48339815191528352600160209081526040808520336000908152925290205460ff16156104ad565b50346101bf57806003193601126101bf5760206106d16116ce565b67ffffffffffffffff60405191168152f35b50346101bf57806003193601126101bf57602090604051908152f35b50346101bf57806003193601126101bf576020604051600080516020611ae48339815191528152f35b50346101bf57806003193601126101bf5760206107436115f9565b604051908152f35b50346101bf5760403660031901126101bf576040610767611213565b9160043581526001602052209060018060a01b0316600052602052602060ff604060002054166040519015158152f35b50346101bf57806003193601126101bf576020604051600080516020611ac48339815191528152f35b50346101bf57806003193601126101bf57602060405173a0b86991c6218b36c1d19d4a2e9eb0ce3606eb488152f35b50346101bf57806003193601126101bf57604051629032ff60e51b8152602090f35b50346101bf57806003193601126101bf5760405163ce5c7f6160e01b8152602090f35b50346101bf5760203660031901126101bf5761084e6111fd565b61085661179b565b6001600160a01b0381169081156108b857816108ad6020927fe7ae49f883c825b05681b3e00e8be6fdea9ed2a8a45e4c6ecb9390fc44cce615946bffffffffffffffffffffffff60a01b60025416176002556118f3565b50604051908152a180f35b630f58058360e11b8352600483fd5b50346101bf5760403660031901126101bf576108e16111e6565b906024359067ffffffffffffffff82116101bf5761091b61090f846109093660048701611229565b91611485565b60405191829182611257565b0390f35b50346101bf57806003193601126101bf5760405163f3fef3a360e01b8152602090f35b50346101bf57806003193601126101bf57602060ff60025460a01c166040519015158152f35b50346101bf57806003193601126101bf57604051906109886080836112a0565b6003825260208201906060368337604051634b16524b60e11b8152602081600481305afa9081156103cc578291610ac3575b506109c4846113df565b526003548015610abc576109d66112d8565b6127108102908082046127101490151715610aa857906109f591611422565b6109fe84611402565b52610a0b60045442611442565b610a1484611412565b526064610a20846113df565b51119081610a92575b81610a7b575b6040939291935193849360408501911515855260406020860152518091526060840192915b818110610a62575050500390f35b8251845285945060209384019390920191600101610a54565b905062093a80610a8a84611412565b511090610a2f565b905061251c610aa084611402565b511190610a29565b634e487b7160e01b83526011600452602483fd5b50806109f5565b90506020813d602011610af2575b81610ade602093836112a0565b81010312610aed5751386109ba565b600080fd5b3d9150610ad1565b50346101bf5760403660031901126101bf5760043560243567ffffffffffffffff81116103c857610b2f903690600401611229565b60025490939190336001600160a01b038216141580610d71575b6103d75760a01c60ff16610d6257610b5f61182b565b8215610d5357602082604051828101906323b872dd60e01b825233602482015230604482015286606482015260648152610b9a6084826112a0565b51908273a0b86991c6218b36c1d19d4a2e9eb0ce3606eb485af115610d465781513d610d3d575073a0b86991c6218b36c1d19d4a2e9eb0ce3606eb483b155b610d1657600080516020611ac48339815191523b1561041857604051631e573fb760e31b815273a0b86991c6218b36c1d19d4a2e9eb0ce3606eb4860048201526024810184905282808260448183600080516020611ac48339815191525af19182610d01575b5050610c74576105bf83610c5b610c5461139f565b913361184d565b60405163f8e68f2360e01b815291829160048301611257565b9091600354818101809111610ced577f2e733a17851169f232b3859260eb3ad2a086afd54e999eb4ea9afb7791702e419394610ce3916003557f4d6ce1e535dbade1c23defba91e23b8f791ce5edc0cc320257a2b364e4e384266020604051858152a160405193849384611388565b0390a16001815580f35b634e487b7160e01b84526011600452602484fd5b81610d0b916112a0565b6103c8578238610c3f565b635274afe760e01b825273a0b86991c6218b36c1d19d4a2e9eb0ce3606eb48600452602482fd5b60011415610bd9565b50604051903d90823e3d90fd5b63162908e360e11b8252600482fd5b63e628b94960e01b8252600482fd5b50600080516020611ae48339815191528352600160209081526040808520336000908152925290205460ff1615610b49565b50346101bf57806003193601126101bf57604051631e573fb760e31b8152602090f35b50346101bf5760203660031901126101bf57602073a0b86991c6218b36c1d19d4a2e9eb0ce3606eb486001600160a01b03610dff6111fd565b1614604051908152f35b50346101bf5760403660031901126101bf57610e23611213565b336001600160a01b03821603610e3f5761046290600435611a3d565b63334bd91960e11b8252600482fd5b50346101bf5760403660031901126101bf57610462600435610e6e611213565b90610e8a61045882600052600160205260016040600020015490565b6119b5565b50346101bf5760203660031901126101bf5760043567ffffffffffffffff811161041857610ec1903690600401611229565b9060018060a01b03600254163314158061106b575b6103d757610ee261182b565b610eea6112d8565b801561105c57600080516020611ac48339815191523b15610662576040519063f3fef3a360e01b825273a0b86991c6218b36c1d19d4a2e9eb0ce3606eb4860048301526024820152838160448183600080516020611ac48339815191525af19081611048575b50610f79576105bf610f6061139f565b604051635685694560e11b815291829160048301611257565b6040516370a0823160e01b81523060048201529160208360248173a0b86991c6218b36c1d19d4a2e9eb0ce3606eb485afa92831561103d578493611007575b506002547f33707543538a74978cfbe255a9a187ce79ed7695a03a48d36b5a3cf8b569aa529391610ce391610ff79084906001600160a01b031661184d565b8560035560405193849384611388565b92506020833d602011611035575b81611022602093836112a0565b81010312610aed57915191610ce3610fb8565b3d9150611015565b6040513d86823e3d90fd5b84611055919592956112a0565b9238610f50565b630bc0b2c560e21b8452600484fd5b50600080516020611ae4833981519152835260016020908152604080852033865290915283205460ff1615610ed6565b50346101bf5760203660031901126101bf576020610743600435600052600160205260016040600020015490565b50346101bf5760203660031901126101bf576110e36111fd565b6110eb61179b565b6001600160a01b0316156110fc5780f35b630f58058360e11b8152600490fd5b50346101bf5760203660031901126101bf576004358015158091036104185760207f6c44c1c6e888a23752ec9c1d8f194bfb0ea295ccdb49b3da95d5be50c9db97699161115661179b565b6002805460ff60a01b191660a083901b60ff60a01b16179055604051908152a180f35b50346101bf57806003193601126101bf5760206107436112d8565b905034610418576020366003190112610418576020906001600160e01b03196111bb6111e6565b16637965db0b60e01b81149081156111d5575b5015158152f35b6301ffc9a760e01b149050836111ce565b600435906001600160e01b031982168203610aed57565b600435906001600160a01b0382168203610aed57565b602435906001600160a01b0382168203610aed57565b9181601f84011215610aed5782359167ffffffffffffffff8311610aed5760208381860195010111610aed57565b91909160208152825180602083015260005b81811061128a575060409293506000838284010152601f8019910116010190565b8060208092870101516040828601015201611269565b90601f8019910116810190811067ffffffffffffffff8211176112c257604052565b634e487b7160e01b600052604160045260246000fd5b6040516370a0823160e01b8152306004820152602081602481600080516020611ac48339815191525afa60009181611333575b5061133057604051634a12fe5760e01b81526020600482015260006024820152604490fd5b90565b9091506020813d60201161135f575b8161134f602093836112a0565b81010312610aed5751903861130b565b3d9150611342565b908060209392818452848401376000828201840152601f01601f1916010190565b604090611330949281528160208201520191611367565b3d156113da573d9067ffffffffffffffff82116112c257604051916113ce601f8201601f1916602001846112a0565b82523d6000602084013e565b606090565b8051156113ec5760200190565b634e487b7160e01b600052603260045260246000fd5b8051600110156113ec5760400190565b8051600210156113ec5760600190565b811561142c570490565b634e487b7160e01b600052601260045260246000fd5b9190820391821161144f57565b634e487b7160e01b600052601160045260246000fd5b90816020910312610aed575167ffffffffffffffff81168103610aed5790565b6001600160e01b0319169163d955759d60e01b831461154f575050637eb7113160e01b146114c2576040516114bb6020826112a0565b6000815290565b604051637eb7113160e01b8152602081600481600080516020611ac48339815191525afa6000918161151b575b5061150357506040516114bb6020826112a0565b604051906020820152602081526113306040826112a0565b9091506020813d602011611547575b81611537602093836112a0565b81010312610aed575190386114ef565b3d915061152a565b8192509060209181010312610aed5760405163d955759d60e01b815290356004820152602081602481600080516020611ac48339815191525afa600091816115c8575b506115a657506040516114bb6020826112a0565b67ffffffffffffffff60405191166020820152602081526113306040826112a0565b6115eb91925060203d6020116115f2575b6115e381836112a0565b810190611465565b9038611592565b503d6115d9565b6003548015908180156116a5575b61169e576116136112d8565b81811115611696578161162591611442565b916116507f000000000000000000000000000000000000000000000000000000000000000042611442565b6301e133808402938085046301e13380148115171561144f5764496cebb8000293808504612710149015171561144f5780830292830414171561144f5761133091611422565b505050600090565b5050600090565b50427f000000000000000000000000000000000000000000000000000000000000000014611607565b604051637eb7113160e01b8152602081600481600080516020611ac48339815191525afa60009181611767575b506117065750600090565b6040519063d955759d60e01b82526004820152602081602481600080516020611ac48339815191525afa90811561175b57600091611742575090565b611330915060203d6020116115f2576115e381836112a0565b6040513d6000823e3d90fd5b9091506020813d602011611793575b81611783602093836112a0565b81010312610aed575190386116fb565b3d9150611776565b3360009081527fa6eef7e35abe7026729641147f7915573c7e97b47efa546f5f6e3230263bcb49602052604090205460ff16156117d457565b63e2517d3f60e01b60005233600452600060245260446000fd5b600081815260016020908152604080832033845290915290205460ff16156118135750565b63e2517d3f60e01b6000523360045260245260446000fd5b60026000541461183c576002600055565b633ee5aeb560e01b60005260046000fd5b60405163a9059cbb60e01b60208201526001600160a01b0390911660248201526044808201929092529081526118846064826112a0565b6020600073a0b86991c6218b36c1d19d4a2e9eb0ce3606eb4892828151910182855af11561175b576000513d6118ea57506001600160a01b0381163b155b6118c95750565b635274afe760e01b60009081526001600160a01b0391909116600452602490fd5b600114156118c2565b6001600160a01b03811660009081527f81ca3e78767fe7984cabec333f0414457dbe87b59d50ac066de98618b846bf81602052604090205460ff166119af576001600160a01b031660008181527f81ca3e78767fe7984cabec333f0414457dbe87b59d50ac066de98618b846bf8160205260408120805460ff19166001179055339190600080516020611ae4833981519152907f2f8788117e7eff1d82e926ec794901d17c78024a50270940304540a733656f0d9080a4600190565b50600090565b60008181526001602090815260408083206001600160a01b038616845290915290205460ff1661169e5760008181526001602081815260408084206001600160a01b0396909616808552959091528220805460ff19169091179055339291907f2f8788117e7eff1d82e926ec794901d17c78024a50270940304540a733656f0d9080a4600190565b60008181526001602090815260408083206001600160a01b038616845290915290205460ff161561169e5760008181526001602090815260408083206001600160a01b0395909516808452949091528120805460ff19169055339291907ff6391f5c32d9c69d2a47ea670b442974b53935d1edc7fd64eb21e047a839171b9080a460019056fe000000000000000000000000c3d688b66703497daa19211eedff47f25384cdc331e0210044b4f6757ce6aa31f9c6e8d4896d24a755014887391a926c5224d959a26469706673582212207bb9389aa0c417786123a6754e9d034a50aa58e3d7afd9ebe452b78b52a314ae64736f6c634300081c00332f8788117e7eff1d82e926ec794901d17c78024a50270940304540a733656f0da6eef7e35abe7026729641147f7915573c7e97b47efa546f5f6e3230263bcb4981ca3e78767fe7984cabec333f0414457dbe87b59d50ac066de98618b846bf81",
  "linkReferences": {},
  "deployedLinkReferences": {}
}