{
  "_format": "hh-sol-artifact-1",
  "contractName": "AutoDepositProxy",
  "sourceName": "contracts/AutoDepositProxy.sol",
  "abi": [
    {
      "inputs": [
        {
          "internalType": "address",
          "name": "_vault",
          "type": "address"
        },
        {
          "internalType": "address",
          "name": "_usdc",
          "type": "address"
        },
        {
          "internalType": "address",
          "name": "_beneficiary",
          "type": "address"
        }
      ],
      "stateMutability": "nonpayable",
      "type": "constructor"
    },
    {
      "anonymous": false,
      "inputs": [
        {
          "indexed": true,
          "internalType": "address",
          "name": "beneficiary",
          "type": "address"
        },
        {
          "indexed": false,
          "internalType": "uint256",
          "name": "usdcAmount",
          "type": "uint256"
        },
        {
          "indexed": false,
          "internalType": "uint256",
          "name": "sharesReceived",
          "type": "uint256"
        }
      ],
      "name": "AutoDeposit",
      "type": "event"
    },
    {
      "stateMutability": "nonpayable",
      "type": "fallback"
    },
    {
      "inputs": [],
      "name": "autoDeposit",
      "outputs": [],
      "stateMutability": "nonpayable",
      "type": "function"
    },
    {
      "inputs": [],
      "name": "beneficiary",
      "outputs": [
        {
          "internalType": "address",
          "name": "",
          "type": "address"
        }
      ],
      "stateMutability": "view",
      "type": "function"
    },
    {
      "inputs": [],
      "name": "usdc",
      "outputs": [
        {
          "internalType": "contract IERC20",
          "name": "",
          "type": "address"
        }
      ],
      "stateMutability": "view",
      "type": "function"
    },
    {
      "inputs": [],
      "name": "vault",
      "outputs": [
        {
          "internalType": "contract Vault",
          "name": "",
          "type": "address"
        }
      ],
      "stateMutability": "view",
      "type": "function"
    },
    {
      "stateMutability": "payable",
      "type": "receive"
    }
  ],
  "bytecode": "0x60e08060405234610107576060816104d0803803809161001f8285610120565b833981010312610107576020816044610039600094610159565b91610051604061004a868401610159565b9201610159565b9260018060a01b0316908160805260018060a01b0316928360a05260c052604051948593849263095ea7b360e01b84526004840152811960248401525af18015610114576100d7575b604051610362908161016e823960805181818160790152610235015260a05181818160d7015261019b015260c05181818161011901526101fb0152f35b6020813d60201161010c575b816100f060209383610120565b81010312610107575180151503610107573861009a565b600080fd5b3d91506100e3565b6040513d6000823e3d90fd5b601f909101601f19168101906001600160401b0382119082101761014357604052565b634e487b7160e01b600052604160045260246000fd5b51906001600160a01b03821682036101075756fe608080604052600436101561002a575b503615610023573461002557610023610180565b005b600080fd5b60003560e01c90816338af3eed14610106575080633e413bee146100c157806375d20a3b146100a85763fbfa77cf14610063573861000f565b34610025576000366003190112610025576040517f00000000000000000000000000000000000000000000000000000000000000006001600160a01b03168152602090f35b3461002557600036600319011261002557610023610180565b34610025576000366003190112610025576040517f00000000000000000000000000000000000000000000000000000000000000006001600160a01b03168152602090f35b34610025576000366003190112610025577f00000000000000000000000000000000000000000000000000000000000000006001600160a01b03168152602090f35b90601f8019910116810190811067ffffffffffffffff82111761016a57604052565b634e487b7160e01b600052604160045260246000fd5b6040516370a0823160e01b81523060048201526020816024817f00000000000000000000000000000000000000000000000000000000000000006001600160a01b03165afa9081156102eb576000916102f7575b50806101dd5750565b604051636e553f6560e01b8152600481018290526001600160a01b037f0000000000000000000000000000000000000000000000000000000000000000811660248301819052929190602090829060449082906000907f0000000000000000000000000000000000000000000000000000000000000000165af19081156102eb57600091610299575b507f89f2bf211df552a9cddc4f4fb8f63b5d5cd8bfdd5a74eebaf4e2cd143dcaf2739160409182519182526020820152a2565b90506020813d6020116102e3575b816102b460209383610148565b8101031261002557517f89f2bf211df552a9cddc4f4fb8f63b5d5cd8bfdd5a74eebaf4e2cd143dcaf273610266565b3d91506102a7565b6040513d6000823e3d90fd5b906020823d602011610324575b8161031160209383610148565b81010312610321575051386101d4565b80fd5b3d915061030456fea2646970667358221220ec9d5ea5e8db00d83dbcbcc9267005ba1d8d326394020bc79d38c4a8fb6da7f564736f6c634300081c0033",
  "linkReferences": {},
  "deployedLinkReferences": {}
}