{
  "_format": "hh-sol-artifact-1",
  "contractName": "MockVault",
  "sourceName": "contracts/mocks/MockContracts.sol",
  "abi": [
    {
      "inputs": [
        {
          "internalType": "address",
          "name": "strategy",
          "type": "address"
        },
        {
          "internalType": "uint256",
          "name": "amount",
          "type": "uint256"
        },
        {
          "internalType": "bytes",
          "name": "data",
          "type": "bytes"
        }
      ],
      "name": "depositToStrategy",
      "outputs": [],
      "stateMutability": "nonpayable",
      "type": "function"
    },
    {
      "inputs": [],
      "name": "getStrategies",
      "outputs": [
        {
          "internalType": "address[]",
          "name": "",
          "type": "address[]"
        }
      ],
      "stateMutability": "view",
      "type": "function"
    },
    {
      "inputs": [
        {
          "internalType": "address",
          "name": "",
          "type": "address"
        }
      ],
      "name": "isStrategy",
      "outputs": [
        {
          "internalType": "bool",
          "name": "",
          "type": "bool"
        }
      ],
      "stateMutability": "view",
      "type": "function"
    },
    {
      "inputs": [
        {
          "internalType": "uint256",
          "name": "",
          "type": "uint256"
        }
      ],
      "name": "strategies",
      "outputs": [
        {
          "internalType": "address",
          "name": "",
          "type": "address"
        }
      ],
      "stateMutability": "view",
      "type": "function"
    }
  ],
  "bytecode": "0x608060405234801561000f575f80fd5b506104f48061001d5f395ff3fe608060405234801561000f575f80fd5b506004361061004a575f3560e01c80632e8ebaae1461004e578063b49a60bb1461007e578063bd07fdac1461009c578063d574ea3d146100b8575b5f80fd5b61006860048036038101906100639190610231565b6100e8565b6040516100759190610276565b60405180910390f35b610086610105565b6040516100939190610346565b60405180910390f35b6100b660048036038101906100b191906103fa565b61018f565b005b6100d260048036038101906100cd919061046b565b610195565b6040516100df91906104a5565b60405180910390f35b6001602052805f5260405f205f915054906101000a900460ff1681565b60605f80548060200260200160405190810160405280929190818152602001828054801561018557602002820191905f5260205f20905b815f9054906101000a900473ffffffffffffffffffffffffffffffffffffffff1673ffffffffffffffffffffffffffffffffffffffff168152602001906001019080831161013c575b5050505050905090565b50505050565b5f81815481106101a3575f80fd5b905f5260205f20015f915054906101000a900473ffffffffffffffffffffffffffffffffffffffff1681565b5f80fd5b5f80fd5b5f73ffffffffffffffffffffffffffffffffffffffff82169050919050565b5f610200826101d7565b9050919050565b610210816101f6565b811461021a575f80fd5b50565b5f8135905061022b81610207565b92915050565b5f60208284031215610246576102456101cf565b5b5f6102538482850161021d565b91505092915050565b5f8115159050919050565b6102708161025c565b82525050565b5f6020820190506102895f830184610267565b92915050565b5f81519050919050565b5f82825260208201905092915050565b5f819050602082019050919050565b6102c1816101f6565b82525050565b5f6102d283836102b8565b60208301905092915050565b5f602082019050919050565b5f6102f48261028f565b6102fe8185610299565b9350610309836102a9565b805f5b8381101561033957815161032088826102c7565b975061032b836102de565b92505060018101905061030c565b5085935050505092915050565b5f6020820190508181035f83015261035e81846102ea565b905092915050565b5f819050919050565b61037881610366565b8114610382575f80fd5b50565b5f813590506103938161036f565b92915050565b5f80fd5b5f80fd5b5f80fd5b5f8083601f8401126103ba576103b9610399565b5b8235905067ffffffffffffffff8111156103d7576103d661039d565b5b6020830191508360018202830111156103f3576103f26103a1565b5b9250929050565b5f805f8060608587031215610412576104116101cf565b5b5f61041f8782880161021d565b945050602061043087828801610385565b935050604085013567ffffffffffffffff811115610451576104506101d3565b5b61045d878288016103a5565b925092505092959194509250565b5f602082840312156104805761047f6101cf565b5b5f61048d84828501610385565b91505092915050565b61049f816101f6565b82525050565b5f6020820190506104b85f830184610496565b9291505056fea26469706673582212207e55711d84176b293ea6547a1b6cda72f709d322cc16cf5e8d2e11c39ed1869264736f6c63430008140033",
  "linkReferences": {},
  "deployedLinkReferences": {}
}