{
  "_format": "hh-sol-artifact-1",
  "contractName": "MockRoyaltyVault",
  "sourceName": "contracts/mocks/MockContracts.sol",
  "abi": [
    {
      "inputs": [],
      "stateMutability": "nonpayable",
      "type": "constructor"
    },
    {
      "anonymous": false,
      "inputs": [
        {
          "indexed": true,
          "internalType": "address",
          "name": "owner",
          "type": "address"
        },
        {
          "indexed": true,
          "internalType": "address",
          "name": "spender",
          "type": "address"
        },
        {
          "indexed": false,
          "internalType": "uint256",
          "name": "value",
          "type": "uint256"
        }
      ],
      "name": "Approval",
      "type": "event"
    },
    {
      "anonymous": false,
      "inputs": [
        {
          "indexed": true,
          "internalType": "address",
          "name": "from",
          "type": "address"
        },
        {
          "indexed": true,
          "internalType": "address",
          "name": "to",
          "type": "address"
        },
        {
          "indexed": false,
          "internalType": "uint256",
          "name": "value",
          "type": "uint256"
        }
      ],
      "name": "Transfer",
      "type": "event"
    },
    {
      "inputs": [
        {
          "internalType": "address",
          "name": "owner",
          "type": "address"
        },
        {
          "internalType": "address",
          "name": "spender",
          "type": "address"
        }
      ],
      "name": "allowance",
      "outputs": [
        {
          "internalType": "uint256",
          "name": "",
          "type": "uint256"
        }
      ],
      "stateMutability": "view",
      "type": "function"
    },
    {
      "inputs": [
        {
          "internalType": "address",
          "name": "spender",
          "type": "address"
        },
        {
          "internalType": "uint256",
          "name": "amount",
          "type": "uint256"
        }
      ],
      "name": "approve",
      "outputs": [
        {
          "internalType": "bool",
          "name": "",
          "type": "bool"
        }
      ],
      "stateMutability": "nonpayable",
      "type": "function"
    },
    {
      "inputs": [
        {
          "internalType": "address",
          "name": "account",
          "type": "address"
        }
      ],
      "name": "balanceOf",
      "outputs": [
        {
          "internalType": "uint256",
          "name": "",
          "type": "uint256"
        }
      ],
      "stateMutability": "view",
      "type": "function"
    },
    {
      "inputs": [
        {
          "internalType": "address",
          "name": "claimer",
          "type": "address"
        },
        {
          "internalType": "address[]",
          "name": "tokens",
          "type": "address[]"
        }
      ],
      "name": "claimRevenueOnBehalfByTokenBatch",
      "outputs": [
        {
          "internalType": "uint256[]",
          "name": "",
          "type": "uint256[]"
        }
      ],
      "stateMutability": "nonpayable",
      "type": "function"
    },
    {
      "inputs": [
        {
          "internalType": "address",
          "name": "",
          "type": "address"
        },
        {
          "internalType": "address",
          "name": "",
          "type": "address"
        }
      ],
      "name": "claimableAmounts",
      "outputs": [
        {
          "internalType": "uint256",
          "name": "",
          "type": "uint256"
        }
      ],
      "stateMutability": "view",
      "type": "function"
    },
    {
      "inputs": [],
      "name": "decimals",
      "outputs": [
        {
          "internalType": "uint8",
          "name": "",
          "type": "uint8"
        }
      ],
      "stateMutability": "view",
      "type": "function"
    },
    {
      "inputs": [
        {
          "internalType": "address",
          "name": "spender",
          "type": "address"
        },
        {
          "internalType": "uint256",
          "name": "subtractedValue",
          "type": "uint256"
        }
      ],
      "name": "decreaseAllowance",
      "outputs": [
        {
          "internalType": "bool",
          "name": "",
          "type": "bool"
        }
      ],
      "stateMutability": "nonpayable",
      "type": "function"
    },
    {
      "inputs": [
        {
          "internalType": "address",
          "name": "spender",
          "type": "address"
        },
        {
          "internalType": "uint256",
          "name": "addedValue",
          "type": "uint256"
        }
      ],
      "name": "increaseAllowance",
      "outputs": [
        {
          "internalType": "bool",
          "name": "",
          "type": "bool"
        }
      ],
      "stateMutability": "nonpayable",
      "type": "function"
    },
    {
      "inputs": [
        {
          "internalType": "address",
          "name": "to",
          "type": "address"
        },
        {
          "internalType": "uint256",
          "name": "amount",
          "type": "uint256"
        }
      ],
      "name": "mint",
      "outputs": [],
      "stateMutability": "nonpayable",
      "type": "function"
    },
    {
      "inputs": [],
      "name": "name",
      "outputs": [
        {
          "internalType": "string",
          "name": "",
          "type": "string"
        }
      ],
      "stateMutability": "view",
      "type": "function"
    },
    {
      "inputs": [
        {
          "internalType": "address",
          "name": "token",
          "type": "address"
        },
        {
          "internalType": "address",
          "name": "claimer",
          "type": "address"
        },
        {
          "internalType": "uint256",
          "name": "amount",
          "type": "uint256"
        }
      ],
      "name": "setClaimableAmount",
      "outputs": [],
      "stateMutability": "nonpayable",
      "type": "function"
    },
    {
      "inputs": [],
      "name": "symbol",
      "outputs": [
        {
          "internalType": "string",
          "name": "",
          "type": "string"
        }
      ],
      "stateMutability": "view",
      "type": "function"
    },
    {
      "inputs": [],
      "name": "totalSupply",
      "outputs": [
        {
          "internalType": "uint256",
          "name": "",
          "type": "uint256"
        }
      ],
      "stateMutability": "view",
      "type": "function"
    },
    {
      "inputs": [
        {
          "internalType": "address",
          "name": "to",
          "type": "address"
        },
        {
          "internalType": "uint256",
          "name": "amount",
          "type": "uint256"
        }
      ],
      "name": "transfer",
      "outputs": [
        {
          "internalType": "bool",
          "name": "",
          "type": "bool"
        }
      ],
      "stateMutability": "nonpayable",
      "type": "function"
    },
    {
      "inputs": [
        {
          "internalType": "address",
          "name": "from",
          "type": "address"
        },
        {
          "internalType": "address",
          "name": "to",
          "type": "address"
        },
        {
          "internalType": "uint256",
          "name": "amount",
          "type": "uint256"
        }
      ],
      "name": "transferFrom",
      "outputs": [
        {
          "internalType": "bool",
          "name": "",
          "type": "bool"
        }
      ],
      "stateMutability": "nonpayable",
      "type": "function"
    }
  ],
  "bytecode": "0x608060405234801562000010575f80fd5b506040518060400160405280601281526020017f4d6f636b20526f79616c7479205661756c7400000000000000000000000000008152506040518060400160405280600381526020017f4d5256000000000000000000000000000000000000000000000000000000000081525081600390816200008e91906200030d565b508060049081620000a091906200030d565b505050620003f1565b5f81519050919050565b7f4e487b71000000000000000000000000000000000000000000000000000000005f52604160045260245ffd5b7f4e487b71000000000000000000000000000000000000000000000000000000005f52602260045260245ffd5b5f60028204905060018216806200012557607f821691505b6020821081036200013b576200013a620000e0565b5b50919050565b5f819050815f5260205f209050919050565b5f6020601f8301049050919050565b5f82821b905092915050565b5f600883026200019f7fffffffffffffffffffffffffffffffffffffffffffffffffffffffffffffffff8262000162565b620001ab868362000162565b95508019841693508086168417925050509392505050565b5f819050919050565b5f819050919050565b5f620001f5620001ef620001e984620001c3565b620001cc565b620001c3565b9050919050565b5f819050919050565b6200021083620001d5565b620002286200021f82620001fc565b8484546200016e565b825550505050565b5f90565b6200023e62000230565b6200024b81848462000205565b505050565b5b818110156200027257620002665f8262000234565b60018101905062000251565b5050565b601f821115620002c1576200028b8162000141565b620002968462000153565b81016020851015620002a6578190505b620002be620002b58562000153565b83018262000250565b50505b505050565b5f82821c905092915050565b5f620002e35f1984600802620002c6565b1980831691505092915050565b5f620002fd8383620002d2565b9150826002028217905092915050565b6200031882620000a9565b67ffffffffffffffff811115620003345762000333620000b3565b5b6200034082546200010d565b6200034d82828562000276565b5f60209050601f83116001811462000383575f84156200036e578287015190505b6200037a8582620002f0565b865550620003e9565b601f198416620003938662000141565b5f5b82811015620003bc5784890151825560018201915060208501945060208101905062000395565b86831015620003dc5784890151620003d8601f891682620002d2565b8355505b6001600288020188555050505b505050505050565b61189580620003ff5f395ff3fe608060405234801561000f575f80fd5b50600436106100f3575f3560e01c806339559ee011610095578063a457c2d711610064578063a457c2d714610297578063a9059cbb146102c7578063dd62ed3e146102f7578063ec5fe22214610327576100f3565b806339559ee01461021157806340c10f191461022d57806370a082311461024957806395d89b4114610279576100f3565b806323b872dd116100d157806323b872dd14610163578063313ce567146101935780633440512e146101b157806339509351146101e1576100f3565b806306fdde03146100f7578063095ea7b31461011557806318160ddd14610145575b5f80fd5b6100ff610357565b60405161010c9190610f0d565b60405180910390f35b61012f600480360381019061012a9190610fc2565b6103e7565b60405161013c919061101a565b60405180910390f35b61014d610409565b60405161015a9190611042565b60405180910390f35b61017d6004803603810190610178919061105b565b610412565b60405161018a919061101a565b60405180910390f35b61019b610440565b6040516101a891906110c6565b60405180910390f35b6101cb60048036038101906101c69190611140565b610448565b6040516101d89190611254565b60405180910390f35b6101fb60048036038101906101f69190610fc2565b610584565b604051610208919061101a565b60405180910390f35b61022b6004803603810190610226919061105b565b6105ba565b005b61024760048036038101906102429190610fc2565b61063c565b005b610263600480360381019061025e9190611274565b61064a565b6040516102709190611042565b60405180910390f35b61028161068f565b60405161028e9190610f0d565b60405180910390f35b6102b160048036038101906102ac9190610fc2565b61071f565b6040516102be919061101a565b60405180910390f35b6102e160048036038101906102dc9190610fc2565b610794565b6040516102ee919061101a565b60405180910390f35b610311600480360381019061030c919061129f565b6107b6565b60405161031e9190611042565b60405180910390f35b610341600480360381019061033c919061129f565b610838565b60405161034e9190611042565b60405180910390f35b6060600380546103669061130a565b80601f01602080910402602001604051908101604052809291908181526020018280546103929061130a565b80156103dd5780601f106103b4576101008083540402835291602001916103dd565b820191905f5260205f20905b8154815290600101906020018083116103c057829003601f168201915b5050505050905090565b5f806103f1610858565b90506103fe81858561085f565b600191505092915050565b5f600254905090565b5f8061041c610858565b9050610429858285610a22565b610434858585610aad565b60019150509392505050565b5f6012905090565b60605f8383905067ffffffffffffffff8111156104685761046761133a565b5b6040519080825280602002602001820160405280156104965781602001602082028036833780820191505090505b5090505f5b848490508110156105785760055f8686848181106104bc576104bb611367565b5b90506020020160208101906104d19190611274565b73ffffffffffffffffffffffffffffffffffffffff1673ffffffffffffffffffffffffffffffffffffffff1681526020019081526020015f205f8773ffffffffffffffffffffffffffffffffffffffff1673ffffffffffffffffffffffffffffffffffffffff1681526020019081526020015f205482828151811061055957610558611367565b5b6020026020010181815250508080610570906113c1565b91505061049b565b50809150509392505050565b5f8061058e610858565b90506105af8185856105a085896107b6565b6105aa9190611408565b61085f565b600191505092915050565b8060055f8573ffffffffffffffffffffffffffffffffffffffff1673ffffffffffffffffffffffffffffffffffffffff1681526020019081526020015f205f8473ffffffffffffffffffffffffffffffffffffffff1673ffffffffffffffffffffffffffffffffffffffff1681526020019081526020015f2081905550505050565b6106468282610d22565b5050565b5f805f8373ffffffffffffffffffffffffffffffffffffffff1673ffffffffffffffffffffffffffffffffffffffff1681526020019081526020015f20549050919050565b60606004805461069e9061130a565b80601f01602080910402602001604051908101604052809291908181526020018280546106ca9061130a565b80156107155780601f106106ec57610100808354040283529160200191610715565b820191905f5260205f20905b8154815290600101906020018083116106f857829003601f168201915b5050505050905090565b5f80610729610858565b90505f61073682866107b6565b90508381101561077b576040517f08c379a0000000000000000000000000000000000000000000000000000000008152600401610772906114ab565b60405180910390fd5b610788828686840361085f565b60019250505092915050565b5f8061079e610858565b90506107ab818585610aad565b600191505092915050565b5f60015f8473ffffffffffffffffffffffffffffffffffffffff1673ffffffffffffffffffffffffffffffffffffffff1681526020019081526020015f205f8373ffffffffffffffffffffffffffffffffffffffff1673ffffffffffffffffffffffffffffffffffffffff1681526020019081526020015f2054905092915050565b6005602052815f5260405f20602052805f5260405f205f91509150505481565b5f33905090565b5f73ffffffffffffffffffffffffffffffffffffffff168373ffffffffffffffffffffffffffffffffffffffff16036108cd576040517f08c379a00000000000000000000000000000000000000000000000000000000081526004016108c490611539565b60405180910390fd5b5f73ffffffffffffffffffffffffffffffffffffffff168273ffffffffffffffffffffffffffffffffffffffff160361093b576040517f08c379a0000000000000000000000000000000000000000000000000000000008152600401610932906115c7565b60405180910390fd5b8060015f8573ffffffffffffffffffffffffffffffffffffffff1673ffffffffffffffffffffffffffffffffffffffff1681526020019081526020015f205f8473ffffffffffffffffffffffffffffffffffffffff1673ffffffffffffffffffffffffffffffffffffffff1681526020019081526020015f20819055508173ffffffffffffffffffffffffffffffffffffffff168373ffffffffffffffffffffffffffffffffffffffff167f8c5be1e5ebec7d5bd14f71427d1e84f3dd0314c0f7b2291e5b200ac8c7c3b92583604051610a159190611042565b60405180910390a3505050565b5f610a2d84846107b6565b90507fffffffffffffffffffffffffffffffffffffffffffffffffffffffffffffffff8114610aa75781811015610a99576040517f08c379a0000000000000000000000000000000000000000000000000000000008152600401610a909061162f565b60405180910390fd5b610aa6848484840361085f565b5b50505050565b5f73ffffffffffffffffffffffffffffffffffffffff168373ffffffffffffffffffffffffffffffffffffffff1603610b1b576040517f08c379a0000000000000000000000000000000000000000000000000000000008152600401610b12906116bd565b60405180910390fd5b5f73ffffffffffffffffffffffffffffffffffffffff168273ffffffffffffffffffffffffffffffffffffffff1603610b89576040517f08c379a0000000000000000000000000000000000000000000000000000000008152600401610b809061174b565b60405180910390fd5b610b94838383610e79565b5f805f8573ffffffffffffffffffffffffffffffffffffffff1673ffffffffffffffffffffffffffffffffffffffff1681526020019081526020015f2054905081811015610c17576040517f08c379a0000000000000000000000000000000000000000000000000000000008152600401610c0e906117d9565b60405180910390fd5b8181035f808673ffffffffffffffffffffffffffffffffffffffff1673ffffffffffffffffffffffffffffffffffffffff1681526020019081526020015f2081905550815f808573ffffffffffffffffffffffffffffffffffffffff1673ffffffffffffffffffffffffffffffffffffffff1681526020019081526020015f205f828254610ca59190611408565b925050819055508273ffffffffffffffffffffffffffffffffffffffff168473ffffffffffffffffffffffffffffffffffffffff167fddf252ad1be2c89b69c2b068fc378daa952ba7f163c4a11628f55a4df523b3ef84604051610d099190611042565b60405180910390a3610d1c848484610e7e565b50505050565b5f73ffffffffffffffffffffffffffffffffffffffff168273ffffffffffffffffffffffffffffffffffffffff1603610d90576040517f08c379a0000000000000000000000000000000000000000000000000000000008152600401610d8790611841565b60405180910390fd5b610d9b5f8383610e79565b8060025f828254610dac9190611408565b92505081905550805f808473ffffffffffffffffffffffffffffffffffffffff1673ffffffffffffffffffffffffffffffffffffffff1681526020019081526020015f205f828254610dfe9190611408565b925050819055508173ffffffffffffffffffffffffffffffffffffffff165f73ffffffffffffffffffffffffffffffffffffffff167fddf252ad1be2c89b69c2b068fc378daa952ba7f163c4a11628f55a4df523b3ef83604051610e629190611042565b60405180910390a3610e755f8383610e7e565b5050565b505050565b505050565b5f81519050919050565b5f82825260208201905092915050565b5f5b83811015610eba578082015181840152602081019050610e9f565b5f8484015250505050565b5f601f19601f8301169050919050565b5f610edf82610e83565b610ee98185610e8d565b9350610ef9818560208601610e9d565b610f0281610ec5565b840191505092915050565b5f6020820190508181035f830152610f258184610ed5565b905092915050565b5f80fd5b5f80fd5b5f73ffffffffffffffffffffffffffffffffffffffff82169050919050565b5f610f5e82610f35565b9050919050565b610f6e81610f54565b8114610f78575f80fd5b50565b5f81359050610f8981610f65565b92915050565b5f819050919050565b610fa181610f8f565b8114610fab575f80fd5b50565b5f81359050610fbc81610f98565b92915050565b5f8060408385031215610fd857610fd7610f2d565b5b5f610fe585828601610f7b565b9250506020610ff685828601610fae565b9150509250929050565b5f8115159050919050565b61101481611000565b82525050565b5f60208201905061102d5f83018461100b565b92915050565b61103c81610f8f565b82525050565b5f6020820190506110555f830184611033565b92915050565b5f805f6060848603121561107257611071610f2d565b5b5f61107f86828701610f7b565b935050602061109086828701610f7b565b92505060406110a186828701610fae565b9150509250925092565b5f60ff82169050919050565b6110c0816110ab565b82525050565b5f6020820190506110d95f8301846110b7565b92915050565b5f80fd5b5f80fd5b5f80fd5b5f8083601f840112611100576110ff6110df565b5b8235905067ffffffffffffffff81111561111d5761111c6110e3565b5b602083019150836020820283011115611139576111386110e7565b5b9250929050565b5f805f6040848603121561115757611156610f2d565b5b5f61116486828701610f7b565b935050602084013567ffffffffffffffff81111561118557611184610f31565b5b611191868287016110eb565b92509250509250925092565b5f81519050919050565b5f82825260208201905092915050565b5f819050602082019050919050565b6111cf81610f8f565b82525050565b5f6111e083836111c6565b60208301905092915050565b5f602082019050919050565b5f6112028261119d565b61120c81856111a7565b9350611217836111b7565b805f5b8381101561124757815161122e88826111d5565b9750611239836111ec565b92505060018101905061121a565b5085935050505092915050565b5f6020820190508181035f83015261126c81846111f8565b905092915050565b5f6020828403121561128957611288610f2d565b5b5f61129684828501610f7b565b91505092915050565b5f80604083850312156112b5576112b4610f2d565b5b5f6112c285828601610f7b565b92505060206112d385828601610f7b565b9150509250929050565b7f4e487b71000000000000000000000000000000000000000000000000000000005f52602260045260245ffd5b5f600282049050600182168061132157607f821691505b602082108103611334576113336112dd565b5b50919050565b7f4e487b71000000000000000000000000000000000000000000000000000000005f52604160045260245ffd5b7f4e487b71000000000000000000000000000000000000000000000000000000005f52603260045260245ffd5b7f4e487b71000000000000000000000000000000000000000000000000000000005f52601160045260245ffd5b5f6113cb82610f8f565b91507fffffffffffffffffffffffffffffffffffffffffffffffffffffffffffffffff82036113fd576113fc611394565b5b600182019050919050565b5f61141282610f8f565b915061141d83610f8f565b925082820190508082111561143557611434611394565b5b92915050565b7f45524332303a2064656372656173656420616c6c6f77616e63652062656c6f775f8201527f207a65726f000000000000000000000000000000000000000000000000000000602082015250565b5f611495602583610e8d565b91506114a08261143b565b604082019050919050565b5f6020820190508181035f8301526114c281611489565b9050919050565b7f45524332303a20617070726f76652066726f6d20746865207a65726f206164645f8201527f7265737300000000000000000000000000000000000000000000000000000000602082015250565b5f611523602483610e8d565b915061152e826114c9565b604082019050919050565b5f6020820190508181035f83015261155081611517565b9050919050565b7f45524332303a20617070726f766520746f20746865207a65726f2061646472655f8201527f7373000000000000000000000000000000000000000000000000000000000000602082015250565b5f6115b1602283610e8d565b91506115bc82611557565b604082019050919050565b5f6020820190508181035f8301526115de816115a5565b9050919050565b7f45524332303a20696e73756666696369656e7420616c6c6f77616e63650000005f82015250565b5f611619601d83610e8d565b9150611624826115e5565b602082019050919050565b5f6020820190508181035f8301526116468161160d565b9050919050565b7f45524332303a207472616e736665722066726f6d20746865207a65726f2061645f8201527f6472657373000000000000000000000000000000000000000000000000000000602082015250565b5f6116a7602583610e8d565b91506116b28261164d565b604082019050919050565b5f6020820190508181035f8301526116d48161169b565b9050919050565b7f45524332303a207472616e7366657220746f20746865207a65726f20616464725f8201527f6573730000000000000000000000000000000000000000000000000000000000602082015250565b5f611735602383610e8d565b9150611740826116db565b604082019050919050565b5f6020820190508181035f83015261176281611729565b9050919050565b7f45524332303a207472616e7366657220616d6f756e74206578636565647320625f8201527f616c616e63650000000000000000000000000000000000000000000000000000602082015250565b5f6117c3602683610e8d565b91506117ce82611769565b604082019050919050565b5f6020820190508181035f8301526117f0816117b7565b9050919050565b7f45524332303a206d696e7420746f20746865207a65726f2061646472657373005f82015250565b5f61182b601f83610e8d565b9150611836826117f7565b602082019050919050565b5f6020820190508181035f8301526118588161181f565b905091905056fea2646970667358221220c5f2a91b2916b6f50be98cf39c7e8a0f7914dfbb0cd01cecf1c657e65a08597364736f6c63430008140033",
  "linkReferences": {},
  "deployedLinkReferences": {}
}