{
  "_format": "hh-sol-artifact-1",
  "contractName": "MockERC20",
  "sourceName": "contracts/mocks/MockContracts.sol",
  "abi": [
    {
      "inputs": [
        {
          "internalType": "string",
          "name": "name",
          "type": "string"
        },
        {
          "internalType": "string",
          "name": "symbol",
          "type": "string"
        }
      ],
      "stateMutability": "nonpayable",
      "type": "constructor"
    },
    {
      "anonymous": false,
      "inputs": [
        {
          "indexed": true,
          "internalType": "address",
          "name": "owner",
          "type": "address"
        },
        {
          "indexed": true,
          "internalType": "address",
          "name": "spender",
          "type": "address"
        },
        {
          "indexed": false,
          "internalType": "uint256",
          "name": "value",
          "type": "uint256"
        }
      ],
      "name": "Approval",
      "type": "event"
    },
    {
      "anonymous": false,
      "inputs": [
        {
          "indexed": true,
          "internalType": "address",
          "name": "from",
          "type": "address"
        },
        {
          "indexed": true,
          "internalType": "address",
          "name": "to",
          "type": "address"
        },
        {
          "indexed": false,
          "internalType": "uint256",
          "name": "value",
          "type": "uint256"
        }
      ],
      "name": "Transfer",
      "type": "event"
    },
    {
      "inputs": [
        {
          "internalType": "address",
          "name": "owner",
          "type": "address"
        },
        {
          "internalType": "address",
          "name": "spender",
          "type": "address"
        }
      ],
      "name": "allowance",
      "outputs": [
        {
          "internalType": "uint256",
          "name": "",
          "type": "uint256"
        }
      ],
      "stateMutability": "view",
      "type": "function"
    },
    {
      "inputs": [
        {
          "internalType": "address",
          "name": "spender",
          "type": "address"
        },
        {
          "internalType": "uint256",
          "name": "amount",
          "type": "uint256"
        }
      ],
      "name": "approve",
      "outputs": [
        {
          "internalType": "bool",
          "name": "",
          "type": "bool"
        }
      ],
      "stateMutability": "nonpayable",
      "type": "function"
    },
    {
      "inputs": [
        {
          "internalType": "address",
          "name": "account",
          "type": "address"
        }
      ],
      "name": "balanceOf",
      "outputs": [
        {
          "internalType": "uint256",
          "name": "",
          "type": "uint256"
        }
      ],
      "stateMutability": "view",
      "type": "function"
    },
    {
      "inputs": [
        {
          "internalType": "address",
          "name": "from",
          "type": "address"
        },
        {
          "internalType": "uint256",
          "name": "amount",
          "type": "uint256"
        }
      ],
      "name": "burn",
      "outputs": [],
      "stateMutability": "nonpayable",
      "type": "function"
    },
    {
      "inputs": [],
      "name": "decimals",
      "outputs": [
        {
          "internalType": "uint8",
          "name": "",
          "type": "uint8"
        }
      ],
      "stateMutability": "view",
      "type": "function"
    },
    {
      "inputs": [
        {
          "internalType": "address",
          "name": "spender",
          "type": "address"
        },
        {
          "internalType": "uint256",
          "name": "subtractedValue",
          "type": "uint256"
        }
      ],
      "name": "decreaseAllowance",
      "outputs": [
        {
          "internalType": "bool",
          "name": "",
          "type": "bool"
        }
      ],
      "stateMutability": "nonpayable",
      "type": "function"
    },
    {
      "inputs": [
        {
          "internalType": "address",
          "name": "spender",
          "type": "address"
        },
        {
          "internalType": "uint256",
          "name": "addedValue",
          "type": "uint256"
        }
      ],
      "name": "increaseAllowance",
      "outputs": [
        {
          "internalType": "bool",
          "name": "",
          "type": "bool"
        }
      ],
      "stateMutability": "nonpayable",
      "type": "function"
    },
    {
      "inputs": [
        {
          "internalType": "address",
          "name": "to",
          "type": "address"
        },
        {
          "internalType": "uint256",
          "name": "amount",
          "type": "uint256"
        }
      ],
      "name": "mint",
      "outputs": [],
      "stateMutability": "nonpayable",
      "type": "function"
    },
    {
      "inputs": [],
      "name": "name",
      "outputs": [
        {
          "internalType": "string",
          "name": "",
          "type": "string"
        }
      ],
      "stateMutability": "view",
      "type": "function"
    },
    {
      "inputs": [],
      "name": "symbol",
      "outputs": [
        {
          "internalType": "string",
          "name": "",
          "type": "string"
        }
      ],
      "stateMutability": "view",
      "type": "function"
    },
    {
      "inputs": [],
      "name": "totalSupply",
      "outputs": [
        {
          "internalType": "uint256",
          "name": "",
          "type": "uint256"
        }
      ],
      "stateMutability": "view",
      "type": "function"
    },
    {
      "inputs": [
        {
          "internalType": "address",
          "name": "to",
          "type": "address"
        },
        {
          "internalType": "uint256",
          "name": "amount",
          "type": "uint256"
        }
      ],
      "name": "transfer",
      "outputs": [
        {
          "internalType": "bool",
          "name": "",
          "type": "bool"
        }
      ],
      "stateMutability": "nonpayable",
      "type": "function"
    },
    {
      "inputs": [
        {
          "internalType": "address",
          "name": "from",
          "type": "address"
        },
        {
          "internalType": "address",
          "name": "to",
          "type": "address"
        },
        {
          "internalType": "uint256",
          "name": "amount",
          "type": "uint256"
        }
      ],
      "name": "transferFrom",
      "outputs": [
        {
          "internalType": "bool",
          "name": "",
          "type": "bool"
        }
      ],
      "stateMutability": "nonpayable",
      "type": "function"
    }
  ],
  "bytecode": "0x608060405234801562000010575f80fd5b5060405162001cb738038062001cb78339818101604052810190620000369190620001eb565b81818160039081620000499190620004a5565b5080600490816200005b9190620004a5565b505050505062000589565b5f604051905090565b5f80fd5b5f80fd5b5f80fd5b5f80fd5b5f601f19601f8301169050919050565b7f4e487b71000000000000000000000000000000000000000000000000000000005f52604160045260245ffd5b620000c7826200007f565b810181811067ffffffffffffffff82111715620000e957620000e86200008f565b5b80604052505050565b5f620000fd62000066565b90506200010b8282620000bc565b919050565b5f67ffffffffffffffff8211156200012d576200012c6200008f565b5b62000138826200007f565b9050602081019050919050565b5f5b838110156200016457808201518184015260208101905062000147565b5f8484015250505050565b5f620001856200017f8462000110565b620000f2565b905082815260208101848484011115620001a457620001a36200007b565b5b620001b184828562000145565b509392505050565b5f82601f830112620001d057620001cf62000077565b5b8151620001e28482602086016200016f565b91505092915050565b5f80604083850312156200020457620002036200006f565b5b5f83015167ffffffffffffffff81111562000224576200022362000073565b5b6200023285828601620001b9565b925050602083015167ffffffffffffffff81111562000256576200025562000073565b5b6200026485828601620001b9565b9150509250929050565b5f81519050919050565b7f4e487b71000000000000000000000000000000000000000000000000000000005f52602260045260245ffd5b5f6002820490506001821680620002bd57607f821691505b602082108103620002d357620002d262000278565b5b50919050565b5f819050815f5260205f209050919050565b5f6020601f8301049050919050565b5f82821b905092915050565b5f60088302620003377fffffffffffffffffffffffffffffffffffffffffffffffffffffffffffffffff82620002fa565b620003438683620002fa565b95508019841693508086168417925050509392505050565b5f819050919050565b5f819050919050565b5f6200038d6200038762000381846200035b565b62000364565b6200035b565b9050919050565b5f819050919050565b620003a8836200036d565b620003c0620003b78262000394565b84845462000306565b825550505050565b5f90565b620003d6620003c8565b620003e38184846200039d565b505050565b5b818110156200040a57620003fe5f82620003cc565b600181019050620003e9565b5050565b601f82111562000459576200042381620002d9565b6200042e84620002eb565b810160208510156200043e578190505b620004566200044d85620002eb565b830182620003e8565b50505b505050565b5f82821c905092915050565b5f6200047b5f19846008026200045e565b1980831691505092915050565b5f6200049583836200046a565b9150826002028217905092915050565b620004b0826200026e565b67ffffffffffffffff811115620004cc57620004cb6200008f565b5b620004d88254620002a5565b620004e58282856200040e565b5f60209050601f8311600181146200051b575f841562000506578287015190505b62000512858262000488565b86555062000581565b601f1984166200052b86620002d9565b5f5b8281101562000554578489015182556001820191506020850194506020810190506200052d565b8683101562000574578489015162000570601f8916826200046a565b8355505b6001600288020188555050505b505050505050565b61172080620005975f395ff3fe608060405234801561000f575f80fd5b50600436106100cd575f3560e01c806340c10f191161008a5780639dc29fac116100645780639dc29fac14610225578063a457c2d714610241578063a9059cbb14610271578063dd62ed3e146102a1576100cd565b806340c10f19146101bb57806370a08231146101d757806395d89b4114610207576100cd565b806306fdde03146100d1578063095ea7b3146100ef57806318160ddd1461011f57806323b872dd1461013d578063313ce5671461016d578063395093511461018b575b5f80fd5b6100d96102d1565b6040516100e69190610e83565b60405180910390f35b61010960048036038101906101049190610f34565b610361565b6040516101169190610f8c565b60405180910390f35b610127610383565b6040516101349190610fb4565b60405180910390f35b61015760048036038101906101529190610fcd565b61038c565b6040516101649190610f8c565b60405180910390f35b6101756103ba565b6040516101829190611038565b60405180910390f35b6101a560048036038101906101a09190610f34565b6103c2565b6040516101b29190610f8c565b60405180910390f35b6101d560048036038101906101d09190610f34565b6103f8565b005b6101f160048036038101906101ec9190611051565b610406565b6040516101fe9190610fb4565b60405180910390f35b61020f61044b565b60405161021c9190610e83565b60405180910390f35b61023f600480360381019061023a9190610f34565b6104db565b005b61025b60048036038101906102569190610f34565b6104e9565b6040516102689190610f8c565b60405180910390f35b61028b60048036038101906102869190610f34565b61055e565b6040516102989190610f8c565b60405180910390f35b6102bb60048036038101906102b6919061107c565b610580565b6040516102c89190610fb4565b60405180910390f35b6060600380546102e0906110e7565b80601f016020809104026020016040519081016040528092919081815260200182805461030c906110e7565b80156103575780601f1061032e57610100808354040283529160200191610357565b820191905f5260205f20905b81548152906001019060200180831161033a57829003601f168201915b5050505050905090565b5f8061036b610602565b9050610378818585610609565b600191505092915050565b5f600254905090565b5f80610396610602565b90506103a38582856107cc565b6103ae858585610857565b60019150509392505050565b5f6012905090565b5f806103cc610602565b90506103ed8185856103de8589610580565b6103e89190611144565b610609565b600191505092915050565b6104028282610acc565b5050565b5f805f8373ffffffffffffffffffffffffffffffffffffffff1673ffffffffffffffffffffffffffffffffffffffff1681526020019081526020015f20549050919050565b60606004805461045a906110e7565b80601f0160208091040260200160405190810160405280929190818152602001828054610486906110e7565b80156104d15780601f106104a8576101008083540402835291602001916104d1565b820191905f5260205f20905b8154815290600101906020018083116104b457829003601f168201915b5050505050905090565b6104e58282610c23565b5050565b5f806104f3610602565b90505f6105008286610580565b905083811015610545576040517f08c379a000000000000000000000000000000000000000000000000000000000815260040161053c906111e7565b60405180910390fd5b6105528286868403610609565b60019250505092915050565b5f80610568610602565b9050610575818585610857565b600191505092915050565b5f60015f8473ffffffffffffffffffffffffffffffffffffffff1673ffffffffffffffffffffffffffffffffffffffff1681526020019081526020015f205f8373ffffffffffffffffffffffffffffffffffffffff1673ffffffffffffffffffffffffffffffffffffffff1681526020019081526020015f2054905092915050565b5f33905090565b5f73ffffffffffffffffffffffffffffffffffffffff168373ffffffffffffffffffffffffffffffffffffffff1603610677576040517f08c379a000000000000000000000000000000000000000000000000000000000815260040161066e90611275565b60405180910390fd5b5f73ffffffffffffffffffffffffffffffffffffffff168273ffffffffffffffffffffffffffffffffffffffff16036106e5576040517f08c379a00000000000000000000000000000000000000000000000000000000081526004016106dc90611303565b60405180910390fd5b8060015f8573ffffffffffffffffffffffffffffffffffffffff1673ffffffffffffffffffffffffffffffffffffffff1681526020019081526020015f205f8473ffffffffffffffffffffffffffffffffffffffff1673ffffffffffffffffffffffffffffffffffffffff1681526020019081526020015f20819055508173ffffffffffffffffffffffffffffffffffffffff168373ffffffffffffffffffffffffffffffffffffffff167f8c5be1e5ebec7d5bd14f71427d1e84f3dd0314c0f7b2291e5b200ac8c7c3b925836040516107bf9190610fb4565b60405180910390a3505050565b5f6107d78484610580565b90507fffffffffffffffffffffffffffffffffffffffffffffffffffffffffffffffff81146108515781811015610843576040517f08c379a000000000000000000000000000000000000000000000000000000000815260040161083a9061136b565b60405180910390fd5b6108508484848403610609565b5b50505050565b5f73ffffffffffffffffffffffffffffffffffffffff168373ffffffffffffffffffffffffffffffffffffffff16036108c5576040517f08c379a00000000000000000000000000000000000000000000000000000000081526004016108bc906113f9565b60405180910390fd5b5f73ffffffffffffffffffffffffffffffffffffffff168273ffffffffffffffffffffffffffffffffffffffff1603610933576040517f08c379a000000000000000000000000000000000000000000000000000000000815260040161092a90611487565b60405180910390fd5b61093e838383610def565b5f805f8573ffffffffffffffffffffffffffffffffffffffff1673ffffffffffffffffffffffffffffffffffffffff1681526020019081526020015f20549050818110156109c1576040517f08c379a00000000000000000000000000000000000000000000000000000000081526004016109b890611515565b60405180910390fd5b8181035f808673ffffffffffffffffffffffffffffffffffffffff1673ffffffffffffffffffffffffffffffffffffffff1681526020019081526020015f2081905550815f808573ffffffffffffffffffffffffffffffffffffffff1673ffffffffffffffffffffffffffffffffffffffff1681526020019081526020015f205f828254610a4f9190611144565b925050819055508273ffffffffffffffffffffffffffffffffffffffff168473ffffffffffffffffffffffffffffffffffffffff167fddf252ad1be2c89b69c2b068fc378daa952ba7f163c4a11628f55a4df523b3ef84604051610ab39190610fb4565b60405180910390a3610ac6848484610df4565b50505050565b5f73ffffffffffffffffffffffffffffffffffffffff168273ffffffffffffffffffffffffffffffffffffffff1603610b3a576040517f08c379a0000000000000000000000000000000000000000000000000000000008152600401610b319061157d565b60405180910390fd5b610b455f8383610def565b8060025f828254610b569190611144565b92505081905550805f808473ffffffffffffffffffffffffffffffffffffffff1673ffffffffffffffffffffffffffffffffffffffff1681526020019081526020015f205f828254610ba89190611144565b925050819055508173ffffffffffffffffffffffffffffffffffffffff165f73ffffffffffffffffffffffffffffffffffffffff167fddf252ad1be2c89b69c2b068fc378daa952ba7f163c4a11628f55a4df523b3ef83604051610c0c9190610fb4565b60405180910390a3610c1f5f8383610df4565b5050565b5f73ffffffffffffffffffffffffffffffffffffffff168273ffffffffffffffffffffffffffffffffffffffff1603610c91576040517f08c379a0000000000000000000000000000000000000000000000000000000008152600401610c889061160b565b60405180910390fd5b610c9c825f83610def565b5f805f8473ffffffffffffffffffffffffffffffffffffffff1673ffffffffffffffffffffffffffffffffffffffff1681526020019081526020015f2054905081811015610d1f576040517f08c379a0000000000000000000000000000000000000000000000000000000008152600401610d1690611699565b60405180910390fd5b8181035f808573ffffffffffffffffffffffffffffffffffffffff1673ffffffffffffffffffffffffffffffffffffffff1681526020019081526020015f20819055508160025f828254610d7391906116b7565b925050819055505f73ffffffffffffffffffffffffffffffffffffffff168373ffffffffffffffffffffffffffffffffffffffff167fddf252ad1be2c89b69c2b068fc378daa952ba7f163c4a11628f55a4df523b3ef84604051610dd79190610fb4565b60405180910390a3610dea835f84610df4565b505050565b505050565b505050565b5f81519050919050565b5f82825260208201905092915050565b5f5b83811015610e30578082015181840152602081019050610e15565b5f8484015250505050565b5f601f19601f8301169050919050565b5f610e5582610df9565b610e5f8185610e03565b9350610e6f818560208601610e13565b610e7881610e3b565b840191505092915050565b5f6020820190508181035f830152610e9b8184610e4b565b905092915050565b5f80fd5b5f73ffffffffffffffffffffffffffffffffffffffff82169050919050565b5f610ed082610ea7565b9050919050565b610ee081610ec6565b8114610eea575f80fd5b50565b5f81359050610efb81610ed7565b92915050565b5f819050919050565b610f1381610f01565b8114610f1d575f80fd5b50565b5f81359050610f2e81610f0a565b92915050565b5f8060408385031215610f4a57610f49610ea3565b5b5f610f5785828601610eed565b9250506020610f6885828601610f20565b9150509250929050565b5f8115159050919050565b610f8681610f72565b82525050565b5f602082019050610f9f5f830184610f7d565b92915050565b610fae81610f01565b82525050565b5f602082019050610fc75f830184610fa5565b92915050565b5f805f60608486031215610fe457610fe3610ea3565b5b5f610ff186828701610eed565b935050602061100286828701610eed565b925050604061101386828701610f20565b9150509250925092565b5f60ff82169050919050565b6110328161101d565b82525050565b5f60208201905061104b5f830184611029565b92915050565b5f6020828403121561106657611065610ea3565b5b5f61107384828501610eed565b91505092915050565b5f806040838503121561109257611091610ea3565b5b5f61109f85828601610eed565b92505060206110b085828601610eed565b9150509250929050565b7f4e487b71000000000000000000000000000000000000000000000000000000005f52602260045260245ffd5b5f60028204905060018216806110fe57607f821691505b602082108103611111576111106110ba565b5b50919050565b7f4e487b71000000000000000000000000000000000000000000000000000000005f52601160045260245ffd5b5f61114e82610f01565b915061115983610f01565b925082820190508082111561117157611170611117565b5b92915050565b7f45524332303a2064656372656173656420616c6c6f77616e63652062656c6f775f8201527f207a65726f000000000000000000000000000000000000000000000000000000602082015250565b5f6111d1602583610e03565b91506111dc82611177565b604082019050919050565b5f6020820190508181035f8301526111fe816111c5565b9050919050565b7f45524332303a20617070726f76652066726f6d20746865207a65726f206164645f8201527f7265737300000000000000000000000000000000000000000000000000000000602082015250565b5f61125f602483610e03565b915061126a82611205565b604082019050919050565b5f6020820190508181035f83015261128c81611253565b9050919050565b7f45524332303a20617070726f766520746f20746865207a65726f2061646472655f8201527f7373000000000000000000000000000000000000000000000000000000000000602082015250565b5f6112ed602283610e03565b91506112f882611293565b604082019050919050565b5f6020820190508181035f83015261131a816112e1565b9050919050565b7f45524332303a20696e73756666696369656e7420616c6c6f77616e63650000005f82015250565b5f611355601d83610e03565b915061136082611321565b602082019050919050565b5f6020820190508181035f83015261138281611349565b9050919050565b7f45524332303a207472616e736665722066726f6d20746865207a65726f2061645f8201527f6472657373000000000000000000000000000000000000000000000000000000602082015250565b5f6113e3602583610e03565b91506113ee82611389565b604082019050919050565b5f6020820190508181035f830152611410816113d7565b9050919050565b7f45524332303a207472616e7366657220746f20746865207a65726f20616464725f8201527f6573730000000000000000000000000000000000000000000000000000000000602082015250565b5f611471602383610e03565b915061147c82611417565b604082019050919050565b5f6020820190508181035f83015261149e81611465565b9050919050565b7f45524332303a207472616e7366657220616d6f756e74206578636565647320625f8201527f616c616e63650000000000000000000000000000000000000000000000000000602082015250565b5f6114ff602683610e03565b915061150a826114a5565b604082019050919050565b5f6020820190508181035f83015261152c816114f3565b9050919050565b7f45524332303a206d696e7420746f20746865207a65726f2061646472657373005f82015250565b5f611567601f83610e03565b915061157282611533565b602082019050919050565b5f6020820190508181035f8301526115948161155b565b9050919050565b7f45524332303a206275726e2066726f6d20746865207a65726f206164647265735f8201527f7300000000000000000000000000000000000000000000000000000000000000602082015250565b5f6115f5602183610e03565b91506116008261159b565b604082019050919050565b5f6020820190508181035f830152611622816115e9565b9050919050565b7f45524332303a206275726e20616d6f756e7420657863656564732062616c616e5f8201527f6365000000000000000000000000000000000000000000000000000000000000602082015250565b5f611683602283610e03565b915061168e82611629565b604082019050919050565b5f6020820190508181035f8301526116b081611677565b9050919050565b5f6116c182610f01565b91506116cc83610f01565b92508282039050818111156116e4576116e3611117565b5b9291505056fea2646970667358221220c94650a62787174aae9f78afab66b8c6519a9da55b3034a11d0c1e9b10eb1d5764736f6c63430008140033",
  "linkReferences": {},
  "deployedLinkReferences": {}
}