{
  "_format": "hh-sol-artifact-1",
  "contractName": "MockDeBridge",
  "sourceName": "contracts/mocks/MockContracts.sol",
  "abi": [
    {
      "inputs": [
        {
          "internalType": "address",
          "name": "",
          "type": "address"
        },
        {
          "internalType": "address",
          "name": "",
          "type": "address"
        }
      ],
      "name": "conversionRates",
      "outputs": [
        {
          "internalType": "uint256",
          "name": "",
          "type": "uint256"
        }
      ],
      "stateMutability": "view",
      "type": "function"
    },
    {
      "inputs": [
        {
          "internalType": "address",
          "name": "tokenIn",
          "type": "address"
        },
        {
          "internalType": "address",
          "name": "tokenOut",
          "type": "address"
        },
        {
          "internalType": "uint256",
          "name": "amountIn",
          "type": "uint256"
        }
      ],
      "name": "getAmountOut",
      "outputs": [
        {
          "internalType": "uint256",
          "name": "",
          "type": "uint256"
        }
      ],
      "stateMutability": "view",
      "type": "function"
    },
    {
      "inputs": [
        {
          "internalType": "address",
          "name": "_tokenAddress",
          "type": "address"
        },
        {
          "internalType": "uint256",
          "name": "_amount",
          "type": "uint256"
        },
        {
          "internalType": "uint256",
          "name": "_chainIdTo",
          "type": "uint256"
        },
        {
          "internalType": "bytes",
          "name": "_receiver",
          "type": "bytes"
        },
        {
          "internalType": "uint256",
          "name": "_permit",
          "type": "uint256"
        },
        {
          "internalType": "bool",
          "name": "_useAssetFee",
          "type": "bool"
        },
        {
          "internalType": "uint32",
          "name": "_referralCode",
          "type": "uint32"
        },
        {
          "internalType": "bytes",
          "name": "_autoParams",
          "type": "bytes"
        }
      ],
      "name": "send",
      "outputs": [],
      "stateMutability": "payable",
      "type": "function"
    },
    {
      "inputs": [
        {
          "internalType": "address",
          "name": "tokenIn",
          "type": "address"
        },
        {
          "internalType": "address",
          "name": "tokenOut",
          "type": "address"
        },
        {
          "internalType": "uint256",
          "name": "rate",
          "type": "uint256"
        }
      ],
      "name": "setConversionRate",
      "outputs": [],
      "stateMutability": "nonpayable",
      "type": "function"
    },
    {
      "inputs": [
        {
          "components": [
            {
              "internalType": "address",
              "name": "tokenIn",
              "type": "address"
            },
            {
              "internalType": "address",
              "name": "tokenOut",
              "type": "address"
            },
            {
              "internalType": "uint256",
              "name": "amountIn",
              "type": "uint256"
            },
            {
              "internalType": "uint256",
              "name": "minAmountOut",
              "type": "uint256"
            },
            {
              "internalType": "uint256",
              "name": "deadline",
              "type": "uint256"
            },
            {
              "internalType": "bytes",
              "name": "extraData",
              "type": "bytes"
            }
          ],
          "internalType": "struct MockDeBridge.SwapParams",
          "name": "params",
          "type": "tuple"
        }
      ],
      "name": "swap",
      "outputs": [
        {
          "internalType": "uint256",
          "name": "",
          "type": "uint256"
        }
      ],
      "stateMutability": "nonpayable",
      "type": "function"
    }
  ],
  "bytecode": "0x608060405234801561000f575f80fd5b506109618061001d5f395ff3fe608060405260043610610049575f3560e01c80634aa066521461004d57806351152e2b146100895780635b469ce8146100b1578063886cdb6f146100ed578063d0394e5c14610109575b5f80fd5b348015610058575f80fd5b50610073600480360381019061006e9190610423565b610145565b6040516100809190610482565b60405180910390f35b348015610094575f80fd5b506100af60048036038101906100aa9190610423565b6101fb565b005b3480156100bc575f80fd5b506100d760048036038101906100d2919061049b565b61027c565b6040516100e49190610482565b60405180910390f35b610107600480360381019061010291906106e0565b61029b565b005b348015610114575f80fd5b5061012f600480360381019061012a91906107ee565b6102a6565b60405161013c9190610482565b60405180910390f35b5f805f808673ffffffffffffffffffffffffffffffffffffffff1673ffffffffffffffffffffffffffffffffffffffff1681526020019081526020015f205f8573ffffffffffffffffffffffffffffffffffffffff1673ffffffffffffffffffffffffffffffffffffffff1681526020019081526020015f205490505f81036101d157829150506101f4565b670de0b6b3a764000081846101e69190610862565b6101f091906108d0565b9150505b9392505050565b805f808573ffffffffffffffffffffffffffffffffffffffff1673ffffffffffffffffffffffffffffffffffffffff1681526020019081526020015f205f8473ffffffffffffffffffffffffffffffffffffffff1673ffffffffffffffffffffffffffffffffffffffff1681526020019081526020015f2081905550505050565b5f602052815f5260405f20602052805f5260405f205f91509150505481565b505050505050505050565b5f805f80845f0160208101906102bc9190610900565b73ffffffffffffffffffffffffffffffffffffffff1673ffffffffffffffffffffffffffffffffffffffff1681526020019081526020015f205f8460200160208101906103099190610900565b73ffffffffffffffffffffffffffffffffffffffff1673ffffffffffffffffffffffffffffffffffffffff1681526020019081526020015f205490505f8103610359578260400135915050610380565b670de0b6b3a76400008184604001356103729190610862565b61037c91906108d0565b9150505b919050565b5f604051905090565b5f80fd5b5f80fd5b5f73ffffffffffffffffffffffffffffffffffffffff82169050919050565b5f6103bf82610396565b9050919050565b6103cf816103b5565b81146103d9575f80fd5b50565b5f813590506103ea816103c6565b92915050565b5f819050919050565b610402816103f0565b811461040c575f80fd5b50565b5f8135905061041d816103f9565b92915050565b5f805f6060848603121561043a5761043961038e565b5b5f610447868287016103dc565b9350506020610458868287016103dc565b92505060406104698682870161040f565b9150509250925092565b61047c816103f0565b82525050565b5f6020820190506104955f830184610473565b92915050565b5f80604083850312156104b1576104b061038e565b5b5f6104be858286016103dc565b92505060206104cf858286016103dc565b9150509250929050565b5f80fd5b5f80fd5b5f601f19601f8301169050919050565b7f4e487b71000000000000000000000000000000000000000000000000000000005f52604160045260245ffd5b610527826104e1565b810181811067ffffffffffffffff82111715610546576105456104f1565b5b80604052505050565b5f610558610385565b9050610564828261051e565b919050565b5f67ffffffffffffffff821115610583576105826104f1565b5b61058c826104e1565b9050602081019050919050565b828183375f83830152505050565b5f6105b96105b484610569565b61054f565b9050828152602081018484840111156105d5576105d46104dd565b5b6105e0848285610599565b509392505050565b5f82601f8301126105fc576105fb6104d9565b5b813561060c8482602086016105a7565b91505092915050565b5f8115159050919050565b61062981610615565b8114610633575f80fd5b50565b5f8135905061064481610620565b92915050565b5f63ffffffff82169050919050565b6106628161064a565b811461066c575f80fd5b50565b5f8135905061067d81610659565b92915050565b5f80fd5b5f80fd5b5f8083601f8401126106a05761069f6104d9565b5b8235905067ffffffffffffffff8111156106bd576106bc610683565b5b6020830191508360018202830111156106d9576106d8610687565b5b9250929050565b5f805f805f805f805f6101008a8c0312156106fe576106fd61038e565b5b5f61070b8c828d016103dc565b995050602061071c8c828d0161040f565b985050604061072d8c828d0161040f565b97505060608a013567ffffffffffffffff81111561074e5761074d610392565b5b61075a8c828d016105e8565b965050608061076b8c828d0161040f565b95505060a061077c8c828d01610636565b94505060c061078d8c828d0161066f565b93505060e08a013567ffffffffffffffff8111156107ae576107ad610392565b5b6107ba8c828d0161068b565b92509250509295985092959850929598565b5f80fd5b5f60c082840312156107e5576107e46107cc565b5b81905092915050565b5f602082840312156108035761080261038e565b5b5f82013567ffffffffffffffff8111156108205761081f610392565b5b61082c848285016107d0565b91505092915050565b7f4e487b71000000000000000000000000000000000000000000000000000000005f52601160045260245ffd5b5f61086c826103f0565b9150610877836103f0565b9250828202610885816103f0565b9150828204841483151761089c5761089b610835565b5b5092915050565b7f4e487b71000000000000000000000000000000000000000000000000000000005f52601260045260245ffd5b5f6108da826103f0565b91506108e5836103f0565b9250826108f5576108f46108a3565b5b828204905092915050565b5f602082840312156109155761091461038e565b5b5f610922848285016103dc565b9150509291505056fea2646970667358221220382334fca6058884a0253fcb5ead7e9044f576b3bd67ad490d513ca94fbee43e64736f6c63430008140033",
  "linkReferences": {},
  "deployedLinkReferences": {}
}