{
  "_format": "hh-sol-artifact-1",
  "contractName": "MockUSDC",
  "sourceName": "contracts/mocks/MockUSDC.sol",
  "abi": [
    {
      "inputs": [],
      "stateMutability": "nonpayable",
      "type": "constructor"
    },
    {
      "anonymous": false,
      "inputs": [
        {
          "indexed": true,
          "internalType": "address",
          "name": "owner",
          "type": "address"
        },
        {
          "indexed": true,
          "internalType": "address",
          "name": "spender",
          "type": "address"
        },
        {
          "indexed": false,
          "internalType": "uint256",
          "name": "value",
          "type": "uint256"
        }
      ],
      "name": "Approval",
      "type": "event"
    },
    {
      "anonymous": false,
      "inputs": [
        {
          "indexed": true,
          "internalType": "address",
          "name": "previousOwner",
          "type": "address"
        },
        {
          "indexed": true,
          "internalType": "address",
          "name": "newOwner",
          "type": "address"
        }
      ],
      "name": "OwnershipTransferred",
      "type": "event"
    },
    {
      "anonymous": false,
      "inputs": [
        {
          "indexed": true,
          "internalType": "address",
          "name": "from",
          "type": "address"
        },
        {
          "indexed": true,
          "internalType": "address",
          "name": "to",
          "type": "address"
        },
        {
          "indexed": false,
          "internalType": "uint256",
          "name": "value",
          "type": "uint256"
        }
      ],
      "name": "Transfer",
      "type": "event"
    },
    {
      "inputs": [
        {
          "internalType": "address",
          "name": "owner",
          "type": "address"
        },
        {
          "internalType": "address",
          "name": "spender",
          "type": "address"
        }
      ],
      "name": "allowance",
      "outputs": [
        {
          "internalType": "uint256",
          "name": "",
          "type": "uint256"
        }
      ],
      "stateMutability": "view",
      "type": "function"
    },
    {
      "inputs": [
        {
          "internalType": "address",
          "name": "spender",
          "type": "address"
        },
        {
          "internalType": "uint256",
          "name": "amount",
          "type": "uint256"
        }
      ],
      "name": "approve",
      "outputs": [
        {
          "internalType": "bool",
          "name": "",
          "type": "bool"
        }
      ],
      "stateMutability": "nonpayable",
      "type": "function"
    },
    {
      "inputs": [
        {
          "internalType": "address",
          "name": "account",
          "type": "address"
        }
      ],
      "name": "balanceOf",
      "outputs": [
        {
          "internalType": "uint256",
          "name": "",
          "type": "uint256"
        }
      ],
      "stateMutability": "view",
      "type": "function"
    },
    {
      "inputs": [
        {
          "internalType": "uint256",
          "name": "amount",
          "type": "uint256"
        }
      ],
      "name": "burn",
      "outputs": [],
      "stateMutability": "nonpayable",
      "type": "function"
    },
    {
      "inputs": [],
      "name": "decimals",
      "outputs": [
        {
          "internalType": "uint8",
          "name": "",
          "type": "uint8"
        }
      ],
      "stateMutability": "pure",
      "type": "function"
    },
    {
      "inputs": [
        {
          "internalType": "address",
          "name": "spender",
          "type": "address"
        },
        {
          "internalType": "uint256",
          "name": "subtractedValue",
          "type": "uint256"
        }
      ],
      "name": "decreaseAllowance",
      "outputs": [
        {
          "internalType": "bool",
          "name": "",
          "type": "bool"
        }
      ],
      "stateMutability": "nonpayable",
      "type": "function"
    },
    {
      "inputs": [
        {
          "internalType": "uint256",
          "name": "amount",
          "type": "uint256"
        }
      ],
      "name": "faucet",
      "outputs": [],
      "stateMutability": "nonpayable",
      "type": "function"
    },
    {
      "inputs": [
        {
          "internalType": "address",
          "name": "spender",
          "type": "address"
        },
        {
          "internalType": "uint256",
          "name": "addedValue",
          "type": "uint256"
        }
      ],
      "name": "increaseAllowance",
      "outputs": [
        {
          "internalType": "bool",
          "name": "",
          "type": "bool"
        }
      ],
      "stateMutability": "nonpayable",
      "type": "function"
    },
    {
      "inputs": [
        {
          "internalType": "address",
          "name": "to",
          "type": "address"
        },
        {
          "internalType": "uint256",
          "name": "amount",
          "type": "uint256"
        }
      ],
      "name": "mint",
      "outputs": [],
      "stateMutability": "nonpayable",
      "type": "function"
    },
    {
      "inputs": [],
      "name": "name",
      "outputs": [
        {
          "internalType": "string",
          "name": "",
          "type": "string"
        }
      ],
      "stateMutability": "view",
      "type": "function"
    },
    {
      "inputs": [],
      "name": "owner",
      "outputs": [
        {
          "internalType": "address",
          "name": "",
          "type": "address"
        }
      ],
      "stateMutability": "view",
      "type": "function"
    },
    {
      "inputs": [],
      "name": "renounceOwnership",
      "outputs": [],
      "stateMutability": "nonpayable",
      "type": "function"
    },
    {
      "inputs": [],
      "name": "symbol",
      "outputs": [
        {
          "internalType": "string",
          "name": "",
          "type": "string"
        }
      ],
      "stateMutability": "view",
      "type": "function"
    },
    {
      "inputs": [],
      "name": "totalSupply",
      "outputs": [
        {
          "internalType": "uint256",
          "name": "",
          "type": "uint256"
        }
      ],
      "stateMutability": "view",
      "type": "function"
    },
    {
      "inputs": [
        {
          "internalType": "address",
          "name": "to",
          "type": "address"
        },
        {
          "internalType": "uint256",
          "name": "amount",
          "type": "uint256"
        }
      ],
      "name": "transfer",
      "outputs": [
        {
          "internalType": "bool",
          "name": "",
          "type": "bool"
        }
      ],
      "stateMutability": "nonpayable",
      "type": "function"
    },
    {
      "inputs": [
        {
          "internalType": "address",
          "name": "from",
          "type": "address"
        },
        {
          "internalType": "address",
          "name": "to",
          "type": "address"
        },
        {
          "internalType": "uint256",
          "name": "amount",
          "type": "uint256"
        }
      ],
      "name": "transferFrom",
      "outputs": [
        {
          "internalType": "bool",
          "name": "",
          "type": "bool"
        }
      ],
      "stateMutability": "nonpayable",
      "type": "function"
    },
    {
      "inputs": [
        {
          "internalType": "address",
          "name": "newOwner",
          "type": "address"
        }
      ],
      "name": "transferOwnership",
      "outputs": [],
      "stateMutability": "nonpayable",
      "type": "function"
    }
  ],
  "bytecode": "0x608060405234801562000010575f80fd5b506040518060400160405280600881526020017f55534420436f696e0000000000000000000000000000000000000000000000008152506040518060400160405280600481526020017f555344430000000000000000000000000000000000000000000000000000000081525081600390816200008e9190620005b4565b508060049081620000a09190620005b4565b505050620000c3620000b76200010c60201b60201c565b6200011360201b60201c565b620000d4336200011360201b60201c565b62000106336006600a620000e9919062000821565b633b9aca00620000fa919062000871565b620001d660201b60201c565b6200099f565b5f33905090565b5f60055f9054906101000a900473ffffffffffffffffffffffffffffffffffffffff1690508160055f6101000a81548173ffffffffffffffffffffffffffffffffffffffff021916908373ffffffffffffffffffffffffffffffffffffffff1602179055508173ffffffffffffffffffffffffffffffffffffffff168173ffffffffffffffffffffffffffffffffffffffff167f8be0079c531659141344cd1fd0a4f28419497f9722a3daafe3b4186f6b6457e060405160405180910390a35050565b5f73ffffffffffffffffffffffffffffffffffffffff168273ffffffffffffffffffffffffffffffffffffffff160362000247576040517f08c379a00000000000000000000000000000000000000000000000000000000081526004016200023e9062000919565b60405180910390fd5b6200025a5f83836200034660201b60201c565b8060025f8282546200026d919062000939565b92505081905550805f808473ffffffffffffffffffffffffffffffffffffffff1673ffffffffffffffffffffffffffffffffffffffff1681526020019081526020015f205f828254620002c1919062000939565b925050819055508173ffffffffffffffffffffffffffffffffffffffff165f73ffffffffffffffffffffffffffffffffffffffff167fddf252ad1be2c89b69c2b068fc378daa952ba7f163c4a11628f55a4df523b3ef8360405162000327919062000984565b60405180910390a3620003425f83836200034b60201b60201c565b5050565b505050565b505050565b5f81519050919050565b7f4e487b71000000000000000000000000000000000000000000000000000000005f52604160045260245ffd5b7f4e487b71000000000000000000000000000000000000000000000000000000005f52602260045260245ffd5b5f6002820490506001821680620003cc57607f821691505b602082108103620003e257620003e162000387565b5b50919050565b5f819050815f5260205f209050919050565b5f6020601f8301049050919050565b5f82821b905092915050565b5f60088302620004467fffffffffffffffffffffffffffffffffffffffffffffffffffffffffffffffff8262000409565b62000452868362000409565b95508019841693508086168417925050509392505050565b5f819050919050565b5f819050919050565b5f6200049c6200049662000490846200046a565b62000473565b6200046a565b9050919050565b5f819050919050565b620004b7836200047c565b620004cf620004c682620004a3565b84845462000415565b825550505050565b5f90565b620004e5620004d7565b620004f2818484620004ac565b505050565b5b8181101562000519576200050d5f82620004db565b600181019050620004f8565b5050565b601f82111562000568576200053281620003e8565b6200053d84620003fa565b810160208510156200054d578190505b620005656200055c85620003fa565b830182620004f7565b50505b505050565b5f82821c905092915050565b5f6200058a5f19846008026200056d565b1980831691505092915050565b5f620005a4838362000579565b9150826002028217905092915050565b620005bf8262000350565b67ffffffffffffffff811115620005db57620005da6200035a565b5b620005e78254620003b4565b620005f48282856200051d565b5f60209050601f8311600181146200062a575f841562000615578287015190505b62000621858262000597565b86555062000690565b601f1984166200063a86620003e8565b5f5b8281101562000663578489015182556001820191506020850194506020810190506200063c565b868310156200068357848901516200067f601f89168262000579565b8355505b6001600288020188555050505b505050505050565b7f4e487b71000000000000000000000000000000000000000000000000000000005f52601160045260245ffd5b5f8160011c9050919050565b5f808291508390505b60018511156200072257808604811115620006fa57620006f962000698565b5b60018516156200070a5780820291505b80810290506200071a85620006c5565b9450620006da565b94509492505050565b5f826200073c57600190506200080e565b816200074b575f90506200080e565b81600181146200076457600281146200076f57620007a5565b60019150506200080e565b60ff84111562000784576200078362000698565b5b8360020a9150848211156200079e576200079d62000698565b5b506200080e565b5060208310610133831016604e8410600b8410161715620007df5782820a905083811115620007d957620007d862000698565b5b6200080e565b620007ee8484846001620006d1565b9250905081840481111562000808576200080762000698565b5b81810290505b9392505050565b5f60ff82169050919050565b5f6200082d826200046a565b91506200083a8362000815565b9250620008697fffffffffffffffffffffffffffffffffffffffffffffffffffffffffffffffff84846200072b565b905092915050565b5f6200087d826200046a565b91506200088a836200046a565b92508282026200089a816200046a565b91508282048414831517620008b457620008b362000698565b5b5092915050565b5f82825260208201905092915050565b7f45524332303a206d696e7420746f20746865207a65726f2061646472657373005f82015250565b5f62000901601f83620008bb565b91506200090e82620008cb565b602082019050919050565b5f6020820190508181035f8301526200093281620008f3565b9050919050565b5f62000945826200046a565b915062000952836200046a565b92508282019050808211156200096d576200096c62000698565b5b92915050565b6200097e816200046a565b82525050565b5f602082019050620009995f83018462000973565b92915050565b611dbc80620009ad5f395ff3fe608060405234801561000f575f80fd5b5060043610610109575f3560e01c806357915897116100a057806395d89b411161006f57806395d89b41146102a3578063a457c2d7146102c1578063a9059cbb146102f1578063dd62ed3e14610321578063f2fde38b1461035157610109565b8063579158971461022f57806370a082311461024b578063715018a61461027b5780638da5cb5b1461028557610109565b8063313ce567116100dc578063313ce567146101a957806339509351146101c757806340c10f19146101f757806342966c681461021357610109565b806306fdde031461010d578063095ea7b31461012b57806318160ddd1461015b57806323b872dd14610179575b5f80fd5b61011561036d565b604051610122919061118e565b60405180910390f35b6101456004803603810190610140919061123f565b6103fd565b6040516101529190611297565b60405180910390f35b61016361041f565b60405161017091906112bf565b60405180910390f35b610193600480360381019061018e91906112d8565b610428565b6040516101a09190611297565b60405180910390f35b6101b1610456565b6040516101be9190611343565b60405180910390f35b6101e160048036038101906101dc919061123f565b61045e565b6040516101ee9190611297565b60405180910390f35b610211600480360381019061020c919061123f565b610494565b005b61022d6004803603810190610228919061135c565b6104aa565b005b6102496004803603810190610244919061135c565b6104b7565b005b61026560048036038101906102609190611387565b610521565b60405161027291906112bf565b60405180910390f35b610283610566565b005b61028d610579565b60405161029a91906113c1565b60405180910390f35b6102ab6105a1565b6040516102b8919061118e565b60405180910390f35b6102db60048036038101906102d6919061123f565b610631565b6040516102e89190611297565b60405180910390f35b61030b6004803603810190610306919061123f565b6106a6565b6040516103189190611297565b60405180910390f35b61033b600480360381019061033691906113da565b6106c8565b60405161034891906112bf565b60405180910390f35b61036b60048036038101906103669190611387565b61074a565b005b60606003805461037c90611445565b80601f01602080910402602001604051908101604052809291908181526020018280546103a890611445565b80156103f35780601f106103ca576101008083540402835291602001916103f3565b820191905f5260205f20905b8154815290600101906020018083116103d657829003601f168201915b5050505050905090565b5f806104076107cc565b90506104148185856107d3565b600191505092915050565b5f600254905090565b5f806104326107cc565b905061043f858285610996565b61044a858585610a21565b60019150509392505050565b5f6006905090565b5f806104686107cc565b905061048981858561047a85896106c8565b61048491906114a2565b6107d3565b600191505092915050565b61049c610c96565b6104a68282610d14565b5050565b6104b43382610e6b565b50565b6006600a6104c59190611604565b6127106104d2919061164e565b811115610514576040517f08c379a000000000000000000000000000000000000000000000000000000000815260040161050b906116ff565b60405180910390fd5b61051e3382610d14565b50565b5f805f8373ffffffffffffffffffffffffffffffffffffffff1673ffffffffffffffffffffffffffffffffffffffff1681526020019081526020015f20549050919050565b61056e610c96565b6105775f611037565b565b5f60055f9054906101000a900473ffffffffffffffffffffffffffffffffffffffff16905090565b6060600480546105b090611445565b80601f01602080910402602001604051908101604052809291908181526020018280546105dc90611445565b80156106275780601f106105fe57610100808354040283529160200191610627565b820191905f5260205f20905b81548152906001019060200180831161060a57829003601f168201915b5050505050905090565b5f8061063b6107cc565b90505f61064882866106c8565b90508381101561068d576040517f08c379a00000000000000000000000000000000000000000000000000000000081526004016106849061178d565b60405180910390fd5b61069a82868684036107d3565b60019250505092915050565b5f806106b06107cc565b90506106bd818585610a21565b600191505092915050565b5f60015f8473ffffffffffffffffffffffffffffffffffffffff1673ffffffffffffffffffffffffffffffffffffffff1681526020019081526020015f205f8373ffffffffffffffffffffffffffffffffffffffff1673ffffffffffffffffffffffffffffffffffffffff1681526020019081526020015f2054905092915050565b610752610c96565b5f73ffffffffffffffffffffffffffffffffffffffff168173ffffffffffffffffffffffffffffffffffffffff16036107c0576040517f08c379a00000000000000000000000000000000000000000000000000000000081526004016107b79061181b565b60405180910390fd5b6107c981611037565b50565b5f33905090565b5f73ffffffffffffffffffffffffffffffffffffffff168373ffffffffffffffffffffffffffffffffffffffff1603610841576040517f08c379a0000000000000000000000000000000000000000000000000000000008152600401610838906118a9565b60405180910390fd5b5f73ffffffffffffffffffffffffffffffffffffffff168273ffffffffffffffffffffffffffffffffffffffff16036108af576040517f08c379a00000000000000000000000000000000000000000000000000000000081526004016108a690611937565b60405180910390fd5b8060015f8573ffffffffffffffffffffffffffffffffffffffff1673ffffffffffffffffffffffffffffffffffffffff1681526020019081526020015f205f8473ffffffffffffffffffffffffffffffffffffffff1673ffffffffffffffffffffffffffffffffffffffff1681526020019081526020015f20819055508173ffffffffffffffffffffffffffffffffffffffff168373ffffffffffffffffffffffffffffffffffffffff167f8c5be1e5ebec7d5bd14f71427d1e84f3dd0314c0f7b2291e5b200ac8c7c3b9258360405161098991906112bf565b60405180910390a3505050565b5f6109a184846106c8565b90507fffffffffffffffffffffffffffffffffffffffffffffffffffffffffffffffff8114610a1b5781811015610a0d576040517f08c379a0000000000000000000000000000000000000000000000000000000008152600401610a049061199f565b60405180910390fd5b610a1a84848484036107d3565b5b50505050565b5f73ffffffffffffffffffffffffffffffffffffffff168373ffffffffffffffffffffffffffffffffffffffff1603610a8f576040517f08c379a0000000000000000000000000000000000000000000000000000000008152600401610a8690611a2d565b60405180910390fd5b5f73ffffffffffffffffffffffffffffffffffffffff168273ffffffffffffffffffffffffffffffffffffffff1603610afd576040517f08c379a0000000000000000000000000000000000000000000000000000000008152600401610af490611abb565b60405180910390fd5b610b088383836110fa565b5f805f8573ffffffffffffffffffffffffffffffffffffffff1673ffffffffffffffffffffffffffffffffffffffff1681526020019081526020015f2054905081811015610b8b576040517f08c379a0000000000000000000000000000000000000000000000000000000008152600401610b8290611b49565b60405180910390fd5b8181035f808673ffffffffffffffffffffffffffffffffffffffff1673ffffffffffffffffffffffffffffffffffffffff1681526020019081526020015f2081905550815f808573ffffffffffffffffffffffffffffffffffffffff1673ffffffffffffffffffffffffffffffffffffffff1681526020019081526020015f205f828254610c1991906114a2565b925050819055508273ffffffffffffffffffffffffffffffffffffffff168473ffffffffffffffffffffffffffffffffffffffff167fddf252ad1be2c89b69c2b068fc378daa952ba7f163c4a11628f55a4df523b3ef84604051610c7d91906112bf565b60405180910390a3610c908484846110ff565b50505050565b610c9e6107cc565b73ffffffffffffffffffffffffffffffffffffffff16610cbc610579565b73ffffffffffffffffffffffffffffffffffffffff1614610d12576040517f08c379a0000000000000000000000000000000000000000000000000000000008152600401610d0990611bb1565b60405180910390fd5b565b5f73ffffffffffffffffffffffffffffffffffffffff168273ffffffffffffffffffffffffffffffffffffffff1603610d82576040517f08c379a0000000000000000000000000000000000000000000000000000000008152600401610d7990611c19565b60405180910390fd5b610d8d5f83836110fa565b8060025f828254610d9e91906114a2565b92505081905550805f808473ffffffffffffffffffffffffffffffffffffffff1673ffffffffffffffffffffffffffffffffffffffff1681526020019081526020015f205f828254610df091906114a2565b925050819055508173ffffffffffffffffffffffffffffffffffffffff165f73ffffffffffffffffffffffffffffffffffffffff167fddf252ad1be2c89b69c2b068fc378daa952ba7f163c4a11628f55a4df523b3ef83604051610e5491906112bf565b60405180910390a3610e675f83836110ff565b5050565b5f73ffffffffffffffffffffffffffffffffffffffff168273ffffffffffffffffffffffffffffffffffffffff1603610ed9576040517f08c379a0000000000000000000000000000000000000000000000000000000008152600401610ed090611ca7565b60405180910390fd5b610ee4825f836110fa565b5f805f8473ffffffffffffffffffffffffffffffffffffffff1673ffffffffffffffffffffffffffffffffffffffff1681526020019081526020015f2054905081811015610f67576040517f08c379a0000000000000000000000000000000000000000000000000000000008152600401610f5e90611d35565b60405180910390fd5b8181035f808573ffffffffffffffffffffffffffffffffffffffff1673ffffffffffffffffffffffffffffffffffffffff1681526020019081526020015f20819055508160025f828254610fbb9190611d53565b925050819055505f73ffffffffffffffffffffffffffffffffffffffff168373ffffffffffffffffffffffffffffffffffffffff167fddf252ad1be2c89b69c2b068fc378daa952ba7f163c4a11628f55a4df523b3ef8460405161101f91906112bf565b60405180910390a3611032835f846110ff565b505050565b5f60055f9054906101000a900473ffffffffffffffffffffffffffffffffffffffff1690508160055f6101000a81548173ffffffffffffffffffffffffffffffffffffffff021916908373ffffffffffffffffffffffffffffffffffffffff1602179055508173ffffffffffffffffffffffffffffffffffffffff168173ffffffffffffffffffffffffffffffffffffffff167f8be0079c531659141344cd1fd0a4f28419497f9722a3daafe3b4186f6b6457e060405160405180910390a35050565b505050565b505050565b5f81519050919050565b5f82825260208201905092915050565b5f5b8381101561113b578082015181840152602081019050611120565b5f8484015250505050565b5f601f19601f8301169050919050565b5f61116082611104565b61116a818561110e565b935061117a81856020860161111e565b61118381611146565b840191505092915050565b5f6020820190508181035f8301526111a68184611156565b905092915050565b5f80fd5b5f73ffffffffffffffffffffffffffffffffffffffff82169050919050565b5f6111db826111b2565b9050919050565b6111eb816111d1565b81146111f5575f80fd5b50565b5f81359050611206816111e2565b92915050565b5f819050919050565b61121e8161120c565b8114611228575f80fd5b50565b5f8135905061123981611215565b92915050565b5f8060408385031215611255576112546111ae565b5b5f611262858286016111f8565b92505060206112738582860161122b565b9150509250929050565b5f8115159050919050565b6112918161127d565b82525050565b5f6020820190506112aa5f830184611288565b92915050565b6112b98161120c565b82525050565b5f6020820190506112d25f8301846112b0565b92915050565b5f805f606084860312156112ef576112ee6111ae565b5b5f6112fc868287016111f8565b935050602061130d868287016111f8565b925050604061131e8682870161122b565b9150509250925092565b5f60ff82169050919050565b61133d81611328565b82525050565b5f6020820190506113565f830184611334565b92915050565b5f60208284031215611371576113706111ae565b5b5f61137e8482850161122b565b91505092915050565b5f6020828403121561139c5761139b6111ae565b5b5f6113a9848285016111f8565b91505092915050565b6113bb816111d1565b82525050565b5f6020820190506113d45f8301846113b2565b92915050565b5f80604083850312156113f0576113ef6111ae565b5b5f6113fd858286016111f8565b925050602061140e858286016111f8565b9150509250929050565b7f4e487b71000000000000000000000000000000000000000000000000000000005f52602260045260245ffd5b5f600282049050600182168061145c57607f821691505b60208210810361146f5761146e611418565b5b50919050565b7f4e487b71000000000000000000000000000000000000000000000000000000005f52601160045260245ffd5b5f6114ac8261120c565b91506114b78361120c565b92508282019050808211156114cf576114ce611475565b5b92915050565b5f8160011c9050919050565b5f808291508390505b600185111561152a5780860481111561150657611505611475565b5b60018516156115155780820291505b8081029050611523856114d5565b94506114ea565b94509492505050565b5f8261154257600190506115fd565b8161154f575f90506115fd565b8160018114611565576002811461156f5761159e565b60019150506115fd565b60ff84111561158157611580611475565b5b8360020a91508482111561159857611597611475565b5b506115fd565b5060208310610133831016604e8410600b84101617156115d35782820a9050838111156115ce576115cd611475565b5b6115fd565b6115e084848460016114e1565b925090508184048111156115f7576115f6611475565b5b81810290505b9392505050565b5f61160e8261120c565b915061161983611328565b92506116467fffffffffffffffffffffffffffffffffffffffffffffffffffffffffffffffff8484611533565b905092915050565b5f6116588261120c565b91506116638361120c565b92508282026116718161120c565b9150828204841483151761168857611687611475565b5b5092915050565b7f4d6f636b555344433a204d61782031302c3030302055534443207065722066615f8201527f7563657400000000000000000000000000000000000000000000000000000000602082015250565b5f6116e960248361110e565b91506116f48261168f565b604082019050919050565b5f6020820190508181035f830152611716816116dd565b9050919050565b7f45524332303a2064656372656173656420616c6c6f77616e63652062656c6f775f8201527f207a65726f000000000000000000000000000000000000000000000000000000602082015250565b5f61177760258361110e565b91506117828261171d565b604082019050919050565b5f6020820190508181035f8301526117a48161176b565b9050919050565b7f4f776e61626c653a206e6577206f776e657220697320746865207a65726f20615f8201527f6464726573730000000000000000000000000000000000000000000000000000602082015250565b5f61180560268361110e565b9150611810826117ab565b604082019050919050565b5f6020820190508181035f830152611832816117f9565b9050919050565b7f45524332303a20617070726f76652066726f6d20746865207a65726f206164645f8201527f7265737300000000000000000000000000000000000000000000000000000000602082015250565b5f61189360248361110e565b915061189e82611839565b604082019050919050565b5f6020820190508181035f8301526118c081611887565b9050919050565b7f45524332303a20617070726f766520746f20746865207a65726f2061646472655f8201527f7373000000000000000000000000000000000000000000000000000000000000602082015250565b5f61192160228361110e565b915061192c826118c7565b604082019050919050565b5f6020820190508181035f83015261194e81611915565b9050919050565b7f45524332303a20696e73756666696369656e7420616c6c6f77616e63650000005f82015250565b5f611989601d8361110e565b915061199482611955565b602082019050919050565b5f6020820190508181035f8301526119b68161197d565b9050919050565b7f45524332303a207472616e736665722066726f6d20746865207a65726f2061645f8201527f6472657373000000000000000000000000000000000000000000000000000000602082015250565b5f611a1760258361110e565b9150611a22826119bd565b604082019050919050565b5f6020820190508181035f830152611a4481611a0b565b9050919050565b7f45524332303a207472616e7366657220746f20746865207a65726f20616464725f8201527f6573730000000000000000000000000000000000000000000000000000000000602082015250565b5f611aa560238361110e565b9150611ab082611a4b565b604082019050919050565b5f6020820190508181035f830152611ad281611a99565b9050919050565b7f45524332303a207472616e7366657220616d6f756e74206578636565647320625f8201527f616c616e63650000000000000000000000000000000000000000000000000000602082015250565b5f611b3360268361110e565b9150611b3e82611ad9565b604082019050919050565b5f6020820190508181035f830152611b6081611b27565b9050919050565b7f4f776e61626c653a2063616c6c6572206973206e6f7420746865206f776e65725f82015250565b5f611b9b60208361110e565b9150611ba682611b67565b602082019050919050565b5f6020820190508181035f830152611bc881611b8f565b9050919050565b7f45524332303a206d696e7420746f20746865207a65726f2061646472657373005f82015250565b5f611c03601f8361110e565b9150611c0e82611bcf565b602082019050919050565b5f6020820190508181035f830152611c3081611bf7565b9050919050565b7f45524332303a206275726e2066726f6d20746865207a65726f206164647265735f8201527f7300000000000000000000000000000000000000000000000000000000000000602082015250565b5f611c9160218361110e565b9150611c9c82611c37565b604082019050919050565b5f6020820190508181035f830152611cbe81611c85565b9050919050565b7f45524332303a206275726e20616d6f756e7420657863656564732062616c616e5f8201527f6365000000000000000000000000000000000000000000000000000000000000602082015250565b5f611d1f60228361110e565b9150611d2a82611cc5565b604082019050919050565b5f6020820190508181035f830152611d4c81611d13565b9050919050565b5f611d5d8261120c565b9150611d688361120c565b9250828203905081811115611d8057611d7f611475565b5b9291505056fea2646970667358221220799489b4c6e08316d7bcb63d5c322b3fc104abbf4021b4bcd3073a6a22a3cb0864736f6c63430008140033",
  "linkReferences": {},
  "deployedLinkReferences": {}
}