{
  "_format": "hh-sol-artifact-1",
  "contractName": "MockWETH",
  "sourceName": "contracts/mocks/MockWETH.sol",
  "abi": [
    {
      "inputs": [],
      "stateMutability": "nonpayable",
      "type": "constructor"
    },
    {
      "anonymous": false,
      "inputs": [
        {
          "indexed": true,
          "internalType": "address",
          "name": "owner",
          "type": "address"
        },
        {
          "indexed": true,
          "internalType": "address",
          "name": "spender",
          "type": "address"
        },
        {
          "indexed": false,
          "internalType": "uint256",
          "name": "value",
          "type": "uint256"
        }
      ],
      "name": "Approval",
      "type": "event"
    },
    {
      "anonymous": false,
      "inputs": [
        {
          "indexed": true,
          "internalType": "address",
          "name": "previousOwner",
          "type": "address"
        },
        {
          "indexed": true,
          "internalType": "address",
          "name": "newOwner",
          "type": "address"
        }
      ],
      "name": "OwnershipTransferred",
      "type": "event"
    },
    {
      "anonymous": false,
      "inputs": [
        {
          "indexed": true,
          "internalType": "address",
          "name": "from",
          "type": "address"
        },
        {
          "indexed": true,
          "internalType": "address",
          "name": "to",
          "type": "address"
        },
        {
          "indexed": false,
          "internalType": "uint256",
          "name": "value",
          "type": "uint256"
        }
      ],
      "name": "Transfer",
      "type": "event"
    },
    {
      "inputs": [
        {
          "internalType": "address",
          "name": "owner",
          "type": "address"
        },
        {
          "internalType": "address",
          "name": "spender",
          "type": "address"
        }
      ],
      "name": "allowance",
      "outputs": [
        {
          "internalType": "uint256",
          "name": "",
          "type": "uint256"
        }
      ],
      "stateMutability": "view",
      "type": "function"
    },
    {
      "inputs": [
        {
          "internalType": "address",
          "name": "spender",
          "type": "address"
        },
        {
          "internalType": "uint256",
          "name": "amount",
          "type": "uint256"
        }
      ],
      "name": "approve",
      "outputs": [
        {
          "internalType": "bool",
          "name": "",
          "type": "bool"
        }
      ],
      "stateMutability": "nonpayable",
      "type": "function"
    },
    {
      "inputs": [
        {
          "internalType": "address",
          "name": "account",
          "type": "address"
        }
      ],
      "name": "balanceOf",
      "outputs": [
        {
          "internalType": "uint256",
          "name": "",
          "type": "uint256"
        }
      ],
      "stateMutability": "view",
      "type": "function"
    },
    {
      "inputs": [
        {
          "internalType": "uint256",
          "name": "amount",
          "type": "uint256"
        }
      ],
      "name": "burn",
      "outputs": [],
      "stateMutability": "nonpayable",
      "type": "function"
    },
    {
      "inputs": [],
      "name": "decimals",
      "outputs": [
        {
          "internalType": "uint8",
          "name": "",
          "type": "uint8"
        }
      ],
      "stateMutability": "pure",
      "type": "function"
    },
    {
      "inputs": [
        {
          "internalType": "address",
          "name": "spender",
          "type": "address"
        },
        {
          "internalType": "uint256",
          "name": "subtractedValue",
          "type": "uint256"
        }
      ],
      "name": "decreaseAllowance",
      "outputs": [
        {
          "internalType": "bool",
          "name": "",
          "type": "bool"
        }
      ],
      "stateMutability": "nonpayable",
      "type": "function"
    },
    {
      "inputs": [],
      "name": "deposit",
      "outputs": [],
      "stateMutability": "payable",
      "type": "function"
    },
    {
      "inputs": [
        {
          "internalType": "uint256",
          "name": "amount",
          "type": "uint256"
        }
      ],
      "name": "faucet",
      "outputs": [],
      "stateMutability": "nonpayable",
      "type": "function"
    },
    {
      "inputs": [
        {
          "internalType": "address",
          "name": "spender",
          "type": "address"
        },
        {
          "internalType": "uint256",
          "name": "addedValue",
          "type": "uint256"
        }
      ],
      "name": "increaseAllowance",
      "outputs": [
        {
          "internalType": "bool",
          "name": "",
          "type": "bool"
        }
      ],
      "stateMutability": "nonpayable",
      "type": "function"
    },
    {
      "inputs": [
        {
          "internalType": "address",
          "name": "to",
          "type": "address"
        },
        {
          "internalType": "uint256",
          "name": "amount",
          "type": "uint256"
        }
      ],
      "name": "mint",
      "outputs": [],
      "stateMutability": "nonpayable",
      "type": "function"
    },
    {
      "inputs": [],
      "name": "name",
      "outputs": [
        {
          "internalType": "string",
          "name": "",
          "type": "string"
        }
      ],
      "stateMutability": "view",
      "type": "function"
    },
    {
      "inputs": [],
      "name": "owner",
      "outputs": [
        {
          "internalType": "address",
          "name": "",
          "type": "address"
        }
      ],
      "stateMutability": "view",
      "type": "function"
    },
    {
      "inputs": [],
      "name": "renounceOwnership",
      "outputs": [],
      "stateMutability": "nonpayable",
      "type": "function"
    },
    {
      "inputs": [],
      "name": "symbol",
      "outputs": [
        {
          "internalType": "string",
          "name": "",
          "type": "string"
        }
      ],
      "stateMutability": "view",
      "type": "function"
    },
    {
      "inputs": [],
      "name": "totalSupply",
      "outputs": [
        {
          "internalType": "uint256",
          "name": "",
          "type": "uint256"
        }
      ],
      "stateMutability": "view",
      "type": "function"
    },
    {
      "inputs": [
        {
          "internalType": "address",
          "name": "to",
          "type": "address"
        },
        {
          "internalType": "uint256",
          "name": "amount",
          "type": "uint256"
        }
      ],
      "name": "transfer",
      "outputs": [
        {
          "internalType": "bool",
          "name": "",
          "type": "bool"
        }
      ],
      "stateMutability": "nonpayable",
      "type": "function"
    },
    {
      "inputs": [
        {
          "internalType": "address",
          "name": "from",
          "type": "address"
        },
        {
          "internalType": "address",
          "name": "to",
          "type": "address"
        },
        {
          "internalType": "uint256",
          "name": "amount",
          "type": "uint256"
        }
      ],
      "name": "transferFrom",
      "outputs": [
        {
          "internalType": "bool",
          "name": "",
          "type": "bool"
        }
      ],
      "stateMutability": "nonpayable",
      "type": "function"
    },
    {
      "inputs": [
        {
          "internalType": "address",
          "name": "newOwner",
          "type": "address"
        }
      ],
      "name": "transferOwnership",
      "outputs": [],
      "stateMutability": "nonpayable",
      "type": "function"
    },
    {
      "inputs": [
        {
          "internalType": "uint256",
          "name": "amount",
          "type": "uint256"
        }
      ],
      "name": "withdraw",
      "outputs": [],
      "stateMutability": "nonpayable",
      "type": "function"
    },
    {
      "stateMutability": "payable",
      "type": "receive"
    }
  ],
  "bytecode": "0x608060405234801562000010575f80fd5b506040518060400160405280600d81526020017f57726170706564204574686572000000000000000000000000000000000000008152506040518060400160405280600481526020017f574554480000000000000000000000000000000000000000000000000000000081525081600390816200008e9190620005b4565b508060049081620000a09190620005b4565b505050620000c3620000b76200010c60201b60201c565b6200011360201b60201c565b620000d4336200011360201b60201c565b62000106336012600a620000e9919062000821565b6307270e00620000fa919062000871565b620001d660201b60201c565b6200099f565b5f33905090565b5f60055f9054906101000a900473ffffffffffffffffffffffffffffffffffffffff1690508160055f6101000a81548173ffffffffffffffffffffffffffffffffffffffff021916908373ffffffffffffffffffffffffffffffffffffffff1602179055508173ffffffffffffffffffffffffffffffffffffffff168173ffffffffffffffffffffffffffffffffffffffff167f8be0079c531659141344cd1fd0a4f28419497f9722a3daafe3b4186f6b6457e060405160405180910390a35050565b5f73ffffffffffffffffffffffffffffffffffffffff168273ffffffffffffffffffffffffffffffffffffffff160362000247576040517f08c379a00000000000000000000000000000000000000000000000000000000081526004016200023e9062000919565b60405180910390fd5b6200025a5f83836200034660201b60201c565b8060025f8282546200026d919062000939565b92505081905550805f808473ffffffffffffffffffffffffffffffffffffffff1673ffffffffffffffffffffffffffffffffffffffff1681526020019081526020015f205f828254620002c1919062000939565b925050819055508173ffffffffffffffffffffffffffffffffffffffff165f73ffffffffffffffffffffffffffffffffffffffff167fddf252ad1be2c89b69c2b068fc378daa952ba7f163c4a11628f55a4df523b3ef8360405162000327919062000984565b60405180910390a3620003425f83836200034b60201b60201c565b5050565b505050565b505050565b5f81519050919050565b7f4e487b71000000000000000000000000000000000000000000000000000000005f52604160045260245ffd5b7f4e487b71000000000000000000000000000000000000000000000000000000005f52602260045260245ffd5b5f6002820490506001821680620003cc57607f821691505b602082108103620003e257620003e162000387565b5b50919050565b5f819050815f5260205f209050919050565b5f6020601f8301049050919050565b5f82821b905092915050565b5f60088302620004467fffffffffffffffffffffffffffffffffffffffffffffffffffffffffffffffff8262000409565b62000452868362000409565b95508019841693508086168417925050509392505050565b5f819050919050565b5f819050919050565b5f6200049c6200049662000490846200046a565b62000473565b6200046a565b9050919050565b5f819050919050565b620004b7836200047c565b620004cf620004c682620004a3565b84845462000415565b825550505050565b5f90565b620004e5620004d7565b620004f2818484620004ac565b505050565b5b8181101562000519576200050d5f82620004db565b600181019050620004f8565b5050565b601f82111562000568576200053281620003e8565b6200053d84620003fa565b810160208510156200054d578190505b620005656200055c85620003fa565b830182620004f7565b50505b505050565b5f82821c905092915050565b5f6200058a5f19846008026200056d565b1980831691505092915050565b5f620005a4838362000579565b9150826002028217905092915050565b620005bf8262000350565b67ffffffffffffffff811115620005db57620005da6200035a565b5b620005e78254620003b4565b620005f48282856200051d565b5f60209050601f8311600181146200062a575f841562000615578287015190505b62000621858262000597565b86555062000690565b601f1984166200063a86620003e8565b5f5b8281101562000663578489015182556001820191506020850194506020810190506200063c565b868310156200068357848901516200067f601f89168262000579565b8355505b6001600288020188555050505b505050505050565b7f4e487b71000000000000000000000000000000000000000000000000000000005f52601160045260245ffd5b5f8160011c9050919050565b5f808291508390505b60018511156200072257808604811115620006fa57620006f962000698565b5b60018516156200070a5780820291505b80810290506200071a85620006c5565b9450620006da565b94509492505050565b5f826200073c57600190506200080e565b816200074b575f90506200080e565b81600181146200076457600281146200076f57620007a5565b60019150506200080e565b60ff84111562000784576200078362000698565b5b8360020a9150848211156200079e576200079d62000698565b5b506200080e565b5060208310610133831016604e8410600b8410161715620007df5782820a905083811115620007d957620007d862000698565b5b6200080e565b620007ee8484846001620006d1565b9250905081840481111562000808576200080762000698565b5b81810290505b9392505050565b5f60ff82169050919050565b5f6200082d826200046a565b91506200083a8362000815565b9250620008697fffffffffffffffffffffffffffffffffffffffffffffffffffffffffffffffff84846200072b565b905092915050565b5f6200087d826200046a565b91506200088a836200046a565b92508282026200089a816200046a565b91508282048414831517620008b457620008b362000698565b5b5092915050565b5f82825260208201905092915050565b7f45524332303a206d696e7420746f20746865207a65726f2061646472657373005f82015250565b5f62000901601f83620008bb565b91506200090e82620008cb565b602082019050919050565b5f6020820190508181035f8301526200093281620008f3565b9050919050565b5f62000945826200046a565b915062000952836200046a565b92508282019050808211156200096d576200096c62000698565b5b92915050565b6200097e816200046a565b82525050565b5f602082019050620009995f83018462000973565b92915050565b611fc280620009ad5f395ff3fe608060405260043610610117575f3560e01c8063579158971161009f578063a457c2d711610063578063a457c2d7146103a4578063a9059cbb146103e0578063d0e30db01461041c578063dd62ed3e14610426578063f2fde38b1461046257610128565b806357915897146102d657806370a08231146102fe578063715018a61461033a5780638da5cb5b1461035057806395d89b411461037a57610128565b80632e1a7d4d116100e65780632e1a7d4d146101f8578063313ce56714610220578063395093511461024a57806340c10f191461028657806342966c68146102ae57610128565b806306fdde031461012c578063095ea7b31461015657806318160ddd1461019257806323b872dd146101bc57610128565b3661012857610126333461048a565b005b5f80fd5b348015610137575f80fd5b506101406105e1565b60405161014d9190611352565b60405180910390f35b348015610161575f80fd5b5061017c60048036038101906101779190611403565b610671565b604051610189919061145b565b60405180910390f35b34801561019d575f80fd5b506101a6610693565b6040516101b39190611483565b60405180910390f35b3480156101c7575f80fd5b506101e260048036038101906101dd919061149c565b61069c565b6040516101ef919061145b565b60405180910390f35b348015610203575f80fd5b5061021e600480360381019061021991906114ec565b6106ca565b005b34801561022b575f80fd5b50610234610766565b6040516102419190611532565b60405180910390f35b348015610255575f80fd5b50610270600480360381019061026b9190611403565b61076e565b60405161027d919061145b565b60405180910390f35b348015610291575f80fd5b506102ac60048036038101906102a79190611403565b6107a4565b005b3480156102b9575f80fd5b506102d460048036038101906102cf91906114ec565b6107ba565b005b3480156102e1575f80fd5b506102fc60048036038101906102f791906114ec565b6107c7565b005b348015610309575f80fd5b50610324600480360381019061031f919061154b565b610830565b6040516103319190611483565b60405180910390f35b348015610345575f80fd5b5061034e610875565b005b34801561035b575f80fd5b50610364610888565b6040516103719190611585565b60405180910390f35b348015610385575f80fd5b5061038e6108b0565b60405161039b9190611352565b60405180910390f35b3480156103af575f80fd5b506103ca60048036038101906103c59190611403565b610940565b6040516103d7919061145b565b60405180910390f35b3480156103eb575f80fd5b5061040660048036038101906104019190611403565b6109b5565b604051610413919061145b565b60405180910390f35b6104246109d7565b005b348015610431575f80fd5b5061044c6004803603810190610447919061159e565b6109e3565b6040516104599190611483565b60405180910390f35b34801561046d575f80fd5b506104886004803603810190610483919061154b565b610a65565b005b5f73ffffffffffffffffffffffffffffffffffffffff168273ffffffffffffffffffffffffffffffffffffffff16036104f8576040517f08c379a00000000000000000000000000000000000000000000000000000000081526004016104ef90611626565b60405180910390fd5b6105035f8383610ae7565b8060025f8282546105149190611671565b92505081905550805f808473ffffffffffffffffffffffffffffffffffffffff1673ffffffffffffffffffffffffffffffffffffffff1681526020019081526020015f205f8282546105669190611671565b925050819055508173ffffffffffffffffffffffffffffffffffffffff165f73ffffffffffffffffffffffffffffffffffffffff167fddf252ad1be2c89b69c2b068fc378daa952ba7f163c4a11628f55a4df523b3ef836040516105ca9190611483565b60405180910390a36105dd5f8383610aec565b5050565b6060600380546105f0906116d1565b80601f016020809104026020016040519081016040528092919081815260200182805461061c906116d1565b80156106675780601f1061063e57610100808354040283529160200191610667565b820191905f5260205f20905b81548152906001019060200180831161064a57829003601f168201915b5050505050905090565b5f8061067b610af1565b9050610688818585610af8565b600191505092915050565b5f600254905090565b5f806106a6610af1565b90506106b3858285610cbb565b6106be858585610d46565b60019150509392505050565b806106d433610830565b1015610715576040517f08c379a000000000000000000000000000000000000000000000000000000000815260040161070c9061174b565b60405180910390fd5b61071f3382610fbb565b3373ffffffffffffffffffffffffffffffffffffffff166108fc8290811502906040515f60405180830381858888f19350505050158015610762573d5f803e3d5ffd5b5050565b5f6012905090565b5f80610778610af1565b905061079981858561078a85896109e3565b6107949190611671565b610af8565b600191505092915050565b6107ac611187565b6107b6828261048a565b5050565b6107c43382610fbb565b50565b6012600a6107d59190611898565b600a6107e191906118e2565b811115610823576040517f08c379a000000000000000000000000000000000000000000000000000000000815260040161081a9061196d565b60405180910390fd5b61082d338261048a565b50565b5f805f8373ffffffffffffffffffffffffffffffffffffffff1673ffffffffffffffffffffffffffffffffffffffff1681526020019081526020015f20549050919050565b61087d611187565b6108865f611205565b565b5f60055f9054906101000a900473ffffffffffffffffffffffffffffffffffffffff16905090565b6060600480546108bf906116d1565b80601f01602080910402602001604051908101604052809291908181526020018280546108eb906116d1565b80156109365780601f1061090d57610100808354040283529160200191610936565b820191905f5260205f20905b81548152906001019060200180831161091957829003601f168201915b5050505050905090565b5f8061094a610af1565b90505f61095782866109e3565b90508381101561099c576040517f08c379a0000000000000000000000000000000000000000000000000000000008152600401610993906119fb565b60405180910390fd5b6109a98286868403610af8565b60019250505092915050565b5f806109bf610af1565b90506109cc818585610d46565b600191505092915050565b6109e1333461048a565b565b5f60015f8473ffffffffffffffffffffffffffffffffffffffff1673ffffffffffffffffffffffffffffffffffffffff1681526020019081526020015f205f8373ffffffffffffffffffffffffffffffffffffffff1673ffffffffffffffffffffffffffffffffffffffff1681526020019081526020015f2054905092915050565b610a6d611187565b5f73ffffffffffffffffffffffffffffffffffffffff168173ffffffffffffffffffffffffffffffffffffffff1603610adb576040517f08c379a0000000000000000000000000000000000000000000000000000000008152600401610ad290611a89565b60405180910390fd5b610ae481611205565b50565b505050565b505050565b5f33905090565b5f73ffffffffffffffffffffffffffffffffffffffff168373ffffffffffffffffffffffffffffffffffffffff1603610b66576040517f08c379a0000000000000000000000000000000000000000000000000000000008152600401610b5d90611b17565b60405180910390fd5b5f73ffffffffffffffffffffffffffffffffffffffff168273ffffffffffffffffffffffffffffffffffffffff1603610bd4576040517f08c379a0000000000000000000000000000000000000000000000000000000008152600401610bcb90611ba5565b60405180910390fd5b8060015f8573ffffffffffffffffffffffffffffffffffffffff1673ffffffffffffffffffffffffffffffffffffffff1681526020019081526020015f205f8473ffffffffffffffffffffffffffffffffffffffff1673ffffffffffffffffffffffffffffffffffffffff1681526020019081526020015f20819055508173ffffffffffffffffffffffffffffffffffffffff168373ffffffffffffffffffffffffffffffffffffffff167f8c5be1e5ebec7d5bd14f71427d1e84f3dd0314c0f7b2291e5b200ac8c7c3b92583604051610cae9190611483565b60405180910390a3505050565b5f610cc684846109e3565b90507fffffffffffffffffffffffffffffffffffffffffffffffffffffffffffffffff8114610d405781811015610d32576040517f08c379a0000000000000000000000000000000000000000000000000000000008152600401610d2990611c0d565b60405180910390fd5b610d3f8484848403610af8565b5b50505050565b5f73ffffffffffffffffffffffffffffffffffffffff168373ffffffffffffffffffffffffffffffffffffffff1603610db4576040517f08c379a0000000000000000000000000000000000000000000000000000000008152600401610dab90611c9b565b60405180910390fd5b5f73ffffffffffffffffffffffffffffffffffffffff168273ffffffffffffffffffffffffffffffffffffffff1603610e22576040517f08c379a0000000000000000000000000000000000000000000000000000000008152600401610e1990611d29565b60405180910390fd5b610e2d838383610ae7565b5f805f8573ffffffffffffffffffffffffffffffffffffffff1673ffffffffffffffffffffffffffffffffffffffff1681526020019081526020015f2054905081811015610eb0576040517f08c379a0000000000000000000000000000000000000000000000000000000008152600401610ea790611db7565b60405180910390fd5b8181035f808673ffffffffffffffffffffffffffffffffffffffff1673ffffffffffffffffffffffffffffffffffffffff1681526020019081526020015f2081905550815f808573ffffffffffffffffffffffffffffffffffffffff1673ffffffffffffffffffffffffffffffffffffffff1681526020019081526020015f205f828254610f3e9190611671565b925050819055508273ffffffffffffffffffffffffffffffffffffffff168473ffffffffffffffffffffffffffffffffffffffff167fddf252ad1be2c89b69c2b068fc378daa952ba7f163c4a11628f55a4df523b3ef84604051610fa29190611483565b60405180910390a3610fb5848484610aec565b50505050565b5f73ffffffffffffffffffffffffffffffffffffffff168273ffffffffffffffffffffffffffffffffffffffff1603611029576040517f08c379a000000000000000000000000000000000000000000000000000000000815260040161102090611e45565b60405180910390fd5b611034825f83610ae7565b5f805f8473ffffffffffffffffffffffffffffffffffffffff1673ffffffffffffffffffffffffffffffffffffffff1681526020019081526020015f20549050818110156110b7576040517f08c379a00000000000000000000000000000000000000000000000000000000081526004016110ae90611ed3565b60405180910390fd5b8181035f808573ffffffffffffffffffffffffffffffffffffffff1673ffffffffffffffffffffffffffffffffffffffff1681526020019081526020015f20819055508160025f82825461110b9190611ef1565b925050819055505f73ffffffffffffffffffffffffffffffffffffffff168373ffffffffffffffffffffffffffffffffffffffff167fddf252ad1be2c89b69c2b068fc378daa952ba7f163c4a11628f55a4df523b3ef8460405161116f9190611483565b60405180910390a3611182835f84610aec565b505050565b61118f610af1565b73ffffffffffffffffffffffffffffffffffffffff166111ad610888565b73ffffffffffffffffffffffffffffffffffffffff1614611203576040517f08c379a00000000000000000000000000000000000000000000000000000000081526004016111fa90611f6e565b60405180910390fd5b565b5f60055f9054906101000a900473ffffffffffffffffffffffffffffffffffffffff1690508160055f6101000a81548173ffffffffffffffffffffffffffffffffffffffff021916908373ffffffffffffffffffffffffffffffffffffffff1602179055508173ffffffffffffffffffffffffffffffffffffffff168173ffffffffffffffffffffffffffffffffffffffff167f8be0079c531659141344cd1fd0a4f28419497f9722a3daafe3b4186f6b6457e060405160405180910390a35050565b5f81519050919050565b5f82825260208201905092915050565b5f5b838110156112ff5780820151818401526020810190506112e4565b5f8484015250505050565b5f601f19601f8301169050919050565b5f611324826112c8565b61132e81856112d2565b935061133e8185602086016112e2565b6113478161130a565b840191505092915050565b5f6020820190508181035f83015261136a818461131a565b905092915050565b5f80fd5b5f73ffffffffffffffffffffffffffffffffffffffff82169050919050565b5f61139f82611376565b9050919050565b6113af81611395565b81146113b9575f80fd5b50565b5f813590506113ca816113a6565b92915050565b5f819050919050565b6113e2816113d0565b81146113ec575f80fd5b50565b5f813590506113fd816113d9565b92915050565b5f806040838503121561141957611418611372565b5b5f611426858286016113bc565b9250506020611437858286016113ef565b9150509250929050565b5f8115159050919050565b61145581611441565b82525050565b5f60208201905061146e5f83018461144c565b92915050565b61147d816113d0565b82525050565b5f6020820190506114965f830184611474565b92915050565b5f805f606084860312156114b3576114b2611372565b5b5f6114c0868287016113bc565b93505060206114d1868287016113bc565b92505060406114e2868287016113ef565b9150509250925092565b5f6020828403121561150157611500611372565b5b5f61150e848285016113ef565b91505092915050565b5f60ff82169050919050565b61152c81611517565b82525050565b5f6020820190506115455f830184611523565b92915050565b5f602082840312156115605761155f611372565b5b5f61156d848285016113bc565b91505092915050565b61157f81611395565b82525050565b5f6020820190506115985f830184611576565b92915050565b5f80604083850312156115b4576115b3611372565b5b5f6115c1858286016113bc565b92505060206115d2858286016113bc565b9150509250929050565b7f45524332303a206d696e7420746f20746865207a65726f2061646472657373005f82015250565b5f611610601f836112d2565b915061161b826115dc565b602082019050919050565b5f6020820190508181035f83015261163d81611604565b9050919050565b7f4e487b71000000000000000000000000000000000000000000000000000000005f52601160045260245ffd5b5f61167b826113d0565b9150611686836113d0565b925082820190508082111561169e5761169d611644565b5b92915050565b7f4e487b71000000000000000000000000000000000000000000000000000000005f52602260045260245ffd5b5f60028204905060018216806116e857607f821691505b6020821081036116fb576116fa6116a4565b5b50919050565b7f4d6f636b574554483a20496e73756666696369656e742062616c616e636500005f82015250565b5f611735601e836112d2565b915061174082611701565b602082019050919050565b5f6020820190508181035f83015261176281611729565b9050919050565b5f8160011c9050919050565b5f808291508390505b60018511156117be5780860481111561179a57611799611644565b5b60018516156117a95780820291505b80810290506117b785611769565b945061177e565b94509492505050565b5f826117d65760019050611891565b816117e3575f9050611891565b81600181146117f9576002811461180357611832565b6001915050611891565b60ff84111561181557611814611644565b5b8360020a91508482111561182c5761182b611644565b5b50611891565b5060208310610133831016604e8410600b84101617156118675782820a90508381111561186257611861611644565b5b611891565b6118748484846001611775565b9250905081840481111561188b5761188a611644565b5b81810290505b9392505050565b5f6118a2826113d0565b91506118ad83611517565b92506118da7fffffffffffffffffffffffffffffffffffffffffffffffffffffffffffffffff84846117c7565b905092915050565b5f6118ec826113d0565b91506118f7836113d0565b9250828202611905816113d0565b9150828204841483151761191c5761191b611644565b5b5092915050565b7f4d6f636b574554483a204d6178203130205745544820706572206661756365745f82015250565b5f6119576020836112d2565b915061196282611923565b602082019050919050565b5f6020820190508181035f8301526119848161194b565b9050919050565b7f45524332303a2064656372656173656420616c6c6f77616e63652062656c6f775f8201527f207a65726f000000000000000000000000000000000000000000000000000000602082015250565b5f6119e56025836112d2565b91506119f08261198b565b604082019050919050565b5f6020820190508181035f830152611a12816119d9565b9050919050565b7f4f776e61626c653a206e6577206f776e657220697320746865207a65726f20615f8201527f6464726573730000000000000000000000000000000000000000000000000000602082015250565b5f611a736026836112d2565b9150611a7e82611a19565b604082019050919050565b5f6020820190508181035f830152611aa081611a67565b9050919050565b7f45524332303a20617070726f76652066726f6d20746865207a65726f206164645f8201527f7265737300000000000000000000000000000000000000000000000000000000602082015250565b5f611b016024836112d2565b9150611b0c82611aa7565b604082019050919050565b5f6020820190508181035f830152611b2e81611af5565b9050919050565b7f45524332303a20617070726f766520746f20746865207a65726f2061646472655f8201527f7373000000000000000000000000000000000000000000000000000000000000602082015250565b5f611b8f6022836112d2565b9150611b9a82611b35565b604082019050919050565b5f6020820190508181035f830152611bbc81611b83565b9050919050565b7f45524332303a20696e73756666696369656e7420616c6c6f77616e63650000005f82015250565b5f611bf7601d836112d2565b9150611c0282611bc3565b602082019050919050565b5f6020820190508181035f830152611c2481611beb565b9050919050565b7f45524332303a207472616e736665722066726f6d20746865207a65726f2061645f8201527f6472657373000000000000000000000000000000000000000000000000000000602082015250565b5f611c856025836112d2565b9150611c9082611c2b565b604082019050919050565b5f6020820190508181035f830152611cb281611c79565b9050919050565b7f45524332303a207472616e7366657220746f20746865207a65726f20616464725f8201527f6573730000000000000000000000000000000000000000000000000000000000602082015250565b5f611d136023836112d2565b9150611d1e82611cb9565b604082019050919050565b5f6020820190508181035f830152611d4081611d07565b9050919050565b7f45524332303a207472616e7366657220616d6f756e74206578636565647320625f8201527f616c616e63650000000000000000000000000000000000000000000000000000602082015250565b5f611da16026836112d2565b9150611dac82611d47565b604082019050919050565b5f6020820190508181035f830152611dce81611d95565b9050919050565b7f45524332303a206275726e2066726f6d20746865207a65726f206164647265735f8201527f7300000000000000000000000000000000000000000000000000000000000000602082015250565b5f611e2f6021836112d2565b9150611e3a82611dd5565b604082019050919050565b5f6020820190508181035f830152611e5c81611e23565b9050919050565b7f45524332303a206275726e20616d6f756e7420657863656564732062616c616e5f8201527f6365000000000000000000000000000000000000000000000000000000000000602082015250565b5f611ebd6022836112d2565b9150611ec882611e63565b604082019050919050565b5f6020820190508181035f830152611eea81611eb1565b9050919050565b5f611efb826113d0565b9150611f06836113d0565b9250828203905081811115611f1e57611f1d611644565b5b92915050565b7f4f776e61626c653a2063616c6c6572206973206e6f7420746865206f776e65725f82015250565b5f611f586020836112d2565b9150611f6382611f24565b602082019050919050565b5f6020820190508181035f830152611f8581611f4c565b905091905056fea2646970667358221220450f371f3dc5457ce629e90d14f7d23dae3b27aee6d4c92cd398977abf8f74bd64736f6c63430008140033",
  "linkReferences": {},
  "deployedLinkReferences": {}
}