{
  "_format": "hh-sol-artifact-1",
  "contractName": "Vault",
  "sourceName": "contracts/Vault.sol",
  "abi": [
    {
      "inputs": [
        {
          "internalType": "contract IERC20",
          "name": "assetToken",
          "type": "address"
        },
        {
          "internalType": "string",
          "name": "name",
          "type": "string"
        },
        {
          "internalType": "string",
          "name": "symbol",
          "type": "string"
        },
        {
          "internalType": "address",
          "name": "_manager",
          "type": "address"
        },
        {
          "internalType": "address",
          "name": "_agent",
          "type": "address"
        }
      ],
      "stateMutability": "nonpayable",
      "type": "constructor"
    },
    {
      "inputs": [],
      "name": "AccessControlBadConfirmation",
      "type": "error"
    },
    {
      "inputs": [
        {
          "internalType": "address",
          "name": "account",
          "type": "address"
        },
        {
          "internalType": "bytes32",
          "name": "neededRole",
          "type": "bytes32"
        }
      ],
      "name": "AccessControlUnauthorizedAccount",
      "type": "error"
    },
    {
      "inputs": [
        {
          "internalType": "address",
          "name": "spender",
          "type": "address"
        },
        {
          "internalType": "uint256",
          "name": "allowance",
          "type": "uint256"
        },
        {
          "internalType": "uint256",
          "name": "needed",
          "type": "uint256"
        }
      ],
      "name": "ERC20InsufficientAllowance",
      "type": "error"
    },
    {
      "inputs": [
        {
          "internalType": "address",
          "name": "sender",
          "type": "address"
        },
        {
          "internalType": "uint256",
          "name": "balance",
          "type": "uint256"
        },
        {
          "internalType": "uint256",
          "name": "needed",
          "type": "uint256"
        }
      ],
      "name": "ERC20InsufficientBalance",
      "type": "error"
    },
    {
      "inputs": [
        {
          "internalType": "address",
          "name": "approver",
          "type": "address"
        }
      ],
      "name": "ERC20InvalidApprover",
      "type": "error"
    },
    {
      "inputs": [
        {
          "internalType": "address",
          "name": "receiver",
          "type": "address"
        }
      ],
      "name": "ERC20InvalidReceiver",
      "type": "error"
    },
    {
      "inputs": [
        {
          "internalType": "address",
          "name": "sender",
          "type": "address"
        }
      ],
      "name": "ERC20InvalidSender",
      "type": "error"
    },
    {
      "inputs": [
        {
          "internalType": "address",
          "name": "spender",
          "type": "address"
        }
      ],
      "name": "ERC20InvalidSpender",
      "type": "error"
    },
    {
      "inputs": [],
      "name": "ExecutionFailed",
      "type": "error"
    },
    {
      "inputs": [],
      "name": "InsufficientBalance",
      "type": "error"
    },
    {
      "inputs": [],
      "name": "InvalidAddress",
      "type": "error"
    },
    {
      "inputs": [],
      "name": "InvalidStrategy",
      "type": "error"
    },
    {
      "inputs": [
        {
          "internalType": "address",
          "name": "owner",
          "type": "address"
        }
      ],
      "name": "OwnableInvalidOwner",
      "type": "error"
    },
    {
      "inputs": [
        {
          "internalType": "address",
          "name": "account",
          "type": "address"
        }
      ],
      "name": "OwnableUnauthorizedAccount",
      "type": "error"
    },
    {
      "inputs": [],
      "name": "ReentrancyGuardReentrantCall",
      "type": "error"
    },
    {
      "inputs": [
        {
          "internalType": "address",
          "name": "token",
          "type": "address"
        }
      ],
      "name": "SafeERC20FailedOperation",
      "type": "error"
    },
    {
      "inputs": [],
      "name": "StrategyAlreadyExists",
      "type": "error"
    },
    {
      "inputs": [],
      "name": "StrategyDoesNotExist",
      "type": "error"
    },
    {
      "anonymous": false,
      "inputs": [
        {
          "indexed": true,
          "internalType": "address",
          "name": "owner",
          "type": "address"
        },
        {
          "indexed": true,
          "internalType": "address",
          "name": "spender",
          "type": "address"
        },
        {
          "indexed": false,
          "internalType": "uint256",
          "name": "value",
          "type": "uint256"
        }
      ],
      "name": "Approval",
      "type": "event"
    },
    {
      "anonymous": false,
      "inputs": [
        {
          "indexed": true,
          "internalType": "address",
          "name": "sender",
          "type": "address"
        },
        {
          "indexed": true,
          "internalType": "address",
          "name": "owner",
          "type": "address"
        },
        {
          "indexed": false,
          "internalType": "uint256",
          "name": "assets",
          "type": "uint256"
        },
        {
          "indexed": false,
          "internalType": "uint256",
          "name": "shares",
          "type": "uint256"
        }
      ],
      "name": "Deposit",
      "type": "event"
    },
    {
      "anonymous": false,
      "inputs": [
        {
          "indexed": true,
          "internalType": "address",
          "name": "previousOwner",
          "type": "address"
        },
        {
          "indexed": true,
          "internalType": "address",
          "name": "newOwner",
          "type": "address"
        }
      ],
      "name": "OwnershipTransferred",
      "type": "event"
    },
    {
      "anonymous": false,
      "inputs": [
        {
          "indexed": true,
          "internalType": "bytes32",
          "name": "role",
          "type": "bytes32"
        },
        {
          "indexed": true,
          "internalType": "bytes32",
          "name": "previousAdminRole",
          "type": "bytes32"
        },
        {
          "indexed": true,
          "internalType": "bytes32",
          "name": "newAdminRole",
          "type": "bytes32"
        }
      ],
      "name": "RoleAdminChanged",
      "type": "event"
    },
    {
      "anonymous": false,
      "inputs": [
        {
          "indexed": true,
          "internalType": "bytes32",
          "name": "role",
          "type": "bytes32"
        },
        {
          "indexed": true,
          "internalType": "address",
          "name": "account",
          "type": "address"
        },
        {
          "indexed": true,
          "internalType": "address",
          "name": "sender",
          "type": "address"
        }
      ],
      "name": "RoleGranted",
      "type": "event"
    },
    {
      "anonymous": false,
      "inputs": [
        {
          "indexed": true,
          "internalType": "bytes32",
          "name": "role",
          "type": "bytes32"
        },
        {
          "indexed": true,
          "internalType": "address",
          "name": "account",
          "type": "address"
        },
        {
          "indexed": true,
          "internalType": "address",
          "name": "sender",
          "type": "address"
        }
      ],
      "name": "RoleRevoked",
      "type": "event"
    },
    {
      "anonymous": false,
      "inputs": [
        {
          "indexed": true,
          "internalType": "address",
          "name": "strategy",
          "type": "address"
        }
      ],
      "name": "StrategyAdded",
      "type": "event"
    },
    {
      "anonymous": false,
      "inputs": [
        {
          "indexed": true,
          "internalType": "address",
          "name": "strategy",
          "type": "address"
        },
        {
          "indexed": false,
          "internalType": "uint256",
          "name": "amount",
          "type": "uint256"
        },
        {
          "indexed": false,
          "internalType": "bytes",
          "name": "data",
          "type": "bytes"
        }
      ],
      "name": "StrategyExecuted",
      "type": "event"
    },
    {
      "anonymous": false,
      "inputs": [
        {
          "indexed": true,
          "internalType": "address",
          "name": "strategy",
          "type": "address"
        },
        {
          "indexed": false,
          "internalType": "bytes",
          "name": "data",
          "type": "bytes"
        }
      ],
      "name": "StrategyHarvested",
      "type": "event"
    },
    {
      "anonymous": false,
      "inputs": [
        {
          "indexed": true,
          "internalType": "address",
          "name": "strategy",
          "type": "address"
        }
      ],
      "name": "StrategyRemoved",
      "type": "event"
    },
    {
      "anonymous": false,
      "inputs": [
        {
          "indexed": true,
          "internalType": "address",
          "name": "from",
          "type": "address"
        },
        {
          "indexed": true,
          "internalType": "address",
          "name": "to",
          "type": "address"
        },
        {
          "indexed": false,
          "internalType": "uint256",
          "name": "value",
          "type": "uint256"
        }
      ],
      "name": "Transfer",
      "type": "event"
    },
    {
      "anonymous": false,
      "inputs": [
        {
          "indexed": true,
          "internalType": "address",
          "name": "sender",
          "type": "address"
        },
        {
          "indexed": true,
          "internalType": "address",
          "name": "receiver",
          "type": "address"
        },
        {
          "indexed": true,
          "internalType": "address",
          "name": "owner",
          "type": "address"
        },
        {
          "indexed": false,
          "internalType": "uint256",
          "name": "assets",
          "type": "uint256"
        },
        {
          "indexed": false,
          "internalType": "uint256",
          "name": "shares",
          "type": "uint256"
        }
      ],
      "name": "Withdraw",
      "type": "event"
    },
    {
      "inputs": [],
      "name": "AGENT_ROLE",
      "outputs": [
        {
          "internalType": "bytes32",
          "name": "",
          "type": "bytes32"
        }
      ],
      "stateMutability": "view",
      "type": "function"
    },
    {
      "inputs": [],
      "name": "DEFAULT_ADMIN_ROLE",
      "outputs": [
        {
          "internalType": "bytes32",
          "name": "",
          "type": "bytes32"
        }
      ],
      "stateMutability": "view",
      "type": "function"
    },
    {
      "inputs": [],
      "name": "MANAGER_ROLE",
      "outputs": [
        {
          "internalType": "bytes32",
          "name": "",
          "type": "bytes32"
        }
      ],
      "stateMutability": "view",
      "type": "function"
    },
    {
      "inputs": [
        {
          "internalType": "address",
          "name": "_strategy",
          "type": "address"
        }
      ],
      "name": "addStrategy",
      "outputs": [],
      "stateMutability": "nonpayable",
      "type": "function"
    },
    {
      "inputs": [
        {
          "internalType": "address",
          "name": "owner",
          "type": "address"
        },
        {
          "internalType": "address",
          "name": "spender",
          "type": "address"
        }
      ],
      "name": "allowance",
      "outputs": [
        {
          "internalType": "uint256",
          "name": "",
          "type": "uint256"
        }
      ],
      "stateMutability": "view",
      "type": "function"
    },
    {
      "inputs": [
        {
          "internalType": "address",
          "name": "spender",
          "type": "address"
        },
        {
          "internalType": "uint256",
          "name": "value",
          "type": "uint256"
        }
      ],
      "name": "approve",
      "outputs": [
        {
          "internalType": "bool",
          "name": "",
          "type": "bool"
        }
      ],
      "stateMutability": "nonpayable",
      "type": "function"
    },
    {
      "inputs": [],
      "name": "asset",
      "outputs": [
        {
          "internalType": "address",
          "name": "",
          "type": "address"
        }
      ],
      "stateMutability": "view",
      "type": "function"
    },
    {
      "inputs": [
        {
          "internalType": "address",
          "name": "account",
          "type": "address"
        }
      ],
      "name": "balanceOf",
      "outputs": [
        {
          "internalType": "uint256",
          "name": "",
          "type": "uint256"
        }
      ],
      "stateMutability": "view",
      "type": "function"
    },
    {
      "inputs": [
        {
          "internalType": "uint256",
          "name": "sharesValue",
          "type": "uint256"
        }
      ],
      "name": "convertToAssets",
      "outputs": [
        {
          "internalType": "uint256",
          "name": "",
          "type": "uint256"
        }
      ],
      "stateMutability": "view",
      "type": "function"
    },
    {
      "inputs": [
        {
          "internalType": "uint256",
          "name": "assetsValue",
          "type": "uint256"
        }
      ],
      "name": "convertToShares",
      "outputs": [
        {
          "internalType": "uint256",
          "name": "",
          "type": "uint256"
        }
      ],
      "stateMutability": "view",
      "type": "function"
    },
    {
      "inputs": [],
      "name": "decimals",
      "outputs": [
        {
          "internalType": "uint8",
          "name": "",
          "type": "uint8"
        }
      ],
      "stateMutability": "view",
      "type": "function"
    },
    {
      "inputs": [
        {
          "internalType": "uint256",
          "name": "assetsValue",
          "type": "uint256"
        },
        {
          "internalType": "address",
          "name": "receiver",
          "type": "address"
        }
      ],
      "name": "deposit",
      "outputs": [
        {
          "internalType": "uint256",
          "name": "shares",
          "type": "uint256"
        }
      ],
      "stateMutability": "nonpayable",
      "type": "function"
    },
    {
      "inputs": [
        {
          "internalType": "address",
          "name": "_strategy",
          "type": "address"
        },
        {
          "internalType": "uint256",
          "name": "_amount",
          "type": "uint256"
        },
        {
          "internalType": "bytes",
          "name": "_data",
          "type": "bytes"
        }
      ],
      "name": "depositToStrategy",
      "outputs": [],
      "stateMutability": "nonpayable",
      "type": "function"
    },
    {
      "inputs": [
        {
          "internalType": "bytes32",
          "name": "role",
          "type": "bytes32"
        }
      ],
      "name": "getRoleAdmin",
      "outputs": [
        {
          "internalType": "bytes32",
          "name": "",
          "type": "bytes32"
        }
      ],
      "stateMutability": "view",
      "type": "function"
    },
    {
      "inputs": [],
      "name": "getStrategies",
      "outputs": [
        {
          "internalType": "address[]",
          "name": "",
          "type": "address[]"
        }
      ],
      "stateMutability": "view",
      "type": "function"
    },
    {
      "inputs": [
        {
          "internalType": "bytes32",
          "name": "role",
          "type": "bytes32"
        },
        {
          "internalType": "address",
          "name": "account",
          "type": "address"
        }
      ],
      "name": "grantRole",
      "outputs": [],
      "stateMutability": "nonpayable",
      "type": "function"
    },
    {
      "inputs": [
        {
          "internalType": "address",
          "name": "_strategy",
          "type": "address"
        },
        {
          "internalType": "bytes",
          "name": "_data",
          "type": "bytes"
        }
      ],
      "name": "harvestStrategy",
      "outputs": [],
      "stateMutability": "nonpayable",
      "type": "function"
    },
    {
      "inputs": [
        {
          "internalType": "bytes32",
          "name": "role",
          "type": "bytes32"
        },
        {
          "internalType": "address",
          "name": "account",
          "type": "address"
        }
      ],
      "name": "hasRole",
      "outputs": [
        {
          "internalType": "bool",
          "name": "",
          "type": "bool"
        }
      ],
      "stateMutability": "view",
      "type": "function"
    },
    {
      "inputs": [
        {
          "internalType": "address",
          "name": "",
          "type": "address"
        }
      ],
      "name": "isStrategy",
      "outputs": [
        {
          "internalType": "bool",
          "name": "",
          "type": "bool"
        }
      ],
      "stateMutability": "view",
      "type": "function"
    },
    {
      "inputs": [
        {
          "internalType": "address",
          "name": "",
          "type": "address"
        }
      ],
      "name": "maxDeposit",
      "outputs": [
        {
          "internalType": "uint256",
          "name": "",
          "type": "uint256"
        }
      ],
      "stateMutability": "view",
      "type": "function"
    },
    {
      "inputs": [
        {
          "internalType": "address",
          "name": "",
          "type": "address"
        }
      ],
      "name": "maxMint",
      "outputs": [
        {
          "internalType": "uint256",
          "name": "",
          "type": "uint256"
        }
      ],
      "stateMutability": "view",
      "type": "function"
    },
    {
      "inputs": [
        {
          "internalType": "address",
          "name": "owner",
          "type": "address"
        }
      ],
      "name": "maxRedeem",
      "outputs": [
        {
          "internalType": "uint256",
          "name": "",
          "type": "uint256"
        }
      ],
      "stateMutability": "view",
      "type": "function"
    },
    {
      "inputs": [
        {
          "internalType": "address",
          "name": "owner",
          "type": "address"
        }
      ],
      "name": "maxWithdraw",
      "outputs": [
        {
          "internalType": "uint256",
          "name": "",
          "type": "uint256"
        }
      ],
      "stateMutability": "view",
      "type": "function"
    },
    {
      "inputs": [
        {
          "internalType": "uint256",
          "name": "sharesValue",
          "type": "uint256"
        },
        {
          "internalType": "address",
          "name": "receiver",
          "type": "address"
        }
      ],
      "name": "mint",
      "outputs": [
        {
          "internalType": "uint256",
          "name": "assets",
          "type": "uint256"
        }
      ],
      "stateMutability": "nonpayable",
      "type": "function"
    },
    {
      "inputs": [],
      "name": "name",
      "outputs": [
        {
          "internalType": "string",
          "name": "",
          "type": "string"
        }
      ],
      "stateMutability": "view",
      "type": "function"
    },
    {
      "inputs": [],
      "name": "owner",
      "outputs": [
        {
          "internalType": "address",
          "name": "",
          "type": "address"
        }
      ],
      "stateMutability": "view",
      "type": "function"
    },
    {
      "inputs": [
        {
          "internalType": "uint256",
          "name": "assetsValue",
          "type": "uint256"
        }
      ],
      "name": "previewDeposit",
      "outputs": [
        {
          "internalType": "uint256",
          "name": "",
          "type": "uint256"
        }
      ],
      "stateMutability": "view",
      "type": "function"
    },
    {
      "inputs": [
        {
          "internalType": "uint256",
          "name": "sharesValue",
          "type": "uint256"
        }
      ],
      "name": "previewMint",
      "outputs": [
        {
          "internalType": "uint256",
          "name": "",
          "type": "uint256"
        }
      ],
      "stateMutability": "view",
      "type": "function"
    },
    {
      "inputs": [
        {
          "internalType": "uint256",
          "name": "sharesValue",
          "type": "uint256"
        }
      ],
      "name": "previewRedeem",
      "outputs": [
        {
          "internalType": "uint256",
          "name": "",
          "type": "uint256"
        }
      ],
      "stateMutability": "view",
      "type": "function"
    },
    {
      "inputs": [
        {
          "internalType": "uint256",
          "name": "assetsValue",
          "type": "uint256"
        }
      ],
      "name": "previewWithdraw",
      "outputs": [
        {
          "internalType": "uint256",
          "name": "",
          "type": "uint256"
        }
      ],
      "stateMutability": "view",
      "type": "function"
    },
    {
      "inputs": [
        {
          "internalType": "uint256",
          "name": "sharesValue",
          "type": "uint256"
        },
        {
          "internalType": "address",
          "name": "receiver",
          "type": "address"
        },
        {
          "internalType": "address",
          "name": "owner",
          "type": "address"
        }
      ],
      "name": "redeem",
      "outputs": [
        {
          "internalType": "uint256",
          "name": "assets",
          "type": "uint256"
        }
      ],
      "stateMutability": "nonpayable",
      "type": "function"
    },
    {
      "inputs": [
        {
          "internalType": "address",
          "name": "_strategy",
          "type": "address"
        }
      ],
      "name": "removeStrategy",
      "outputs": [],
      "stateMutability": "nonpayable",
      "type": "function"
    },
    {
      "inputs": [],
      "name": "renounceOwnership",
      "outputs": [],
      "stateMutability": "nonpayable",
      "type": "function"
    },
    {
      "inputs": [
        {
          "internalType": "bytes32",
          "name": "role",
          "type": "bytes32"
        },
        {
          "internalType": "address",
          "name": "callerConfirmation",
          "type": "address"
        }
      ],
      "name": "renounceRole",
      "outputs": [],
      "stateMutability": "nonpayable",
      "type": "function"
    },
    {
      "inputs": [
        {
          "internalType": "bytes32",
          "name": "role",
          "type": "bytes32"
        },
        {
          "internalType": "address",
          "name": "account",
          "type": "address"
        }
      ],
      "name": "revokeRole",
      "outputs": [],
      "stateMutability": "nonpayable",
      "type": "function"
    },
    {
      "inputs": [
        {
          "internalType": "uint256",
          "name": "",
          "type": "uint256"
        }
      ],
      "name": "strategies",
      "outputs": [
        {
          "internalType": "address",
          "name": "",
          "type": "address"
        }
      ],
      "stateMutability": "view",
      "type": "function"
    },
    {
      "inputs": [
        {
          "internalType": "bytes4",
          "name": "interfaceId",
          "type": "bytes4"
        }
      ],
      "name": "supportsInterface",
      "outputs": [
        {
          "internalType": "bool",
          "name": "",
          "type": "bool"
        }
      ],
      "stateMutability": "view",
      "type": "function"
    },
    {
      "inputs": [],
      "name": "symbol",
      "outputs": [
        {
          "internalType": "string",
          "name": "",
          "type": "string"
        }
      ],
      "stateMutability": "view",
      "type": "function"
    },
    {
      "inputs": [],
      "name": "totalAssets",
      "outputs": [
        {
          "internalType": "uint256",
          "name": "",
          "type": "uint256"
        }
      ],
      "stateMutability": "view",
      "type": "function"
    },
    {
      "inputs": [],
      "name": "totalSupply",
      "outputs": [
        {
          "internalType": "uint256",
          "name": "",
          "type": "uint256"
        }
      ],
      "stateMutability": "view",
      "type": "function"
    },
    {
      "inputs": [
        {
          "internalType": "address",
          "name": "to",
          "type": "address"
        },
        {
          "internalType": "uint256",
          "name": "value",
          "type": "uint256"
        }
      ],
      "name": "transfer",
      "outputs": [
        {
          "internalType": "bool",
          "name": "",
          "type": "bool"
        }
      ],
      "stateMutability": "nonpayable",
      "type": "function"
    },
    {
      "inputs": [
        {
          "internalType": "address",
          "name": "from",
          "type": "address"
        },
        {
          "internalType": "address",
          "name": "to",
          "type": "address"
        },
        {
          "internalType": "uint256",
          "name": "value",
          "type": "uint256"
        }
      ],
      "name": "transferFrom",
      "outputs": [
        {
          "internalType": "bool",
          "name": "",
          "type": "bool"
        }
      ],
      "stateMutability": "nonpayable",
      "type": "function"
    },
    {
      "inputs": [
        {
          "internalType": "address",
          "name": "newOwner",
          "type": "address"
        }
      ],
      "name": "transferOwnership",
      "outputs": [],
      "stateMutability": "nonpayable",
      "type": "function"
    },
    {
      "inputs": [
        {
          "internalType": "uint256",
          "name": "assetsValue",
          "type": "uint256"
        },
        {
          "internalType": "address",
          "name": "receiver",
          "type": "address"
        },
        {
          "internalType": "address",
          "name": "owner",
          "type": "address"
        }
      ],
      "name": "withdraw",
      "outputs": [
        {
          "internalType": "uint256",
          "name": "shares",
          "type": "uint256"
        }
      ],
      "stateMutability": "nonpayable",
      "type": "function"
    }
  ],
  "bytecode": "0x60a0604052346105b75761281580380380610019816105bc565b928339810160a0828203126105b75781516001600160a01b0381168082036105b75760208401516001600160401b0381116105b7578361005a9186016105e1565b604085015190936001600160401b0382116105b75761007a9186016105e1565b610092608061008b6060880161064c565b960161064c565b9333156105a15760008054336001600160a01b0319821681178355916001600160a01b03909116907f8be0079c531659141344cd1fd0a4f28419497f9722a3daafe3b4186f6b6457e09080a38051906001600160401b03821161049e5760045490600182811c92168015610597575b602083101461047e5781601f849311610527575b50602090601f83116001146104bf576000926104b4575b50508160011b916000199060031b1c1916176004555b8051906001600160401b03821161049e5760055490600182811c92168015610494575b602083101461047e5781601f84931161042a575b50602090601f83116001146103c2576000926103b7575b50508160011b916000199060031b1c1916176005555b600160075515610372576001600160a01b0383161561032d576001600160a01b038216156102e8576102ba926102b4916080526101e233610660565b50600080516020612775833981519152600081815260066020527f6f33ec38532bdfedd8912126adc1f5918b75385d650da7c642efcc94ef3a60f680549082905590917fbd79b86ffe0ab8e8776151514217cd7cacd52c909f66475c3af44e129f0b00ff8380a4600080516020612795833981519152600081815260066020527f4448119502453e295a09f7d4e8a6a0575d3624c233f99f59abf0835bf259780b80549082905590917fbd79b86ffe0ab8e8776151514217cd7cacd52c909f66475c3af44e129f0b00ff8380a46106dc565b50610762565b50604051611f6c90816107e9823960805181818161066301528181610c39015281816114cd0152611a850152f35b60405162461bcd60e51b815260206004820152601c60248201527f5661756c743a206167656e74206973207a65726f2061646472657373000000006044820152606490fd5b60405162461bcd60e51b815260206004820152601e60248201527f5661756c743a206d616e61676572206973207a65726f206164647265737300006044820152606490fd5b60405162461bcd60e51b815260206004820152601c60248201527f5661756c743a206173736574206973207a65726f2061646472657373000000006044820152606490fd5b015190503880610190565b600560009081528281209350601f198516905b81811061041257509084600195949392106103f9575b505050811b016005556101a6565b015160001960f88460031b161c191690553880806103eb565b929360206001819287860151815501950193016103d5565b90915060056000526020600020601f840160051c81019160208510610474575b90601f859493920160051c01905b8181106104655750610179565b60008155849350600101610458565b909150819061044a565b634e487b7160e01b600052602260045260246000fd5b91607f1691610165565b634e487b7160e01b600052604160045260246000fd5b01519050388061012c565b600460009081528281209350601f198516905b81811061050f57509084600195949392106104f6575b505050811b01600455610142565b015160001960f88460031b161c191690553880806104e8565b929360206001819287860151815501950193016104d2565b60046000529091507f8a35acfbc15ff81a39ae7d344fd709f28e8600b4aa8c65c6b64bfe7fe36bd19b601f840160051c8101916020851061058d575b90601f859493920160051c01905b81811061057e5750610115565b60008155849350600101610571565b9091508190610563565b91607f1691610101565b631e4fbdf760e01b600052600060045260246000fd5b600080fd5b6040519190601f01601f191682016001600160401b0381118382101761049e57604052565b81601f820112156105b7578051906001600160401b03821161049e57610610601f8301601f19166020016105bc565b92828452602083830101116105b75760005b82811061063757505060206000918301015290565b80602080928401015182828701015201610622565b51906001600160a01b03821682036105b757565b6001600160a01b03811660009081526000805160206127f5833981519152602052604090205460ff166106d6576001600160a01b031660008181526000805160206127f583398151915260205260408120805460ff191660011790553391906000805160206127558339815191528180a4600190565b50600090565b6001600160a01b03811660009081526000805160206127d5833981519152602052604090205460ff166106d6576001600160a01b031660008181526000805160206127d583398151915260205260408120805460ff19166001179055339190600080516020612775833981519152906000805160206127558339815191529080a4600190565b6001600160a01b03811660009081526000805160206127b5833981519152602052604090205460ff166106d6576001600160a01b031660008181526000805160206127b583398151915260205260408120805460ff19166001179055339190600080516020612795833981519152906000805160206127558339815191529080a460019056fe6080604052600436101561001257600080fd5b6000803560e01c806301e1d114146112b657806301ffc9a71461125b57806306fdde031461119e57806307a2d13a14610c1e578063095ea7b3146110f45780630a28a477146110d5578063175188e814610f4857806318160ddd14610f2a578063223e547914610deb57806322459e1814610db057806323b872dd14610d77578063248a9ca314610d495780632e8ebaae14610d0a5780632f2ff15d14610cc9578063313ce56714610cad57806336568abe14610c6857806338d52e0f14610c23578063402d267d146105955780634cdad50614610c1e5780636e553f6514610be457806370a082311461031e578063715018a614610b8a5780638da5cb5b14610b6357806391d1485414610b1a57806394bf804d14610ae057806395d89b41146109d7578063a217fddf146109bb578063a9059cbb14610989578063b3d7f6b91461096a578063b460af941461093a578063b49a60bb14610872578063ba08765214610835578063bd07fdac1461059a578063c63d75b614610595578063c6e6f59214610289578063ce96cb771461055b578063d2b3d6ce146103ee578063d547741f146103a4578063d574ea3d14610360578063d905777e1461031e578063dd62ed3e146102c9578063ec87621c1461028e578063ef8b30f7146102895763f2fde38b1461020157600080fd5b346102865760203660031901126102865761021a61133d565b610222611bd4565b6001600160a01b031680156102725781546001600160a01b03198116821783556001600160a01b03167f8be0079c531659141344cd1fd0a4f28419497f9722a3daafe3b4186f6b6457e08380a380f35b631e4fbdf760e01b82526004829052602482fd5b80fd5b6113f7565b503461028657806003193601126102865760206040517f241ecf16d79d0f8dbfb92cbc07fe17840425976cf0667f022fe9877caa831b088152f35b50346102865760403660031901126102865760406102e561133d565b916102ee611353565b9260018060a01b031681526002602052209060018060a01b03166000526020526020604060002054604051908152f35b503461028657602036600319011261028657602061035861033d61133d565b6001600160a01b031660009081526001602052604090205490565b604051908152f35b5034610286576020366003190112610286576004359060085482101561028657602061038b83611415565b905460405160039290921b1c6001600160a01b03168152f35b5034610286576040366003190112610286576103ea6004356103c4611353565b906103e56103e082600052600660205260016040600020015490565b6118c2565b61198e565b5080f35b50346102865760403660031901126102865761040861133d565b60243567ffffffffffffffff8111610557576104289036906004016113c9565b90917fcab5a0bfe0b79d2c4b1c2e02599fa044d115b7511f9659307cb4276950967709845260066020526040842060018060a01b03331660005260205261047660ff60406000205416611627565b61047e611a14565b6001600160a01b03168084526009602052604084205490929060ff161561054857823b156105395760405163ce5c7f6160e01b81526020600482015284908181806104cd602482018888611673565b038183895af1801561053d57610524575b50507f17729d434965aef6e046626c2c7086b54e96cd3b6bcbee9a0691b55935673e0991610519604051928392602084526020840191611673565b0390a2600160075580f35b8161052e91611446565b6105395783386104de565b8380fd5b6040513d84823e3d90fd5b635737b5dd60e01b8452600484fd5b8280fd5b503461028657602036600319011261028657602090610358906040906001600160a01b0361058761133d565b1681526001845220546116cc565b611369565b5034610286576060366003190112610286576105b461133d565b906024359160443567ffffffffffffffff8111610557576105d99036906004016113c9565b937fcab5a0bfe0b79d2c4b1c2e02599fa044d115b7511f9659307cb4276950967709845260066020526040842060018060a01b033316855260205261062460ff604086205416611627565b61062c611a14565b6001600160a01b0383168085526009602052604085205490939060ff1615610826576040516370a0823160e01b81523060048201527f00000000000000000000000000000000000000000000000000000000000000006001600160a01b03169190602081602481865afa90811561081b5790849188916107e2575b50106107d35760405163095ea7b360e01b81526001600160a01b0391909116600482015260248101839052906020908290604490829089905af180156107905761079b575b50823b15610539576040516359efcb1560e01b815284818061071389878760048501611694565b038183885af1801561079057610758575b506105197fde953c60cd81663917dd703d2f498da2604eccfef3edd2260ea19f0f37f749d993949560405193849384611694565b846107887fde953c60cd81663917dd703d2f498da2604eccfef3edd2260ea19f0f37f749d9959661051993611446565b949350610724565b6040513d87823e3d90fd5b6020813d6020116107cb575b816107b460209383611446565b810103126107c7575180151581146106ec575b8480fd5b3d91506107a7565b631e9acf1760e31b8652600486fd5b9150506020813d602011610813575b816107fe60209383611446565b8101031261080f57839051386106a7565b8680fd5b3d91506107f1565b6040513d89823e3d90fd5b635737b5dd60e01b8552600485fd5b50346102865760206108656108493661138f565b90610855939293611a14565b61085e846116cc565b9384611bfd565b6001600755604051908152f35b503461028657806003193601126102865760405180602060085491828152018091600885527ff3f7a9fe364faab93b216da50a3214154f22a0a2b415b23a84c8169e8b636ee390855b81811061091b57505050826108d1910383611446565b604051928392602084019060208552518091526040840192915b8181106108f9575050500390f35b82516001600160a01b03168452859450602093840193909201916001016108eb565b82546001600160a01b03168452602090930192600192830192016108bb565b503461028657602061086561094e3661138f565b9061095a939293611a14565b610963846116e7565b8094611bfd565b50346102865760203660031901126102865760206103586004356116ab565b5034610286576040366003190112610286576109b06109a661133d565b60243590336117fa565b602060405160018152f35b5034610286578060031936011261028657602090604051908152f35b50346102865780600319360112610286576040519080600554908160011c91600181168015610ad6575b602084108114610ac257838652908115610a9b5750600114610a3e575b610a3a84610a2e81860382611446565b604051918291826112d1565b0390f35b600581527f036b6384b5eca791c62761152d0c79bb0604c104a5fb6f4eb0703f3154bb3db0939250905b808210610a8157509091508101602001610a2e82610a1e565b919260018160209254838588010152019101909291610a68565b60ff191660208087019190915292151560051b85019092019250610a2e9150839050610a1e565b634e487b7160e01b83526022600452602483fd5b92607f1692610a01565b5034610286576040366003190112610286576020600435610865610b02611353565b610b0a611a14565b610b13836116ab565b9283611a36565b50346102865760403660031901126102865760ff6040602092610b3b611353565b6004358252600685528282206001600160a01b03909116825284522054604051911615158152f35b5034610286578060031936011261028657546040516001600160a01b039091168152602090f35b5034610286578060031936011261028657610ba3611bd4565b80546001600160a01b03198116825581906001600160a01b03167f8be0079c531659141344cd1fd0a4f28419497f9722a3daafe3b4186f6b6457e08280a380f35b5034610286576040366003190112610286576020600435610865610c06611353565b610c0e611a14565b610c1783611708565b8093611a36565b61131a565b50346102865780600319360112610286576040517f00000000000000000000000000000000000000000000000000000000000000006001600160a01b03168152602090f35b503461028657604036600319011261028657610c82611353565b336001600160a01b03821603610c9e576103ea9060043561198e565b63334bd91960e11b8252600482fd5b5034610286578060031936011261028657602060405160128152f35b5034610286576040366003190112610286576103ea600435610ce9611353565b90610d056103e082600052600660205260016040600020015490565b6118ff565b50346102865760203660031901126102865760209060ff906040906001600160a01b03610d3561133d565b168152600984522054166040519015158152f35b5034610286576020366003190112610286576020610358600435600052600660205260016040600020015490565b5034610286576060366003190112610286576109b0610d9461133d565b610d9c611353565b60443591610dab833383611723565b6117fa565b503461028657806003193601126102865760206040517fcab5a0bfe0b79d2c4b1c2e02599fa044d115b7511f9659307cb42769509677098152f35b503461028657602036600319011261028657610e0561133d565b7f241ecf16d79d0f8dbfb92cbc07fe17840425976cf0667f022fe9877caa831b088252600660209081526040808420338552909152822054610e499060ff166115db565b6001600160a01b038116908115610f1b57818352600960205260ff604084205416610f0c57818352600960205260408320805460ff1916600117905560085468010000000000000000811015610ef85790610ead826001610ed19401600855611415565b81546001600160a01b0393841660039290921b91821b9390911b1916919091179055565b7f3f008fd510eae7a9e7bee13513d7b83bef8003d488b5a3d0b0da4de71d6846f18280a280f35b634e487b7160e01b84526041600452602484fd5b63c45546f760e01b8352600483fd5b63e6c4247b60e01b8352600483fd5b50346102865780600319360112610286576020600354604051908152f35b503461028657602036600319011261028657610f6261133d565b7f241ecf16d79d0f8dbfb92cbc07fe17840425976cf0667f022fe9877caa831b088252600660209081526040808420338552909152822054610fa69060ff166115db565b6001600160a01b03168082526009602052604082205460ff16156110c657808252600960205260408220805460ff19169055815b600854808210156110bf5782610fef83611415565b905460039190911b1c6001600160a01b03161461100f5750600101610fda565b60001981019081116110ab5790610ead61102b61104393611415565b905460039190911b1c6001600160a01b031691611415565b6008548015611097576000190161105981611415565b81549060018060a01b039060031b1b191690556008555b7f09a1db4b80c32706328728508c941a6b954f31eb5affd32f236c1fd405f8fea48280a280f35b634e487b7160e01b83526031600452602483fd5b634e487b7160e01b84526011600452602484fd5b5050611070565b635737b5dd60e01b8252600482fd5b50346102865760203660031901126102865760206103586004356116e7565b50346102865760403660031901126102865761110e61133d565b60243590331561118a576001600160a01b03169182156111765760408291338152600260205281812085825260205220556040519081527f8c5be1e5ebec7d5bd14f71427d1e84f3dd0314c0f7b2291e5b200ac8c7c3b92560203392a3602060405160018152f35b634a1406b160e11b81526004819052602490fd5b63e602df0560e01b83526004839052602483fd5b50346102865780600319360112610286576040519080600454908160011c91600181168015611251575b602084108114610ac257838652908115610a9b57506001146111f457610a3a84610a2e81860382611446565b600481527f8a35acfbc15ff81a39ae7d344fd709f28e8600b4aa8c65c6b64bfe7fe36bd19b939250905b80821061123757509091508101602001610a2e82610a1e565b91926001816020925483858801015201910190929161121e565b92607f16926111c8565b50346102865760203660031901126102865760043563ffffffff60e01b81168091036112b257602090637965db0b60e01b81149081156112a1575b506040519015158152f35b6301ffc9a760e01b14905082611296565b5080fd5b503461028657806003193601126102865760206103586114a1565b91909160208152825180602083015260005b818110611304575060409293506000838284010152601f8019910116010190565b80602080928701015160408286010152016112e3565b346113385760203660031901126113385760206103586004356116cc565b600080fd5b600435906001600160a01b038216820361133857565b602435906001600160a01b038216820361133857565b346113385760203660031901126113385761138261133d565b5060206040516000198152f35b606090600319011261133857600435906024356001600160a01b038116810361133857906044356001600160a01b03811681036113385790565b9181601f840112156113385782359167ffffffffffffffff8311611338576020838186019501011161133857565b34611338576020366003190112611338576020610358600435611708565b60085481101561143057600860005260206000200190600090565b634e487b7160e01b600052603260045260246000fd5b90601f8019910116810190811067ffffffffffffffff82111761146857604052565b634e487b7160e01b600052604160045260246000fd5b9190820180921161148b57565b634e487b7160e01b600052601160045260246000fd5b6000806008545b8082106115525750506040516370a0823160e01b8152306004820152906020826024817f00000000000000000000000000000000000000000000000000000000000000006001600160a01b03165afa801561154657600090611512575b61150f925061147e565b90565b506020823d60201161153e575b8161152c60209383611446565b810103126113385761150f9151611505565b3d915061151f565b6040513d6000823e3d90fd5b90916004602061156185611415565b9054604051629032ff60e51b81529384929091839160031b1c6001600160a01b03165afa908115611546576000916115a9575b506115a19060019261147e565b9201906114a8565b906020823d82116115d3575b816115c260209383611446565b810103126102865750516001611594565b3d91506115b5565b156115e257565b60405162461bcd60e51b815260206004820152601e60248201527f5661756c743a2063616c6c6572206973206e6f742061206d616e6167657200006044820152606490fd5b1561162e57565b60405162461bcd60e51b815260206004820152601d60248201527f5661756c743a2063616c6c6572206973206e6f7420616e206167656e740000006044820152606490fd5b908060209392818452848401376000828201840152601f01601f1916010190565b60409061150f949281528160208201520191611673565b600354806116b7575090565b60019061150f926116c66114a1565b90611dc2565b600354806116d8575090565b60009061150f926116c66114a1565b600354806116f3575090565b61150f916001916117026114a1565b91611dc2565b60035480611714575090565b61150f916000916117026114a1565b6001600160a01b03908116600081815260026020908152604080832094861683529390529190912054929190600019841061175f575b50505050565b8284106117d55780156117bf576001600160a01b038216156117a957600052600260205260406000209060018060a01b031660005260205260406000209103905538808080611759565b634a1406b160e11b600052600060045260246000fd5b63e602df0560e01b600052600060045260246000fd5b508290637dc7a0d960e11b60005260018060a01b031660045260245260445260646000fd5b6001600160a01b03169081156118ac576001600160a01b03169182156118965760008281526001602052604081205482811061187c5791604082827fddf252ad1be2c89b69c2b068fc378daa952ba7f163c4a11628f55a4df523b3ef9587602096526001865203828220558681526001845220818154019055604051908152a3565b916064928463391434e360e21b8452600452602452604452fd5b63ec442f0560e01b600052600060045260246000fd5b634b637e8f60e11b600052600060045260246000fd5b600081815260066020908152604080832033845290915290205460ff16156118e75750565b63e2517d3f60e01b6000523360045260245260446000fd5b60008181526006602090815260408083206001600160a01b038616845290915290205460ff166119875760008181526006602090815260408083206001600160a01b0395909516808452949091528120805460ff19166001179055339291907f2f8788117e7eff1d82e926ec794901d17c78024a50270940304540a733656f0d9080a4600190565b5050600090565b60008181526006602090815260408083206001600160a01b038616845290915290205460ff16156119875760008181526006602090815260408083206001600160a01b0395909516808452949091528120805460ff19169055339291907ff6391f5c32d9c69d2a47ea670b442974b53935d1edc7fd64eb21e047a839171b9080a4600190565b600260075414611a25576002600755565b633ee5aeb560e01b60005260046000fd5b6001600160a01b0390921691908215611b84578115611b3f57611aa96040516323b872dd60e01b602082015233602482015230604482015283606482015260648152611a83608482611446565b7f0000000000000000000000000000000000000000000000000000000000000000611edb565b611ab58160035461147e565b60035582611b265780600354036003555b8260007fddf252ad1be2c89b69c2b068fc378daa952ba7f163c4a11628f55a4df523b3ef6020604051858152a360405191825260208201527fdcbc1c05240f31ff3ad067ef1ee35ce4997762752e3a095284754544f4c709d760403392a3565b8260005260016020526040600020818154019055611ac6565b60405162461bcd60e51b815260206004820152601d60248201527f5661756c743a206465706f736974206f66207a65726f206173736574730000006044820152606490fd5b60405162461bcd60e51b815260206004820152602260248201527f5661756c743a206465706f73697420746f20746865207a65726f206164647265604482015261737360f01b6064820152608490fd5b6000546001600160a01b03163303611be857565b63118cdaa760e01b6000523360045260246000fd5b6001600160a01b038316929091908315611d71578215611d2c576001600160a01b038516948233879003611d1a575b505084156118ac57600085815260016020526040812054838110611cfe57611ccb928285611a83938a89965260016020520360408220558560035403600355887fddf252ad1be2c89b69c2b068fc378daa952ba7f163c4a11628f55a4df523b3ef6020604051898152a360405163a9059cbb60e01b60208201526001600160a01b03919091166024820152604480820193909352918252606482611446565b60405191825260208201527ffbde797d201c681b91056529119e0b02407c7bb96a4a2c75c01fc9667232c8db60403392a4565b63391434e360e21b825260048790526024526044839052606490fd5b611d25913390611723565b3882611c2c565b60405162461bcd60e51b815260206004820152601e60248201527f5661756c743a207769746864726177206f66207a65726f2061737365747300006044820152606490fd5b60405162461bcd60e51b815260206004820152602360248201527f5661756c743a20776974686472617720746f20746865207a65726f206164647260448201526265737360e81b6064820152608490fd5b9291611dcf818386611e38565b926004811015611e22576001809116149182611df5575b505061150f925015159061147e565b9080925015611e0c5761150f930915153880611de6565b634e487b7160e01b600052601260045260246000fd5b634e487b7160e01b600052602160045260246000fd5b90916000198383099280830292838086109503948086039514611ecd5784831115611eb45790829109816000038216809204600281600302188082026002030280820260020302808202600203028082026002030280820260020302809102600203029360018380600003040190848311900302920304170290565b82634e487b71600052156003026011186020526024601cfd5b505080925015611e0c570490565b906000602091828151910182855af115611546576000513d611f2d57506001600160a01b0381163b155b611f0c5750565b635274afe760e01b60009081526001600160a01b0391909116600452602490fd5b60011415611f0556fea2646970667358221220bcf077d1ccedbb7a8bb45ea7e0f8c26b73a384b979f3121ed721e15aa9e6e1a364736f6c634300081c00332f8788117e7eff1d82e926ec794901d17c78024a50270940304540a733656f0d241ecf16d79d0f8dbfb92cbc07fe17840425976cf0667f022fe9877caa831b08cab5a0bfe0b79d2c4b1c2e02599fa044d115b7511f9659307cb42769509677094448119502453e295a09f7d4e8a6a0575d3624c233f99f59abf0835bf259780a6f33ec38532bdfedd8912126adc1f5918b75385d650da7c642efcc94ef3a60f554cdd369e4e8a8515e52ca72ec816c2101831ad1f18bf44102ed171459c9b4f8",
  "linkReferences": {},
  "deployedLinkReferences": {}
}