{
  "_format": "hh-sol-artifact-1",
  "contractName": "Strategies",
  "sourceName": "contracts/strategies/strategies.sol",
  "abi": [
    {
      "inputs": [
        {
          "internalType": "address",
          "name": "_underlyingToken",
          "type": "address"
        },
        {
          "internalType": "address",
          "name": "_protocol",
          "type": "address"
        },
        {
          "internalType": "bytes4",
          "name": "_depositSelector",
          "type": "bytes4"
        },
        {
          "internalType": "bytes4",
          "name": "_withdrawSelector",
          "type": "bytes4"
        },
        {
          "internalType": "bytes4",
          "name": "_claimSelector",
          "type": "bytes4"
        },
        {
          "internalType": "bytes4",
          "name": "_getBalanceSelector",
          "type": "bytes4"
        }
      ],
      "stateMutability": "nonpayable",
      "type": "constructor"
    },
    {
      "inputs": [
        {
          "internalType": "bytes",
          "name": "reason",
          "type": "bytes"
        }
      ],
      "name": "ClaimFailed",
      "type": "error"
    },
    {
      "inputs": [
        {
          "internalType": "bytes",
          "name": "reason",
          "type": "bytes"
        }
      ],
      "name": "DepositFailed",
      "type": "error"
    },
    {
      "inputs": [
        {
          "internalType": "bytes",
          "name": "reason",
          "type": "bytes"
        }
      ],
      "name": "GetBalanceFailed",
      "type": "error"
    },
    {
      "inputs": [],
      "name": "InvalidAmount",
      "type": "error"
    },
    {
      "inputs": [],
      "name": "InvalidTokenAddress",
      "type": "error"
    },
    {
      "inputs": [],
      "name": "NoUnderlyingBalance",
      "type": "error"
    },
    {
      "inputs": [],
      "name": "NoVaultSet",
      "type": "error"
    },
    {
      "inputs": [],
      "name": "ReentrancyGuardReentrantCall",
      "type": "error"
    },
    {
      "inputs": [
        {
          "internalType": "address",
          "name": "token",
          "type": "address"
        }
      ],
      "name": "SafeERC20FailedOperation",
      "type": "error"
    },
    {
      "inputs": [],
      "name": "StrategyPaused",
      "type": "error"
    },
    {
      "inputs": [
        {
          "internalType": "bytes",
          "name": "reason",
          "type": "bytes"
        }
      ],
      "name": "WithdrawFailed",
      "type": "error"
    },
    {
      "anonymous": false,
      "inputs": [
        {
          "indexed": false,
          "internalType": "uint256",
          "name": "amount",
          "type": "uint256"
        }
      ],
      "name": "Claim",
      "type": "event"
    },
    {
      "anonymous": false,
      "inputs": [
        {
          "indexed": false,
          "internalType": "bytes",
          "name": "reason",
          "type": "bytes"
        }
      ],
      "name": "ClaimRewardsFailed",
      "type": "event"
    },
    {
      "anonymous": false,
      "inputs": [
        {
          "indexed": false,
          "internalType": "uint256",
          "name": "amount",
          "type": "uint256"
        }
      ],
      "name": "Deposit",
      "type": "event"
    },
    {
      "anonymous": false,
      "inputs": [
        {
          "indexed": false,
          "internalType": "uint256",
          "name": "balance",
          "type": "uint256"
        },
        {
          "indexed": false,
          "internalType": "bytes",
          "name": "data",
          "type": "bytes"
        }
      ],
      "name": "EmergencyExited",
      "type": "event"
    },
    {
      "anonymous": false,
      "inputs": [
        {
          "indexed": false,
          "internalType": "uint256",
          "name": "amount",
          "type": "uint256"
        },
        {
          "indexed": false,
          "internalType": "bytes",
          "name": "data",
          "type": "bytes"
        }
      ],
      "name": "Executed",
      "type": "event"
    },
    {
      "anonymous": false,
      "inputs": [
        {
          "indexed": false,
          "internalType": "bytes",
          "name": "data",
          "type": "bytes"
        }
      ],
      "name": "Harvested",
      "type": "event"
    },
    {
      "anonymous": false,
      "inputs": [
        {
          "indexed": false,
          "internalType": "bool",
          "name": "isPaused",
          "type": "bool"
        }
      ],
      "name": "PausedState",
      "type": "event"
    },
    {
      "anonymous": false,
      "inputs": [
        {
          "indexed": true,
          "internalType": "address",
          "name": "token",
          "type": "address"
        }
      ],
      "name": "RewardTokenAdded",
      "type": "event"
    },
    {
      "anonymous": false,
      "inputs": [
        {
          "indexed": true,
          "internalType": "address",
          "name": "token",
          "type": "address"
        },
        {
          "indexed": false,
          "internalType": "uint256",
          "name": "amount",
          "type": "uint256"
        }
      ],
      "name": "TokensForwarded",
      "type": "event"
    },
    {
      "anonymous": false,
      "inputs": [
        {
          "indexed": false,
          "internalType": "address",
          "name": "vault",
          "type": "address"
        }
      ],
      "name": "VaultSet",
      "type": "event"
    },
    {
      "anonymous": false,
      "inputs": [
        {
          "indexed": false,
          "internalType": "uint256",
          "name": "amount",
          "type": "uint256"
        }
      ],
      "name": "Withdraw",
      "type": "event"
    },
    {
      "inputs": [
        {
          "internalType": "address",
          "name": "tokenAddress",
          "type": "address"
        }
      ],
      "name": "addRewardToken",
      "outputs": [],
      "stateMutability": "nonpayable",
      "type": "function"
    },
    {
      "inputs": [
        {
          "internalType": "bytes",
          "name": "data",
          "type": "bytes"
        }
      ],
      "name": "claimRewards",
      "outputs": [],
      "stateMutability": "nonpayable",
      "type": "function"
    },
    {
      "inputs": [],
      "name": "claimSelector",
      "outputs": [
        {
          "internalType": "bytes4",
          "name": "",
          "type": "bytes4"
        }
      ],
      "stateMutability": "view",
      "type": "function"
    },
    {
      "inputs": [],
      "name": "depositSelector",
      "outputs": [
        {
          "internalType": "bytes4",
          "name": "",
          "type": "bytes4"
        }
      ],
      "stateMutability": "view",
      "type": "function"
    },
    {
      "inputs": [
        {
          "internalType": "bytes",
          "name": "data",
          "type": "bytes"
        }
      ],
      "name": "emergencyExit",
      "outputs": [],
      "stateMutability": "nonpayable",
      "type": "function"
    },
    {
      "inputs": [
        {
          "internalType": "uint256",
          "name": "amount",
          "type": "uint256"
        },
        {
          "internalType": "bytes",
          "name": "data",
          "type": "bytes"
        }
      ],
      "name": "execute",
      "outputs": [],
      "stateMutability": "nonpayable",
      "type": "function"
    },
    {
      "inputs": [],
      "name": "getBalance",
      "outputs": [
        {
          "internalType": "uint256",
          "name": "",
          "type": "uint256"
        }
      ],
      "stateMutability": "view",
      "type": "function"
    },
    {
      "inputs": [],
      "name": "getBalanceSelector",
      "outputs": [
        {
          "internalType": "bytes4",
          "name": "",
          "type": "bytes4"
        }
      ],
      "stateMutability": "view",
      "type": "function"
    },
    {
      "inputs": [
        {
          "internalType": "bytes",
          "name": "data",
          "type": "bytes"
        }
      ],
      "name": "harvest",
      "outputs": [],
      "stateMutability": "nonpayable",
      "type": "function"
    },
    {
      "inputs": [
        {
          "internalType": "address",
          "name": "",
          "type": "address"
        }
      ],
      "name": "knownRewardTokens",
      "outputs": [
        {
          "internalType": "bool",
          "name": "",
          "type": "bool"
        }
      ],
      "stateMutability": "view",
      "type": "function"
    },
    {
      "inputs": [],
      "name": "paused",
      "outputs": [
        {
          "internalType": "bool",
          "name": "",
          "type": "bool"
        }
      ],
      "stateMutability": "view",
      "type": "function"
    },
    {
      "inputs": [],
      "name": "protocol",
      "outputs": [
        {
          "internalType": "address",
          "name": "",
          "type": "address"
        }
      ],
      "stateMutability": "view",
      "type": "function"
    },
    {
      "inputs": [
        {
          "internalType": "bytes4",
          "name": "selector",
          "type": "bytes4"
        },
        {
          "internalType": "bytes",
          "name": "params",
          "type": "bytes"
        }
      ],
      "name": "queryProtocol",
      "outputs": [
        {
          "internalType": "bytes",
          "name": "",
          "type": "bytes"
        }
      ],
      "stateMutability": "view",
      "type": "function"
    },
    {
      "inputs": [
        {
          "internalType": "uint256",
          "name": "",
          "type": "uint256"
        }
      ],
      "name": "rewardTokensList",
      "outputs": [
        {
          "internalType": "address",
          "name": "",
          "type": "address"
        }
      ],
      "stateMutability": "view",
      "type": "function"
    },
    {
      "inputs": [
        {
          "internalType": "bool",
          "name": "_paused",
          "type": "bool"
        }
      ],
      "name": "setPaused",
      "outputs": [],
      "stateMutability": "nonpayable",
      "type": "function"
    },
    {
      "inputs": [
        {
          "internalType": "address",
          "name": "_vault",
          "type": "address"
        }
      ],
      "name": "setVault",
      "outputs": [],
      "stateMutability": "nonpayable",
      "type": "function"
    },
    {
      "inputs": [],
      "name": "underlyingToken",
      "outputs": [
        {
          "internalType": "address",
          "name": "",
          "type": "address"
        }
      ],
      "stateMutability": "view",
      "type": "function"
    },
    {
      "inputs": [],
      "name": "vault",
      "outputs": [
        {
          "internalType": "address",
          "name": "",
          "type": "address"
        }
      ],
      "stateMutability": "view",
      "type": "function"
    },
    {
      "inputs": [],
      "name": "withdrawSelector",
      "outputs": [
        {
          "internalType": "bytes4",
          "name": "",
          "type": "bytes4"
        }
      ],
      "stateMutability": "view",
      "type": "function"
    }
  ],
  "bytecode": "0x610140346101ea57601f6118dd38819003918201601f19168301916001600160401b038311848410176101ef5780849260c0946040528339810103126101ea5761004881610205565b9061005560208201610205565b61006160408301610219565b61006d60608401610219565b9161008660a061007f60808701610219565b9501610219565b6001600055946001600160a01b038116156101a5576001600160a01b038216156101605760805260a05260c05260e05261010052610120526040516116ae908161022f8239608051818181610382015281816104b7015281816107450152818161108b0152611140015260a05181818161046a0152818161078b01528181610be401528181610e0101528181610fae01526113a3015260c0518181816106a00152610917015260e0518181816105f80152610a92015261010051818181610d750152611354015261012051818181610dbb0152610fe80152f35b60405162461bcd60e51b815260206004820152601860248201527f496e76616c69642070726f746f636f6c206164647265737300000000000000006044820152606490fd5b60405162461bcd60e51b815260206004820152601560248201527f496e76616c696420746f6b656e206164647265737300000000000000000000006044820152606490fd5b600080fd5b634e487b7160e01b600052604160045260246000fd5b51906001600160a01b03821682036101ea57565b51906001600160e01b0319821682036101ea5756fe6080604052600436101561001257600080fd5b60003560e01c806312065fe01461014757806316c38b3c146101425780631c03e6cc1461013d5780632495a599146101385780632c1c12761461013357806338c1d4671461012e578063504ee05a1461012957806359efcb15146101245780635c975abb1461011f5780635d2e04701461011a5780635da9e16914610115578063633f14ef146101105780636817031b1461010b578063870240b314610106578063870e4bef146101015780638ce74426146100fc578063ce5c7f61146100f7578063e190febc146100f25763fbfa77cf146100ed57600080fd5b610eeb565b610ebc565b610e30565b610deb565b610da5565b610d5f565b610c8f565b610b9c565b610af8565b610a7c565b610a56565b6106d0565b61068a565b610656565b61040e565b61036c565b61026a565b610179565b3461016a57600036600319011261016a576020610162610fac565b604051908152f35b600080fd5b8015150361016a57565b3461016a57602036600319011261016a576004356101968161016f565b600154906001600160a01b03821680156102375733036101f7577f6c44c1c6e888a23752ec9c1d8f194bfb0ea295ccdb49b3da95d5be50c9db97699160209115159060ff60a01b8260a01b169060ff60a01b191617600155604051908152a1005b60405162461bcd60e51b815260206004820152601360248201527213db9b1e481859d95b9d0818d85b8818d85b1b606a1b604482015280606481015b0390fd5b63543b841f60e01b60005260046000fd5b602090600319011261016a576004356001600160a01b038116810361016a5790565b3461016a5761027836610248565b6001546001600160a01b031680156102375733036101f7576001600160a01b03811690811561032f57806102da6102d56102d16102ca6103089560018060a01b03166000526002602052604060002090565b5460ff1690565b1590565b61116e565b6001600160a01b038116600090815260026020526040902061030390805460ff19166001179055565b6111b0565b7ff3e4c2c64e71e6ba2eaab9a599bced62f9eb91d2cda610bf41aa8c80ff2cf826600080a2005b60405162461bcd60e51b8152602060048201526015602482015274496e76616c696420746f6b656e206164647265737360581b6044820152606490fd5b3461016a57600036600319011261016a576040517f00000000000000000000000000000000000000000000000000000000000000006001600160a01b03168152602090f35b9181601f8401121561016a5782359167ffffffffffffffff831161016a576020838186019501011161016a57565b602060031982011261016a576004359067ffffffffffffffff821161016a5761040a916004016103b1565b9091565b3461016a5761041c366103df565b6001549091906001600160a01b031680156102375733036101f75761043f61147a565b610447610fac565b80156106455782156105f05760008061046136868661121c565b602081519101827f00000000000000000000000000000000000000000000000000000000000000005af1610493610f6d565b90156105bd57506040516370a0823160e01b81523060048201526001600160a01b037f00000000000000000000000000000000000000000000000000000000000000001693602082602481885afa9485156105b8577f33707543538a74978cfbe255a9a187ce79ed7695a03a48d36b5a3cf8b569aa529561055c93600091610589575b508061056b575b50506040518381527f5b6b431d4476a211bb7d41c20d1aab9ae2321deee0d20be3d9fc9b1093fa6e3d9080602081015b0390a160405193849384611280565b0390a16105696001600055565b005b60015461058292906001600160a01b03169061149c565b388061051d565b6105ab915060203d6020116105b1575b6105a38183610f2a565b810190610f9d565b38610516565b503d610599565b611253565b6102339060609080516105e5575b50604051635685694560e11b815291829160048301610b53565b6020915001826105cb565b6000806040517f000000000000000000000000000000000000000000000000000000000000000060208201526106408161063286602483019190602083019252565b03601f198101835282610f2a565b610461565b630bc0b2c560e21b60005260046000fd5b3461016a576001600160a01b0361066c36610248565b166000526002602052602060ff604060002054166040519015158152f35b3461016a57600036600319011261016a576040517f00000000000000000000000000000000000000000000000000000000000000006001600160e01b0319168152602090f35b3461016a57604036600319011261016a5760043560243567ffffffffffffffff811161016a576107049036906004016103b1565b6001549092906001600160a01b031680156102375733036101f75761072761147a565b60015460ff8160a01c16610a45578115610a34576001600160a01b037f0000000000000000000000000000000000000000000000000000000000000000811691610776918491163090846114df565b604051636eb1769f60e11b81523060048201527f00000000000000000000000000000000000000000000000000000000000000006001600160a01b03811660248301529190602081604481855afa9081156105b857600091610a15575b50838110610956575b50841561090f576000806107f136888861121c565b60208151910182865af191610804610f6d565b921561086c5750505061055c7f2e733a17851169f232b3859260eb3ad2a086afd54e999eb4ea9afb7791702e419361083a611523565b6040518381527f4d6ce1e535dbade1c23defba91e23b8f791ce5edc0cc320257a2b364e4e3842690806020810161054d565b60405163095ea7b360e01b81526001600160a01b03919091166004820152600060248201819052909291602091849160449183915af19182156105b857610233926108e2575b5060609080516108d7575b5060405163f8e68f2360e01b815291829160048301610b53565b6020915001826108bd565b6109039060203d602011610908575b6108fb8183610f2a565b810190611297565b6108b2565b503d6108f1565b6000806040517f000000000000000000000000000000000000000000000000000000000000000060208201526109518161063288602483019190602083019252565b6107f1565b6109b3575b60405163095ea7b360e01b81526001600160a01b0383166004820152602481018490526020816044816000865af180156105b857156107dc576109ac9060203d602011610908576108fb8183610f2a565b50386107dc565b60405163095ea7b360e01b81526001600160a01b038316600482015260006024820152602081806044810103816000865af180156105b8576109f6575b5061095b565b610a0e9060203d602011610908576108fb8183610f2a565b50386109f0565b610a2e915060203d6020116105b1576105a38183610f2a565b386107d3565b63162908e360e11b60005260046000fd5b63e628b94960e01b60005260046000fd5b3461016a57600036600319011261016a57602060ff60015460a01c166040519015158152f35b3461016a57600036600319011261016a576040517f00000000000000000000000000000000000000000000000000000000000000006001600160e01b0319168152602090f35b634e487b7160e01b600052603260045260246000fd5b600354811015610af357600360005260206000200190600090565b610ac2565b3461016a57602036600319011261016a5760043560035481101561016a5760036000527fc2575a0e9e593c00f959f8c92f12db2869c3395a3b0502d05e2516446f71f85b01546040516001600160a01b039091168152602090f35b91909160208152825180602083015260005b818110610b86575060409293506000838284010152601f8019910116010190565b8060208092870101516040828601015201610b65565b3461016a57604036600319011261016a576004356001600160e01b03198116810361016a5760243567ffffffffffffffff811161016a57610be19036906004016103b1565b907f00000000000000000000000000000000000000000000000000000000000000006001600160a01b03811615610c5757610c5393600093610c3285946106326040519384926020840196876112ac565b51915afa610c47610c41610f6d565b916112cd565b60405191829182610b53565b0390f35b60405162461bcd60e51b815260206004820152601060248201526f141c9bdd1bd8dbdb081b9bdd081cd95d60821b6044820152606490fd5b3461016a57610c9d36610248565b6001600160a01b03811615610d22576001547fe7ae49f883c825b05681b3e00e8be6fdea9ed2a8a45e4c6ecb9390fc44cce61591610d1d91610ce8906001600160a01b031615611311565b600180546001600160a01b0319166001600160a01b0383161790556040516001600160a01b0390911681529081906020820190565b0390a1005b60405162461bcd60e51b8152602060048201526015602482015274496e76616c6964207661756c74206164647265737360581b6044820152606490fd5b3461016a57600036600319011261016a576040517f00000000000000000000000000000000000000000000000000000000000000006001600160e01b0319168152602090f35b3461016a57600036600319011261016a576040517f00000000000000000000000000000000000000000000000000000000000000006001600160e01b0319168152602090f35b3461016a57600036600319011261016a576040517f00000000000000000000000000000000000000000000000000000000000000006001600160a01b03168152602090f35b3461016a57610e3e366103df565b6001549091906001600160a01b031680156102375733036101f757610e6161147a565b6001546001600160a01b031680156102375733036101f75781610ea57fac04581c930eefb60cf2509de6e2388cbcde488697b9c13ca8dc5cddc81718609383611351565b61055c60405192839260208452602084019161125f565b3461016a57610eca366103df565b6001546001600160a01b031680156102375733036101f75761056991611351565b3461016a57600036600319011261016a576001546040516001600160a01b039091168152602090f35b634e487b7160e01b600052604160045260246000fd5b90601f8019910116810190811067ffffffffffffffff821117610f4c57604052565b610f14565b67ffffffffffffffff8111610f4c57601f01601f191660200190565b3d15610f98573d90610f7e82610f51565b91610f8c6040519384610f2a565b82523d6000602084013e565b606090565b9081602091031261016a575190565b7f00000000000000000000000000000000000000000000000000000000000000006001600160a01b03811615801561113d575b611137576040517f000000000000000000000000000000000000000000000000000000000000000060208201818152306024840152909160009182916110288160448101610632565b5190855afa611035610f6d565b908061112b575b611109575060008060405160208101908482526004815261105e602482610f2a565b5190855afa61106b610f6d565b908061111f575b6111095750604051602081019182526001600160a01b037f0000000000000000000000000000000000000000000000000000000000000000166024820152306044820152600092839290916110ca8160648101610632565b51915afa6110d6610f6d565b90806110fd575b6110e75750600090565b806020806110fa93518301019101610f9d565b90565b506020815110156110dd565b90506110fa915060208082518301019101610f9d565b50602081511015611072565b5060208151101561103c565b50600090565b507f00000000000000000000000000000000000000000000000000000000000000006001600160a01b031615610fdf565b1561117557565b60405162461bcd60e51b8152602060048201526013602482015272151bdad95b88185b1c9958591e481859191959606a1b6044820152606490fd5b60035468010000000000000000811015610f4c57600181016003556000600354821015610af357600390527fc2575a0e9e593c00f959f8c92f12db2869c3395a3b0502d05e2516446f71f85b0180546001600160a01b0319166001600160a01b03909216919091179055565b92919261122882610f51565b916112366040519384610f2a565b82948184528183011161016a578281602093846000960137010152565b6040513d6000823e3d90fd5b908060209392818452848401376000828201840152601f01601f1916010190565b6040906110fa94928152816020820152019161125f565b9081602091031261016a57516110fa8161016f565b6001600160e01b031990911681526004929182908483013701016000815290565b156112d457565b60405162461bcd60e51b8152602060048201526015602482015274141c9bdd1bd8dbdb081c5d595c9e4819985a5b1959605a1b6044820152606490fd5b1561131857565b60405162461bcd60e51b815260206004820152601160248201527015985d5b1d08185b1c9958591e481cd95d607a1b6044820152606490fd5b907f00000000000000000000000000000000000000000000000000000000000000006001600160e01b031981161561147557600092839280156114565761139a9250369161121c565b602081519101827f00000000000000000000000000000000000000000000000000000000000000005af16113cc610f6d565b901561140f57506113db611523565b604051600081527f7bb2b3c10797baccb6f8c4791f1edd6ca2f0d028ee0eda64b01a9a57e3a653f79080602081015b0390a1565b61140a7f9dfb4d0b6d3a7d9eb497af2461924460d2c49b902ff4fc2934b6a472d239028d91606090805161144b575b5060405191829182610b53565b60209150013861143e565b505060405190602082015260048152611470602482610f2a565b61139a565b505050565b60026000541461148b576002600055565b633ee5aeb560e01b60005260046000fd5b60405163a9059cbb60e01b60208201526001600160a01b039290921660248301526044808301939093529181526114dd916114d8606483610f2a565b61161d565b565b6040516323b872dd60e01b60208201526001600160a01b0392831660248201529290911660448301526064808301939093529181526114dd916114d8608483610f2a565b600354600a8111156116185750600a5b60005b818110611541575050565b61156461154d82610ad8565b90546001600160a01b039260039290921b1c821690565b6040516370a0823160e01b8152306004820152929116602083602481845afa80156105b8576001936000916115fa575b50806115a3575b505001611536565b83547fd2b15471a0072ae32e0a1ff293c39098f5d37d8d55eeb8b17b9fe94b2260c031916115f0916115e09082906001600160a01b03168661149c565b6040519081529081906020820190565b0390a2388061159b565b611612915060203d81116105b1576105a38183610f2a565b38611594565b611533565b906000602091828151910182855af115611253576000513d61166f57506001600160a01b0381163b155b61164e5750565b635274afe760e01b60009081526001600160a01b0391909116600452602490fd5b6001141561164756fea264697066735822122042537b599d9792c0611b90a8bebacd09e7abe0c1e6060ddab1015315b302906064736f6c634300081c0033",
  "linkReferences": {},
  "deployedLinkReferences": {}
}