{
  "_format": "hh-sol-artifact-1",
  "contractName": "Strategies",
  "sourceName": "contracts/strategies/strategies.sol",
  "abi": [
    {
      "inputs": [
        {
          "internalType": "address",
          "name": "_underlyingToken",
          "type": "address"
        },
        {
          "internalType": "address",
          "name": "_protocol",
          "type": "address"
        },
        {
          "internalType": "bytes4",
          "name": "_depositSelector",
          "type": "bytes4"
        },
        {
          "internalType": "bytes4",
          "name": "_withdrawSelector",
          "type": "bytes4"
        },
        {
          "internalType": "bytes4",
          "name": "_claimSelector",
          "type": "bytes4"
        },
        {
          "internalType": "bytes4",
          "name": "_getBalanceSelector",
          "type": "bytes4"
        }
      ],
      "stateMutability": "nonpayable",
      "type": "constructor"
    },
    {
      "inputs": [
        {
          "internalType": "bytes",
          "name": "reason",
          "type": "bytes"
        }
      ],
      "name": "ClaimFailed",
      "type": "error"
    },
    {
      "inputs": [
        {
          "internalType": "bytes",
          "name": "reason",
          "type": "bytes"
        }
      ],
      "name": "DepositFailed",
      "type": "error"
    },
    {
      "inputs": [
        {
          "internalType": "bytes",
          "name": "reason",
          "type": "bytes"
        }
      ],
      "name": "GetBalanceFailed",
      "type": "error"
    },
    {
      "inputs": [],
      "name": "InvalidAmount",
      "type": "error"
    },
    {
      "inputs": [],
      "name": "InvalidTokenAddress",
      "type": "error"
    },
    {
      "inputs": [],
      "name": "NoUnderlyingBalance",
      "type": "error"
    },
    {
      "inputs": [],
      "name": "NoVaultSet",
      "type": "error"
    },
    {
      "inputs": [],
      "name": "StrategyPaused",
      "type": "error"
    },
    {
      "inputs": [
        {
          "internalType": "bytes",
          "name": "reason",
          "type": "bytes"
        }
      ],
      "name": "WithdrawFailed",
      "type": "error"
    },
    {
      "anonymous": false,
      "inputs": [
        {
          "indexed": false,
          "internalType": "uint256",
          "name": "amount",
          "type": "uint256"
        }
      ],
      "name": "Claim",
      "type": "event"
    },
    {
      "anonymous": false,
      "inputs": [
        {
          "indexed": false,
          "internalType": "bytes",
          "name": "reason",
          "type": "bytes"
        }
      ],
      "name": "ClaimRewardsFailed",
      "type": "event"
    },
    {
      "anonymous": false,
      "inputs": [
        {
          "indexed": false,
          "internalType": "uint256",
          "name": "amount",
          "type": "uint256"
        }
      ],
      "name": "Deposit",
      "type": "event"
    },
    {
      "anonymous": false,
      "inputs": [
        {
          "indexed": false,
          "internalType": "uint256",
          "name": "balance",
          "type": "uint256"
        },
        {
          "indexed": false,
          "internalType": "bytes",
          "name": "data",
          "type": "bytes"
        }
      ],
      "name": "EmergencyExited",
      "type": "event"
    },
    {
      "anonymous": false,
      "inputs": [
        {
          "indexed": false,
          "internalType": "uint256",
          "name": "amount",
          "type": "uint256"
        },
        {
          "indexed": false,
          "internalType": "bytes",
          "name": "data",
          "type": "bytes"
        }
      ],
      "name": "Executed",
      "type": "event"
    },
    {
      "anonymous": false,
      "inputs": [
        {
          "indexed": false,
          "internalType": "bytes",
          "name": "data",
          "type": "bytes"
        }
      ],
      "name": "Harvested",
      "type": "event"
    },
    {
      "anonymous": false,
      "inputs": [
        {
          "indexed": false,
          "internalType": "bool",
          "name": "isPaused",
          "type": "bool"
        }
      ],
      "name": "PausedState",
      "type": "event"
    },
    {
      "anonymous": false,
      "inputs": [
        {
          "indexed": true,
          "internalType": "address",
          "name": "token",
          "type": "address"
        }
      ],
      "name": "RewardTokenAdded",
      "type": "event"
    },
    {
      "anonymous": false,
      "inputs": [
        {
          "indexed": true,
          "internalType": "address",
          "name": "token",
          "type": "address"
        },
        {
          "indexed": false,
          "internalType": "uint256",
          "name": "amount",
          "type": "uint256"
        }
      ],
      "name": "TokensForwarded",
      "type": "event"
    },
    {
      "anonymous": false,
      "inputs": [
        {
          "indexed": false,
          "internalType": "address",
          "name": "vault",
          "type": "address"
        }
      ],
      "name": "VaultSet",
      "type": "event"
    },
    {
      "anonymous": false,
      "inputs": [
        {
          "indexed": false,
          "internalType": "uint256",
          "name": "amount",
          "type": "uint256"
        }
      ],
      "name": "Withdraw",
      "type": "event"
    },
    {
      "inputs": [
        {
          "internalType": "address",
          "name": "tokenAddress",
          "type": "address"
        }
      ],
      "name": "addRewardToken",
      "outputs": [],
      "stateMutability": "nonpayable",
      "type": "function"
    },
    {
      "inputs": [
        {
          "internalType": "bytes",
          "name": "data",
          "type": "bytes"
        }
      ],
      "name": "claimRewards",
      "outputs": [],
      "stateMutability": "nonpayable",
      "type": "function"
    },
    {
      "inputs": [],
      "name": "claimSelector",
      "outputs": [
        {
          "internalType": "bytes4",
          "name": "",
          "type": "bytes4"
        }
      ],
      "stateMutability": "view",
      "type": "function"
    },
    {
      "inputs": [],
      "name": "depositSelector",
      "outputs": [
        {
          "internalType": "bytes4",
          "name": "",
          "type": "bytes4"
        }
      ],
      "stateMutability": "view",
      "type": "function"
    },
    {
      "inputs": [
        {
          "internalType": "bytes",
          "name": "data",
          "type": "bytes"
        }
      ],
      "name": "emergencyExit",
      "outputs": [],
      "stateMutability": "nonpayable",
      "type": "function"
    },
    {
      "inputs": [
        {
          "internalType": "uint256",
          "name": "amount",
          "type": "uint256"
        },
        {
          "internalType": "bytes",
          "name": "data",
          "type": "bytes"
        }
      ],
      "name": "execute",
      "outputs": [],
      "stateMutability": "nonpayable",
      "type": "function"
    },
    {
      "inputs": [],
      "name": "getBalance",
      "outputs": [
        {
          "internalType": "uint256",
          "name": "",
          "type": "uint256"
        }
      ],
      "stateMutability": "view",
      "type": "function"
    },
    {
      "inputs": [],
      "name": "getBalanceSelector",
      "outputs": [
        {
          "internalType": "bytes4",
          "name": "",
          "type": "bytes4"
        }
      ],
      "stateMutability": "view",
      "type": "function"
    },
    {
      "inputs": [
        {
          "internalType": "bytes",
          "name": "data",
          "type": "bytes"
        }
      ],
      "name": "harvest",
      "outputs": [],
      "stateMutability": "nonpayable",
      "type": "function"
    },
    {
      "inputs": [
        {
          "internalType": "address",
          "name": "",
          "type": "address"
        }
      ],
      "name": "knownRewardTokens",
      "outputs": [
        {
          "internalType": "bool",
          "name": "",
          "type": "bool"
        }
      ],
      "stateMutability": "view",
      "type": "function"
    },
    {
      "inputs": [],
      "name": "paused",
      "outputs": [
        {
          "internalType": "bool",
          "name": "",
          "type": "bool"
        }
      ],
      "stateMutability": "view",
      "type": "function"
    },
    {
      "inputs": [],
      "name": "protocol",
      "outputs": [
        {
          "internalType": "address",
          "name": "",
          "type": "address"
        }
      ],
      "stateMutability": "view",
      "type": "function"
    },
    {
      "inputs": [
        {
          "internalType": "bytes4",
          "name": "selector",
          "type": "bytes4"
        },
        {
          "internalType": "bytes",
          "name": "params",
          "type": "bytes"
        }
      ],
      "name": "queryProtocol",
      "outputs": [
        {
          "internalType": "bytes",
          "name": "",
          "type": "bytes"
        }
      ],
      "stateMutability": "view",
      "type": "function"
    },
    {
      "inputs": [
        {
          "internalType": "uint256",
          "name": "",
          "type": "uint256"
        }
      ],
      "name": "rewardTokensList",
      "outputs": [
        {
          "internalType": "address",
          "name": "",
          "type": "address"
        }
      ],
      "stateMutability": "view",
      "type": "function"
    },
    {
      "inputs": [
        {
          "internalType": "bool",
          "name": "_paused",
          "type": "bool"
        }
      ],
      "name": "setPaused",
      "outputs": [],
      "stateMutability": "nonpayable",
      "type": "function"
    },
    {
      "inputs": [
        {
          "internalType": "address",
          "name": "_vault",
          "type": "address"
        }
      ],
      "name": "setVault",
      "outputs": [],
      "stateMutability": "nonpayable",
      "type": "function"
    },
    {
      "inputs": [],
      "name": "underlyingToken",
      "outputs": [
        {
          "internalType": "address",
          "name": "",
          "type": "address"
        }
      ],
      "stateMutability": "view",
      "type": "function"
    },
    {
      "inputs": [],
      "name": "vault",
      "outputs": [
        {
          "internalType": "address",
          "name": "",
          "type": "address"
        }
      ],
      "stateMutability": "view",
      "type": "function"
    },
    {
      "inputs": [],
      "name": "withdrawSelector",
      "outputs": [
        {
          "internalType": "bytes4",
          "name": "",
          "type": "bytes4"
        }
      ],
      "stateMutability": "view",
      "type": "function"
    }
  ],
  "bytecode": "0x61014060405234801562000011575f80fd5b5060405162003b3338038062003b3383398181016040528101906200003791906200036d565b60015f819055505f73ffffffffffffffffffffffffffffffffffffffff168673ffffffffffffffffffffffffffffffffffffffff1603620000af576040517f08c379a0000000000000000000000000000000000000000000000000000000008152600401620000a69062000463565b60405180910390fd5b5f73ffffffffffffffffffffffffffffffffffffffff168573ffffffffffffffffffffffffffffffffffffffff160362000120576040517f08c379a00000000000000000000000000000000000000000000000000000000081526004016200011790620004d1565b60405180910390fd5b8573ffffffffffffffffffffffffffffffffffffffff1660808173ffffffffffffffffffffffffffffffffffffffff16815250508473ffffffffffffffffffffffffffffffffffffffff1660a08173ffffffffffffffffffffffffffffffffffffffff1681525050837bffffffffffffffffffffffffffffffffffffffffffffffffffffffff191660c0817bffffffffffffffffffffffffffffffffffffffffffffffffffffffff191681525050827bffffffffffffffffffffffffffffffffffffffffffffffffffffffff191660e0817bffffffffffffffffffffffffffffffffffffffffffffffffffffffff191681525050817bffffffffffffffffffffffffffffffffffffffffffffffffffffffff1916610100817bffffffffffffffffffffffffffffffffffffffffffffffffffffffff191681525050807bffffffffffffffffffffffffffffffffffffffffffffffffffffffff1916610120817bffffffffffffffffffffffffffffffffffffffffffffffffffffffff191681525050505050505050620004f1565b5f80fd5b5f73ffffffffffffffffffffffffffffffffffffffff82169050919050565b5f620002dd82620002b2565b9050919050565b620002ef81620002d1565b8114620002fa575f80fd5b50565b5f815190506200030d81620002e4565b92915050565b5f7fffffffff0000000000000000000000000000000000000000000000000000000082169050919050565b620003498162000313565b811462000354575f80fd5b50565b5f8151905062000367816200033e565b92915050565b5f805f805f8060c087890312156200038a5762000389620002ae565b5b5f6200039989828a01620002fd565b9650506020620003ac89828a01620002fd565b9550506040620003bf89828a0162000357565b9450506060620003d289828a0162000357565b9350506080620003e589828a0162000357565b92505060a0620003f889828a0162000357565b9150509295509295509295565b5f82825260208201905092915050565b7f496e76616c696420746f6b656e206164647265737300000000000000000000005f82015250565b5f6200044b60158362000405565b9150620004588262000415565b602082019050919050565b5f6020820190508181035f8301526200047c816200043d565b9050919050565b7f496e76616c69642070726f746f636f6c206164647265737300000000000000005f82015250565b5f620004b960188362000405565b9150620004c68262000483565b602082019050919050565b5f6020820190508181035f830152620004ea81620004ab565b9050919050565b60805160a05160c05160e051610100516101205161352f620006045f395f8181610473015281816105b9015281816106f80152611d4701525f8181611d2301528181612075015261211301525f8181610ec701526119c001525f81816111e601526116f701525f818161039f0152818161043c01528181610582015281816106c101528181610f5b01528181611496015281816115610152818161161e0152818161178b0152818161185401528181611a3801528181611ad801528181611d6b015261219c01525f81816103f40152818161071901528181610ca70152818161103801528181611100015281816114110152818161145901528181611525015281816115e20152611818015261352f5ff3fe608060405234801561000f575f80fd5b506004361061011f575f3560e01c80635d2e0470116100ab578063870e4bef1161006f578063870e4bef146102f35780638ce7442614610311578063ce5c7f611461032f578063e190febc1461034b578063fbfa77cf146103675761011f565b80635d2e04701461023b5780635da9e16914610259578063633f14ef146102895780636817031b146102b9578063870240b3146102d55761011f565b80632c1c1276116100f25780632c1c12761461019757806338c1d467146101b3578063504ee05a146101e357806359efcb15146102015780635c975abb1461021d5761011f565b806312065fe01461012357806316c38b3c146101415780631c03e6cc1461015d5780632495a59914610179575b5f80fd5b61012b610385565b604051610138919061281e565b60405180910390f35b61015b60048036038101906101569190612874565b610834565b005b610177600480360381019061017291906128f9565b61099d565b005b610181610ca5565b60405161018e9190612933565b60405180910390f35b6101b160048036038101906101ac91906129ad565b610cc9565b005b6101cd60048036038101906101c891906128f9565b6111c7565b6040516101da9190612a07565b60405180910390f35b6101eb6111e4565b6040516101f89190612a5a565b60405180910390f35b61021b60048036038101906102169190612a9d565b611208565b005b6102256119ab565b6040516102329190612a07565b60405180910390f35b6102436119be565b6040516102509190612a5a565b60405180910390f35b610273600480360381019061026e9190612afa565b6119e2565b6040516102809190612933565b60405180910390f35b6102a3600480360381019061029e9190612b4f565b611a1d565b6040516102b09190612c36565b60405180910390f35b6102d360048036038101906102ce91906128f9565b611baa565b005b6102dd611d21565b6040516102ea9190612a5a565b60405180910390f35b6102fb611d45565b6040516103089190612a5a565b60405180910390f35b610319611d69565b6040516103269190612933565b60405180910390f35b610349600480360381019061034491906129ad565b611d8d565b005b610365600480360381019061036091906129ad565b611f3b565b005b61036f6122c0565b60405161037c9190612933565b60405180910390f35b5f8073ffffffffffffffffffffffffffffffffffffffff167f000000000000000000000000000000000000000000000000000000000000000073ffffffffffffffffffffffffffffffffffffffff16148061042b57505f73ffffffffffffffffffffffffffffffffffffffff167f000000000000000000000000000000000000000000000000000000000000000073ffffffffffffffffffffffffffffffffffffffff16145b15610438575f9050610831565b5f807f000000000000000000000000000000000000000000000000000000000000000073ffffffffffffffffffffffffffffffffffffffff167f0000000000000000000000000000000000000000000000000000000000000000306040516024016104a39190612933565b604051602081830303815290604052907bffffffffffffffffffffffffffffffffffffffffffffffffffffffff19166020820180517bffffffffffffffffffffffffffffffffffffffffffffffffffffffff838183161783525050505060405161050d9190612c90565b5f60405180830381855afa9150503d805f8114610545576040519150601f19603f3d011682016040523d82523d5f602084013e61054a565b606091505b509150915081801561055e57506020815110155b1561058057808060200190518101906105779190612cba565b92505050610831565b7f000000000000000000000000000000000000000000000000000000000000000073ffffffffffffffffffffffffffffffffffffffff167f0000000000000000000000000000000000000000000000000000000000000000604051602401604051602081830303815290604052907bffffffffffffffffffffffffffffffffffffffffffffffffffffffff19166020820180517bffffffffffffffffffffffffffffffffffffffffffffffffffffffff83818316178352505050506040516106489190612c90565b5f60405180830381855afa9150503d805f8114610680576040519150601f19603f3d011682016040523d82523d5f602084013e610685565b606091505b50809250819350505081801561069d57506020815110155b156106bf57808060200190518101906106b69190612cba565b92505050610831565b7f000000000000000000000000000000000000000000000000000000000000000073ffffffffffffffffffffffffffffffffffffffff167f00000000000000000000000000000000000000000000000000000000000000007f00000000000000000000000000000000000000000000000000000000000000003060405160240161074a929190612ce5565b604051602081830303815290604052907bffffffffffffffffffffffffffffffffffffffffffffffffffffffff19166020820180517bffffffffffffffffffffffffffffffffffffffffffffffffffffffff83818316178352505050506040516107b49190612c90565b5f60405180830381855afa9150503d805f81146107ec576040519150601f19603f3d011682016040523d82523d5f602084013e6107f1565b606091505b50809250819350505081801561080957506020815110155b1561082b57808060200190518101906108229190612cba565b92505050610831565b5f925050505b90565b5f73ffffffffffffffffffffffffffffffffffffffff1660015f9054906101000a900473ffffffffffffffffffffffffffffffffffffffff1673ffffffffffffffffffffffffffffffffffffffff16036108ba576040517f543b841f00000000000000000000000000000000000000000000000000000000815260040160405180910390fd5b60015f9054906101000a900473ffffffffffffffffffffffffffffffffffffffff1673ffffffffffffffffffffffffffffffffffffffff163373ffffffffffffffffffffffffffffffffffffffff1614610949576040517f08c379a000000000000000000000000000000000000000000000000000000000815260040161094090612d66565b60405180910390fd5b80600160146101000a81548160ff0219169083151502179055507f6c44c1c6e888a23752ec9c1d8f194bfb0ea295ccdb49b3da95d5be50c9db9769816040516109929190612a07565b60405180910390a150565b5f73ffffffffffffffffffffffffffffffffffffffff1660015f9054906101000a900473ffffffffffffffffffffffffffffffffffffffff1673ffffffffffffffffffffffffffffffffffffffff1603610a23576040517f543b841f00000000000000000000000000000000000000000000000000000000815260040160405180910390fd5b60015f9054906101000a900473ffffffffffffffffffffffffffffffffffffffff1673ffffffffffffffffffffffffffffffffffffffff163373ffffffffffffffffffffffffffffffffffffffff1614610ab2576040517f08c379a0000000000000000000000000000000000000000000000000000000008152600401610aa990612d66565b60405180910390fd5b5f73ffffffffffffffffffffffffffffffffffffffff168173ffffffffffffffffffffffffffffffffffffffff1603610b20576040517f08c379a0000000000000000000000000000000000000000000000000000000008152600401610b1790612dce565b60405180910390fd5b60025f8273ffffffffffffffffffffffffffffffffffffffff1673ffffffffffffffffffffffffffffffffffffffff1681526020019081526020015f205f9054906101000a900460ff1615610baa576040517f08c379a0000000000000000000000000000000000000000000000000000000008152600401610ba190612e36565b60405180910390fd5b600160025f8373ffffffffffffffffffffffffffffffffffffffff1673ffffffffffffffffffffffffffffffffffffffff1681526020019081526020015f205f6101000a81548160ff021916908315150217905550600381908060018154018082558091505060019003905f5260205f20015f9091909190916101000a81548173ffffffffffffffffffffffffffffffffffffffff021916908373ffffffffffffffffffffffffffffffffffffffff1602179055508073ffffffffffffffffffffffffffffffffffffffff167ff3e4c2c64e71e6ba2eaab9a599bced62f9eb91d2cda610bf41aa8c80ff2cf82660405160405180910390a250565b7f000000000000000000000000000000000000000000000000000000000000000081565b5f73ffffffffffffffffffffffffffffffffffffffff1660015f9054906101000a900473ffffffffffffffffffffffffffffffffffffffff1673ffffffffffffffffffffffffffffffffffffffff1603610d4f576040517f543b841f00000000000000000000000000000000000000000000000000000000815260040160405180910390fd5b60015f9054906101000a900473ffffffffffffffffffffffffffffffffffffffff1673ffffffffffffffffffffffffffffffffffffffff163373ffffffffffffffffffffffffffffffffffffffff1614610dde576040517f08c379a0000000000000000000000000000000000000000000000000000000008152600401610dd590612d66565b60405180910390fd5b60025f5403610e22576040517f08c379a0000000000000000000000000000000000000000000000000000000008152600401610e1990612e9e565b60405180910390fd5b60025f819055505f610e32610385565b90505f8103610e6d576040517f2f02cb1400000000000000000000000000000000000000000000000000000000815260040160405180910390fd5b60605f848490501115610ec55783838080601f0160208091040260200160405190810160405280939291908181526020018383808284375f81840152601f19601f820116905080830192505050505050509050610f57565b7f000000000000000000000000000000000000000000000000000000000000000082604051602401610ef7919061281e565b604051602081830303815290604052907bffffffffffffffffffffffffffffffffffffffffffffffffffffffff19166020820180517bffffffffffffffffffffffffffffffffffffffffffffffffffffffff838183161783525050505090505b5f807f000000000000000000000000000000000000000000000000000000000000000073ffffffffffffffffffffffffffffffffffffffff1683604051610f9e9190612c90565b5f604051808303815f865af19150503d805f8114610fd7576040519150601f19603f3d011682016040523d82523d5f602084013e610fdc565b606091505b5091509150816110355760605f82511115610ff8576020820190505b806040517fad0ad28a00000000000000000000000000000000000000000000000000000000815260040161102c9190612c36565b60405180910390fd5b5f7f000000000000000000000000000000000000000000000000000000000000000073ffffffffffffffffffffffffffffffffffffffff166370a08231306040518263ffffffff1660e01b815260040161108f9190612933565b602060405180830381865afa1580156110aa573d5f803e3d5ffd5b505050506040513d601f19601f820116820180604052508101906110ce9190612cba565b90505f8111156111455761114460015f9054906101000a900473ffffffffffffffffffffffffffffffffffffffff16827f000000000000000000000000000000000000000000000000000000000000000073ffffffffffffffffffffffffffffffffffffffff166122e59092919063ffffffff16565b5b7f5b6b431d4476a211bb7d41c20d1aab9ae2321deee0d20be3d9fc9b1093fa6e3d85604051611174919061281e565b60405180910390a17f33707543538a74978cfbe255a9a187ce79ed7695a03a48d36b5a3cf8b569aa528588886040516111af93929190612ef6565b60405180910390a1505050505060015f819055505050565b6002602052805f5260405f205f915054906101000a900460ff1681565b7f000000000000000000000000000000000000000000000000000000000000000081565b5f73ffffffffffffffffffffffffffffffffffffffff1660015f9054906101000a900473ffffffffffffffffffffffffffffffffffffffff1673ffffffffffffffffffffffffffffffffffffffff160361128e576040517f543b841f00000000000000000000000000000000000000000000000000000000815260040160405180910390fd5b60015f9054906101000a900473ffffffffffffffffffffffffffffffffffffffff1673ffffffffffffffffffffffffffffffffffffffff163373ffffffffffffffffffffffffffffffffffffffff161461131d576040517f08c379a000000000000000000000000000000000000000000000000000000000815260040161131490612d66565b60405180910390fd5b60025f5403611361576040517f08c379a000000000000000000000000000000000000000000000000000000000815260040161135890612e9e565b60405180910390fd5b60025f81905550600160149054906101000a900460ff16156113af576040517fe628b94900000000000000000000000000000000000000000000000000000000815260040160405180910390fd5b5f83036113e8576040517f2c5211c600000000000000000000000000000000000000000000000000000000815260040160405180910390fd5b61145660015f9054906101000a900473ffffffffffffffffffffffffffffffffffffffff1630857f000000000000000000000000000000000000000000000000000000000000000073ffffffffffffffffffffffffffffffffffffffff1661236b909392919063ffffffff16565b5f7f000000000000000000000000000000000000000000000000000000000000000073ffffffffffffffffffffffffffffffffffffffff1663dd62ed3e307f00000000000000000000000000000000000000000000000000000000000000006040518363ffffffff1660e01b81526004016114d2929190612ce5565b602060405180830381865afa1580156114ed573d5f803e3d5ffd5b505050506040513d601f19601f820116820180604052508101906115119190612cba565b90508381101561169d575f8111156115e0577f000000000000000000000000000000000000000000000000000000000000000073ffffffffffffffffffffffffffffffffffffffff1663095ea7b37f00000000000000000000000000000000000000000000000000000000000000005f6040518363ffffffff1660e01b815260040161159e929190612f68565b6020604051808303815f875af11580156115ba573d5f803e3d5ffd5b505050506040513d601f19601f820116820180604052508101906115de9190612fa3565b505b7f000000000000000000000000000000000000000000000000000000000000000073ffffffffffffffffffffffffffffffffffffffff1663095ea7b37f0000000000000000000000000000000000000000000000000000000000000000866040518363ffffffff1660e01b815260040161165b929190612fce565b6020604051808303815f875af1158015611677573d5f803e3d5ffd5b505050506040513d601f19601f8201168201806040525081019061169b9190612fa3565b505b60605f8484905011156116f55783838080601f0160208091040260200160405190810160405280939291908181526020018383808284375f81840152601f19601f820116905080830192505050505050509050611787565b7f000000000000000000000000000000000000000000000000000000000000000085604051602401611727919061281e565b604051602081830303815290604052907bffffffffffffffffffffffffffffffffffffffffffffffffffffffff19166020820180517bffffffffffffffffffffffffffffffffffffffffffffffffffffffff838183161783525050505090505b5f807f000000000000000000000000000000000000000000000000000000000000000073ffffffffffffffffffffffffffffffffffffffff16836040516117ce9190612c90565b5f604051808303815f865af19150503d805f8114611807576040519150601f19603f3d011682016040523d82523d5f602084013e61180c565b606091505b509150915081611921577f000000000000000000000000000000000000000000000000000000000000000073ffffffffffffffffffffffffffffffffffffffff1663095ea7b37f00000000000000000000000000000000000000000000000000000000000000005f6040518363ffffffff1660e01b8152600401611891929190612f68565b6020604051808303815f875af11580156118ad573d5f803e3d5ffd5b505050506040513d601f19601f820116820180604052508101906118d19190612fa3565b5060605f825111156118e4576020820190505b806040517ff8e68f230000000000000000000000000000000000000000000000000000000081526004016119189190612c36565b60405180910390fd5b6119296123f4565b7f4d6ce1e535dbade1c23defba91e23b8f791ce5edc0cc320257a2b364e4e3842687604051611958919061281e565b60405180910390a17f2e733a17851169f232b3859260eb3ad2a086afd54e999eb4ea9afb7791702e4187878760405161199393929190612ef6565b60405180910390a15050505060015f81905550505050565b600160149054906101000a900460ff1681565b7f000000000000000000000000000000000000000000000000000000000000000081565b600381815481106119f1575f80fd5b905f5260205f20015f915054906101000a900473ffffffffffffffffffffffffffffffffffffffff1681565b60605f73ffffffffffffffffffffffffffffffffffffffff167f000000000000000000000000000000000000000000000000000000000000000073ffffffffffffffffffffffffffffffffffffffff1603611aad576040517f08c379a0000000000000000000000000000000000000000000000000000000008152600401611aa49061303f565b60405180910390fd5b5f848484604051602001611ac3939291906130a1565b60405160208183030381529060405290505f807f000000000000000000000000000000000000000000000000000000000000000073ffffffffffffffffffffffffffffffffffffffff1683604051611b1b9190612c90565b5f60405180830381855afa9150503d805f8114611b53576040519150601f19603f3d011682016040523d82523d5f602084013e611b58565b606091505b509150915081611b9d576040517f08c379a0000000000000000000000000000000000000000000000000000000008152600401611b9490613114565b60405180910390fd5b8093505050509392505050565b5f73ffffffffffffffffffffffffffffffffffffffff168173ffffffffffffffffffffffffffffffffffffffff1603611c18576040517f08c379a0000000000000000000000000000000000000000000000000000000008152600401611c0f9061317c565b60405180910390fd5b5f73ffffffffffffffffffffffffffffffffffffffff1660015f9054906101000a900473ffffffffffffffffffffffffffffffffffffffff1673ffffffffffffffffffffffffffffffffffffffff1614611ca7576040517f08c379a0000000000000000000000000000000000000000000000000000000008152600401611c9e906131e4565b60405180910390fd5b8060015f6101000a81548173ffffffffffffffffffffffffffffffffffffffff021916908373ffffffffffffffffffffffffffffffffffffffff1602179055507fe7ae49f883c825b05681b3e00e8be6fdea9ed2a8a45e4c6ecb9390fc44cce61581604051611d169190612933565b60405180910390a150565b7f000000000000000000000000000000000000000000000000000000000000000081565b7f000000000000000000000000000000000000000000000000000000000000000081565b7f000000000000000000000000000000000000000000000000000000000000000081565b5f73ffffffffffffffffffffffffffffffffffffffff1660015f9054906101000a900473ffffffffffffffffffffffffffffffffffffffff1673ffffffffffffffffffffffffffffffffffffffff1603611e13576040517f543b841f00000000000000000000000000000000000000000000000000000000815260040160405180910390fd5b60015f9054906101000a900473ffffffffffffffffffffffffffffffffffffffff1673ffffffffffffffffffffffffffffffffffffffff163373ffffffffffffffffffffffffffffffffffffffff1614611ea2576040517f08c379a0000000000000000000000000000000000000000000000000000000008152600401611e9990612d66565b60405180910390fd5b60025f5403611ee6576040517f08c379a0000000000000000000000000000000000000000000000000000000008152600401611edd90612e9e565b60405180910390fd5b60025f81905550611ef78282611f3b565b7fac04581c930eefb60cf2509de6e2388cbcde488697b9c13ca8dc5cddc81718608282604051611f28929190613202565b60405180910390a160015f819055505050565b5f73ffffffffffffffffffffffffffffffffffffffff1660015f9054906101000a900473ffffffffffffffffffffffffffffffffffffffff1673ffffffffffffffffffffffffffffffffffffffff1603611fc1576040517f543b841f00000000000000000000000000000000000000000000000000000000815260040160405180910390fd5b60015f9054906101000a900473ffffffffffffffffffffffffffffffffffffffff1673ffffffffffffffffffffffffffffffffffffffff163373ffffffffffffffffffffffffffffffffffffffff1614612050576040517f08c379a000000000000000000000000000000000000000000000000000000000815260040161204790612d66565b60405180910390fd5b5f60e01b7bffffffffffffffffffffffffffffffffffffffffffffffffffffffff19167f00000000000000000000000000000000000000000000000000000000000000007bffffffffffffffffffffffffffffffffffffffffffffffffffffffff191603156122bc5760605f8383905011156121115782828080601f0160208091040260200160405190810160405280939291908181526020018383808284375f81840152601f19601f820116905080830192505050505050509050612198565b7f0000000000000000000000000000000000000000000000000000000000000000604051602401604051602081830303815290604052907bffffffffffffffffffffffffffffffffffffffffffffffffffffffff19166020820180517bffffffffffffffffffffffffffffffffffffffffffffffffffffffff838183161783525050505090505b5f807f000000000000000000000000000000000000000000000000000000000000000073ffffffffffffffffffffffffffffffffffffffff16836040516121df9190612c90565b5f604051808303815f865af19150503d805f8114612218576040519150601f19603f3d011682016040523d82523d5f602084013e61221d565b606091505b5091509150816122795760605f82511115612239576020820190505b7f9dfb4d0b6d3a7d9eb497af2461924460d2c49b902ff4fc2934b6a472d239028d816040516122689190612c36565b60405180910390a1505050506122bc565b6122816123f4565b7f7bb2b3c10797baccb6f8c4791f1edd6ca2f0d028ee0eda64b01a9a57e3a653f75f6040516122b09190613224565b60405180910390a15050505b5050565b60015f9054906101000a900473ffffffffffffffffffffffffffffffffffffffff1681565b6123668363a9059cbb60e01b8484604051602401612304929190612fce565b604051602081830303815290604052907bffffffffffffffffffffffffffffffffffffffffffffffffffffffff19166020820180517bffffffffffffffffffffffffffffffffffffffffffffffffffffffff8381831617835250505050612592565b505050565b6123ee846323b872dd60e01b85858560405160240161238c9392919061323d565b604051602081830303815290604052907bffffffffffffffffffffffffffffffffffffffffffffffffffffffff19166020820180517bffffffffffffffffffffffffffffffffffffffffffffffffffffffff8381831617835250505050612592565b50505050565b5f60038054905090505f600a821161240c578161240f565b600a5b90505f5b8181101561258d575f600382815481106124305761242f613272565b5b905f5260205f20015f9054906101000a900473ffffffffffffffffffffffffffffffffffffffff1690505f8173ffffffffffffffffffffffffffffffffffffffff166370a08231306040518263ffffffff1660e01b81526004016124949190612933565b602060405180830381865afa1580156124af573d5f803e3d5ffd5b505050506040513d601f19601f820116820180604052508101906124d39190612cba565b90505f8111156125785761252960015f9054906101000a900473ffffffffffffffffffffffffffffffffffffffff16828473ffffffffffffffffffffffffffffffffffffffff166122e59092919063ffffffff16565b8173ffffffffffffffffffffffffffffffffffffffff167fd2b15471a0072ae32e0a1ff293c39098f5d37d8d55eeb8b17b9fe94b2260c0318260405161256f919061281e565b60405180910390a25b50508080612585906132cc565b915050612413565b505050565b5f6125f3826040518060400160405280602081526020017f5361666545524332303a206c6f772d6c6576656c2063616c6c206661696c65648152508573ffffffffffffffffffffffffffffffffffffffff166126579092919063ffffffff16565b90505f8151111561265257808060200190518101906126129190612fa3565b612651576040517f08c379a000000000000000000000000000000000000000000000000000000000815260040161264890613383565b60405180910390fd5b5b505050565b606061266584845f8561266e565b90509392505050565b6060824710156126b3576040517f08c379a00000000000000000000000000000000000000000000000000000000081526004016126aa90613411565b60405180910390fd5b6126bc8561277e565b6126fb576040517f08c379a00000000000000000000000000000000000000000000000000000000081526004016126f290613479565b60405180910390fd5b5f808673ffffffffffffffffffffffffffffffffffffffff1685876040516127239190612c90565b5f6040518083038185875af1925050503d805f811461275d576040519150601f19603f3d011682016040523d82523d5f602084013e612762565b606091505b50915091506127728282866127a0565b92505050949350505050565b5f808273ffffffffffffffffffffffffffffffffffffffff163b119050919050565b606083156127b0578290506127ff565b5f835111156127c25782518084602001fd5b816040517f08c379a00000000000000000000000000000000000000000000000000000000081526004016127f691906134d9565b60405180910390fd5b9392505050565b5f819050919050565b61281881612806565b82525050565b5f6020820190506128315f83018461280f565b92915050565b5f80fd5b5f80fd5b5f8115159050919050565b6128538161283f565b811461285d575f80fd5b50565b5f8135905061286e8161284a565b92915050565b5f6020828403121561288957612888612837565b5b5f61289684828501612860565b91505092915050565b5f73ffffffffffffffffffffffffffffffffffffffff82169050919050565b5f6128c88261289f565b9050919050565b6128d8816128be565b81146128e2575f80fd5b50565b5f813590506128f3816128cf565b92915050565b5f6020828403121561290e5761290d612837565b5b5f61291b848285016128e5565b91505092915050565b61292d816128be565b82525050565b5f6020820190506129465f830184612924565b92915050565b5f80fd5b5f80fd5b5f80fd5b5f8083601f84011261296d5761296c61294c565b5b8235905067ffffffffffffffff81111561298a57612989612950565b5b6020830191508360018202830111156129a6576129a5612954565b5b9250929050565b5f80602083850312156129c3576129c2612837565b5b5f83013567ffffffffffffffff8111156129e0576129df61283b565b5b6129ec85828601612958565b92509250509250929050565b612a018161283f565b82525050565b5f602082019050612a1a5f8301846129f8565b92915050565b5f7fffffffff0000000000000000000000000000000000000000000000000000000082169050919050565b612a5481612a20565b82525050565b5f602082019050612a6d5f830184612a4b565b92915050565b612a7c81612806565b8114612a86575f80fd5b50565b5f81359050612a9781612a73565b92915050565b5f805f60408486031215612ab457612ab3612837565b5b5f612ac186828701612a89565b935050602084013567ffffffffffffffff811115612ae257612ae161283b565b5b612aee86828701612958565b92509250509250925092565b5f60208284031215612b0f57612b0e612837565b5b5f612b1c84828501612a89565b91505092915050565b612b2e81612a20565b8114612b38575f80fd5b50565b5f81359050612b4981612b25565b92915050565b5f805f60408486031215612b6657612b65612837565b5b5f612b7386828701612b3b565b935050602084013567ffffffffffffffff811115612b9457612b9361283b565b5b612ba086828701612958565b92509250509250925092565b5f81519050919050565b5f82825260208201905092915050565b5f5b83811015612be3578082015181840152602081019050612bc8565b5f8484015250505050565b5f601f19601f8301169050919050565b5f612c0882612bac565b612c128185612bb6565b9350612c22818560208601612bc6565b612c2b81612bee565b840191505092915050565b5f6020820190508181035f830152612c4e8184612bfe565b905092915050565b5f81905092915050565b5f612c6a82612bac565b612c748185612c56565b9350612c84818560208601612bc6565b80840191505092915050565b5f612c9b8284612c60565b915081905092915050565b5f81519050612cb481612a73565b92915050565b5f60208284031215612ccf57612cce612837565b5b5f612cdc84828501612ca6565b91505092915050565b5f604082019050612cf85f830185612924565b612d056020830184612924565b9392505050565b5f82825260208201905092915050565b7f4f6e6c79206167656e742063616e2063616c6c000000000000000000000000005f82015250565b5f612d50601383612d0c565b9150612d5b82612d1c565b602082019050919050565b5f6020820190508181035f830152612d7d81612d44565b9050919050565b7f496e76616c696420746f6b656e206164647265737300000000000000000000005f82015250565b5f612db8601583612d0c565b9150612dc382612d84565b602082019050919050565b5f6020820190508181035f830152612de581612dac565b9050919050565b7f546f6b656e20616c7265616479206164646564000000000000000000000000005f82015250565b5f612e20601383612d0c565b9150612e2b82612dec565b602082019050919050565b5f6020820190508181035f830152612e4d81612e14565b9050919050565b7f5265656e7472616e637947756172643a207265656e7472616e742063616c6c005f82015250565b5f612e88601f83612d0c565b9150612e9382612e54565b602082019050919050565b5f6020820190508181035f830152612eb581612e7c565b9050919050565b828183375f83830152505050565b5f612ed58385612bb6565b9350612ee2838584612ebc565b612eeb83612bee565b840190509392505050565b5f604082019050612f095f83018661280f565b8181036020830152612f1c818486612eca565b9050949350505050565b5f819050919050565b5f819050919050565b5f612f52612f4d612f4884612f26565b612f2f565b612806565b9050919050565b612f6281612f38565b82525050565b5f604082019050612f7b5f830185612924565b612f886020830184612f59565b9392505050565b5f81519050612f9d8161284a565b92915050565b5f60208284031215612fb857612fb7612837565b5b5f612fc584828501612f8f565b91505092915050565b5f604082019050612fe15f830185612924565b612fee602083018461280f565b9392505050565b7f50726f746f636f6c206e6f7420736574000000000000000000000000000000005f82015250565b5f613029601083612d0c565b915061303482612ff5565b602082019050919050565b5f6020820190508181035f8301526130568161301d565b9050919050565b5f819050919050565b61307761307282612a20565b61305d565b82525050565b5f6130888385612c56565b9350613095838584612ebc565b82840190509392505050565b5f6130ac8286613066565b6004820191506130bd82848661307d565b9150819050949350505050565b7f50726f746f636f6c207175657279206661696c656400000000000000000000005f82015250565b5f6130fe601583612d0c565b9150613109826130ca565b602082019050919050565b5f6020820190508181035f83015261312b816130f2565b9050919050565b7f496e76616c6964207661756c74206164647265737300000000000000000000005f82015250565b5f613166601583612d0c565b915061317182613132565b602082019050919050565b5f6020820190508181035f8301526131938161315a565b9050919050565b7f5661756c7420616c7265616479207365740000000000000000000000000000005f82015250565b5f6131ce601183612d0c565b91506131d98261319a565b602082019050919050565b5f6020820190508181035f8301526131fb816131c2565b9050919050565b5f6020820190508181035f83015261321b818486612eca565b90509392505050565b5f6020820190506132375f830184612f59565b92915050565b5f6060820190506132505f830186612924565b61325d6020830185612924565b61326a604083018461280f565b949350505050565b7f4e487b71000000000000000000000000000000000000000000000000000000005f52603260045260245ffd5b7f4e487b71000000000000000000000000000000000000000000000000000000005f52601160045260245ffd5b5f6132d682612806565b91507fffffffffffffffffffffffffffffffffffffffffffffffffffffffffffffffff82036133085761330761329f565b5b600182019050919050565b7f5361666545524332303a204552433230206f7065726174696f6e20646964206e5f8201527f6f74207375636365656400000000000000000000000000000000000000000000602082015250565b5f61336d602a83612d0c565b915061337882613313565b604082019050919050565b5f6020820190508181035f83015261339a81613361565b9050919050565b7f416464726573733a20696e73756666696369656e742062616c616e636520666f5f8201527f722063616c6c0000000000000000000000000000000000000000000000000000602082015250565b5f6133fb602683612d0c565b9150613406826133a1565b604082019050919050565b5f6020820190508181035f830152613428816133ef565b9050919050565b7f416464726573733a2063616c6c20746f206e6f6e2d636f6e74726163740000005f82015250565b5f613463601d83612d0c565b915061346e8261342f565b602082019050919050565b5f6020820190508181035f83015261349081613457565b9050919050565b5f81519050919050565b5f6134ab82613497565b6134b58185612d0c565b93506134c5818560208601612bc6565b6134ce81612bee565b840191505092915050565b5f6020820190508181035f8301526134f181846134a1565b90509291505056fea264697066735822122078eda1aa8518abbd68b670918389083d86296a15c915e7b0c390c62bbd08555364736f6c63430008140033",
  "linkReferences": {},
  "deployedLinkReferences": {}
}