{
  "_format": "hh-sol-artifact-1",
  "contractName": "AutoDepositProxy",
  "sourceName": "contracts/AutoDepositProxy.sol",
  "abi": [
    {
      "inputs": [
        {
          "internalType": "address",
          "name": "_vault",
          "type": "address"
        },
        {
          "internalType": "address",
          "name": "_usdc",
          "type": "address"
        },
        {
          "internalType": "address",
          "name": "_beneficiary",
          "type": "address"
        }
      ],
      "stateMutability": "nonpayable",
      "type": "constructor"
    },
    {
      "anonymous": false,
      "inputs": [
        {
          "indexed": true,
          "internalType": "address",
          "name": "beneficiary",
          "type": "address"
        },
        {
          "indexed": false,
          "internalType": "uint256",
          "name": "usdcAmount",
          "type": "uint256"
        },
        {
          "indexed": false,
          "internalType": "uint256",
          "name": "sharesReceived",
          "type": "uint256"
        }
      ],
      "name": "AutoDeposit",
      "type": "event"
    },
    {
      "stateMutability": "nonpayable",
      "type": "fallback"
    },
    {
      "inputs": [],
      "name": "autoDeposit",
      "outputs": [],
      "stateMutability": "nonpayable",
      "type": "function"
    },
    {
      "inputs": [],
      "name": "beneficiary",
      "outputs": [
        {
          "internalType": "address",
          "name": "",
          "type": "address"
        }
      ],
      "stateMutability": "view",
      "type": "function"
    },
    {
      "inputs": [],
      "name": "usdc",
      "outputs": [
        {
          "internalType": "contract IERC20",
          "name": "",
          "type": "address"
        }
      ],
      "stateMutability": "view",
      "type": "function"
    },
    {
      "inputs": [],
      "name": "vault",
      "outputs": [
        {
          "internalType": "contract Vault",
          "name": "",
          "type": "address"
        }
      ],
      "stateMutability": "view",
      "type": "function"
    },
    {
      "stateMutability": "payable",
      "type": "receive"
    }
  ],
  "bytecode": "0x60e060405234801561000f575f80fd5b50604051610843380380610843833981810160405281019061003191906101d1565b8273ffffffffffffffffffffffffffffffffffffffff1660808173ffffffffffffffffffffffffffffffffffffffff16815250508173ffffffffffffffffffffffffffffffffffffffff1660a08173ffffffffffffffffffffffffffffffffffffffff16815250508073ffffffffffffffffffffffffffffffffffffffff1660c08173ffffffffffffffffffffffffffffffffffffffff168152505060a05173ffffffffffffffffffffffffffffffffffffffff1663095ea7b3847fffffffffffffffffffffffffffffffffffffffffffffffffffffffffffffffff6040518363ffffffff1660e01b815260040161012a929190610248565b6020604051808303815f875af1158015610146573d5f803e3d5ffd5b505050506040513d601f19601f8201168201806040525081019061016a91906102a4565b505050506102cf565b5f80fd5b5f73ffffffffffffffffffffffffffffffffffffffff82169050919050565b5f6101a082610177565b9050919050565b6101b081610196565b81146101ba575f80fd5b50565b5f815190506101cb816101a7565b92915050565b5f805f606084860312156101e8576101e7610173565b5b5f6101f5868287016101bd565b9350506020610206868287016101bd565b9250506040610217868287016101bd565b9150509250925092565b61022a81610196565b82525050565b5f819050919050565b61024281610230565b82525050565b5f60408201905061025b5f830185610221565b6102686020830184610239565b9392505050565b5f8115159050919050565b6102838161026f565b811461028d575f80fd5b50565b5f8151905061029e8161027a565b92915050565b5f602082840312156102b9576102b8610173565b5b5f6102c684828501610290565b91505092915050565b60805160a05160c05161052f6103145f395f81816101d60152818161025601526102cb01525f818160f601526102ef01525f81816101990152610313015261052f5ff3fe608060405260043610610042575f3560e01c806338af3eed1461005f5780633e413bee1461008957806375d20a3b146100b3578063fbfa77cf146100c957610049565b3661004957005b348015610054575f80fd5b5061005d6100f3565b005b34801561006a575f80fd5b506100736102c9565b6040516100809190610374565b60405180910390f35b348015610094575f80fd5b5061009d6102ed565b6040516100aa91906103e8565b60405180910390f35b3480156100be575f80fd5b506100c76100f3565b005b3480156100d4575f80fd5b506100dd610311565b6040516100ea9190610421565b60405180910390f35b5f7f000000000000000000000000000000000000000000000000000000000000000073ffffffffffffffffffffffffffffffffffffffff166370a08231306040518263ffffffff1660e01b815260040161014d9190610374565b602060405180830381865afa158015610168573d5f803e3d5ffd5b505050506040513d601f19601f8201168201806040525081019061018c9190610471565b90505f8111156102c6575f7f000000000000000000000000000000000000000000000000000000000000000073ffffffffffffffffffffffffffffffffffffffff16636e553f65837f00000000000000000000000000000000000000000000000000000000000000006040518363ffffffff1660e01b81526004016102129291906104ab565b6020604051808303815f875af115801561022e573d5f803e3d5ffd5b505050506040513d601f19601f820116820180604052508101906102529190610471565b90507f000000000000000000000000000000000000000000000000000000000000000073ffffffffffffffffffffffffffffffffffffffff167f89f2bf211df552a9cddc4f4fb8f63b5d5cd8bfdd5a74eebaf4e2cd143dcaf27383836040516102bc9291906104d2565b60405180910390a2505b50565b7f000000000000000000000000000000000000000000000000000000000000000081565b7f000000000000000000000000000000000000000000000000000000000000000081565b7f000000000000000000000000000000000000000000000000000000000000000081565b5f73ffffffffffffffffffffffffffffffffffffffff82169050919050565b5f61035e82610335565b9050919050565b61036e81610354565b82525050565b5f6020820190506103875f830184610365565b92915050565b5f819050919050565b5f6103b06103ab6103a684610335565b61038d565b610335565b9050919050565b5f6103c182610396565b9050919050565b5f6103d2826103b7565b9050919050565b6103e2816103c8565b82525050565b5f6020820190506103fb5f8301846103d9565b92915050565b5f61040b826103b7565b9050919050565b61041b81610401565b82525050565b5f6020820190506104345f830184610412565b92915050565b5f80fd5b5f819050919050565b6104508161043e565b811461045a575f80fd5b50565b5f8151905061046b81610447565b92915050565b5f602082840312156104865761048561043a565b5b5f6104938482850161045d565b91505092915050565b6104a58161043e565b82525050565b5f6040820190506104be5f83018561049c565b6104cb6020830184610365565b9392505050565b5f6040820190506104e55f83018561049c565b6104f2602083018461049c565b939250505056fea264697066735822122067c8bf70bc6ddfee7e707e66217647fdace8c190204b6818017aecfcf50fd52164736f6c63430008140033",
  "linkReferences": {},
  "deployedLinkReferences": {}
}