{
  "_format": "hh-sol-artifact-1",
  "contractName": "MockVault",
  "sourceName": "contracts/mocks/MockContracts.sol",
  "abi": [
    {
      "inputs": [
        {
          "internalType": "address",
          "name": "strategy",
          "type": "address"
        },
        {
          "internalType": "uint256",
          "name": "amount",
          "type": "uint256"
        },
        {
          "internalType": "bytes",
          "name": "data",
          "type": "bytes"
        }
      ],
      "name": "depositToStrategy",
      "outputs": [],
      "stateMutability": "nonpayable",
      "type": "function"
    },
    {
      "inputs": [],
      "name": "getStrategies",
      "outputs": [
        {
          "internalType": "address[]",
          "name": "",
          "type": "address[]"
        }
      ],
      "stateMutability": "view",
      "type": "function"
    },
    {
      "inputs": [
        {
          "internalType": "address",
          "name": "",
          "type": "address"
        }
      ],
      "name": "isStrategy",
      "outputs": [
        {
          "internalType": "bool",
          "name": "",
          "type": "bool"
        }
      ],
      "stateMutability": "view",
      "type": "function"
    },
    {
      "inputs": [
        {
          "internalType": "uint256",
          "name": "",
          "type": "uint256"
        }
      ],
      "name": "strategies",
      "outputs": [
        {
          "internalType": "address",
          "name": "",
          "type": "address"
        }
      ],
      "stateMutability": "view",
      "type": "function"
    }
  ],
  "bytecode": "0x6080806040523460155761027f908161001b8239f35b600080fdfe608080604052600436101561001357600080fd5b60003560e01c9081632e8ebaae146101f857508063b49a60bb14610102578063bd07fdac146100aa5763d574ea3d1461004b57600080fd5b346100a55760203660031901126100a5576004356000548110156100a557600080527f290decd9548b62a8d60345a988386fc84ba6bc95484008f6362f93160ef3e56301546040516001600160a01b039091168152602090f35b600080fd5b346100a55760603660031901126100a5576100c3610233565b5060443567ffffffffffffffff81116100a557366023820112156100a557806004013567ffffffffffffffff81116100a557369101602401116100a557005b346100a55760003660031901126100a55760405180602060005491828152018091600080527f290decd9548b62a8d60345a988386fc84ba6bc95484008f6362f93160ef3e5639060005b8181106101d957505050829003601f01601f191682019167ffffffffffffffff8311818410176101c357908291826040526020830190602084525180915260408301919060005b8181106101a1575050500390f35b82516001600160a01b0316845285945060209384019390920191600101610193565b634e487b7160e01b600052604160045260246000fd5b82546001600160a01b031684526020909301926001928301920161014c565b346100a55760203660031901126100a5576020906001600160a01b0361021c610233565b166000526001825260ff6040600020541615158152f35b600435906001600160a01b03821682036100a55756fea2646970667358221220f204ba94a8089afc86c7b8c0a8103752e9767660a6416dad5301a8319ee5f93364736f6c634300081c0033",
  "linkReferences": {},
  "deployedLinkReferences": {}
}