{
  "_format": "hh-sol-artifact-1",
  "contractName": "MockRoyaltyVault",
  "sourceName": "contracts/mocks/MockContracts.sol",
  "abi": [
    {
      "inputs": [],
      "stateMutability": "nonpayable",
      "type": "constructor"
    },
    {
      "inputs": [
        {
          "internalType": "address",
          "name": "spender",
          "type": "address"
        },
        {
          "internalType": "uint256",
          "name": "allowance",
          "type": "uint256"
        },
        {
          "internalType": "uint256",
          "name": "needed",
          "type": "uint256"
        }
      ],
      "name": "ERC20InsufficientAllowance",
      "type": "error"
    },
    {
      "inputs": [
        {
          "internalType": "address",
          "name": "sender",
          "type": "address"
        },
        {
          "internalType": "uint256",
          "name": "balance",
          "type": "uint256"
        },
        {
          "internalType": "uint256",
          "name": "needed",
          "type": "uint256"
        }
      ],
      "name": "ERC20InsufficientBalance",
      "type": "error"
    },
    {
      "inputs": [
        {
          "internalType": "address",
          "name": "approver",
          "type": "address"
        }
      ],
      "name": "ERC20InvalidApprover",
      "type": "error"
    },
    {
      "inputs": [
        {
          "internalType": "address",
          "name": "receiver",
          "type": "address"
        }
      ],
      "name": "ERC20InvalidReceiver",
      "type": "error"
    },
    {
      "inputs": [
        {
          "internalType": "address",
          "name": "sender",
          "type": "address"
        }
      ],
      "name": "ERC20InvalidSender",
      "type": "error"
    },
    {
      "inputs": [
        {
          "internalType": "address",
          "name": "spender",
          "type": "address"
        }
      ],
      "name": "ERC20InvalidSpender",
      "type": "error"
    },
    {
      "anonymous": false,
      "inputs": [
        {
          "indexed": true,
          "internalType": "address",
          "name": "owner",
          "type": "address"
        },
        {
          "indexed": true,
          "internalType": "address",
          "name": "spender",
          "type": "address"
        },
        {
          "indexed": false,
          "internalType": "uint256",
          "name": "value",
          "type": "uint256"
        }
      ],
      "name": "Approval",
      "type": "event"
    },
    {
      "anonymous": false,
      "inputs": [
        {
          "indexed": true,
          "internalType": "address",
          "name": "from",
          "type": "address"
        },
        {
          "indexed": true,
          "internalType": "address",
          "name": "to",
          "type": "address"
        },
        {
          "indexed": false,
          "internalType": "uint256",
          "name": "value",
          "type": "uint256"
        }
      ],
      "name": "Transfer",
      "type": "event"
    },
    {
      "inputs": [
        {
          "internalType": "address",
          "name": "owner",
          "type": "address"
        },
        {
          "internalType": "address",
          "name": "spender",
          "type": "address"
        }
      ],
      "name": "allowance",
      "outputs": [
        {
          "internalType": "uint256",
          "name": "",
          "type": "uint256"
        }
      ],
      "stateMutability": "view",
      "type": "function"
    },
    {
      "inputs": [
        {
          "internalType": "address",
          "name": "spender",
          "type": "address"
        },
        {
          "internalType": "uint256",
          "name": "value",
          "type": "uint256"
        }
      ],
      "name": "approve",
      "outputs": [
        {
          "internalType": "bool",
          "name": "",
          "type": "bool"
        }
      ],
      "stateMutability": "nonpayable",
      "type": "function"
    },
    {
      "inputs": [
        {
          "internalType": "address",
          "name": "account",
          "type": "address"
        }
      ],
      "name": "balanceOf",
      "outputs": [
        {
          "internalType": "uint256",
          "name": "",
          "type": "uint256"
        }
      ],
      "stateMutability": "view",
      "type": "function"
    },
    {
      "inputs": [
        {
          "internalType": "address",
          "name": "claimer",
          "type": "address"
        },
        {
          "internalType": "address[]",
          "name": "tokens",
          "type": "address[]"
        }
      ],
      "name": "claimRevenueOnBehalfByTokenBatch",
      "outputs": [
        {
          "internalType": "uint256[]",
          "name": "",
          "type": "uint256[]"
        }
      ],
      "stateMutability": "nonpayable",
      "type": "function"
    },
    {
      "inputs": [
        {
          "internalType": "address",
          "name": "",
          "type": "address"
        },
        {
          "internalType": "address",
          "name": "",
          "type": "address"
        }
      ],
      "name": "claimableAmounts",
      "outputs": [
        {
          "internalType": "uint256",
          "name": "",
          "type": "uint256"
        }
      ],
      "stateMutability": "view",
      "type": "function"
    },
    {
      "inputs": [],
      "name": "decimals",
      "outputs": [
        {
          "internalType": "uint8",
          "name": "",
          "type": "uint8"
        }
      ],
      "stateMutability": "view",
      "type": "function"
    },
    {
      "inputs": [
        {
          "internalType": "address",
          "name": "to",
          "type": "address"
        },
        {
          "internalType": "uint256",
          "name": "amount",
          "type": "uint256"
        }
      ],
      "name": "mint",
      "outputs": [],
      "stateMutability": "nonpayable",
      "type": "function"
    },
    {
      "inputs": [],
      "name": "name",
      "outputs": [
        {
          "internalType": "string",
          "name": "",
          "type": "string"
        }
      ],
      "stateMutability": "view",
      "type": "function"
    },
    {
      "inputs": [
        {
          "internalType": "address",
          "name": "token",
          "type": "address"
        },
        {
          "internalType": "address",
          "name": "claimer",
          "type": "address"
        },
        {
          "internalType": "uint256",
          "name": "amount",
          "type": "uint256"
        }
      ],
      "name": "setClaimableAmount",
      "outputs": [],
      "stateMutability": "nonpayable",
      "type": "function"
    },
    {
      "inputs": [],
      "name": "symbol",
      "outputs": [
        {
          "internalType": "string",
          "name": "",
          "type": "string"
        }
      ],
      "stateMutability": "view",
      "type": "function"
    },
    {
      "inputs": [],
      "name": "totalSupply",
      "outputs": [
        {
          "internalType": "uint256",
          "name": "",
          "type": "uint256"
        }
      ],
      "stateMutability": "view",
      "type": "function"
    },
    {
      "inputs": [
        {
          "internalType": "address",
          "name": "to",
          "type": "address"
        },
        {
          "internalType": "uint256",
          "name": "value",
          "type": "uint256"
        }
      ],
      "name": "transfer",
      "outputs": [
        {
          "internalType": "bool",
          "name": "",
          "type": "bool"
        }
      ],
      "stateMutability": "nonpayable",
      "type": "function"
    },
    {
      "inputs": [
        {
          "internalType": "address",
          "name": "from",
          "type": "address"
        },
        {
          "internalType": "address",
          "name": "to",
          "type": "address"
        },
        {
          "internalType": "uint256",
          "name": "value",
          "type": "uint256"
        }
      ],
      "name": "transferFrom",
      "outputs": [
        {
          "internalType": "bool",
          "name": "",
          "type": "bool"
        }
      ],
      "stateMutability": "nonpayable",
      "type": "function"
    }
  ],
  "bytecode": "0x60806040523461032f57604080519081016001600160401b0381118282101761023a5760409081526012825271135bd8dac8149bde585b1d1e4815985d5b1d60721b602083015280519081016001600160401b0381118282101761023a57604052600381526226a92b60e91b602082015281516001600160401b03811161023a57600354600181811c91168015610325575b602082101461021a57601f81116102c0575b50602092601f821160011461025b5792819293600092610250575b50508160011b916000199060031b1c1916176003555b80516001600160401b03811161023a57600454600181811c91168015610230575b602082101461021a57601f81116101b5575b50602091601f821160011461015157918192600092610146575b50508160011b916000199060031b1c1916176004555b60405161093390816103358239f35b015190503880610121565b601f198216926004600052806000209160005b85811061019d57508360019510610184575b505050811b01600455610137565b015160001960f88460031b161c19169055388080610176565b91926020600181928685015181550194019201610164565b60046000527f8a35acfbc15ff81a39ae7d344fd709f28e8600b4aa8c65c6b64bfe7fe36bd19b601f830160051c81019160208410610210575b601f0160051c01905b8181106102045750610107565b600081556001016101f7565b90915081906101ee565b634e487b7160e01b600052602260045260246000fd5b90607f16906100f5565b634e487b7160e01b600052604160045260246000fd5b0151905038806100be565b601f198216936003600052806000209160005b8681106102a8575083600195961061028f575b505050811b016003556100d4565b015160001960f88460031b161c19169055388080610281565b9192602060018192868501518155019401920161026e565b60036000527fc2575a0e9e593c00f959f8c92f12db2869c3395a3b0502d05e2516446f71f85b601f830160051c8101916020841061031b575b601f0160051c01905b81811061030f57506100a3565b60008155600101610302565b90915081906102f9565b90607f1690610091565b600080fdfe608080604052600436101561001357600080fd5b60003560e01c90816306fdde031461069357508063095ea7b31461060d57806318160ddd146105ef57806323b872dd14610516578063313ce567146104fa5780633440512e146103ae57806339559ee01461037457806340c10f19146102c857806370a082311461028e57806395d89b4114610186578063a9059cbb14610155578063dd62ed3e146101045763ec5fe222146100ae57600080fd5b346100ff5760403660031901126100ff576100c7610798565b6100cf6107ae565b6001600160a01b039182166000908152600560209081526040808320949093168252928352819020549051908152f35b600080fd5b346100ff5760403660031901126100ff5761011d610798565b6101256107ae565b6001600160a01b039182166000908152600160209081526040808320949093168252928352819020549051908152f35b346100ff5760403660031901126100ff5761017b610171610798565b602435903361084e565b602060405160018152f35b346100ff5760003660031901126100ff5760405160006004548060011c90600181168015610284575b6020831081146102705782855290811561024c57506001146101ec575b6101e8836101dc818503826107fe565b6040519182918261074f565b0390f35b91905060046000527f8a35acfbc15ff81a39ae7d344fd709f28e8600b4aa8c65c6b64bfe7fe36bd19b916000905b808210610232575090915081016020016101dc6101cc565b91926001816020925483858801015201910190929161021a565b60ff191660208086019190915291151560051b840190910191506101dc90506101cc565b634e487b7160e01b84526022600452602484fd5b91607f16916101af565b346100ff5760203660031901126100ff576001600160a01b036102af610798565b1660005260006020526020604060002054604051908152f35b346100ff5760403660031901126100ff576102e1610798565b602435906001600160a01b0316801561035e5760025491808301809311610348576020926002557fddf252ad1be2c89b69c2b068fc378daa952ba7f163c4a11628f55a4df523b3ef600093849284845283825260408420818154019055604051908152a380f35b634e487b7160e01b600052601160045260246000fd5b63ec442f0560e01b600052600060045260246000fd5b346100ff57610382366107c4565b6001600160a01b0392831660009081526005602090815260408083209490951682529290925291902055005b346100ff5760403660031901126100ff576103c7610798565b6024359067ffffffffffffffff82116100ff57366023830112156100ff57816004013567ffffffffffffffff81116100ff573660248260051b850101116100ff579061041282610836565b61041f60405191826107fe565b82815261042b83610836565b6020820190601f19013682376001600160a01b039092169160005b848110156104b5576000600582901b602488820101356001600160a01b038116908190036104b1578252600560205260408220868352602052604082205491855184101561049d5750840160200152600101610446565b634e487b7160e01b81526032600452602490fd5b8280fd5b50906040519182916020830190602084525180915260408301919060005b8181106104e1575050500390f35b82518452859450602093840193909201916001016104d3565b346100ff5760003660031901126100ff57602060405160128152f35b346100ff57610524366107c4565b6001600160a01b03831660008181526001602090815260408083203384529091529020549093919291906000198110610563575b5061017b935061084e565b8381106105d25784156105bc5733156105a65761017b946000526001602052604060002060018060a01b0333166000526020528360406000209103905584610558565b634a1406b160e11b600052600060045260246000fd5b63e602df0560e01b600052600060045260246000fd5b8390637dc7a0d960e11b6000523360045260245260445260646000fd5b346100ff5760003660031901126100ff576020600254604051908152f35b346100ff5760403660031901126100ff57610626610798565b6024359033156105bc576001600160a01b03169081156105a657336000526001602052604060002082600052602052806040600020556040519081527f8c5be1e5ebec7d5bd14f71427d1e84f3dd0314c0f7b2291e5b200ac8c7c3b92560203392a3602060405160018152f35b346100ff5760003660031901126100ff5760006003548060011c90600181168015610745575b6020831081146102705782855290811561024c57506001146106e5576101e8836101dc818503826107fe565b91905060036000527fc2575a0e9e593c00f959f8c92f12db2869c3395a3b0502d05e2516446f71f85b916000905b80821061072b575090915081016020016101dc6101cc565b919260018160209254838588010152019101909291610713565b91607f16916106b9565b91909160208152825180602083015260005b818110610782575060409293506000838284010152601f8019910116010190565b8060208092870101516040828601015201610761565b600435906001600160a01b03821682036100ff57565b602435906001600160a01b03821682036100ff57565b60609060031901126100ff576004356001600160a01b03811681036100ff57906024356001600160a01b03811681036100ff579060443590565b90601f8019910116810190811067ffffffffffffffff82111761082057604052565b634e487b7160e01b600052604160045260246000fd5b67ffffffffffffffff81116108205760051b60200190565b6001600160a01b03169081156108e7576001600160a01b031691821561035e5760008281528060205260408120548281106108cd5791604082827fddf252ad1be2c89b69c2b068fc378daa952ba7f163c4a11628f55a4df523b3ef958760209652828652038282205586815280845220818154019055604051908152a3565b916064928463391434e360e21b8452600452602452604452fd5b634b637e8f60e11b600052600060045260246000fdfea2646970667358221220d08fe5cb28f89a368094238305c786cb23429241ce935014094ead9df358441764736f6c634300081c0033",
  "linkReferences": {},
  "deployedLinkReferences": {}
}