{
  "_format": "hh-sol-artifact-1",
  "contractName": "AaveV3Strategy",
  "sourceName": "contracts/strategies/ethereum/AaveV3Strategy.sol",
  "abi": [
    {
      "inputs": [
        {
          "internalType": "address",
          "name": "_vault",
          "type": "address"
        }
      ],
      "stateMutability": "nonpayable",
      "type": "constructor"
    },
    {
      "inputs": [
        {
          "internalType": "bytes",
          "name": "reason",
          "type": "bytes"
        }
      ],
      "name": "ClaimFailed",
      "type": "error"
    },
    {
      "inputs": [
        {
          "internalType": "bytes",
          "name": "reason",
          "type": "bytes"
        }
      ],
      "name": "DepositFailed",
      "type": "error"
    },
    {
      "inputs": [
        {
          "internalType": "bytes",
          "name": "reason",
          "type": "bytes"
        }
      ],
      "name": "GetBalanceFailed",
      "type": "error"
    },
    {
      "inputs": [],
      "name": "InvalidAmount",
      "type": "error"
    },
    {
      "inputs": [],
      "name": "InvalidTokenAddress",
      "type": "error"
    },
    {
      "inputs": [],
      "name": "NoUnderlyingBalance",
      "type": "error"
    },
    {
      "inputs": [],
      "name": "NoVaultSet",
      "type": "error"
    },
    {
      "inputs": [],
      "name": "OnlyVault",
      "type": "error"
    },
    {
      "inputs": [],
      "name": "StrategyPaused",
      "type": "error"
    },
    {
      "inputs": [
        {
          "internalType": "bytes",
          "name": "reason",
          "type": "bytes"
        }
      ],
      "name": "WithdrawFailed",
      "type": "error"
    },
    {
      "anonymous": false,
      "inputs": [
        {
          "indexed": false,
          "internalType": "uint256",
          "name": "amount",
          "type": "uint256"
        }
      ],
      "name": "Claim",
      "type": "event"
    },
    {
      "anonymous": false,
      "inputs": [
        {
          "indexed": false,
          "internalType": "bytes",
          "name": "reason",
          "type": "bytes"
        }
      ],
      "name": "ClaimRewardsFailed",
      "type": "event"
    },
    {
      "anonymous": false,
      "inputs": [
        {
          "indexed": false,
          "internalType": "uint256",
          "name": "amount",
          "type": "uint256"
        }
      ],
      "name": "Deposit",
      "type": "event"
    },
    {
      "anonymous": false,
      "inputs": [
        {
          "indexed": false,
          "internalType": "uint256",
          "name": "balance",
          "type": "uint256"
        },
        {
          "indexed": false,
          "internalType": "bytes",
          "name": "data",
          "type": "bytes"
        }
      ],
      "name": "EmergencyExited",
      "type": "event"
    },
    {
      "anonymous": false,
      "inputs": [
        {
          "indexed": false,
          "internalType": "uint256",
          "name": "amount",
          "type": "uint256"
        },
        {
          "indexed": false,
          "internalType": "bytes",
          "name": "data",
          "type": "bytes"
        }
      ],
      "name": "Executed",
      "type": "event"
    },
    {
      "anonymous": false,
      "inputs": [
        {
          "indexed": false,
          "internalType": "bytes",
          "name": "data",
          "type": "bytes"
        }
      ],
      "name": "Harvested",
      "type": "event"
    },
    {
      "anonymous": false,
      "inputs": [
        {
          "indexed": false,
          "internalType": "bool",
          "name": "isPaused",
          "type": "bool"
        }
      ],
      "name": "PausedState",
      "type": "event"
    },
    {
      "anonymous": false,
      "inputs": [
        {
          "indexed": true,
          "internalType": "address",
          "name": "token",
          "type": "address"
        }
      ],
      "name": "RewardTokenAdded",
      "type": "event"
    },
    {
      "anonymous": false,
      "inputs": [
        {
          "indexed": true,
          "internalType": "bytes32",
          "name": "role",
          "type": "bytes32"
        },
        {
          "indexed": true,
          "internalType": "bytes32",
          "name": "previousAdminRole",
          "type": "bytes32"
        },
        {
          "indexed": true,
          "internalType": "bytes32",
          "name": "newAdminRole",
          "type": "bytes32"
        }
      ],
      "name": "RoleAdminChanged",
      "type": "event"
    },
    {
      "anonymous": false,
      "inputs": [
        {
          "indexed": true,
          "internalType": "bytes32",
          "name": "role",
          "type": "bytes32"
        },
        {
          "indexed": true,
          "internalType": "address",
          "name": "account",
          "type": "address"
        },
        {
          "indexed": true,
          "internalType": "address",
          "name": "sender",
          "type": "address"
        }
      ],
      "name": "RoleGranted",
      "type": "event"
    },
    {
      "anonymous": false,
      "inputs": [
        {
          "indexed": true,
          "internalType": "bytes32",
          "name": "role",
          "type": "bytes32"
        },
        {
          "indexed": true,
          "internalType": "address",
          "name": "account",
          "type": "address"
        },
        {
          "indexed": true,
          "internalType": "address",
          "name": "sender",
          "type": "address"
        }
      ],
      "name": "RoleRevoked",
      "type": "event"
    },
    {
      "anonymous": false,
      "inputs": [
        {
          "indexed": true,
          "internalType": "address",
          "name": "token",
          "type": "address"
        },
        {
          "indexed": false,
          "internalType": "uint256",
          "name": "amount",
          "type": "uint256"
        }
      ],
      "name": "TokensForwarded",
      "type": "event"
    },
    {
      "anonymous": false,
      "inputs": [
        {
          "indexed": false,
          "internalType": "address",
          "name": "vault",
          "type": "address"
        }
      ],
      "name": "VaultSet",
      "type": "event"
    },
    {
      "anonymous": false,
      "inputs": [
        {
          "indexed": false,
          "internalType": "uint256",
          "name": "amount",
          "type": "uint256"
        }
      ],
      "name": "Withdraw",
      "type": "event"
    },
    {
      "inputs": [],
      "name": "AAVE_POOL",
      "outputs": [
        {
          "internalType": "address",
          "name": "",
          "type": "address"
        }
      ],
      "stateMutability": "view",
      "type": "function"
    },
    {
      "inputs": [],
      "name": "AUSDC",
      "outputs": [
        {
          "internalType": "address",
          "name": "",
          "type": "address"
        }
      ],
      "stateMutability": "view",
      "type": "function"
    },
    {
      "inputs": [],
      "name": "DEFAULT_ADMIN_ROLE",
      "outputs": [
        {
          "internalType": "bytes32",
          "name": "",
          "type": "bytes32"
        }
      ],
      "stateMutability": "view",
      "type": "function"
    },
    {
      "inputs": [],
      "name": "USDC",
      "outputs": [
        {
          "internalType": "address",
          "name": "",
          "type": "address"
        }
      ],
      "stateMutability": "view",
      "type": "function"
    },
    {
      "inputs": [],
      "name": "VAULT_ROLE",
      "outputs": [
        {
          "internalType": "bytes32",
          "name": "",
          "type": "bytes32"
        }
      ],
      "stateMutability": "view",
      "type": "function"
    },
    {
      "inputs": [
        {
          "internalType": "address",
          "name": "tokenAddress",
          "type": "address"
        }
      ],
      "name": "addRewardToken",
      "outputs": [],
      "stateMutability": "nonpayable",
      "type": "function"
    },
    {
      "inputs": [
        {
          "internalType": "bytes",
          "name": "data",
          "type": "bytes"
        }
      ],
      "name": "claimRewards",
      "outputs": [],
      "stateMutability": "nonpayable",
      "type": "function"
    },
    {
      "inputs": [],
      "name": "claimSelector",
      "outputs": [
        {
          "internalType": "bytes4",
          "name": "",
          "type": "bytes4"
        }
      ],
      "stateMutability": "pure",
      "type": "function"
    },
    {
      "inputs": [],
      "name": "deploymentTime",
      "outputs": [
        {
          "internalType": "uint256",
          "name": "",
          "type": "uint256"
        }
      ],
      "stateMutability": "view",
      "type": "function"
    },
    {
      "inputs": [],
      "name": "depositSelector",
      "outputs": [
        {
          "internalType": "bytes4",
          "name": "",
          "type": "bytes4"
        }
      ],
      "stateMutability": "pure",
      "type": "function"
    },
    {
      "inputs": [
        {
          "internalType": "bytes",
          "name": "data",
          "type": "bytes"
        }
      ],
      "name": "emergencyExit",
      "outputs": [],
      "stateMutability": "nonpayable",
      "type": "function"
    },
    {
      "inputs": [
        {
          "internalType": "uint256",
          "name": "amount",
          "type": "uint256"
        },
        {
          "internalType": "bytes",
          "name": "data",
          "type": "bytes"
        }
      ],
      "name": "execute",
      "outputs": [],
      "stateMutability": "nonpayable",
      "type": "function"
    },
    {
      "inputs": [],
      "name": "getBalance",
      "outputs": [
        {
          "internalType": "uint256",
          "name": "",
          "type": "uint256"
        }
      ],
      "stateMutability": "view",
      "type": "function"
    },
    {
      "inputs": [],
      "name": "getBalanceSelector",
      "outputs": [
        {
          "internalType": "bytes4",
          "name": "",
          "type": "bytes4"
        }
      ],
      "stateMutability": "pure",
      "type": "function"
    },
    {
      "inputs": [],
      "name": "getCurrentAPY",
      "outputs": [
        {
          "internalType": "uint256",
          "name": "apy",
          "type": "uint256"
        }
      ],
      "stateMutability": "view",
      "type": "function"
    },
    {
      "inputs": [],
      "name": "getHealthMetrics",
      "outputs": [
        {
          "internalType": "bool",
          "name": "healthy",
          "type": "bool"
        },
        {
          "internalType": "uint256[]",
          "name": "metrics",
          "type": "uint256[]"
        }
      ],
      "stateMutability": "view",
      "type": "function"
    },
    {
      "inputs": [
        {
          "internalType": "bytes32",
          "name": "role",
          "type": "bytes32"
        }
      ],
      "name": "getRoleAdmin",
      "outputs": [
        {
          "internalType": "bytes32",
          "name": "",
          "type": "bytes32"
        }
      ],
      "stateMutability": "view",
      "type": "function"
    },
    {
      "inputs": [
        {
          "internalType": "bytes32",
          "name": "role",
          "type": "bytes32"
        },
        {
          "internalType": "address",
          "name": "account",
          "type": "address"
        }
      ],
      "name": "grantRole",
      "outputs": [],
      "stateMutability": "nonpayable",
      "type": "function"
    },
    {
      "inputs": [
        {
          "internalType": "bytes",
          "name": "data",
          "type": "bytes"
        }
      ],
      "name": "harvest",
      "outputs": [],
      "stateMutability": "nonpayable",
      "type": "function"
    },
    {
      "inputs": [
        {
          "internalType": "bytes32",
          "name": "role",
          "type": "bytes32"
        },
        {
          "internalType": "address",
          "name": "account",
          "type": "address"
        }
      ],
      "name": "hasRole",
      "outputs": [
        {
          "internalType": "bool",
          "name": "",
          "type": "bool"
        }
      ],
      "stateMutability": "view",
      "type": "function"
    },
    {
      "inputs": [
        {
          "internalType": "address",
          "name": "token",
          "type": "address"
        }
      ],
      "name": "knownRewardTokens",
      "outputs": [
        {
          "internalType": "bool",
          "name": "",
          "type": "bool"
        }
      ],
      "stateMutability": "pure",
      "type": "function"
    },
    {
      "inputs": [],
      "name": "lastHarvest",
      "outputs": [
        {
          "internalType": "uint256",
          "name": "",
          "type": "uint256"
        }
      ],
      "stateMutability": "view",
      "type": "function"
    },
    {
      "inputs": [],
      "name": "paused",
      "outputs": [
        {
          "internalType": "bool",
          "name": "",
          "type": "bool"
        }
      ],
      "stateMutability": "view",
      "type": "function"
    },
    {
      "inputs": [],
      "name": "protocol",
      "outputs": [
        {
          "internalType": "address",
          "name": "",
          "type": "address"
        }
      ],
      "stateMutability": "pure",
      "type": "function"
    },
    {
      "inputs": [
        {
          "internalType": "bytes4",
          "name": "selector",
          "type": "bytes4"
        },
        {
          "internalType": "bytes",
          "name": "params",
          "type": "bytes"
        }
      ],
      "name": "queryProtocol",
      "outputs": [
        {
          "internalType": "bytes",
          "name": "",
          "type": "bytes"
        }
      ],
      "stateMutability": "view",
      "type": "function"
    },
    {
      "inputs": [
        {
          "internalType": "bytes32",
          "name": "role",
          "type": "bytes32"
        },
        {
          "internalType": "address",
          "name": "account",
          "type": "address"
        }
      ],
      "name": "renounceRole",
      "outputs": [],
      "stateMutability": "nonpayable",
      "type": "function"
    },
    {
      "inputs": [
        {
          "internalType": "bytes32",
          "name": "role",
          "type": "bytes32"
        },
        {
          "internalType": "address",
          "name": "account",
          "type": "address"
        }
      ],
      "name": "revokeRole",
      "outputs": [],
      "stateMutability": "nonpayable",
      "type": "function"
    },
    {
      "inputs": [],
      "name": "rewardTokensList",
      "outputs": [
        {
          "internalType": "address[]",
          "name": "",
          "type": "address[]"
        }
      ],
      "stateMutability": "pure",
      "type": "function"
    },
    {
      "inputs": [
        {
          "internalType": "bool",
          "name": "_paused",
          "type": "bool"
        }
      ],
      "name": "setPaused",
      "outputs": [],
      "stateMutability": "nonpayable",
      "type": "function"
    },
    {
      "inputs": [
        {
          "internalType": "address",
          "name": "_vault",
          "type": "address"
        }
      ],
      "name": "setVault",
      "outputs": [],
      "stateMutability": "nonpayable",
      "type": "function"
    },
    {
      "inputs": [
        {
          "internalType": "bytes4",
          "name": "interfaceId",
          "type": "bytes4"
        }
      ],
      "name": "supportsInterface",
      "outputs": [
        {
          "internalType": "bool",
          "name": "",
          "type": "bool"
        }
      ],
      "stateMutability": "view",
      "type": "function"
    },
    {
      "inputs": [],
      "name": "totalDeposited",
      "outputs": [
        {
          "internalType": "uint256",
          "name": "",
          "type": "uint256"
        }
      ],
      "stateMutability": "view",
      "type": "function"
    },
    {
      "inputs": [],
      "name": "underlyingToken",
      "outputs": [
        {
          "internalType": "address",
          "name": "",
          "type": "address"
        }
      ],
      "stateMutability": "pure",
      "type": "function"
    },
    {
      "inputs": [],
      "name": "vault",
      "outputs": [
        {
          "internalType": "address",
          "name": "",
          "type": "address"
        }
      ],
      "stateMutability": "view",
      "type": "function"
    },
    {
      "inputs": [],
      "name": "withdrawSelector",
      "outputs": [
        {
          "internalType": "bytes4",
          "name": "",
          "type": "bytes4"
        }
      ],
      "stateMutability": "pure",
      "type": "function"
    }
  ],
  "bytecode": "0x60a060405234801562000010575f80fd5b5060405162003a6238038062003a62833981810160405281019062000036919062000396565b60015f819055508060025f6101000a81548173ffffffffffffffffffffffffffffffffffffffff021916908373ffffffffffffffffffffffffffffffffffffffff160217905550426080818152505042600481905550620000a05f801b33620001db60201b60201c565b620000d27f31e0210044b4f6757ce6aa31f9c6e8d4896d24a755014887391a926c5224d95982620001db60201b60201c565b73a0b86991c6218b36c1d19d4a2e9eb0ce3606eb4873ffffffffffffffffffffffffffffffffffffffff1663095ea7b37387870bca3f3fd6335c3f4ce8392d69350b4fa4e27fffffffffffffffffffffffffffffffffffffffffffffffffffffffffffffffff6040518363ffffffff1660e01b815260040162000157929190620003f1565b6020604051808303815f875af115801562000174573d5f803e3d5ffd5b505050506040513d601f19601f820116820180604052508101906200019a919062000456565b507fe7ae49f883c825b05681b3e00e8be6fdea9ed2a8a45e4c6ecb9390fc44cce61581604051620001cc919062000486565b60405180910390a150620004a1565b620001ed8282620002c660201b60201c565b620002c2576001805f8481526020019081526020015f205f015f8373ffffffffffffffffffffffffffffffffffffffff1673ffffffffffffffffffffffffffffffffffffffff1681526020019081526020015f205f6101000a81548160ff021916908315150217905550620002676200032a60201b60201c565b73ffffffffffffffffffffffffffffffffffffffff168173ffffffffffffffffffffffffffffffffffffffff16837f2f8788117e7eff1d82e926ec794901d17c78024a50270940304540a733656f0d60405160405180910390a45b5050565b5f60015f8481526020019081526020015f205f015f8373ffffffffffffffffffffffffffffffffffffffff1673ffffffffffffffffffffffffffffffffffffffff1681526020019081526020015f205f9054906101000a900460ff16905092915050565b5f33905090565b5f80fd5b5f73ffffffffffffffffffffffffffffffffffffffff82169050919050565b5f620003608262000335565b9050919050565b620003728162000354565b81146200037d575f80fd5b50565b5f81519050620003908162000367565b92915050565b5f60208284031215620003ae57620003ad62000331565b5b5f620003bd8482850162000380565b91505092915050565b620003d18162000354565b82525050565b5f819050919050565b620003eb81620003d7565b82525050565b5f604082019050620004065f830185620003c6565b620004156020830184620003e0565b9392505050565b5f8115159050919050565b62000432816200041c565b81146200043d575f80fd5b50565b5f81519050620004508162000427565b92915050565b5f602082840312156200046e576200046d62000331565b5b5f6200047d8482850162000440565b91505092915050565b5f6020820190506200049b5f830184620003c6565b92915050565b60805161359a620004c85f395f81816115e3015281816116420152611b9b015261359a5ff3fe608060405234801561000f575f80fd5b506004361061020f575f3560e01c8063633f14ef11610123578063a217fddf116100ab578063ea8ec92a1161007a578063ea8ec92a146105de578063ecda10f5146105fc578063f1a392da1461061a578063fbfa77cf14610638578063ff50abdc146106565761020f565b8063a217fddf1461056c578063ce5c7f611461058a578063d547741f146105a6578063e190febc146105c25761020f565b806389a30271116100f257806389a30271146104c45780638ce74426146104e257806391d1485414610500578063962ca4961461053057806398c4f1ac1461054e5761020f565b8063633f14ef1461043c5780636817031b1461046c578063870240b314610488578063870e4bef146104a65761020f565b80632c1c1276116101a6578063504ee05a11610175578063504ee05a146103a757806359efcb15146103c55780635c74105f146103e15780635c975abb146104005780635d2e04701461041e5761020f565b80632c1c1276146103235780632f2ff15d1461033f57806336568abe1461035b57806338c1d467146103775761020f565b80631b1be2bf116101e25780631b1be2bf1461029b5780631c03e6cc146102b9578063248a9ca3146102d55780632495a599146103055761020f565b806301ffc9a71461021357806308a016751461024357806312065fe01461026157806316c38b3c1461027f575b5f80fd5b61022d600480360381019061022891906124d8565b610674565b60405161023a919061251d565b60405180910390f35b61024b6106ed565b6040516102589190612575565b60405180910390f35b610269610705565b60405161027691906125a6565b60405180910390f35b610299600480360381019061029491906125e9565b6107d3565b005b6102a3610834565b6040516102b09190612575565b60405180910390f35b6102d360048036038101906102ce919061263e565b61084c565b005b6102ef60048036038101906102ea919061269c565b6108c1565b6040516102fc91906126d6565b60405180910390f35b61030d6108de565b60405161031a9190612575565b60405180910390f35b61033d60048036038101906103389190612750565b6108f9565b005b6103596004803603810190610354919061279b565b610be4565b005b6103756004803603810190610370919061279b565b610c05565b005b610391600480360381019061038c919061263e565b610c88565b60405161039e919061251d565b60405180910390f35b6103af610d1d565b6040516103bc91906127e8565b60405180910390f35b6103df60048036038101906103da919061282b565b610d2b565b005b6103e96110c7565b6040516103f792919061293f565b60405180910390f35b610408611297565b604051610415919061251d565b60405180910390f35b6104266112aa565b60405161043391906127e8565b60405180910390f35b6104566004803603810190610451919061296d565b6112b8565b6040516104639190612a54565b60405180910390f35b6104866004803603810190610481919061263e565b61140b565b005b610490611521565b60405161049d91906127e8565b60405180910390f35b6104ae61152f565b6040516104bb91906127e8565b60405180910390f35b6104cc61153d565b6040516104d99190612575565b60405180910390f35b6104ea611555565b6040516104f79190612575565b60405180910390f35b61051a6004803603810190610515919061279b565b611570565b604051610527919061251d565b60405180910390f35b6105386115d4565b60405161054591906125a6565b60405180910390f35b6105566116ac565b60405161056391906126d6565b60405180910390f35b6105746116d0565b60405161058191906126d6565b60405180910390f35b6105a4600480360381019061059f9190612750565b6116d6565b005b6105c060048036038101906105bb919061279b565b6119c8565b005b6105dc60048036038101906105d79190612750565b6119e9565b005b6105e6611ae1565b6040516105f39190612b2b565b60405180910390f35b610604611b99565b60405161061191906125a6565b60405180910390f35b610622611bbd565b60405161062f91906125a6565b60405180910390f35b610640611bc3565b60405161064d9190612575565b60405180910390f35b61065e611be8565b60405161066b91906125a6565b60405180910390f35b5f7f7965db0b000000000000000000000000000000000000000000000000000000007bffffffffffffffffffffffffffffffffffffffffffffffffffffffff1916827bffffffffffffffffffffffffffffffffffffffffffffffffffffffff191614806106e657506106e582611bee565b5b9050919050565b7387870bca3f3fd6335c3f4ce8392d69350b4fa4e281565b5f7398c23e9d8f34fefb1b7bd6a91b7ff122f4e16f5c73ffffffffffffffffffffffffffffffffffffffff166370a08231306040518263ffffffff1660e01b81526004016107539190612575565b602060405180830381865afa92505050801561078d57506040513d601f19601f8201168201806040525081019061078a9190612b5f565b60015b6107cc576040517f4a12fe570000000000000000000000000000000000000000000000000000000081526004016107c390612bad565b60405180910390fd5b8091505090565b5f801b6107df81611c57565b81600260146101000a81548160ff0219169083151502179055507f6c44c1c6e888a23752ec9c1d8f194bfb0ea295ccdb49b3da95d5be50c9db976982604051610828919061251d565b60405180910390a15050565b7398c23e9d8f34fefb1b7bd6a91b7ff122f4e16f5c81565b5f801b61085881611c57565b5f73ffffffffffffffffffffffffffffffffffffffff168273ffffffffffffffffffffffffffffffffffffffff16036108bd576040517f1eb00b0600000000000000000000000000000000000000000000000000000000815260040160405180910390fd5b5050565b5f60015f8381526020019081526020015f20600101549050919050565b5f73a0b86991c6218b36c1d19d4a2e9eb0ce3606eb48905090565b60025f9054906101000a900473ffffffffffffffffffffffffffffffffffffffff1673ffffffffffffffffffffffffffffffffffffffff163373ffffffffffffffffffffffffffffffffffffffff161415801561097d575061097b7f31e0210044b4f6757ce6aa31f9c6e8d4896d24a755014887391a926c5224d95933611570565b155b156109b4576040517f8d1af8bd00000000000000000000000000000000000000000000000000000000815260040160405180910390fd5b60025f54036109f8576040517f08c379a00000000000000000000000000000000000000000000000000000000081526004016109ef90612c25565b60405180910390fd5b60025f819055505f610a08610705565b90505f8103610a43576040517f2f02cb1400000000000000000000000000000000000000000000000000000000815260040160405180910390fd5b7387870bca3f3fd6335c3f4ce8392d69350b4fa4e273ffffffffffffffffffffffffffffffffffffffff166369328dec73a0b86991c6218b36c1d19d4a2e9eb0ce3606eb487fffffffffffffffffffffffffffffffffffffffffffffffffffffffffffffffff60025f9054906101000a900473ffffffffffffffffffffffffffffffffffffffff166040518463ffffffff1660e01b8152600401610ae993929190612c43565b6020604051808303815f875af1925050508015610b2457506040513d601f19601f82011682018060405250810190610b219190612b5f565b60015b610b95573d805f8114610b52576040519150601f19603f3d011682016040523d82523d5f602084013e610b57565b606091505b50806040517fad0ad28a000000000000000000000000000000000000000000000000000000008152600401610b8c9190612a54565b60405180910390fd5b5f6003819055507f33707543538a74978cfbe255a9a187ce79ed7695a03a48d36b5a3cf8b569aa52818585604051610bcf93929190612cb2565b60405180910390a1505060015f819055505050565b610bed826108c1565b610bf681611c57565b610c008383611c6b565b505050565b610c0d611d45565b73ffffffffffffffffffffffffffffffffffffffff168173ffffffffffffffffffffffffffffffffffffffff1614610c7a576040517f08c379a0000000000000000000000000000000000000000000000000000000008152600401610c7190612d52565b60405180910390fd5b610c848282611d4c565b5050565b5f73a0b86991c6218b36c1d19d4a2e9eb0ce3606eb4873ffffffffffffffffffffffffffffffffffffffff168273ffffffffffffffffffffffffffffffffffffffff161480610d1657507398c23e9d8f34fefb1b7bd6a91b7ff122f4e16f5c73ffffffffffffffffffffffffffffffffffffffff168273ffffffffffffffffffffffffffffffffffffffff16145b9050919050565b5f63617ba03760e01b905090565b60025f9054906101000a900473ffffffffffffffffffffffffffffffffffffffff1673ffffffffffffffffffffffffffffffffffffffff163373ffffffffffffffffffffffffffffffffffffffff1614158015610daf5750610dad7f31e0210044b4f6757ce6aa31f9c6e8d4896d24a755014887391a926c5224d95933611570565b155b15610de6576040517f8d1af8bd00000000000000000000000000000000000000000000000000000000815260040160405180910390fd5b600260149054906101000a900460ff1615610e2d576040517fe628b94900000000000000000000000000000000000000000000000000000000815260040160405180910390fd5b60025f5403610e71576040517f08c379a0000000000000000000000000000000000000000000000000000000008152600401610e6890612c25565b60405180910390fd5b60025f819055505f8303610eb1576040517f2c5211c600000000000000000000000000000000000000000000000000000000815260040160405180910390fd5b610ef233308573a0b86991c6218b36c1d19d4a2e9eb0ce3606eb4873ffffffffffffffffffffffffffffffffffffffff16611e27909392919063ffffffff16565b7387870bca3f3fd6335c3f4ce8392d69350b4fa4e273ffffffffffffffffffffffffffffffffffffffff1663617ba03773a0b86991c6218b36c1d19d4a2e9eb0ce3606eb4885305f6040518563ffffffff1660e01b8152600401610f599493929190612dbf565b5f604051808303815f87803b158015610f70575f80fd5b505af1925050508015610f81575060015b611031573d805f8114610faf576040519150601f19603f3d011682016040523d82523d5f602084013e610fb4565b606091505b50610ff4338573a0b86991c6218b36c1d19d4a2e9eb0ce3606eb4873ffffffffffffffffffffffffffffffffffffffff16611eb09092919063ffffffff16565b806040517ff8e68f230000000000000000000000000000000000000000000000000000000081526004016110289190612a54565b60405180910390fd5b8260035f8282546110429190612e2f565b925050819055507f4d6ce1e535dbade1c23defba91e23b8f791ce5edc0cc320257a2b364e4e384268360405161107891906125a6565b60405180910390a17f2e733a17851169f232b3859260eb3ad2a086afd54e999eb4ea9afb7791702e418383836040516110b393929190612cb2565b60405180910390a160015f81905550505050565b5f6060600367ffffffffffffffff8111156110e5576110e4612e62565b5b6040519080825280602002602001820160405280156111135781602001602082028036833780820191505090505b5090503073ffffffffffffffffffffffffffffffffffffffff1663962ca4966040518163ffffffff1660e01b8152600401602060405180830381865afa15801561115f573d5f803e3d5ffd5b505050506040513d601f19601f820116820180604052508101906111839190612b5f565b815f8151811061119657611195612e8f565b5b6020026020010181815250505f600354116111b1575f6111d4565b6003546127106111bf610705565b6111c99190612ebc565b6111d39190612f2a565b5b816001815181106111e8576111e7612e8f565b5b602002602001018181525050600454426112029190612f5a565b8160028151811061121657611215612e8f565b5b6020026020010181815250506064815f8151811061123757611236612e8f565b5b6020026020010151118015611268575061251c8160018151811061125e5761125d612e8f565b5b6020026020010151115b8015611291575062093a808160028151811061128757611286612e8f565b5b6020026020010151105b91509091565b600260149054906101000a900460ff1681565b5f6369328dec60e01b905090565b606063bf92857c60e01b7bffffffffffffffffffffffffffffffffffffffffffffffffffffffff1916847bffffffffffffffffffffffffffffffffffffffffffffffffffffffff1916036113f2575f83838101906113169190612fc8565b90507387870bca3f3fd6335c3f4ce8392d69350b4fa4e273ffffffffffffffffffffffffffffffffffffffff1663bf92857c826040518263ffffffff1660e01b81526004016113659190612575565b60c060405180830381865afa92505050801561139f57506040513d601f19601f8201168201806040525081019061139c9190612ff3565b60015b6113ba5760405180602001604052805f815250915050611404565b8585858585856040516020016113d59695949392919061307c565b604051602081830303815290604052975050505050505050611404565b60405180602001604052805f81525090505b9392505050565b5f801b61141781611c57565b5f73ffffffffffffffffffffffffffffffffffffffff168273ffffffffffffffffffffffffffffffffffffffff160361147c576040517f1eb00b0600000000000000000000000000000000000000000000000000000000815260040160405180910390fd5b8160025f6101000a81548173ffffffffffffffffffffffffffffffffffffffff021916908373ffffffffffffffffffffffffffffffffffffffff1602179055506114e67f31e0210044b4f6757ce6aa31f9c6e8d4896d24a755014887391a926c5224d95983611c6b565b7fe7ae49f883c825b05681b3e00e8be6fdea9ed2a8a45e4c6ecb9390fc44cce615826040516115159190612575565b60405180910390a15050565b5f63ce5c7f6160e01b905090565b5f6312065fe060e01b905090565b73a0b86991c6218b36c1d19d4a2e9eb0ce3606eb4881565b5f7387870bca3f3fd6335c3f4ce8392d69350b4fa4e2905090565b5f60015f8481526020019081526020015f205f015f8373ffffffffffffffffffffffffffffffffffffffff1673ffffffffffffffffffffffffffffffffffffffff1681526020019081526020015f205f9054906101000a900460ff16905092915050565b5f8060035414806116045750427f0000000000000000000000000000000000000000000000000000000000000000145b15611611575f90506116a9565b5f61161a610705565b9050600354811161162e575f9150506116a9565b5f6003548261163d9190612f5a565b90505f7f00000000000000000000000000000000000000000000000000000000000000004261166c9190612f5a565b90508060035461167c9190612ebc565b6127106301e133808461168f9190612ebc565b6116999190612ebc565b6116a39190612f2a565b93505050505b90565b7f31e0210044b4f6757ce6aa31f9c6e8d4896d24a755014887391a926c5224d95981565b5f801b81565b60025f9054906101000a900473ffffffffffffffffffffffffffffffffffffffff1673ffffffffffffffffffffffffffffffffffffffff163373ffffffffffffffffffffffffffffffffffffffff161415801561175a57506117587f31e0210044b4f6757ce6aa31f9c6e8d4896d24a755014887391a926c5224d95933611570565b155b15611791576040517f8d1af8bd00000000000000000000000000000000000000000000000000000000815260040160405180910390fd5b60025f54036117d5576040517f08c379a00000000000000000000000000000000000000000000000000000000081526004016117cc90612c25565b60405180910390fd5b60025f819055505f6117e5610705565b90505f60035482116117f7575f611806565b600354826118059190612f5a565b5b90505f8111156119bb577387870bca3f3fd6335c3f4ce8392d69350b4fa4e273ffffffffffffffffffffffffffffffffffffffff166369328dec73a0b86991c6218b36c1d19d4a2e9eb0ce3606eb488360025f9054906101000a900473ffffffffffffffffffffffffffffffffffffffff166040518463ffffffff1660e01b815260040161189693929190612c43565b6020604051808303815f875af19250505080156118d157506040513d601f19601f820116820180604052508101906118ce9190612b5f565b60015b611942573d805f81146118ff576040519150601f19603f3d011682016040523d82523d5f602084013e611904565b606091505b50806040517f9e7e26a30000000000000000000000000000000000000000000000000000000081526004016119399190612a54565b60405180910390fd5b426004819055507f7bb2b3c10797baccb6f8c4791f1edd6ca2f0d028ee0eda64b01a9a57e3a653f78160405161197891906125a6565b60405180910390a17fac04581c930eefb60cf2509de6e2388cbcde488697b9c13ca8dc5cddc817186085856040516119b19291906130db565b60405180910390a1505b505060015f819055505050565b6119d1826108c1565b6119da81611c57565b6119e48383611d4c565b505050565b60025f9054906101000a900473ffffffffffffffffffffffffffffffffffffffff1673ffffffffffffffffffffffffffffffffffffffff163373ffffffffffffffffffffffffffffffffffffffff1614158015611a6d5750611a6b7f31e0210044b4f6757ce6aa31f9c6e8d4896d24a755014887391a926c5224d95933611570565b155b15611aa4576040517f8d1af8bd00000000000000000000000000000000000000000000000000000000815260040160405180910390fd5b7fac04581c930eefb60cf2509de6e2388cbcde488697b9c13ca8dc5cddc81718608282604051611ad59291906130db565b60405180910390a15050565b60605f600167ffffffffffffffff811115611aff57611afe612e62565b5b604051908082528060200260200182016040528015611b2d5781602001602082028036833780820191505090505b50905073a0b86991c6218b36c1d19d4a2e9eb0ce3606eb48815f81518110611b5857611b57612e8f565b5b602002602001019073ffffffffffffffffffffffffffffffffffffffff16908173ffffffffffffffffffffffffffffffffffffffff16815250508091505090565b7f000000000000000000000000000000000000000000000000000000000000000081565b60045481565b60025f9054906101000a900473ffffffffffffffffffffffffffffffffffffffff1681565b60035481565b5f7f01ffc9a7000000000000000000000000000000000000000000000000000000007bffffffffffffffffffffffffffffffffffffffffffffffffffffffff1916827bffffffffffffffffffffffffffffffffffffffffffffffffffffffff1916149050919050565b611c6881611c63611d45565b611f36565b50565b611c758282611570565b611d41576001805f8481526020019081526020015f205f015f8373ffffffffffffffffffffffffffffffffffffffff1673ffffffffffffffffffffffffffffffffffffffff1681526020019081526020015f205f6101000a81548160ff021916908315150217905550611ce6611d45565b73ffffffffffffffffffffffffffffffffffffffff168173ffffffffffffffffffffffffffffffffffffffff16837f2f8788117e7eff1d82e926ec794901d17c78024a50270940304540a733656f0d60405160405180910390a45b5050565b5f33905090565b611d568282611570565b15611e23575f60015f8481526020019081526020015f205f015f8373ffffffffffffffffffffffffffffffffffffffff1673ffffffffffffffffffffffffffffffffffffffff1681526020019081526020015f205f6101000a81548160ff021916908315150217905550611dc8611d45565b73ffffffffffffffffffffffffffffffffffffffff168173ffffffffffffffffffffffffffffffffffffffff16837ff6391f5c32d9c69d2a47ea670b442974b53935d1edc7fd64eb21e047a839171b60405160405180910390a45b5050565b611eaa846323b872dd60e01b858585604051602401611e48939291906130fd565b604051602081830303815290604052907bffffffffffffffffffffffffffffffffffffffffffffffffffffffff19166020820180517bffffffffffffffffffffffffffffffffffffffffffffffffffffffff8381831617835250505050611fd2565b50505050565b611f318363a9059cbb60e01b8484604051602401611ecf929190613132565b604051602081830303815290604052907bffffffffffffffffffffffffffffffffffffffffffffffffffffffff19166020820180517bffffffffffffffffffffffffffffffffffffffffffffffffffffffff8381831617835250505050611fd2565b505050565b611f408282611570565b611fce57611f658173ffffffffffffffffffffffffffffffffffffffff166014612097565b611f72835f1c6020612097565b604051602001611f83929190613231565b6040516020818303038152906040526040517f08c379a0000000000000000000000000000000000000000000000000000000008152600401611fc591906132a2565b60405180910390fd5b5050565b5f612033826040518060400160405280602081526020017f5361666545524332303a206c6f772d6c6576656c2063616c6c206661696c65648152508573ffffffffffffffffffffffffffffffffffffffff166122cc9092919063ffffffff16565b90505f81511115612092578080602001905181019061205291906132d6565b612091576040517f08c379a000000000000000000000000000000000000000000000000000000000815260040161208890613371565b60405180910390fd5b5b505050565b60605f60028360026120a99190612ebc565b6120b39190612e2f565b67ffffffffffffffff8111156120cc576120cb612e62565b5b6040519080825280601f01601f1916602001820160405280156120fe5781602001600182028036833780820191505090505b5090507f3000000000000000000000000000000000000000000000000000000000000000815f8151811061213557612134612e8f565b5b60200101907effffffffffffffffffffffffffffffffffffffffffffffffffffffffffffff191690815f1a9053507f78000000000000000000000000000000000000000000000000000000000000008160018151811061219857612197612e8f565b5b60200101907effffffffffffffffffffffffffffffffffffffffffffffffffffffffffffff191690815f1a9053505f60018460026121d69190612ebc565b6121e09190612e2f565b90505b600181111561227f577f3031323334353637383961626364656600000000000000000000000000000000600f86166010811061222257612221612e8f565b5b1a60f81b82828151811061223957612238612e8f565b5b60200101907effffffffffffffffffffffffffffffffffffffffffffffffffffffffffffff191690815f1a905350600485901c9450806122789061338f565b90506121e3565b505f84146122c2576040517f08c379a00000000000000000000000000000000000000000000000000000000081526004016122b990613400565b60405180910390fd5b8091505092915050565b60606122da84845f856122e3565b90509392505050565b606082471015612328576040517f08c379a000000000000000000000000000000000000000000000000000000000815260040161231f9061348e565b60405180910390fd5b612331856123f3565b612370576040517f08c379a0000000000000000000000000000000000000000000000000000000008152600401612367906134f6565b60405180910390fd5b5f808673ffffffffffffffffffffffffffffffffffffffff168587604051612398919061354e565b5f6040518083038185875af1925050503d805f81146123d2576040519150601f19603f3d011682016040523d82523d5f602084013e6123d7565b606091505b50915091506123e7828286612415565b92505050949350505050565b5f808273ffffffffffffffffffffffffffffffffffffffff163b119050919050565b6060831561242557829050612474565b5f835111156124375782518084602001fd5b816040517f08c379a000000000000000000000000000000000000000000000000000000000815260040161246b91906132a2565b60405180910390fd5b9392505050565b5f80fd5b5f80fd5b5f7fffffffff0000000000000000000000000000000000000000000000000000000082169050919050565b6124b781612483565b81146124c1575f80fd5b50565b5f813590506124d2816124ae565b92915050565b5f602082840312156124ed576124ec61247b565b5b5f6124fa848285016124c4565b91505092915050565b5f8115159050919050565b61251781612503565b82525050565b5f6020820190506125305f83018461250e565b92915050565b5f73ffffffffffffffffffffffffffffffffffffffff82169050919050565b5f61255f82612536565b9050919050565b61256f81612555565b82525050565b5f6020820190506125885f830184612566565b92915050565b5f819050919050565b6125a08161258e565b82525050565b5f6020820190506125b95f830184612597565b92915050565b6125c881612503565b81146125d2575f80fd5b50565b5f813590506125e3816125bf565b92915050565b5f602082840312156125fe576125fd61247b565b5b5f61260b848285016125d5565b91505092915050565b61261d81612555565b8114612627575f80fd5b50565b5f8135905061263881612614565b92915050565b5f602082840312156126535761265261247b565b5b5f6126608482850161262a565b91505092915050565b5f819050919050565b61267b81612669565b8114612685575f80fd5b50565b5f8135905061269681612672565b92915050565b5f602082840312156126b1576126b061247b565b5b5f6126be84828501612688565b91505092915050565b6126d081612669565b82525050565b5f6020820190506126e95f8301846126c7565b92915050565b5f80fd5b5f80fd5b5f80fd5b5f8083601f8401126127105761270f6126ef565b5b8235905067ffffffffffffffff81111561272d5761272c6126f3565b5b602083019150836001820283011115612749576127486126f7565b5b9250929050565b5f80602083850312156127665761276561247b565b5b5f83013567ffffffffffffffff8111156127835761278261247f565b5b61278f858286016126fb565b92509250509250929050565b5f80604083850312156127b1576127b061247b565b5b5f6127be85828601612688565b92505060206127cf8582860161262a565b9150509250929050565b6127e281612483565b82525050565b5f6020820190506127fb5f8301846127d9565b92915050565b61280a8161258e565b8114612814575f80fd5b50565b5f8135905061282581612801565b92915050565b5f805f604084860312156128425761284161247b565b5b5f61284f86828701612817565b935050602084013567ffffffffffffffff8111156128705761286f61247f565b5b61287c868287016126fb565b92509250509250925092565b5f81519050919050565b5f82825260208201905092915050565b5f819050602082019050919050565b6128ba8161258e565b82525050565b5f6128cb83836128b1565b60208301905092915050565b5f602082019050919050565b5f6128ed82612888565b6128f78185612892565b9350612902836128a2565b805f5b8381101561293257815161291988826128c0565b9750612924836128d7565b925050600181019050612905565b5085935050505092915050565b5f6040820190506129525f83018561250e565b818103602083015261296481846128e3565b90509392505050565b5f805f604084860312156129845761298361247b565b5b5f612991868287016124c4565b935050602084013567ffffffffffffffff8111156129b2576129b161247f565b5b6129be868287016126fb565b92509250509250925092565b5f81519050919050565b5f82825260208201905092915050565b5f5b83811015612a015780820151818401526020810190506129e6565b5f8484015250505050565b5f601f19601f8301169050919050565b5f612a26826129ca565b612a3081856129d4565b9350612a408185602086016129e4565b612a4981612a0c565b840191505092915050565b5f6020820190508181035f830152612a6c8184612a1c565b905092915050565b5f81519050919050565b5f82825260208201905092915050565b5f819050602082019050919050565b612aa681612555565b82525050565b5f612ab78383612a9d565b60208301905092915050565b5f602082019050919050565b5f612ad982612a74565b612ae38185612a7e565b9350612aee83612a8e565b805f5b83811015612b1e578151612b058882612aac565b9750612b1083612ac3565b925050600181019050612af1565b5085935050505092915050565b5f6020820190508181035f830152612b438184612acf565b905092915050565b5f81519050612b5981612801565b92915050565b5f60208284031215612b7457612b7361247b565b5b5f612b8184828501612b4b565b91505092915050565b50565b5f612b985f836129d4565b9150612ba382612b8a565b5f82019050919050565b5f6020820190508181035f830152612bc481612b8d565b9050919050565b5f82825260208201905092915050565b7f5265656e7472616e637947756172643a207265656e7472616e742063616c6c005f82015250565b5f612c0f601f83612bcb565b9150612c1a82612bdb565b602082019050919050565b5f6020820190508181035f830152612c3c81612c03565b9050919050565b5f606082019050612c565f830186612566565b612c636020830185612597565b612c706040830184612566565b949350505050565b828183375f83830152505050565b5f612c9183856129d4565b9350612c9e838584612c78565b612ca783612a0c565b840190509392505050565b5f604082019050612cc55f830186612597565b8181036020830152612cd8818486612c86565b9050949350505050565b7f416363657373436f6e74726f6c3a2063616e206f6e6c792072656e6f756e63655f8201527f20726f6c657320666f722073656c660000000000000000000000000000000000602082015250565b5f612d3c602f83612bcb565b9150612d4782612ce2565b604082019050919050565b5f6020820190508181035f830152612d6981612d30565b9050919050565b5f819050919050565b5f61ffff82169050919050565b5f819050919050565b5f612da9612da4612d9f84612d70565b612d86565b612d79565b9050919050565b612db981612d8f565b82525050565b5f608082019050612dd25f830187612566565b612ddf6020830186612597565b612dec6040830185612566565b612df96060830184612db0565b95945050505050565b7f4e487b71000000000000000000000000000000000000000000000000000000005f52601160045260245ffd5b5f612e398261258e565b9150612e448361258e565b9250828201905080821115612e5c57612e5b612e02565b5b92915050565b7f4e487b71000000000000000000000000000000000000000000000000000000005f52604160045260245ffd5b7f4e487b71000000000000000000000000000000000000000000000000000000005f52603260045260245ffd5b5f612ec68261258e565b9150612ed18361258e565b9250828202612edf8161258e565b91508282048414831517612ef657612ef5612e02565b5b5092915050565b7f4e487b71000000000000000000000000000000000000000000000000000000005f52601260045260245ffd5b5f612f348261258e565b9150612f3f8361258e565b925082612f4f57612f4e612efd565b5b828204905092915050565b5f612f648261258e565b9150612f6f8361258e565b9250828203905081811115612f8757612f86612e02565b5b92915050565b5f612f9782612536565b9050919050565b612fa781612f8d565b8114612fb1575f80fd5b50565b5f81359050612fc281612f9e565b92915050565b5f60208284031215612fdd57612fdc61247b565b5b5f612fea84828501612fb4565b91505092915050565b5f805f805f8060c0878903121561300d5761300c61247b565b5b5f61301a89828a01612b4b565b965050602061302b89828a01612b4b565b955050604061303c89828a01612b4b565b945050606061304d89828a01612b4b565b935050608061305e89828a01612b4b565b92505060a061306f89828a01612b4b565b9150509295509295509295565b5f60c08201905061308f5f830189612597565b61309c6020830188612597565b6130a96040830187612597565b6130b66060830186612597565b6130c36080830185612597565b6130d060a0830184612597565b979650505050505050565b5f6020820190508181035f8301526130f4818486612c86565b90509392505050565b5f6060820190506131105f830186612566565b61311d6020830185612566565b61312a6040830184612597565b949350505050565b5f6040820190506131455f830185612566565b6131526020830184612597565b9392505050565b5f81905092915050565b7f416363657373436f6e74726f6c3a206163636f756e74200000000000000000005f82015250565b5f613197601783613159565b91506131a282613163565b601782019050919050565b5f81519050919050565b5f6131c1826131ad565b6131cb8185613159565b93506131db8185602086016129e4565b80840191505092915050565b7f206973206d697373696e6720726f6c65200000000000000000000000000000005f82015250565b5f61321b601183613159565b9150613226826131e7565b601182019050919050565b5f61323b8261318b565b915061324782856131b7565b91506132528261320f565b915061325e82846131b7565b91508190509392505050565b5f613274826131ad565b61327e8185612bcb565b935061328e8185602086016129e4565b61329781612a0c565b840191505092915050565b5f6020820190508181035f8301526132ba818461326a565b905092915050565b5f815190506132d0816125bf565b92915050565b5f602082840312156132eb576132ea61247b565b5b5f6132f8848285016132c2565b91505092915050565b7f5361666545524332303a204552433230206f7065726174696f6e20646964206e5f8201527f6f74207375636365656400000000000000000000000000000000000000000000602082015250565b5f61335b602a83612bcb565b915061336682613301565b604082019050919050565b5f6020820190508181035f8301526133888161334f565b9050919050565b5f6133998261258e565b91505f82036133ab576133aa612e02565b5b600182039050919050565b7f537472696e67733a20686578206c656e67746820696e73756666696369656e745f82015250565b5f6133ea602083612bcb565b91506133f5826133b6565b602082019050919050565b5f6020820190508181035f830152613417816133de565b9050919050565b7f416464726573733a20696e73756666696369656e742062616c616e636520666f5f8201527f722063616c6c0000000000000000000000000000000000000000000000000000602082015250565b5f613478602683612bcb565b91506134838261341e565b604082019050919050565b5f6020820190508181035f8301526134a58161346c565b9050919050565b7f416464726573733a2063616c6c20746f206e6f6e2d636f6e74726163740000005f82015250565b5f6134e0601d83612bcb565b91506134eb826134ac565b602082019050919050565b5f6020820190508181035f83015261350d816134d4565b9050919050565b5f81905092915050565b5f613528826129ca565b6135328185613514565b93506135428185602086016129e4565b80840191505092915050565b5f613559828461351e565b91508190509291505056fea2646970667358221220b8a1916baffc0c29ac8bbcef2cac74da61402e07f61688a2a03a0bd284d4223064736f6c63430008140033",
  "linkReferences": {},
  "deployedLinkReferences": {}
}