{
  "_format": "hh-sol-artifact-1",
  "contractName": "MockWETH",
  "sourceName": "contracts/mocks/MockWETH.sol",
  "abi": [
    {
      "inputs": [],
      "stateMutability": "nonpayable",
      "type": "constructor"
    },
    {
      "inputs": [
        {
          "internalType": "address",
          "name": "spender",
          "type": "address"
        },
        {
          "internalType": "uint256",
          "name": "allowance",
          "type": "uint256"
        },
        {
          "internalType": "uint256",
          "name": "needed",
          "type": "uint256"
        }
      ],
      "name": "ERC20InsufficientAllowance",
      "type": "error"
    },
    {
      "inputs": [
        {
          "internalType": "address",
          "name": "sender",
          "type": "address"
        },
        {
          "internalType": "uint256",
          "name": "balance",
          "type": "uint256"
        },
        {
          "internalType": "uint256",
          "name": "needed",
          "type": "uint256"
        }
      ],
      "name": "ERC20InsufficientBalance",
      "type": "error"
    },
    {
      "inputs": [
        {
          "internalType": "address",
          "name": "approver",
          "type": "address"
        }
      ],
      "name": "ERC20InvalidApprover",
      "type": "error"
    },
    {
      "inputs": [
        {
          "internalType": "address",
          "name": "receiver",
          "type": "address"
        }
      ],
      "name": "ERC20InvalidReceiver",
      "type": "error"
    },
    {
      "inputs": [
        {
          "internalType": "address",
          "name": "sender",
          "type": "address"
        }
      ],
      "name": "ERC20InvalidSender",
      "type": "error"
    },
    {
      "inputs": [
        {
          "internalType": "address",
          "name": "spender",
          "type": "address"
        }
      ],
      "name": "ERC20InvalidSpender",
      "type": "error"
    },
    {
      "inputs": [
        {
          "internalType": "address",
          "name": "owner",
          "type": "address"
        }
      ],
      "name": "OwnableInvalidOwner",
      "type": "error"
    },
    {
      "inputs": [
        {
          "internalType": "address",
          "name": "account",
          "type": "address"
        }
      ],
      "name": "OwnableUnauthorizedAccount",
      "type": "error"
    },
    {
      "anonymous": false,
      "inputs": [
        {
          "indexed": true,
          "internalType": "address",
          "name": "owner",
          "type": "address"
        },
        {
          "indexed": true,
          "internalType": "address",
          "name": "spender",
          "type": "address"
        },
        {
          "indexed": false,
          "internalType": "uint256",
          "name": "value",
          "type": "uint256"
        }
      ],
      "name": "Approval",
      "type": "event"
    },
    {
      "anonymous": false,
      "inputs": [
        {
          "indexed": true,
          "internalType": "address",
          "name": "previousOwner",
          "type": "address"
        },
        {
          "indexed": true,
          "internalType": "address",
          "name": "newOwner",
          "type": "address"
        }
      ],
      "name": "OwnershipTransferred",
      "type": "event"
    },
    {
      "anonymous": false,
      "inputs": [
        {
          "indexed": true,
          "internalType": "address",
          "name": "from",
          "type": "address"
        },
        {
          "indexed": true,
          "internalType": "address",
          "name": "to",
          "type": "address"
        },
        {
          "indexed": false,
          "internalType": "uint256",
          "name": "value",
          "type": "uint256"
        }
      ],
      "name": "Transfer",
      "type": "event"
    },
    {
      "inputs": [
        {
          "internalType": "address",
          "name": "owner",
          "type": "address"
        },
        {
          "internalType": "address",
          "name": "spender",
          "type": "address"
        }
      ],
      "name": "allowance",
      "outputs": [
        {
          "internalType": "uint256",
          "name": "",
          "type": "uint256"
        }
      ],
      "stateMutability": "view",
      "type": "function"
    },
    {
      "inputs": [
        {
          "internalType": "address",
          "name": "spender",
          "type": "address"
        },
        {
          "internalType": "uint256",
          "name": "value",
          "type": "uint256"
        }
      ],
      "name": "approve",
      "outputs": [
        {
          "internalType": "bool",
          "name": "",
          "type": "bool"
        }
      ],
      "stateMutability": "nonpayable",
      "type": "function"
    },
    {
      "inputs": [
        {
          "internalType": "address",
          "name": "account",
          "type": "address"
        }
      ],
      "name": "balanceOf",
      "outputs": [
        {
          "internalType": "uint256",
          "name": "",
          "type": "uint256"
        }
      ],
      "stateMutability": "view",
      "type": "function"
    },
    {
      "inputs": [
        {
          "internalType": "uint256",
          "name": "amount",
          "type": "uint256"
        }
      ],
      "name": "burn",
      "outputs": [],
      "stateMutability": "nonpayable",
      "type": "function"
    },
    {
      "inputs": [],
      "name": "decimals",
      "outputs": [
        {
          "internalType": "uint8",
          "name": "",
          "type": "uint8"
        }
      ],
      "stateMutability": "pure",
      "type": "function"
    },
    {
      "inputs": [],
      "name": "deposit",
      "outputs": [],
      "stateMutability": "payable",
      "type": "function"
    },
    {
      "inputs": [
        {
          "internalType": "uint256",
          "name": "amount",
          "type": "uint256"
        }
      ],
      "name": "faucet",
      "outputs": [],
      "stateMutability": "nonpayable",
      "type": "function"
    },
    {
      "inputs": [
        {
          "internalType": "address",
          "name": "to",
          "type": "address"
        },
        {
          "internalType": "uint256",
          "name": "amount",
          "type": "uint256"
        }
      ],
      "name": "mint",
      "outputs": [],
      "stateMutability": "nonpayable",
      "type": "function"
    },
    {
      "inputs": [],
      "name": "name",
      "outputs": [
        {
          "internalType": "string",
          "name": "",
          "type": "string"
        }
      ],
      "stateMutability": "view",
      "type": "function"
    },
    {
      "inputs": [],
      "name": "owner",
      "outputs": [
        {
          "internalType": "address",
          "name": "",
          "type": "address"
        }
      ],
      "stateMutability": "view",
      "type": "function"
    },
    {
      "inputs": [],
      "name": "renounceOwnership",
      "outputs": [],
      "stateMutability": "nonpayable",
      "type": "function"
    },
    {
      "inputs": [],
      "name": "symbol",
      "outputs": [
        {
          "internalType": "string",
          "name": "",
          "type": "string"
        }
      ],
      "stateMutability": "view",
      "type": "function"
    },
    {
      "inputs": [],
      "name": "totalSupply",
      "outputs": [
        {
          "internalType": "uint256",
          "name": "",
          "type": "uint256"
        }
      ],
      "stateMutability": "view",
      "type": "function"
    },
    {
      "inputs": [
        {
          "internalType": "address",
          "name": "to",
          "type": "address"
        },
        {
          "internalType": "uint256",
          "name": "value",
          "type": "uint256"
        }
      ],
      "name": "transfer",
      "outputs": [
        {
          "internalType": "bool",
          "name": "",
          "type": "bool"
        }
      ],
      "stateMutability": "nonpayable",
      "type": "function"
    },
    {
      "inputs": [
        {
          "internalType": "address",
          "name": "from",
          "type": "address"
        },
        {
          "internalType": "address",
          "name": "to",
          "type": "address"
        },
        {
          "internalType": "uint256",
          "name": "value",
          "type": "uint256"
        }
      ],
      "name": "transferFrom",
      "outputs": [
        {
          "internalType": "bool",
          "name": "",
          "type": "bool"
        }
      ],
      "stateMutability": "nonpayable",
      "type": "function"
    },
    {
      "inputs": [
        {
          "internalType": "address",
          "name": "newOwner",
          "type": "address"
        }
      ],
      "name": "transferOwnership",
      "outputs": [],
      "stateMutability": "nonpayable",
      "type": "function"
    },
    {
      "inputs": [
        {
          "internalType": "uint256",
          "name": "amount",
          "type": "uint256"
        }
      ],
      "name": "withdraw",
      "outputs": [],
      "stateMutability": "nonpayable",
      "type": "function"
    },
    {
      "stateMutability": "payable",
      "type": "receive"
    }
  ],
  "bytecode": "0x60806040523461041457604080519081016001600160401b0381118282101761031f576040908152600d82526c2bb930b83832b21022ba3432b960991b602083015280519081016001600160401b0381118282101761031f5760405260048152630ae8aa8960e31b602082015281516001600160401b03811161031f57600354600181811c9116801561040a575b60208210146102ff57601f81116103a5575b50602092601f82116001146103405792819293600092610335575b50508160011b916000199060031b1c1916176003555b80516001600160401b03811161031f57600454600181811c91168015610315575b60208210146102ff57601f811161029a575b50602091601f82116001146102365791819260009261022b575b50508160011b916000199060031b1c1916176004555b33156102155760058054336001600160a01b0319821681179092556001600160a01b03167f8be0079c531659141344cd1fd0a4f28419497f9722a3daafe3b4186f6b6457e0600080a360006002546a6342fd08f00f63780000008101809111610201576002555033600052600060205260406000206a6342fd08f00f637800000081540190556040516a6342fd08f00f6378000000815260007fddf252ad1be2c89b69c2b068fc378daa952ba7f163c4a11628f55a4df523b3ef60203393a3604051610a66908161041a8239f35b634e487b7160e01b82526011600452602482fd5b631e4fbdf760e01b600052600060045260246000fd5b01519050388061011d565b601f198216926004600052806000209160005b85811061028257508360019510610269575b505050811b01600455610133565b015160001960f88460031b161c1916905538808061025b565b91926020600181928685015181550194019201610249565b60046000527f8a35acfbc15ff81a39ae7d344fd709f28e8600b4aa8c65c6b64bfe7fe36bd19b601f830160051c810191602084106102f5575b601f0160051c01905b8181106102e95750610103565b600081556001016102dc565b90915081906102d3565b634e487b7160e01b600052602260045260246000fd5b90607f16906100f1565b634e487b7160e01b600052604160045260246000fd5b0151905038806100ba565b601f198216936003600052806000209160005b86811061038d5750836001959610610374575b505050811b016003556100d0565b015160001960f88460031b161c19169055388080610366565b91926020600181928685015181550194019201610353565b60036000527fc2575a0e9e593c00f959f8c92f12db2869c3395a3b0502d05e2516446f71f85b601f830160051c81019160208410610400575b601f0160051c01905b8181106103f4575061009f565b600081556001016103e7565b90915081906103de565b90607f169061008d565b600080fdfe6080806040526004361015610027575b50361561001b57600080fd5b61002534336109bb565b005b60003560e01c90816306fdde031461070457508063095ea7b31461067e57806318160ddd1461066057806323b872dd146105735780632e1a7d4d146104ce578063313ce567146104b257806340c10f191461048557806342966c681461046857806357915897146103f757806370a08231146103bd578063715018a6146103605780638da5cb5b1461033757806395d89b4114610216578063a9059cbb146101e5578063d0e30db0146101cf578063dd62ed3e1461017e5763f2fde38b146100ef573861000f565b3461017957602036600319011261017957610108610820565b610110610992565b6001600160a01b0316801561016357600580546001600160a01b0319811683179091556001600160a01b03167f8be0079c531659141344cd1fd0a4f28419497f9722a3daafe3b4186f6b6457e0600080a3005b631e4fbdf760e01b600052600060045260246000fd5b600080fd5b3461017957604036600319011261017957610197610820565b61019f610836565b6001600160a01b039182166000908152600160209081526040808320949093168252928352819020549051908152f35b60003660031901126101795761002534336109bb565b346101795760403660031901126101795761020b610201610820565b602435903361084c565b602060405160018152f35b346101795760003660031901126101795760405160006004548060011c9060018116801561032d575b602083108114610319578285529081156102fd57506001146102a6575b50819003601f01601f191681019067ffffffffffffffff8211818310176102905761028c829182604052826107d7565b0390f35b634e487b7160e01b600052604160045260246000fd5b905060046000527f8a35acfbc15ff81a39ae7d344fd709f28e8600b4aa8c65c6b64bfe7fe36bd19b6000905b8282106102e75750602091508201018261025c565b60018160209254838588010152019101906102d2565b90506020925060ff191682840152151560051b8201018261025c565b634e487b7160e01b84526022600452602484fd5b91607f169161023f565b34610179576000366003190112610179576005546040516001600160a01b039091168152602090f35b3461017957600036600319011261017957610379610992565b600580546001600160a01b031981169091556000906001600160a01b03167f8be0079c531659141344cd1fd0a4f28419497f9722a3daafe3b4186f6b6457e08280a3005b34610179576020366003190112610179576001600160a01b036103de610820565b1660005260006020526020604060002054604051908152f35b3461017957602036600319011261017957600435678ac7230489e8000081116104245761002590336109bb565b606460405162461bcd60e51b815260206004820152602060248201527f4d6f636b574554483a204d6178203130205745544820706572206661756365746044820152fd5b346101795760203660031901126101795761002560043533610911565b34610179576040366003190112610179576100256104a1610820565b6104a9610992565b602435906109bb565b3461017957600036600319011261017957602060405160128152f35b3461017957602036600319011261017957600435336000526000602052806040600020541061052e576000808083610507829533610911565b818115610525575b3390f11561051957005b6040513d6000823e3d90fd5b506108fc61050f565b60405162461bcd60e51b815260206004820152601e60248201527f4d6f636b574554483a20496e73756666696369656e742062616c616e636500006044820152606490fd5b346101795760603660031901126101795761058c610820565b610594610836565b6001600160a01b03821660008181526001602090815260408083203384529091529020549092604435929160001981106105d4575b5061020b935061084c565b83811061064357841561062d5733156106175761020b946000526001602052604060002060018060a01b03331660005260205283604060002091039055846105c9565b634a1406b160e11b600052600060045260246000fd5b63e602df0560e01b600052600060045260246000fd5b8390637dc7a0d960e11b6000523360045260245260445260646000fd5b34610179576000366003190112610179576020600254604051908152f35b3461017957604036600319011261017957610697610820565b60243590331561062d576001600160a01b031690811561061757336000526001602052604060002082600052602052806040600020556040519081527f8c5be1e5ebec7d5bd14f71427d1e84f3dd0314c0f7b2291e5b200ac8c7c3b92560203392a3602060405160018152f35b346101795760003660031901126101795760006003548060011c906001811680156107cd575b602083108114610319578285529081156102fd57506001146107765750819003601f01601f191681019067ffffffffffffffff8211818310176102905761028c829182604052826107d7565b905060036000527fc2575a0e9e593c00f959f8c92f12db2869c3395a3b0502d05e2516446f71f85b6000905b8282106107b75750602091508201018261025c565b60018160209254838588010152019101906107a2565b91607f169161072a565b91909160208152825180602083015260005b81811061080a575060409293506000838284010152601f8019910116010190565b80602080928701015160408286010152016107e9565b600435906001600160a01b038216820361017957565b602435906001600160a01b038216820361017957565b6001600160a01b03169081156108fb576001600160a01b03169182156108e55760008281528060205260408120548281106108cb5791604082827fddf252ad1be2c89b69c2b068fc378daa952ba7f163c4a11628f55a4df523b3ef958760209652828652038282205586815280845220818154019055604051908152a3565b916064928463391434e360e21b8452600452602452604452fd5b63ec442f0560e01b600052600060045260246000fd5b634b637e8f60e11b600052600060045260246000fd5b6001600160a01b031680156108fb5760009181835282602052604083205481811061097957817fddf252ad1be2c89b69c2b068fc378daa952ba7f163c4a11628f55a4df523b3ef926020928587528684520360408620558060025403600255604051908152a3565b6064939263391434e360e21b8452600452602452604452fd5b6005546001600160a01b031633036109a657565b63118cdaa760e01b6000523360045260246000fd5b6001600160a01b03169081156108e557600254818101809111610a1a576002557fddf252ad1be2c89b69c2b068fc378daa952ba7f163c4a11628f55a4df523b3ef602060009284845283825260408420818154019055604051908152a3565b634e487b7160e01b600052601160045260246000fdfea26469706673582212208ed65c2f99614662d7283988a346dbb535a1f8e21793cb28ad4e2a5040c45d4964736f6c634300081c0033",
  "linkReferences": {},
  "deployedLinkReferences": {}
}