{
  "_format": "hh-sol-artifact-1",
  "contractName": "AaveV3Strategy",
  "sourceName": "contracts/strategies/ethereum/AaveV3Strategy.sol",
  "abi": [
    {
      "inputs": [
        {
          "internalType": "address",
          "name": "_vault",
          "type": "address"
        }
      ],
      "stateMutability": "nonpayable",
      "type": "constructor"
    },
    {
      "inputs": [],
      "name": "AccessControlBadConfirmation",
      "type": "error"
    },
    {
      "inputs": [
        {
          "internalType": "address",
          "name": "account",
          "type": "address"
        },
        {
          "internalType": "bytes32",
          "name": "neededRole",
          "type": "bytes32"
        }
      ],
      "name": "AccessControlUnauthorizedAccount",
      "type": "error"
    },
    {
      "inputs": [
        {
          "internalType": "bytes",
          "name": "reason",
          "type": "bytes"
        }
      ],
      "name": "ClaimFailed",
      "type": "error"
    },
    {
      "inputs": [
        {
          "internalType": "bytes",
          "name": "reason",
          "type": "bytes"
        }
      ],
      "name": "DepositFailed",
      "type": "error"
    },
    {
      "inputs": [
        {
          "internalType": "bytes",
          "name": "reason",
          "type": "bytes"
        }
      ],
      "name": "GetBalanceFailed",
      "type": "error"
    },
    {
      "inputs": [],
      "name": "InvalidAmount",
      "type": "error"
    },
    {
      "inputs": [],
      "name": "InvalidTokenAddress",
      "type": "error"
    },
    {
      "inputs": [],
      "name": "NoUnderlyingBalance",
      "type": "error"
    },
    {
      "inputs": [],
      "name": "NoVaultSet",
      "type": "error"
    },
    {
      "inputs": [],
      "name": "OnlyVault",
      "type": "error"
    },
    {
      "inputs": [],
      "name": "ReentrancyGuardReentrantCall",
      "type": "error"
    },
    {
      "inputs": [
        {
          "internalType": "address",
          "name": "token",
          "type": "address"
        }
      ],
      "name": "SafeERC20FailedOperation",
      "type": "error"
    },
    {
      "inputs": [],
      "name": "StrategyPaused",
      "type": "error"
    },
    {
      "inputs": [
        {
          "internalType": "bytes",
          "name": "reason",
          "type": "bytes"
        }
      ],
      "name": "WithdrawFailed",
      "type": "error"
    },
    {
      "anonymous": false,
      "inputs": [
        {
          "indexed": false,
          "internalType": "uint256",
          "name": "amount",
          "type": "uint256"
        }
      ],
      "name": "Claim",
      "type": "event"
    },
    {
      "anonymous": false,
      "inputs": [
        {
          "indexed": false,
          "internalType": "bytes",
          "name": "reason",
          "type": "bytes"
        }
      ],
      "name": "ClaimRewardsFailed",
      "type": "event"
    },
    {
      "anonymous": false,
      "inputs": [
        {
          "indexed": false,
          "internalType": "uint256",
          "name": "amount",
          "type": "uint256"
        }
      ],
      "name": "Deposit",
      "type": "event"
    },
    {
      "anonymous": false,
      "inputs": [
        {
          "indexed": false,
          "internalType": "uint256",
          "name": "balance",
          "type": "uint256"
        },
        {
          "indexed": false,
          "internalType": "bytes",
          "name": "data",
          "type": "bytes"
        }
      ],
      "name": "EmergencyExited",
      "type": "event"
    },
    {
      "anonymous": false,
      "inputs": [
        {
          "indexed": false,
          "internalType": "uint256",
          "name": "amount",
          "type": "uint256"
        },
        {
          "indexed": false,
          "internalType": "bytes",
          "name": "data",
          "type": "bytes"
        }
      ],
      "name": "Executed",
      "type": "event"
    },
    {
      "anonymous": false,
      "inputs": [
        {
          "indexed": false,
          "internalType": "bytes",
          "name": "data",
          "type": "bytes"
        }
      ],
      "name": "Harvested",
      "type": "event"
    },
    {
      "anonymous": false,
      "inputs": [
        {
          "indexed": false,
          "internalType": "bool",
          "name": "isPaused",
          "type": "bool"
        }
      ],
      "name": "PausedState",
      "type": "event"
    },
    {
      "anonymous": false,
      "inputs": [
        {
          "indexed": true,
          "internalType": "address",
          "name": "token",
          "type": "address"
        }
      ],
      "name": "RewardTokenAdded",
      "type": "event"
    },
    {
      "anonymous": false,
      "inputs": [
        {
          "indexed": true,
          "internalType": "bytes32",
          "name": "role",
          "type": "bytes32"
        },
        {
          "indexed": true,
          "internalType": "bytes32",
          "name": "previousAdminRole",
          "type": "bytes32"
        },
        {
          "indexed": true,
          "internalType": "bytes32",
          "name": "newAdminRole",
          "type": "bytes32"
        }
      ],
      "name": "RoleAdminChanged",
      "type": "event"
    },
    {
      "anonymous": false,
      "inputs": [
        {
          "indexed": true,
          "internalType": "bytes32",
          "name": "role",
          "type": "bytes32"
        },
        {
          "indexed": true,
          "internalType": "address",
          "name": "account",
          "type": "address"
        },
        {
          "indexed": true,
          "internalType": "address",
          "name": "sender",
          "type": "address"
        }
      ],
      "name": "RoleGranted",
      "type": "event"
    },
    {
      "anonymous": false,
      "inputs": [
        {
          "indexed": true,
          "internalType": "bytes32",
          "name": "role",
          "type": "bytes32"
        },
        {
          "indexed": true,
          "internalType": "address",
          "name": "account",
          "type": "address"
        },
        {
          "indexed": true,
          "internalType": "address",
          "name": "sender",
          "type": "address"
        }
      ],
      "name": "RoleRevoked",
      "type": "event"
    },
    {
      "anonymous": false,
      "inputs": [
        {
          "indexed": true,
          "internalType": "address",
          "name": "token",
          "type": "address"
        },
        {
          "indexed": false,
          "internalType": "uint256",
          "name": "amount",
          "type": "uint256"
        }
      ],
      "name": "TokensForwarded",
      "type": "event"
    },
    {
      "anonymous": false,
      "inputs": [
        {
          "indexed": false,
          "internalType": "address",
          "name": "vault",
          "type": "address"
        }
      ],
      "name": "VaultSet",
      "type": "event"
    },
    {
      "anonymous": false,
      "inputs": [
        {
          "indexed": false,
          "internalType": "uint256",
          "name": "amount",
          "type": "uint256"
        }
      ],
      "name": "Withdraw",
      "type": "event"
    },
    {
      "inputs": [],
      "name": "AAVE_POOL",
      "outputs": [
        {
          "internalType": "address",
          "name": "",
          "type": "address"
        }
      ],
      "stateMutability": "view",
      "type": "function"
    },
    {
      "inputs": [],
      "name": "AUSDC",
      "outputs": [
        {
          "internalType": "address",
          "name": "",
          "type": "address"
        }
      ],
      "stateMutability": "view",
      "type": "function"
    },
    {
      "inputs": [],
      "name": "DEFAULT_ADMIN_ROLE",
      "outputs": [
        {
          "internalType": "bytes32",
          "name": "",
          "type": "bytes32"
        }
      ],
      "stateMutability": "view",
      "type": "function"
    },
    {
      "inputs": [],
      "name": "USDC",
      "outputs": [
        {
          "internalType": "address",
          "name": "",
          "type": "address"
        }
      ],
      "stateMutability": "view",
      "type": "function"
    },
    {
      "inputs": [],
      "name": "VAULT_ROLE",
      "outputs": [
        {
          "internalType": "bytes32",
          "name": "",
          "type": "bytes32"
        }
      ],
      "stateMutability": "view",
      "type": "function"
    },
    {
      "inputs": [
        {
          "internalType": "address",
          "name": "tokenAddress",
          "type": "address"
        }
      ],
      "name": "addRewardToken",
      "outputs": [],
      "stateMutability": "nonpayable",
      "type": "function"
    },
    {
      "inputs": [
        {
          "internalType": "bytes",
          "name": "data",
          "type": "bytes"
        }
      ],
      "name": "claimRewards",
      "outputs": [],
      "stateMutability": "nonpayable",
      "type": "function"
    },
    {
      "inputs": [],
      "name": "claimSelector",
      "outputs": [
        {
          "internalType": "bytes4",
          "name": "",
          "type": "bytes4"
        }
      ],
      "stateMutability": "pure",
      "type": "function"
    },
    {
      "inputs": [],
      "name": "deploymentTime",
      "outputs": [
        {
          "internalType": "uint256",
          "name": "",
          "type": "uint256"
        }
      ],
      "stateMutability": "view",
      "type": "function"
    },
    {
      "inputs": [],
      "name": "depositSelector",
      "outputs": [
        {
          "internalType": "bytes4",
          "name": "",
          "type": "bytes4"
        }
      ],
      "stateMutability": "pure",
      "type": "function"
    },
    {
      "inputs": [
        {
          "internalType": "bytes",
          "name": "data",
          "type": "bytes"
        }
      ],
      "name": "emergencyExit",
      "outputs": [],
      "stateMutability": "nonpayable",
      "type": "function"
    },
    {
      "inputs": [
        {
          "internalType": "uint256",
          "name": "amount",
          "type": "uint256"
        },
        {
          "internalType": "bytes",
          "name": "data",
          "type": "bytes"
        }
      ],
      "name": "execute",
      "outputs": [],
      "stateMutability": "nonpayable",
      "type": "function"
    },
    {
      "inputs": [],
      "name": "getBalance",
      "outputs": [
        {
          "internalType": "uint256",
          "name": "",
          "type": "uint256"
        }
      ],
      "stateMutability": "view",
      "type": "function"
    },
    {
      "inputs": [],
      "name": "getBalanceSelector",
      "outputs": [
        {
          "internalType": "bytes4",
          "name": "",
          "type": "bytes4"
        }
      ],
      "stateMutability": "pure",
      "type": "function"
    },
    {
      "inputs": [],
      "name": "getCurrentAPY",
      "outputs": [
        {
          "internalType": "uint256",
          "name": "apy",
          "type": "uint256"
        }
      ],
      "stateMutability": "view",
      "type": "function"
    },
    {
      "inputs": [],
      "name": "getHealthMetrics",
      "outputs": [
        {
          "internalType": "bool",
          "name": "healthy",
          "type": "bool"
        },
        {
          "internalType": "uint256[]",
          "name": "metrics",
          "type": "uint256[]"
        }
      ],
      "stateMutability": "view",
      "type": "function"
    },
    {
      "inputs": [
        {
          "internalType": "bytes32",
          "name": "role",
          "type": "bytes32"
        }
      ],
      "name": "getRoleAdmin",
      "outputs": [
        {
          "internalType": "bytes32",
          "name": "",
          "type": "bytes32"
        }
      ],
      "stateMutability": "view",
      "type": "function"
    },
    {
      "inputs": [
        {
          "internalType": "bytes32",
          "name": "role",
          "type": "bytes32"
        },
        {
          "internalType": "address",
          "name": "account",
          "type": "address"
        }
      ],
      "name": "grantRole",
      "outputs": [],
      "stateMutability": "nonpayable",
      "type": "function"
    },
    {
      "inputs": [
        {
          "internalType": "bytes",
          "name": "data",
          "type": "bytes"
        }
      ],
      "name": "harvest",
      "outputs": [],
      "stateMutability": "nonpayable",
      "type": "function"
    },
    {
      "inputs": [
        {
          "internalType": "bytes32",
          "name": "role",
          "type": "bytes32"
        },
        {
          "internalType": "address",
          "name": "account",
          "type": "address"
        }
      ],
      "name": "hasRole",
      "outputs": [
        {
          "internalType": "bool",
          "name": "",
          "type": "bool"
        }
      ],
      "stateMutability": "view",
      "type": "function"
    },
    {
      "inputs": [
        {
          "internalType": "address",
          "name": "token",
          "type": "address"
        }
      ],
      "name": "knownRewardTokens",
      "outputs": [
        {
          "internalType": "bool",
          "name": "",
          "type": "bool"
        }
      ],
      "stateMutability": "pure",
      "type": "function"
    },
    {
      "inputs": [],
      "name": "lastHarvest",
      "outputs": [
        {
          "internalType": "uint256",
          "name": "",
          "type": "uint256"
        }
      ],
      "stateMutability": "view",
      "type": "function"
    },
    {
      "inputs": [],
      "name": "paused",
      "outputs": [
        {
          "internalType": "bool",
          "name": "",
          "type": "bool"
        }
      ],
      "stateMutability": "view",
      "type": "function"
    },
    {
      "inputs": [],
      "name": "protocol",
      "outputs": [
        {
          "internalType": "address",
          "name": "",
          "type": "address"
        }
      ],
      "stateMutability": "pure",
      "type": "function"
    },
    {
      "inputs": [
        {
          "internalType": "bytes4",
          "name": "selector",
          "type": "bytes4"
        },
        {
          "internalType": "bytes",
          "name": "params",
          "type": "bytes"
        }
      ],
      "name": "queryProtocol",
      "outputs": [
        {
          "internalType": "bytes",
          "name": "",
          "type": "bytes"
        }
      ],
      "stateMutability": "view",
      "type": "function"
    },
    {
      "inputs": [
        {
          "internalType": "bytes32",
          "name": "role",
          "type": "bytes32"
        },
        {
          "internalType": "address",
          "name": "callerConfirmation",
          "type": "address"
        }
      ],
      "name": "renounceRole",
      "outputs": [],
      "stateMutability": "nonpayable",
      "type": "function"
    },
    {
      "inputs": [
        {
          "internalType": "bytes32",
          "name": "role",
          "type": "bytes32"
        },
        {
          "internalType": "address",
          "name": "account",
          "type": "address"
        }
      ],
      "name": "revokeRole",
      "outputs": [],
      "stateMutability": "nonpayable",
      "type": "function"
    },
    {
      "inputs": [],
      "name": "rewardTokensList",
      "outputs": [
        {
          "internalType": "address[]",
          "name": "",
          "type": "address[]"
        }
      ],
      "stateMutability": "pure",
      "type": "function"
    },
    {
      "inputs": [
        {
          "internalType": "bool",
          "name": "_paused",
          "type": "bool"
        }
      ],
      "name": "setPaused",
      "outputs": [],
      "stateMutability": "nonpayable",
      "type": "function"
    },
    {
      "inputs": [
        {
          "internalType": "address",
          "name": "_vault",
          "type": "address"
        }
      ],
      "name": "setVault",
      "outputs": [],
      "stateMutability": "nonpayable",
      "type": "function"
    },
    {
      "inputs": [
        {
          "internalType": "bytes4",
          "name": "interfaceId",
          "type": "bytes4"
        }
      ],
      "name": "supportsInterface",
      "outputs": [
        {
          "internalType": "bool",
          "name": "",
          "type": "bool"
        }
      ],
      "stateMutability": "view",
      "type": "function"
    },
    {
      "inputs": [],
      "name": "totalDeposited",
      "outputs": [
        {
          "internalType": "uint256",
          "name": "",
          "type": "uint256"
        }
      ],
      "stateMutability": "view",
      "type": "function"
    },
    {
      "inputs": [],
      "name": "underlyingToken",
      "outputs": [
        {
          "internalType": "address",
          "name": "",
          "type": "address"
        }
      ],
      "stateMutability": "pure",
      "type": "function"
    },
    {
      "inputs": [],
      "name": "vault",
      "outputs": [
        {
          "internalType": "address",
          "name": "",
          "type": "address"
        }
      ],
      "stateMutability": "view",
      "type": "function"
    },
    {
      "inputs": [],
      "name": "withdrawSelector",
      "outputs": [
        {
          "internalType": "bytes4",
          "name": "",
          "type": "bytes4"
        }
      ],
      "stateMutability": "pure",
      "type": "function"
    }
  ],
  "bytecode": "0x60a0806040523461014d57602081611bb3803803809161001f8285610166565b83398101031261014d57516001600160a01b0381169081810361014d576001600055600280546001600160a01b0319168317905542608081905260045561006f906100693361019f565b5061021b565b5060405163095ea7b360e01b81527387870bca3f3fd6335c3f4ce8392d69350b4fa4e260048201526000196024820152602081604481600073a0b86991c6218b36c1d19d4a2e9eb0ce3606eb485af1801561015a5761011a575b7fe7ae49f883c825b05681b3e00e8be6fdea9ed2a8a45e4c6ecb9390fc44cce615602083604051908152a160405161189f90816102b482396080518181816102210152818161149801526115160152f35b6020813d602011610152575b8161013360209383610166565b8101031261014d5751801515810361014d575060206100c9565b600080fd5b3d9150610126565b6040513d6000823e3d90fd5b601f909101601f19168101906001600160401b0382119082101761018957604052565b634e487b7160e01b600052604160045260246000fd5b6001600160a01b0381166000908152600080516020611b73833981519152602052604090205460ff16610215576001600160a01b03166000818152600080516020611b7383398151915260205260408120805460ff19166001179055339190600080516020611b538339815191528180a4600190565b50600090565b6001600160a01b0381166000908152600080516020611b93833981519152602052604090205460ff16610215576001600160a01b03166000818152600080516020611b9383398151915260205260408120805460ff191660011790553391907f31e0210044b4f6757ce6aa31f9c6e8d4896d24a755014887391a926c5224d95990600080516020611b538339815191529080a460019056fe608080604052600436101561001357600080fd5b600090813560e01c90816301ffc9a7146110535750806308a01675146106a157806312065fe01461103857806316c38b3c14610fca5780631b1be2bf14610f9b5780631c03e6cc14610f59578063248a9ca314610f2b5780632495a599146106d05780632c1c127614610d8e5780632f2ff15d14610d4d57806336568abe14610d0857806338c1d46714610c9b578063504ee05a14610c7857806359efcb1514610a105780635c74105f146108785780635c975abb146108525780635d2e04701461082f578063633f14ef146107d75780636817031b14610744578063870240b314610721578063870e4bef146106ff57806389a30271146106d05780638ce74426146106a157806391d1485414610655578063962ca4961461063257806398c4f1ac14610609578063a217fddf146105ed578063ce5c7f61146103f5578063d547741f146103ab578063e190febc146102db578063ea8ec92a14610244578063ecda10f514610209578063f1a392da146101eb578063fbfa77cf146101c25763ff50abdc146101a257600080fd5b346101bf57806003193601126101bf576020600354604051908152f35b80fd5b50346101bf57806003193601126101bf576002546040516001600160a01b039091168152602090f35b50346101bf57806003193601126101bf576020600454604051908152f35b50346101bf57806003193601126101bf5760206040517f00000000000000000000000000000000000000000000000000000000000000008152f35b50346101bf57806003193601126101bf576040805191610264828461115f565b600183526020830190601f19830136833773a0b86991c6218b36c1d19d4a2e9eb0ce3606eb48610293856112a4565b52825193849360208501916020865251809252840192915b8181106102b9575050500390f35b82516001600160a01b03168452859450602093840193909201916001016102ab565b50346101bf5760203660031901126101bf5760043567ffffffffffffffff81116103a75761030d9036906004016110e8565b6002546001600160a01b031633141580610375575b61036657907fac04581c930eefb60cf2509de6e2388cbcde488697b9c13ca8dc5cddc81718609161036060405192839260208452602084019161122c565b0390a180f35b638d1af8bd60e01b8352600483fd5b5060008051602061184a8339815191528352600160209081526040808520336000908152925290205460ff1615610322565b5080fd5b50346101bf5760403660031901126101bf576103f16004356103cb6110d2565b906103ec6103e782600052600160205260016040600020015490565b61158e565b611737565b5080f35b50346101bf5760203660031901126101bf5760043567ffffffffffffffff81116103a7576104279036906004016110e8565b9060018060a01b0360025416331415806105bb575b610366576104486115cb565b610450611197565b600354808211156105b25761046491611307565b915b82610474575b836001815580f35b600254604051631a4ca37b60e21b815273a0b86991c6218b36c1d19d4a2e9eb0ce3606eb48600482015260248101949094526001600160a01b03166044840152602083606481877387870bca3f3fd6335c3f4ce8392d69350b4fa4e25af1849381610579575b50610507576105036104ea611264565b604051639e7e26a360e01b815291829160048301611116565b0390fd5b7f7bb2b3c10797baccb6f8c4791f1edd6ca2f0d028ee0eda64b01a9a57e3a653f760207fac04581c930eefb60cf2509de6e2388cbcde488697b9c13ca8dc5cddc81718609442600455604051908152a161056e60405192839260208452602084019161122c565b0390a138808061046c565b9093506020813d6020116105aa575b816105956020938361115f565b810103126105a5575192386104da565b600080fd5b3d9150610588565b50508291610466565b5060008051602061184a8339815191528352600160209081526040808520336000908152925290205460ff161561043c565b50346101bf57806003193601126101bf57602090604051908152f35b50346101bf57806003193601126101bf57602060405160008051602061184a8339815191528152f35b50346101bf57806003193601126101bf57602061064d611466565b604051908152f35b50346101bf5760403660031901126101bf5760406106716110d2565b9160043581526001602052209060018060a01b0316600052602052602060ff604060002054166040519015158152f35b50346101bf57806003193601126101bf5760206040517387870bca3f3fd6335c3f4ce8392d69350b4fa4e28152f35b50346101bf57806003193601126101bf57602060405173a0b86991c6218b36c1d19d4a2e9eb0ce3606eb488152f35b50346101bf57806003193601126101bf57604051629032ff60e51b8152602090f35b50346101bf57806003193601126101bf5760405163ce5c7f6160e01b8152602090f35b50346101bf5760203660031901126101bf5761075e6110bc565b61076661153b565b6001600160a01b0381169081156107c857816107bd6020927fe7ae49f883c825b05681b3e00e8be6fdea9ed2a8a45e4c6ecb9390fc44cce615946bffffffffffffffffffffffff60a01b60025416176002556115ed565b50604051908152a180f35b630f58058360e11b8352600483fd5b50346101bf5760403660031901126101bf576107f16110a5565b906024359067ffffffffffffffff82116101bf5761082b61081f8461081936600487016110e8565b9161132a565b60405191829182611116565b0390f35b50346101bf57806003193601126101bf57604051631a4ca37b60e21b8152602090f35b50346101bf57806003193601126101bf57602060ff60025460a01c166040519015158152f35b50346101bf57806003193601126101bf576040519061089860808361115f565b6003825260208201906060368337604051634b16524b60e11b8152602081600481305afa908115610a055782916109d3575b506108d4846112a4565b5260035480156109cc576108e6611197565b61271081029080820461271014901517156109b85790610905916112e7565b61090e846112c7565b5261091b60045442611307565b610924846112d7565b526064610930846112a4565b511190816109a2575b8161098b575b6040939291935193849360408501911515855260406020860152518091526060840192915b818110610972575050500390f35b8251845285945060209384019390920191600101610964565b905062093a8061099a846112d7565b51109061093f565b905061251c6109b0846112c7565b511190610939565b634e487b7160e01b83526011600452602483fd5b5080610905565b90506020813d6020116109fd575b816109ee6020938361115f565b810103126105a55751386108ca565b3d91506109e1565b6040513d84823e3d90fd5b50346101bf5760403660031901126101bf5760043560243567ffffffffffffffff8111610c7457610a459036906004016110e8565b60025490939190336001600160a01b038216141580610c44575b6103665760a01c60ff16610c3557610a756115cb565b8215610c2657610ab46040516323b872dd60e01b602082015233602482015230604482015284606482015260648152610aaf60848261115f565b6117bd565b7387870bca3f3fd6335c3f4ce8392d69350b4fa4e23b156103a75760405163617ba03760e01b815273a0b86991c6218b36c1d19d4a2e9eb0ce3606eb4860048201528360248201523060448201528260648201528281608481837387870bca3f3fd6335c3f4ce8392d69350b4fa4e25af19081610c12575b50610b855761050383610b6c610b40611264565b916040519063a9059cbb60e01b6020830152336024830152604482015260448152610aaf60648261115f565b60405163f8e68f2360e01b815291829160048301611116565b9091600354818101809111610bfe577f2e733a17851169f232b3859260eb3ad2a086afd54e999eb4ea9afb7791702e419394610bf4916003557f4d6ce1e535dbade1c23defba91e23b8f791ce5edc0cc320257a2b364e4e384266020604051858152a16040519384938461124d565b0390a16001815580f35b634e487b7160e01b84526011600452602484fd5b83610c1f9194929461115f565b9138610b2c565b63162908e360e11b8252600482fd5b63e628b94960e01b8252600482fd5b5060008051602061184a833981519152835260016020908152604080852033865290915283205460ff1615610a5f565b8280fd5b50346101bf57806003193601126101bf5760405163617ba03760e01b8152602090f35b50346101bf5760203660031901126101bf5760206001600160a01b03610cbf6110bc565b1673a0b86991c6218b36c1d19d4a2e9eb0ce3606eb488114908115610cea575b506040519015158152f35b7398c23e9d8f34fefb1b7bd6a91b7ff122f4e16f5c91501482610cdf565b50346101bf5760403660031901126101bf57610d226110d2565b336001600160a01b03821603610d3e576103f190600435611737565b63334bd91960e11b8252600482fd5b50346101bf5760403660031901126101bf576103f1600435610d6d6110d2565b90610d896103e782600052600160205260016040600020015490565b6116af565b50346101bf5760203660031901126101bf5760043567ffffffffffffffff81116103a757610dc09036906004016110e8565b9060018060a01b036002541633141580610efb575b61036657610de16115cb565b610de9611197565b15610eec57600254604051631a4ca37b60e21b815273a0b86991c6218b36c1d19d4a2e9eb0ce3606eb48600482015260001960248201526001600160a01b039091166044820152602081606481877387870bca3f3fd6335c3f4ce8392d69350b4fa4e25af1849181610eb4575b50610e7f57610503610e66611264565b604051635685694560e11b815291829160048301611116565b610bf47f33707543538a74978cfbe255a9a187ce79ed7695a03a48d36b5a3cf8b569aa5293856003556040519384938461124d565b9091506020813d602011610ee4575b81610ed06020938361115f565b81010312610ee057519038610e56565b8480fd5b3d9150610ec3565b630bc0b2c560e21b8352600483fd5b5060008051602061184a833981519152835260016020908152604080852033865290915283205460ff1615610dd5565b50346101bf5760203660031901126101bf57602061064d600435600052600160205260016040600020015490565b50346101bf5760203660031901126101bf57610f736110bc565b610f7b61153b565b6001600160a01b031615610f8c5780f35b630f58058360e11b8152600490fd5b50346101bf57806003193601126101bf5760206040517398c23e9d8f34fefb1b7bd6a91b7ff122f4e16f5c8152f35b50346101bf5760203660031901126101bf576004358015158091036103a75760207f6c44c1c6e888a23752ec9c1d8f194bfb0ea295ccdb49b3da95d5be50c9db97699161101561153b565b6002805460ff60a01b191660a083901b60ff60a01b16179055604051908152a180f35b50346101bf57806003193601126101bf57602061064d611197565b9050346103a75760203660031901126103a7576020906001600160e01b031961107a6110a5565b16637965db0b60e01b8114908115611094575b5015158152f35b6301ffc9a760e01b1490508361108d565b600435906001600160e01b0319821682036105a557565b600435906001600160a01b03821682036105a557565b602435906001600160a01b03821682036105a557565b9181601f840112156105a55782359167ffffffffffffffff83116105a557602083818601950101116105a557565b91909160208152825180602083015260005b818110611149575060409293506000838284010152601f8019910116010190565b8060208092870101516040828601015201611128565b90601f8019910116810190811067ffffffffffffffff82111761118157604052565b634e487b7160e01b600052604160045260246000fd5b6040516370a0823160e01b81523060048201526020816024817398c23e9d8f34fefb1b7bd6a91b7ff122f4e16f5c5afa600091816111f8575b506111f557604051634a12fe5760e01b81526020600482015260006024820152604490fd5b90565b9091506020813d602011611224575b816112146020938361115f565b810103126105a5575190386111d0565b3d9150611207565b908060209392818452848401376000828201840152601f01601f1916010190565b6040906111f594928152816020820152019161122c565b3d1561129f573d9067ffffffffffffffff82116111815760405191611293601f8201601f19166020018461115f565b82523d6000602084013e565b606090565b8051156112b15760200190565b634e487b7160e01b600052603260045260246000fd5b8051600110156112b15760400190565b8051600210156112b15760600190565b81156112f1570490565b634e487b7160e01b600052601260045260246000fd5b9190820391821161131457565b634e487b7160e01b600052601160045260246000fd5b606092906001600160e01b031916632fe4a15f60e21b1461135d5750505060405161135660208261115f565b6000815290565b81602091810103126105a557356001600160a01b038116908190036105a55760405190632fe4a15f60e21b8252600482015260c0816024817387870bca3f3fd6335c3f4ce8392d69350b4fa4e25afa906000928390849085928587958897611409575b506113da575050505050505060405161135660208261115f565b6040519660208801526040870152850152608084015260a083015260c082015260c081526111f560e08261115f565b95509550509491505060c0823d60c01161145e575b8161142b60c0938361115f565b810103126101bf575080516020820151604083015185840151608085015160a090950151939693959093919290386113c0565b3d915061141e565b600354801590818015611512575b61150b57611480611197565b81811115611503578161149291611307565b916114bd7f000000000000000000000000000000000000000000000000000000000000000042611307565b6301e133808402938085046301e1338014811517156113145764496cebb8000293808504612710149015171561131457808302928304141715611314576111f5916112e7565b505050600090565b5050600090565b50427f000000000000000000000000000000000000000000000000000000000000000014611474565b3360009081527fa6eef7e35abe7026729641147f7915573c7e97b47efa546f5f6e3230263bcb49602052604090205460ff161561157457565b63e2517d3f60e01b60005233600452600060245260446000fd5b600081815260016020908152604080832033845290915290205460ff16156115b35750565b63e2517d3f60e01b6000523360045260245260446000fd5b6002600054146115dc576002600055565b633ee5aeb560e01b60005260046000fd5b6001600160a01b03811660009081527f81ca3e78767fe7984cabec333f0414457dbe87b59d50ac066de98618b846bf81602052604090205460ff166116a9576001600160a01b031660008181527f81ca3e78767fe7984cabec333f0414457dbe87b59d50ac066de98618b846bf8160205260408120805460ff1916600117905533919060008051602061184a833981519152907f2f8788117e7eff1d82e926ec794901d17c78024a50270940304540a733656f0d9080a4600190565b50600090565b60008181526001602090815260408083206001600160a01b038616845290915290205460ff1661150b5760008181526001602081815260408084206001600160a01b0396909616808552959091528220805460ff19169091179055339291907f2f8788117e7eff1d82e926ec794901d17c78024a50270940304540a733656f0d9080a4600190565b60008181526001602090815260408083206001600160a01b038616845290915290205460ff161561150b5760008181526001602090815260408083206001600160a01b0395909516808452949091528120805460ff19169055339291907ff6391f5c32d9c69d2a47ea670b442974b53935d1edc7fd64eb21e047a839171b9080a4600190565b600060209182815191018273a0b86991c6218b36c1d19d4a2e9eb0ce3606eb485af11561183d576000513d611834575073a0b86991c6218b36c1d19d4a2e9eb0ce3606eb483b155b61180b57565b635274afe760e01b60005273a0b86991c6218b36c1d19d4a2e9eb0ce3606eb4860045260246000fd5b60011415611805565b6040513d6000823e3d90fdfe31e0210044b4f6757ce6aa31f9c6e8d4896d24a755014887391a926c5224d959a2646970667358221220557d74aeafd52f6ec9793d1311891adc31c9696a53d0d03276b073af6617cb3964736f6c634300081c00332f8788117e7eff1d82e926ec794901d17c78024a50270940304540a733656f0da6eef7e35abe7026729641147f7915573c7e97b47efa546f5f6e3230263bcb4981ca3e78767fe7984cabec333f0414457dbe87b59d50ac066de98618b846bf81",
  "linkReferences": {},
  "deployedLinkReferences": {}
}