{
  "_format": "hh-sol-artifact-1",
  "contractName": "VaultFactory",
  "sourceName": "contracts/VaultFactory.sol",
  "abi": [
    {
      "inputs": [
        {
          "internalType": "address",
          "name": "_defaultManager",
          "type": "address"
        },
        {
          "internalType": "address",
          "name": "_defaultAgent",
          "type": "address"
        },
        {
          "internalType": "address",
          "name": "_treasury",
          "type": "address"
        },
        {
          "internalType": "uint256",
          "name": "_creationFee",
          "type": "uint256"
        }
      ],
      "stateMutability": "nonpayable",
      "type": "constructor"
    },
    {
      "inputs": [],
      "name": "InsufficientFee",
      "type": "error"
    },
    {
      "inputs": [],
      "name": "InvalidAsset",
      "type": "error"
    },
    {
      "anonymous": false,
      "inputs": [
        {
          "indexed": true,
          "internalType": "address",
          "name": "previousOwner",
          "type": "address"
        },
        {
          "indexed": true,
          "internalType": "address",
          "name": "newOwner",
          "type": "address"
        }
      ],
      "name": "OwnershipTransferred",
      "type": "event"
    },
    {
      "anonymous": false,
      "inputs": [
        {
          "indexed": true,
          "internalType": "uint256",
          "name": "vaultId",
          "type": "uint256"
        },
        {
          "indexed": true,
          "internalType": "address",
          "name": "vaultAddress",
          "type": "address"
        },
        {
          "indexed": true,
          "internalType": "address",
          "name": "asset",
          "type": "address"
        },
        {
          "indexed": false,
          "internalType": "address",
          "name": "creator",
          "type": "address"
        }
      ],
      "name": "VaultCreated",
      "type": "event"
    },
    {
      "inputs": [
        {
          "components": [
            {
              "internalType": "contract IERC20Metadata",
              "name": "asset",
              "type": "address"
            },
            {
              "internalType": "string",
              "name": "name",
              "type": "string"
            },
            {
              "internalType": "string",
              "name": "symbol",
              "type": "string"
            },
            {
              "internalType": "address",
              "name": "manager",
              "type": "address"
            },
            {
              "internalType": "address",
              "name": "agent",
              "type": "address"
            }
          ],
          "internalType": "struct VaultFactory.VaultParams",
          "name": "params",
          "type": "tuple"
        }
      ],
      "name": "createVault",
      "outputs": [
        {
          "internalType": "address",
          "name": "vaultAddress",
          "type": "address"
        },
        {
          "internalType": "uint256",
          "name": "vaultId",
          "type": "uint256"
        }
      ],
      "stateMutability": "payable",
      "type": "function"
    },
    {
      "inputs": [],
      "name": "creationFee",
      "outputs": [
        {
          "internalType": "uint256",
          "name": "",
          "type": "uint256"
        }
      ],
      "stateMutability": "view",
      "type": "function"
    },
    {
      "inputs": [],
      "name": "defaultAgent",
      "outputs": [
        {
          "internalType": "address",
          "name": "",
          "type": "address"
        }
      ],
      "stateMutability": "view",
      "type": "function"
    },
    {
      "inputs": [],
      "name": "defaultManager",
      "outputs": [
        {
          "internalType": "address",
          "name": "",
          "type": "address"
        }
      ],
      "stateMutability": "view",
      "type": "function"
    },
    {
      "inputs": [],
      "name": "getVaultCount",
      "outputs": [
        {
          "internalType": "uint256",
          "name": "",
          "type": "uint256"
        }
      ],
      "stateMutability": "view",
      "type": "function"
    },
    {
      "inputs": [],
      "name": "owner",
      "outputs": [
        {
          "internalType": "address",
          "name": "",
          "type": "address"
        }
      ],
      "stateMutability": "view",
      "type": "function"
    },
    {
      "inputs": [],
      "name": "renounceOwnership",
      "outputs": [],
      "stateMutability": "nonpayable",
      "type": "function"
    },
    {
      "inputs": [
        {
          "internalType": "uint256",
          "name": "_newFee",
          "type": "uint256"
        }
      ],
      "name": "setCreationFee",
      "outputs": [],
      "stateMutability": "nonpayable",
      "type": "function"
    },
    {
      "inputs": [
        {
          "internalType": "address",
          "name": "_newTreasury",
          "type": "address"
        }
      ],
      "name": "setTreasury",
      "outputs": [],
      "stateMutability": "nonpayable",
      "type": "function"
    },
    {
      "inputs": [
        {
          "internalType": "address",
          "name": "newOwner",
          "type": "address"
        }
      ],
      "name": "transferOwnership",
      "outputs": [],
      "stateMutability": "nonpayable",
      "type": "function"
    },
    {
      "inputs": [],
      "name": "treasury",
      "outputs": [
        {
          "internalType": "address",
          "name": "",
          "type": "address"
        }
      ],
      "stateMutability": "view",
      "type": "function"
    },
    {
      "inputs": [],
      "name": "vaultCounter",
      "outputs": [
        {
          "internalType": "uint256",
          "name": "",
          "type": "uint256"
        }
      ],
      "stateMutability": "view",
      "type": "function"
    },
    {
      "inputs": [
        {
          "internalType": "uint256",
          "name": "",
          "type": "uint256"
        }
      ],
      "name": "vaults",
      "outputs": [
        {
          "internalType": "address",
          "name": "",
          "type": "address"
        }
      ],
      "stateMutability": "view",
      "type": "function"
    }
  ],
  "bytecode": "0x608060405234801562000010575f80fd5b506040516200718b3803806200718b83398181016040528101906200003691906200029d565b620000566200004a6200013860201b60201c565b6200013f60201b60201c565b62000067336200013f60201b60201c565b8360035f6101000a81548173ffffffffffffffffffffffffffffffffffffffff021916908373ffffffffffffffffffffffffffffffffffffffff1602179055508260045f6101000a81548173ffffffffffffffffffffffffffffffffffffffff021916908373ffffffffffffffffffffffffffffffffffffffff1602179055508160065f6101000a81548173ffffffffffffffffffffffffffffffffffffffff021916908373ffffffffffffffffffffffffffffffffffffffff16021790555080600581905550505050506200030c565b5f33905090565b5f805f9054906101000a900473ffffffffffffffffffffffffffffffffffffffff169050815f806101000a81548173ffffffffffffffffffffffffffffffffffffffff021916908373ffffffffffffffffffffffffffffffffffffffff1602179055508173ffffffffffffffffffffffffffffffffffffffff168173ffffffffffffffffffffffffffffffffffffffff167f8be0079c531659141344cd1fd0a4f28419497f9722a3daafe3b4186f6b6457e060405160405180910390a35050565b5f80fd5b5f73ffffffffffffffffffffffffffffffffffffffff82169050919050565b5f6200022f8262000204565b9050919050565b620002418162000223565b81146200024c575f80fd5b50565b5f815190506200025f8162000236565b92915050565b5f819050919050565b620002798162000265565b811462000284575f80fd5b50565b5f8151905062000297816200026e565b92915050565b5f805f8060808587031215620002b857620002b762000200565b5b5f620002c7878288016200024f565b9450506020620002da878288016200024f565b9350506040620002ed878288016200024f565b9250506060620003008782880162000287565b91505092959194509250565b616e71806200031a5f395ff3fe608060405260043610620000d3575f3560e01c8063ac958041116200008a578063c6f9aa001162000060578063c6f9aa001462000282578063dce0b4e414620002b1578063f0f4426014620002e0578063f2fde38b146200030d57620000d3565b8063ac95804114620001ef578063b1384025146200021e578063b7d86225146200025557620000d3565b806318bae6c814620000d757806361d027b31462000106578063715018a6146200013557806374d4e491146200014e5780638c64ea4a146200017d5780638da5cb5b14620001c0575b5f80fd5b348015620000e3575f80fd5b50620000ee6200033a565b604051620000fd919062000ac8565b60405180910390f35b34801562000112575f80fd5b506200011d6200035f565b6040516200012c919062000ac8565b60405180910390f35b34801562000141575f80fd5b506200014c62000384565b005b3480156200015a575f80fd5b50620001656200039b565b60405162000174919062000afd565b60405180910390f35b34801562000189575f80fd5b50620001a86004803603810190620001a2919062000b4f565b620003a4565b604051620001b7919062000ac8565b60405180910390f35b348015620001cc575f80fd5b50620001d7620003d4565b604051620001e6919062000ac8565b60405180910390f35b348015620001fb575f80fd5b5062000206620003fb565b60405162000215919062000afd565b60405180910390f35b6200023c600480360381019062000236919062000ba4565b62000401565b6040516200024c92919062000bf3565b60405180910390f35b34801562000261575f80fd5b506200028060048036038101906200027a919062000b4f565b62000815565b005b3480156200028e575f80fd5b506200029962000829565b604051620002a8919062000ac8565b60405180910390f35b348015620002bd575f80fd5b50620002c86200084e565b604051620002d7919062000afd565b60405180910390f35b348015620002ec575f80fd5b506200030b600480360381019062000305919062000c4d565b62000854565b005b34801562000319575f80fd5b5062000338600480360381019062000332919062000c4d565b620008a1565b005b60035f9054906101000a900473ffffffffffffffffffffffffffffffffffffffff1681565b60065f9054906101000a900473ffffffffffffffffffffffffffffffffffffffff1681565b6200038e6200092a565b620003995f620009af565b565b5f600154905090565b6002602052805f5260405f205f915054906101000a900473ffffffffffffffffffffffffffffffffffffffff1681565b5f805f9054906101000a900473ffffffffffffffffffffffffffffffffffffffff16905090565b60015481565b5f805f73ffffffffffffffffffffffffffffffffffffffff16835f0160208101906200042e919062000cbf565b73ffffffffffffffffffffffffffffffffffffffff16036200047c576040517fc891add200000000000000000000000000000000000000000000000000000000815260040160405180910390fd5b600554341015620004b9576040517f025dbdd400000000000000000000000000000000000000000000000000000000815260040160405180910390fd5b5f8073ffffffffffffffffffffffffffffffffffffffff16846060016020810190620004e6919062000c4d565b73ffffffffffffffffffffffffffffffffffffffff16036200052a5760035f9054906101000a900473ffffffffffffffffffffffffffffffffffffffff1662000540565b8360600160208101906200053f919062000c4d565b5b90505f8073ffffffffffffffffffffffffffffffffffffffff168560800160208101906200056f919062000c4d565b73ffffffffffffffffffffffffffffffffffffffff1603620005b35760045f9054906101000a900473ffffffffffffffffffffffffffffffffffffffff16620005c9565b846080016020810190620005c8919062000c4d565b5b905060015f815480929190620005df9062000d1c565b919050555060015492505f855f016020810190620005fe919062000cbf565b86806020019062000610919062000d74565b88806040019062000622919062000d74565b8787604051620006329062000a77565b62000644979695949392919062000ea6565b604051809103905ff0801580156200065e573d5f803e3d5ffd5b5090508094508460025f8681526020019081526020015f205f6101000a81548173ffffffffffffffffffffffffffffffffffffffff021916908373ffffffffffffffffffffffffffffffffffffffff1602179055505f600554111562000792575f60065f9054906101000a900473ffffffffffffffffffffffffffffffffffffffff1673ffffffffffffffffffffffffffffffffffffffff16600554604051620007089062000f44565b5f6040518083038185875af1925050503d805f811462000744576040519150601f19603f3d011682016040523d82523d5f602084013e62000749565b606091505b505090508062000790576040517f08c379a0000000000000000000000000000000000000000000000000000000008152600401620007879062000fa8565b60405180910390fd5b505b855f016020810190620007a6919062000cbf565b73ffffffffffffffffffffffffffffffffffffffff168573ffffffffffffffffffffffffffffffffffffffff16857f80114c2ab1db4b2cac83d823f95a74524aab20e40e61cbee8be88500ad2397da3360405162000805919062000ac8565b60405180910390a4505050915091565b6200081f6200092a565b8060058190555050565b60045f9054906101000a900473ffffffffffffffffffffffffffffffffffffffff1681565b60055481565b6200085e6200092a565b8060065f6101000a81548173ffffffffffffffffffffffffffffffffffffffff021916908373ffffffffffffffffffffffffffffffffffffffff16021790555050565b620008ab6200092a565b5f73ffffffffffffffffffffffffffffffffffffffff168173ffffffffffffffffffffffffffffffffffffffff16036200091c576040517f08c379a000000000000000000000000000000000000000000000000000000000815260040162000913906200103c565b60405180910390fd5b6200092781620009af565b50565b6200093462000a70565b73ffffffffffffffffffffffffffffffffffffffff1662000954620003d4565b73ffffffffffffffffffffffffffffffffffffffff1614620009ad576040517f08c379a0000000000000000000000000000000000000000000000000000000008152600401620009a490620010aa565b60405180910390fd5b565b5f805f9054906101000a900473ffffffffffffffffffffffffffffffffffffffff169050815f806101000a81548173ffffffffffffffffffffffffffffffffffffffff021916908373ffffffffffffffffffffffffffffffffffffffff1602179055508173ffffffffffffffffffffffffffffffffffffffff168173ffffffffffffffffffffffffffffffffffffffff167f8be0079c531659141344cd1fd0a4f28419497f9722a3daafe3b4186f6b6457e060405160405180910390a35050565b5f33905090565b615d7180620010cb83390190565b5f73ffffffffffffffffffffffffffffffffffffffff82169050919050565b5f62000ab08262000a85565b9050919050565b62000ac28162000aa4565b82525050565b5f60208201905062000add5f83018462000ab7565b92915050565b5f819050919050565b62000af78162000ae3565b82525050565b5f60208201905062000b125f83018462000aec565b92915050565b5f80fd5b5f80fd5b62000b2b8162000ae3565b811462000b36575f80fd5b50565b5f8135905062000b498162000b20565b92915050565b5f6020828403121562000b675762000b6662000b18565b5b5f62000b768482850162000b39565b91505092915050565b5f80fd5b5f60a0828403121562000b9b5762000b9a62000b7f565b5b81905092915050565b5f6020828403121562000bbc5762000bbb62000b18565b5b5f82013567ffffffffffffffff81111562000bdc5762000bdb62000b1c565b5b62000bea8482850162000b83565b91505092915050565b5f60408201905062000c085f83018562000ab7565b62000c17602083018462000aec565b9392505050565b62000c298162000aa4565b811462000c34575f80fd5b50565b5f8135905062000c478162000c1e565b92915050565b5f6020828403121562000c655762000c6462000b18565b5b5f62000c748482850162000c37565b91505092915050565b5f62000c898262000aa4565b9050919050565b62000c9b8162000c7d565b811462000ca6575f80fd5b50565b5f8135905062000cb98162000c90565b92915050565b5f6020828403121562000cd75762000cd662000b18565b5b5f62000ce68482850162000ca9565b91505092915050565b7f4e487b71000000000000000000000000000000000000000000000000000000005f52601160045260245ffd5b5f62000d288262000ae3565b91507fffffffffffffffffffffffffffffffffffffffffffffffffffffffffffffffff820362000d5d5762000d5c62000cef565b5b600182019050919050565b5f80fd5b5f80fd5b5f80fd5b5f808335600160200384360303811262000d935762000d9262000d68565b5b80840192508235915067ffffffffffffffff82111562000db85762000db762000d6c565b5b60208301925060018202360383131562000dd75762000dd662000d70565b5b509250929050565b5f819050919050565b5f62000e0862000e0262000dfc8462000a85565b62000ddf565b62000a85565b9050919050565b5f62000e1b8262000de8565b9050919050565b5f62000e2e8262000e0f565b9050919050565b62000e408162000e22565b82525050565b5f82825260208201905092915050565b828183375f83830152505050565b5f601f19601f8301169050919050565b5f62000e81838562000e46565b935062000e9083858462000e56565b62000e9b8362000e64565b840190509392505050565b5f60a08201905062000ebb5f83018a62000e35565b818103602083015262000ed081888a62000e74565b9050818103604083015262000ee781868862000e74565b905062000ef8606083018562000ab7565b62000f07608083018462000ab7565b98975050505050505050565b5f81905092915050565b50565b5f62000f2d5f8362000f13565b915062000f3a8262000f1d565b5f82019050919050565b5f62000f508262000f20565b9150819050919050565b7f466565207472616e73666572206661696c6564000000000000000000000000005f82015250565b5f62000f9060138362000e46565b915062000f9d8262000f5a565b602082019050919050565b5f6020820190508181035f83015262000fc18162000f82565b9050919050565b7f4f776e61626c653a206e6577206f776e657220697320746865207a65726f20615f8201527f6464726573730000000000000000000000000000000000000000000000000000602082015250565b5f6200102460268362000e46565b9150620010318262000fc8565b604082019050919050565b5f6020820190508181035f830152620010558162001016565b9050919050565b7f4f776e61626c653a2063616c6c6572206973206e6f7420746865206f776e65725f82015250565b5f6200109260208362000e46565b91506200109f826200105c565b602082019050919050565b5f6020820190508181035f830152620010c38162001084565b905091905056fe60a060405234801562000010575f80fd5b5060405162005d7138038062005d71833981810160405281019062000036919062000758565b848484620000596200004d6200029a60201b60201c565b620002a160201b60201c565b81600490816200006a919062000a51565b5080600590816200007c919062000a51565b5050508073ffffffffffffffffffffffffffffffffffffffff1660808173ffffffffffffffffffffffffffffffffffffffff1681525050506001600781905550620000cd33620002a160201b60201c565b5f73ffffffffffffffffffffffffffffffffffffffff168273ffffffffffffffffffffffffffffffffffffffff16036200013e576040517f08c379a0000000000000000000000000000000000000000000000000000000008152600401620001359062000b93565b60405180910390fd5b5f73ffffffffffffffffffffffffffffffffffffffff168173ffffffffffffffffffffffffffffffffffffffff1603620001af576040517f08c379a0000000000000000000000000000000000000000000000000000000008152600401620001a69062000c01565b60405180910390fd5b620001c35f801b336200036260201b60201c565b620001f77f241ecf16d79d0f8dbfb92cbc07fe17840425976cf0667f022fe9877caa831b085f801b6200044e60201b60201c565b6200022b7fcab5a0bfe0b79d2c4b1c2e02599fa044d115b7511f9659307cb42769509677095f801b6200044e60201b60201c565b6200025d7f241ecf16d79d0f8dbfb92cbc07fe17840425976cf0667f022fe9877caa831b08836200036260201b60201c565b6200028f7fcab5a0bfe0b79d2c4b1c2e02599fa044d115b7511f9659307cb4276950967709826200036260201b60201c565b505050505062000c21565b5f33905090565b5f805f9054906101000a900473ffffffffffffffffffffffffffffffffffffffff169050815f806101000a81548173ffffffffffffffffffffffffffffffffffffffff021916908373ffffffffffffffffffffffffffffffffffffffff1602179055508173ffffffffffffffffffffffffffffffffffffffff168173ffffffffffffffffffffffffffffffffffffffff167f8be0079c531659141344cd1fd0a4f28419497f9722a3daafe3b4186f6b6457e060405160405180910390a35050565b620003748282620004af60201b60201c565b6200044a57600160065f8481526020019081526020015f205f015f8373ffffffffffffffffffffffffffffffffffffffff1673ffffffffffffffffffffffffffffffffffffffff1681526020019081526020015f205f6101000a81548160ff021916908315150217905550620003ef6200029a60201b60201c565b73ffffffffffffffffffffffffffffffffffffffff168173ffffffffffffffffffffffffffffffffffffffff16837f2f8788117e7eff1d82e926ec794901d17c78024a50270940304540a733656f0d60405160405180910390a45b5050565b5f62000460836200051360201b60201c565b90508160065f8581526020019081526020015f20600101819055508181847fbd79b86ffe0ab8e8776151514217cd7cacd52c909f66475c3af44e129f0b00ff60405160405180910390a4505050565b5f60065f8481526020019081526020015f205f015f8373ffffffffffffffffffffffffffffffffffffffff1673ffffffffffffffffffffffffffffffffffffffff1681526020019081526020015f205f9054906101000a900460ff16905092915050565b5f60065f8381526020019081526020015f20600101549050919050565b5f604051905090565b5f80fd5b5f80fd5b5f73ffffffffffffffffffffffffffffffffffffffff82169050919050565b5f6200056c8262000541565b9050919050565b5f6200057f8262000560565b9050919050565b620005918162000573565b81146200059c575f80fd5b50565b5f81519050620005af8162000586565b92915050565b5f80fd5b5f80fd5b5f601f19601f8301169050919050565b7f4e487b71000000000000000000000000000000000000000000000000000000005f52604160045260245ffd5b6200060582620005bd565b810181811067ffffffffffffffff82111715620006275762000626620005cd565b5b80604052505050565b5f6200063b62000530565b9050620006498282620005fa565b919050565b5f67ffffffffffffffff8211156200066b576200066a620005cd565b5b6200067682620005bd565b9050602081019050919050565b5f5b83811015620006a257808201518184015260208101905062000685565b5f8484015250505050565b5f620006c3620006bd846200064e565b62000630565b905082815260208101848484011115620006e257620006e1620005b9565b5b620006ef84828562000683565b509392505050565b5f82601f8301126200070e576200070d620005b5565b5b815162000720848260208601620006ad565b91505092915050565b620007348162000560565b81146200073f575f80fd5b50565b5f81519050620007528162000729565b92915050565b5f805f805f60a0868803121562000774576200077362000539565b5b5f62000783888289016200059f565b955050602086015167ffffffffffffffff811115620007a757620007a66200053d565b5b620007b588828901620006f7565b945050604086015167ffffffffffffffff811115620007d957620007d86200053d565b5b620007e788828901620006f7565b9350506060620007fa8882890162000742565b92505060806200080d8882890162000742565b9150509295509295909350565b5f81519050919050565b7f4e487b71000000000000000000000000000000000000000000000000000000005f52602260045260245ffd5b5f60028204905060018216806200086957607f821691505b6020821081036200087f576200087e62000824565b5b50919050565b5f819050815f5260205f209050919050565b5f6020601f8301049050919050565b5f82821b905092915050565b5f60088302620008e37fffffffffffffffffffffffffffffffffffffffffffffffffffffffffffffffff82620008a6565b620008ef8683620008a6565b95508019841693508086168417925050509392505050565b5f819050919050565b5f819050919050565b5f62000939620009336200092d8462000907565b62000910565b62000907565b9050919050565b5f819050919050565b620009548362000919565b6200096c620009638262000940565b848454620008b2565b825550505050565b5f90565b6200098262000974565b6200098f81848462000949565b505050565b5b81811015620009b657620009aa5f8262000978565b60018101905062000995565b5050565b601f82111562000a0557620009cf8162000885565b620009da8462000897565b81016020851015620009ea578190505b62000a02620009f98562000897565b83018262000994565b50505b505050565b5f82821c905092915050565b5f62000a275f198460080262000a0a565b1980831691505092915050565b5f62000a41838362000a16565b9150826002028217905092915050565b62000a5c826200081a565b67ffffffffffffffff81111562000a785762000a77620005cd565b5b62000a84825462000851565b62000a91828285620009ba565b5f60209050601f83116001811462000ac7575f841562000ab2578287015190505b62000abe858262000a34565b86555062000b2d565b601f19841662000ad78662000885565b5f5b8281101562000b005784890151825560018201915060208501945060208101905062000ad9565b8683101562000b20578489015162000b1c601f89168262000a16565b8355505b6001600288020188555050505b505050505050565b5f82825260208201905092915050565b7f4d616e616765722063616e6e6f74206265207a65726f206164647265737300005f82015250565b5f62000b7b601e8362000b35565b915062000b888262000b45565b602082019050919050565b5f6020820190508181035f83015262000bac8162000b6d565b9050919050565b7f4167656e742063616e6e6f74206265207a65726f2061646472657373000000005f82015250565b5f62000be9601c8362000b35565b915062000bf68262000bb3565b602082019050919050565b5f6020820190508181035f83015262000c1a8162000bdb565b9050919050565b60805161511462000c5d5f395f81816109a30152818161121f01528181611ed3015281816121bd01528181612763015261298e01526151145ff3fe608060405234801561000f575f80fd5b5060043610610288575f3560e01c80638da5cb5b1161015a578063bd07fdac116100cc578063d574ea3d11610085578063d574ea3d146108a6578063d905777e146108d6578063dd62ed3e14610906578063ec87621c14610936578063ef8b30f714610954578063f2fde38b1461098457610288565b8063bd07fdac146107c2578063c63d75b6146107de578063c6e6f5921461080e578063ce96cb771461083e578063d2b3d6ce1461086e578063d547741f1461088a57610288565b8063a457c2d71161011e578063a457c2d7146106b4578063a9059cbb146106e4578063b3d7f6b914610714578063b460af9414610744578063b49a60bb14610774578063ba0876521461079257610288565b80638da5cb5b146105fa57806391d148541461061857806394bf804d1461064857806395d89b4114610678578063a217fddf1461069657610288565b8063248a9ca3116101fe57806339509351116101b75780633950935114610500578063402d267d146105305780634cdad506146105605780636e553f651461059057806370a08231146105c0578063715018a6146105f057610288565b8063248a9ca31461042c5780632e8ebaae1461045c5780632f2ff15d1461048c578063313ce567146104a857806336568abe146104c657806338d52e0f146104e257610288565b80630a28a477116102505780630a28a47714610358578063175188e81461038857806318160ddd146103a4578063223e5479146103c257806322459e18146103de57806323b872dd146103fc57610288565b806301e1d1141461028c57806301ffc9a7146102aa57806306fdde03146102da57806307a2d13a146102f8578063095ea7b314610328575b5f80fd5b6102946109a0565b6040516102a19190613667565b60405180910390f35b6102c460048036038101906102bf91906136dd565b610a3e565b6040516102d19190613722565b60405180910390f35b6102e2610ab7565b6040516102ef91906137c5565b60405180910390f35b610312600480360381019061030d919061380f565b610b47565b60405161031f9190613667565b60405180910390f35b610342600480360381019061033d9190613894565b610b59565b60405161034f9190613722565b60405180910390f35b610372600480360381019061036d919061380f565b610b7b565b60405161037f9190613667565b60405180910390f35b6103a2600480360381019061039d91906138d2565b610b8e565b005b6103ac610e91565b6040516103b99190613667565b60405180910390f35b6103dc60048036038101906103d791906138d2565b610e9a565b005b6103e66110e4565b6040516103f39190613915565b60405180910390f35b6104166004803603810190610411919061392e565b611108565b6040516104239190613722565b60405180910390f35b610446600480360381019061044191906139a8565b611136565b6040516104539190613915565b60405180910390f35b610476600480360381019061047191906138d2565b611153565b6040516104839190613722565b60405180910390f35b6104a660048036038101906104a191906139d3565b611170565b005b6104b0611191565b6040516104bd9190613a2c565b60405180910390f35b6104e060048036038101906104db91906139d3565b611199565b005b6104ea61121c565b6040516104f79190613a54565b60405180910390f35b61051a60048036038101906105159190613894565b611243565b6040516105279190613722565b60405180910390f35b61054a600480360381019061054591906138d2565b611279565b6040516105579190613667565b60405180910390f35b61057a6004803603810190610575919061380f565b6112b5565b6040516105879190613667565b60405180910390f35b6105aa60048036038101906105a59190613a6d565b6112c7565b6040516105b79190613667565b60405180910390f35b6105da60048036038101906105d591906138d2565b61133c565b6040516105e79190613667565b60405180910390f35b6105f8611382565b005b610602611395565b60405161060f9190613a54565b60405180910390f35b610632600480360381019061062d91906139d3565b6113bc565b60405161063f9190613722565b60405180910390f35b610662600480360381019061065d9190613a6d565b611420565b60405161066f9190613667565b60405180910390f35b610680611495565b60405161068d91906137c5565b60405180910390f35b61069e611525565b6040516106ab9190613915565b60405180910390f35b6106ce60048036038101906106c99190613894565b61152b565b6040516106db9190613722565b60405180910390f35b6106fe60048036038101906106f99190613894565b6115a0565b60405161070b9190613722565b60405180910390f35b61072e6004803603810190610729919061380f565b6115c2565b60405161073b9190613667565b60405180910390f35b61075e60048036038101906107599190613aab565b6115d5565b60405161076b9190613667565b60405180910390f35b61077c61164c565b6040516107899190613bb2565b60405180910390f35b6107ac60048036038101906107a79190613aab565b6116d7565b6040516107b99190613667565b60405180910390f35b6107dc60048036038101906107d79190613c33565b61174e565b005b6107f860048036038101906107f391906138d2565b611a38565b6040516108059190613667565b60405180910390f35b6108286004803603810190610823919061380f565b611a61565b6040516108359190613667565b60405180910390f35b610858600480360381019061085391906138d2565b611a73565b6040516108659190613667565b60405180910390f35b61088860048036038101906108839190613ca4565b611a8d565b005b6108a4600480360381019061089f91906139d3565b611c88565b005b6108c060048036038101906108bb919061380f565b611ca9565b6040516108cd9190613a54565b60405180910390f35b6108f060048036038101906108eb91906138d2565b611ce4565b6040516108fd9190613667565b60405180910390f35b610920600480360381019061091b9190613d01565b611cf5565b60405161092d9190613667565b60405180910390f35b61093e611d77565b60405161094b9190613915565b60405180910390f35b61096e6004803603810190610969919061380f565b611d9b565b60405161097b9190613667565b60405180910390f35b61099e600480360381019061099991906138d2565b611dad565b005b5f7f000000000000000000000000000000000000000000000000000000000000000073ffffffffffffffffffffffffffffffffffffffff166370a08231306040518263ffffffff1660e01b81526004016109fa9190613a54565b602060405180830381865afa158015610a15573d5f803e3d5ffd5b505050506040513d601f19601f82011682018060405250810190610a399190613d53565b905090565b5f7f7965db0b000000000000000000000000000000000000000000000000000000007bffffffffffffffffffffffffffffffffffffffffffffffffffffffff1916827bffffffffffffffffffffffffffffffffffffffffffffffffffffffff19161480610ab05750610aaf82611e2f565b5b9050919050565b606060048054610ac690613dab565b80601f0160208091040260200160405190810160405280929190818152602001828054610af290613dab565b8015610b3d5780601f10610b1457610100808354040283529160200191610b3d565b820191905f5260205f20905b815481529060010190602001808311610b2057829003601f168201915b5050505050905090565b5f610b52825f611e98565b9050919050565b5f80610b63611f9a565b9050610b70818585611fa1565b600191505092915050565b5f610b87826001612164565b9050919050565b610bb87f241ecf16d79d0f8dbfb92cbc07fe17840425976cf0667f022fe9877caa831b08336113bc565b610bf7576040517f08c379a0000000000000000000000000000000000000000000000000000000008152600401610bee90613e25565b60405180910390fd5b60095f8273ffffffffffffffffffffffffffffffffffffffff1673ffffffffffffffffffffffffffffffffffffffff1681526020019081526020015f205f9054906101000a900460ff16610c77576040517f5737b5dd00000000000000000000000000000000000000000000000000000000815260040160405180910390fd5b5f60095f8373ffffffffffffffffffffffffffffffffffffffff1673ffffffffffffffffffffffffffffffffffffffff1681526020019081526020015f205f6101000a81548160ff0219169083151502179055505f5b600880549050811015610e4a578173ffffffffffffffffffffffffffffffffffffffff1660088281548110610d0557610d04613e43565b5b905f5260205f20015f9054906101000a900473ffffffffffffffffffffffffffffffffffffffff1673ffffffffffffffffffffffffffffffffffffffff1603610e375760086001600880549050610d5c9190613e9d565b81548110610d6d57610d6c613e43565b5b905f5260205f20015f9054906101000a900473ffffffffffffffffffffffffffffffffffffffff1660088281548110610da957610da8613e43565b5b905f5260205f20015f6101000a81548173ffffffffffffffffffffffffffffffffffffffff021916908373ffffffffffffffffffffffffffffffffffffffff1602179055506008805480610e0057610dff613ed0565b5b600190038181905f5260205f20015f6101000a81549073ffffffffffffffffffffffffffffffffffffffff02191690559055610e4a565b8080610e4290613efd565b915050610ccd565b508073ffffffffffffffffffffffffffffffffffffffff167f09a1db4b80c32706328728508c941a6b954f31eb5affd32f236c1fd405f8fea460405160405180910390a250565b5f600354905090565b610ec47f241ecf16d79d0f8dbfb92cbc07fe17840425976cf0667f022fe9877caa831b08336113bc565b610f03576040517f08c379a0000000000000000000000000000000000000000000000000000000008152600401610efa90613e25565b60405180910390fd5b5f73ffffffffffffffffffffffffffffffffffffffff168173ffffffffffffffffffffffffffffffffffffffff1603610f68576040517fe6c4247b00000000000000000000000000000000000000000000000000000000815260040160405180910390fd5b60095f8273ffffffffffffffffffffffffffffffffffffffff1673ffffffffffffffffffffffffffffffffffffffff1681526020019081526020015f205f9054906101000a900460ff1615610fe9576040517fc45546f700000000000000000000000000000000000000000000000000000000815260040160405180910390fd5b600160095f8373ffffffffffffffffffffffffffffffffffffffff1673ffffffffffffffffffffffffffffffffffffffff1681526020019081526020015f205f6101000a81548160ff021916908315150217905550600881908060018154018082558091505060019003905f5260205f20015f9091909190916101000a81548173ffffffffffffffffffffffffffffffffffffffff021916908373ffffffffffffffffffffffffffffffffffffffff1602179055508073ffffffffffffffffffffffffffffffffffffffff167f3f008fd510eae7a9e7bee13513d7b83bef8003d488b5a3d0b0da4de71d6846f160405160405180910390a250565b7fcab5a0bfe0b79d2c4b1c2e02599fa044d115b7511f9659307cb427695096770981565b5f80611112611f9a565b905061111f858285612270565b61112a8585856122fb565b60019150509392505050565b5f60065f8381526020019081526020015f20600101549050919050565b6009602052805f5260405f205f915054906101000a900460ff1681565b61117982611136565b61118281612573565b61118c8383612587565b505050565b5f6012905090565b6111a1611f9a565b73ffffffffffffffffffffffffffffffffffffffff168173ffffffffffffffffffffffffffffffffffffffff161461120e576040517f08c379a000000000000000000000000000000000000000000000000000000000815260040161120590613fb4565b60405180910390fd5b6112188282612662565b5050565b5f7f0000000000000000000000000000000000000000000000000000000000000000905090565b5f8061124d611f9a565b905061126e81858561125f8589611cf5565b6112699190613fd2565b611fa1565b600191505092915050565b5f61128261273d565b61128c575f6112ae565b7fffffffffffffffffffffffffffffffffffffffffffffffffffffffffffffffff5b9050919050565b5f6112c0825f611e98565b9050919050565b5f6112d182611279565b831115611313576040517f08c379a000000000000000000000000000000000000000000000000000000000815260040161130a9061404f565b60405180910390fd5b5f61131d84611d9b565b905061133261132a611f9a565b84868461275e565b8091505092915050565b5f60015f8373ffffffffffffffffffffffffffffffffffffffff1673ffffffffffffffffffffffffffffffffffffffff1681526020019081526020015f20549050919050565b61138a612801565b6113935f61287f565b565b5f805f9054906101000a900473ffffffffffffffffffffffffffffffffffffffff16905090565b5f60065f8481526020019081526020015f205f015f8373ffffffffffffffffffffffffffffffffffffffff1673ffffffffffffffffffffffffffffffffffffffff1681526020019081526020015f205f9054906101000a900460ff16905092915050565b5f61142a82611a38565b83111561146c576040517f08c379a0000000000000000000000000000000000000000000000000000000008152600401611463906140b7565b60405180910390fd5b5f611476846115c2565b905061148b611483611f9a565b84838761275e565b8091505092915050565b6060600580546114a490613dab565b80601f01602080910402602001604051908101604052809291908181526020018280546114d090613dab565b801561151b5780601f106114f25761010080835404028352916020019161151b565b820191905f5260205f20905b8154815290600101906020018083116114fe57829003601f168201915b5050505050905090565b5f801b81565b5f80611535611f9a565b90505f6115428286611cf5565b905083811015611587576040517f08c379a000000000000000000000000000000000000000000000000000000000815260040161157e90614145565b60405180910390fd5b6115948286868403611fa1565b60019250505092915050565b5f806115aa611f9a565b90506115b78185856122fb565b600191505092915050565b5f6115ce826001611e98565b9050919050565b5f6115df82611a73565b841115611621576040517f08c379a0000000000000000000000000000000000000000000000000000000008152600401611618906141ad565b60405180910390fd5b5f61162b85610b7b565b9050611641611638611f9a565b85858885612940565b809150509392505050565b606060088054806020026020016040519081016040528092919081815260200182805480156116cd57602002820191905f5260205f20905b815f9054906101000a900473ffffffffffffffffffffffffffffffffffffffff1673ffffffffffffffffffffffffffffffffffffffff1681526020019060010190808311611684575b5050505050905090565b5f6116e182611ce4565b841115611723576040517f08c379a000000000000000000000000000000000000000000000000000000000815260040161171a90614215565b60405180910390fd5b5f61172d856112b5565b905061174361173a611f9a565b85858489612940565b809150509392505050565b6117787fcab5a0bfe0b79d2c4b1c2e02599fa044d115b7511f9659307cb4276950967709336113bc565b6117b7576040517f08c379a00000000000000000000000000000000000000000000000000000000081526004016117ae9061427d565b60405180910390fd5b6002600754036117fc576040517f08c379a00000000000000000000000000000000000000000000000000000000081526004016117f3906142e5565b60405180910390fd5b600260078190555060095f8573ffffffffffffffffffffffffffffffffffffffff1673ffffffffffffffffffffffffffffffffffffffff1681526020019081526020015f205f9054906101000a900460ff16611884576040517f5737b5dd00000000000000000000000000000000000000000000000000000000815260040160405180910390fd5b8261188d61121c565b73ffffffffffffffffffffffffffffffffffffffff166370a08231306040518263ffffffff1660e01b81526004016118c59190613a54565b602060405180830381865afa1580156118e0573d5f803e3d5ffd5b505050506040513d601f19601f820116820180604052508101906119049190613d53565b101561193c576040517ff4d678b800000000000000000000000000000000000000000000000000000000815260040160405180910390fd5b61196e848461194961121c565b73ffffffffffffffffffffffffffffffffffffffff16612a399092919063ffffffff16565b8373ffffffffffffffffffffffffffffffffffffffff166359efcb158484846040518463ffffffff1660e01b81526004016119ab9392919061434d565b5f604051808303815f87803b1580156119c2575f80fd5b505af11580156119d4573d5f803e3d5ffd5b505050508373ffffffffffffffffffffffffffffffffffffffff167fde953c60cd81663917dd703d2f498da2604eccfef3edd2260ea19f0f37f749d9848484604051611a229392919061434d565b60405180910390a2600160078190555050505050565b5f7fffffffffffffffffffffffffffffffffffffffffffffffffffffffffffffffff9050919050565b5f611a6c825f612164565b9050919050565b5f611a86611a808361133c565b5f611e98565b9050919050565b611ab77fcab5a0bfe0b79d2c4b1c2e02599fa044d115b7511f9659307cb4276950967709336113bc565b611af6576040517f08c379a0000000000000000000000000000000000000000000000000000000008152600401611aed9061427d565b60405180910390fd5b600260075403611b3b576040517f08c379a0000000000000000000000000000000000000000000000000000000008152600401611b32906142e5565b60405180910390fd5b600260078190555060095f8473ffffffffffffffffffffffffffffffffffffffff1673ffffffffffffffffffffffffffffffffffffffff1681526020019081526020015f205f9054906101000a900460ff16611bc3576040517f5737b5dd00000000000000000000000000000000000000000000000000000000815260040160405180910390fd5b8273ffffffffffffffffffffffffffffffffffffffff1663ce5c7f6183836040518363ffffffff1660e01b8152600401611bfe92919061437d565b5f604051808303815f87803b158015611c15575f80fd5b505af1158015611c27573d5f803e3d5ffd5b505050508273ffffffffffffffffffffffffffffffffffffffff167f17729d434965aef6e046626c2c7086b54e96cd3b6bcbee9a0691b55935673e098383604051611c7392919061437d565b60405180910390a26001600781905550505050565b611c9182611136565b611c9a81612573565b611ca48383612662565b505050565b60088181548110611cb8575f80fd5b905f5260205f20015f915054906101000a900473ffffffffffffffffffffffffffffffffffffffff1681565b5f611cee8261133c565b9050919050565b5f60025f8473ffffffffffffffffffffffffffffffffffffffff1673ffffffffffffffffffffffffffffffffffffffff1681526020019081526020015f205f8373ffffffffffffffffffffffffffffffffffffffff1673ffffffffffffffffffffffffffffffffffffffff1681526020019081526020015f2054905092915050565b7f241ecf16d79d0f8dbfb92cbc07fe17840425976cf0667f022fe9877caa831b0881565b5f611da6825f612164565b9050919050565b611db5612801565b5f73ffffffffffffffffffffffffffffffffffffffff168173ffffffffffffffffffffffffffffffffffffffff1603611e23576040517f08c379a0000000000000000000000000000000000000000000000000000000008152600401611e1a9061440f565b60405180910390fd5b611e2c8161287f565b50565b5f7f01ffc9a7000000000000000000000000000000000000000000000000000000007bffffffffffffffffffffffffffffffffffffffffffffffffffffffff1916827bffffffffffffffffffffffffffffffffffffffffffffffffffffffff1916149050919050565b5f80611ea2610e91565b90505f8114611ece57611ec9611eb66109a0565b828587612b84909392919063ffffffff16565b611f91565b611f907f000000000000000000000000000000000000000000000000000000000000000073ffffffffffffffffffffffffffffffffffffffff1663313ce5676040518163ffffffff1660e01b8152600401602060405180830381865afa158015611f3a573d5f803e3d5ffd5b505050506040513d601f19601f82011682018060405250810190611f5e9190614457565b600a611f6a91906145b1565b611f72611191565b600a611f7e91906145b1565b8587612b84909392919063ffffffff16565b5b91505092915050565b5f33905090565b5f73ffffffffffffffffffffffffffffffffffffffff168373ffffffffffffffffffffffffffffffffffffffff160361200f576040517f08c379a00000000000000000000000000000000000000000000000000000000081526004016120069061466b565b60405180910390fd5b5f73ffffffffffffffffffffffffffffffffffffffff168273ffffffffffffffffffffffffffffffffffffffff160361207d576040517f08c379a0000000000000000000000000000000000000000000000000000000008152600401612074906146f9565b60405180910390fd5b8060025f8573ffffffffffffffffffffffffffffffffffffffff1673ffffffffffffffffffffffffffffffffffffffff1681526020019081526020015f205f8473ffffffffffffffffffffffffffffffffffffffff1673ffffffffffffffffffffffffffffffffffffffff1681526020019081526020015f20819055508173ffffffffffffffffffffffffffffffffffffffff168373ffffffffffffffffffffffffffffffffffffffff167f8c5be1e5ebec7d5bd14f71427d1e84f3dd0314c0f7b2291e5b200ac8c7c3b925836040516121579190613667565b60405180910390a3505050565b5f8061216e610e91565b90505f84148061217d57505f81145b6121a45761219f8161218d6109a0565b8587612b84909392919063ffffffff16565b612267565b6122666121af611191565b600a6121bb91906145b1565b7f000000000000000000000000000000000000000000000000000000000000000073ffffffffffffffffffffffffffffffffffffffff1663313ce5676040518163ffffffff1660e01b8152600401602060405180830381865afa158015612224573d5f803e3d5ffd5b505050506040513d601f19601f820116820180604052508101906122489190614457565b600a61225491906145b1565b8587612b84909392919063ffffffff16565b5b91505092915050565b5f61227b8484611cf5565b90507fffffffffffffffffffffffffffffffffffffffffffffffffffffffffffffffff81146122f557818110156122e7576040517f08c379a00000000000000000000000000000000000000000000000000000000081526004016122de90614761565b60405180910390fd5b6122f48484848403611fa1565b5b50505050565b5f73ffffffffffffffffffffffffffffffffffffffff168373ffffffffffffffffffffffffffffffffffffffff1603612369576040517f08c379a0000000000000000000000000000000000000000000000000000000008152600401612360906147ef565b60405180910390fd5b5f73ffffffffffffffffffffffffffffffffffffffff168273ffffffffffffffffffffffffffffffffffffffff16036123d7576040517f08c379a00000000000000000000000000000000000000000000000000000000081526004016123ce9061487d565b60405180910390fd5b6123e2838383612bf8565b5f60015f8573ffffffffffffffffffffffffffffffffffffffff1673ffffffffffffffffffffffffffffffffffffffff1681526020019081526020015f2054905081811015612466576040517f08c379a000000000000000000000000000000000000000000000000000000000815260040161245d9061490b565b60405180910390fd5b81810360015f8673ffffffffffffffffffffffffffffffffffffffff1673ffffffffffffffffffffffffffffffffffffffff1681526020019081526020015f20819055508160015f8573ffffffffffffffffffffffffffffffffffffffff1673ffffffffffffffffffffffffffffffffffffffff1681526020019081526020015f205f8282546124f69190613fd2565b925050819055508273ffffffffffffffffffffffffffffffffffffffff168473ffffffffffffffffffffffffffffffffffffffff167fddf252ad1be2c89b69c2b068fc378daa952ba7f163c4a11628f55a4df523b3ef8460405161255a9190613667565b60405180910390a361256d848484612bfd565b50505050565b6125848161257f611f9a565b612c02565b50565b61259182826113bc565b61265e57600160065f8481526020019081526020015f205f015f8373ffffffffffffffffffffffffffffffffffffffff1673ffffffffffffffffffffffffffffffffffffffff1681526020019081526020015f205f6101000a81548160ff021916908315150217905550612603611f9a565b73ffffffffffffffffffffffffffffffffffffffff168173ffffffffffffffffffffffffffffffffffffffff16837f2f8788117e7eff1d82e926ec794901d17c78024a50270940304540a733656f0d60405160405180910390a45b5050565b61266c82826113bc565b15612739575f60065f8481526020019081526020015f205f015f8373ffffffffffffffffffffffffffffffffffffffff1673ffffffffffffffffffffffffffffffffffffffff1681526020019081526020015f205f6101000a81548160ff0219169083151502179055506126de611f9a565b73ffffffffffffffffffffffffffffffffffffffff168173ffffffffffffffffffffffffffffffffffffffff16837ff6391f5c32d9c69d2a47ea670b442974b53935d1edc7fd64eb21e047a839171b60405160405180910390a45b5050565b5f806127476109a0565b118061275957505f612757610e91565b145b905090565b61278a7f0000000000000000000000000000000000000000000000000000000000000000853085612c9e565b6127948382612d27565b8273ffffffffffffffffffffffffffffffffffffffff168473ffffffffffffffffffffffffffffffffffffffff167fdcbc1c05240f31ff3ad067ef1ee35ce4997762752e3a095284754544f4c709d784846040516127f3929190614929565b60405180910390a350505050565b612809611f9a565b73ffffffffffffffffffffffffffffffffffffffff16612827611395565b73ffffffffffffffffffffffffffffffffffffffff161461287d576040517f08c379a00000000000000000000000000000000000000000000000000000000081526004016128749061499a565b60405180910390fd5b565b5f805f9054906101000a900473ffffffffffffffffffffffffffffffffffffffff169050815f806101000a81548173ffffffffffffffffffffffffffffffffffffffff021916908373ffffffffffffffffffffffffffffffffffffffff1602179055508173ffffffffffffffffffffffffffffffffffffffff168173ffffffffffffffffffffffffffffffffffffffff167f8be0079c531659141344cd1fd0a4f28419497f9722a3daafe3b4186f6b6457e060405160405180910390a35050565b8273ffffffffffffffffffffffffffffffffffffffff168573ffffffffffffffffffffffffffffffffffffffff161461297f5761297e838683612270565b5b6129898382612e7f565b6129b47f0000000000000000000000000000000000000000000000000000000000000000858461304d565b8273ffffffffffffffffffffffffffffffffffffffff168473ffffffffffffffffffffffffffffffffffffffff168673ffffffffffffffffffffffffffffffffffffffff167ffbde797d201c681b91056529119e0b02407c7bb96a4a2c75c01fc9667232c8db8585604051612a2a929190614929565b60405180910390a45050505050565b5f811480612abf57505f8373ffffffffffffffffffffffffffffffffffffffff1663dd62ed3e30856040518363ffffffff1660e01b8152600401612a7e9291906149b8565b602060405180830381865afa158015612a99573d5f803e3d5ffd5b505050506040513d601f19601f82011682018060405250810190612abd9190613d53565b145b612afe576040517f08c379a0000000000000000000000000000000000000000000000000000000008152600401612af590614a4f565b60405180910390fd5b612b7f8363095ea7b360e01b8484604051602401612b1d929190614a6d565b604051602081830303815290604052907bffffffffffffffffffffffffffffffffffffffffffffffffffffffff19166020820180517bffffffffffffffffffffffffffffffffffffffffffffffffffffffff83818316178352505050506130d3565b505050565b5f80612b91868686613198565b905060016002811115612ba757612ba6614a94565b5b836002811115612bba57612bb9614a94565b5b148015612bd757505f8480612bd257612bd1614ac1565b5b868809115b15612bec57600181612be99190613fd2565b90505b80915050949350505050565b505050565b505050565b612c0c82826113bc565b612c9a57612c318173ffffffffffffffffffffffffffffffffffffffff16601461326b565b612c3e835f1c602061326b565b604051602001612c4f929190614bbc565b6040516020818303038152906040526040517f08c379a0000000000000000000000000000000000000000000000000000000008152600401612c9191906137c5565b60405180910390fd5b5050565b612d21846323b872dd60e01b858585604051602401612cbf93929190614bf5565b604051602081830303815290604052907bffffffffffffffffffffffffffffffffffffffffffffffffffffffff19166020820180517bffffffffffffffffffffffffffffffffffffffffffffffffffffffff83818316178352505050506130d3565b50505050565b5f73ffffffffffffffffffffffffffffffffffffffff168273ffffffffffffffffffffffffffffffffffffffff1603612d95576040517f08c379a0000000000000000000000000000000000000000000000000000000008152600401612d8c90614c74565b60405180910390fd5b612da05f8383612bf8565b8060035f828254612db19190613fd2565b925050819055508060015f8473ffffffffffffffffffffffffffffffffffffffff1673ffffffffffffffffffffffffffffffffffffffff1681526020019081526020015f205f828254612e049190613fd2565b925050819055508173ffffffffffffffffffffffffffffffffffffffff165f73ffffffffffffffffffffffffffffffffffffffff167fddf252ad1be2c89b69c2b068fc378daa952ba7f163c4a11628f55a4df523b3ef83604051612e689190613667565b60405180910390a3612e7b5f8383612bfd565b5050565b5f73ffffffffffffffffffffffffffffffffffffffff168273ffffffffffffffffffffffffffffffffffffffff1603612eed576040517f08c379a0000000000000000000000000000000000000000000000000000000008152600401612ee490614d02565b60405180910390fd5b612ef8825f83612bf8565b5f60015f8473ffffffffffffffffffffffffffffffffffffffff1673ffffffffffffffffffffffffffffffffffffffff1681526020019081526020015f2054905081811015612f7c576040517f08c379a0000000000000000000000000000000000000000000000000000000008152600401612f7390614d90565b60405180910390fd5b81810360015f8573ffffffffffffffffffffffffffffffffffffffff1673ffffffffffffffffffffffffffffffffffffffff1681526020019081526020015f20819055508160035f828254612fd19190613e9d565b925050819055505f73ffffffffffffffffffffffffffffffffffffffff168373ffffffffffffffffffffffffffffffffffffffff167fddf252ad1be2c89b69c2b068fc378daa952ba7f163c4a11628f55a4df523b3ef846040516130359190613667565b60405180910390a3613048835f84612bfd565b505050565b6130ce8363a9059cbb60e01b848460405160240161306c929190614a6d565b604051602081830303815290604052907bffffffffffffffffffffffffffffffffffffffffffffffffffffffff19166020820180517bffffffffffffffffffffffffffffffffffffffffffffffffffffffff83818316178352505050506130d3565b505050565b5f613134826040518060400160405280602081526020017f5361666545524332303a206c6f772d6c6576656c2063616c6c206661696c65648152508573ffffffffffffffffffffffffffffffffffffffff166134a09092919063ffffffff16565b90505f8151111561319357808060200190518101906131539190614dd8565b613192576040517f08c379a000000000000000000000000000000000000000000000000000000000815260040161318990614e73565b60405180910390fd5b5b505050565b5f805f80198587098587029250828110838203039150505f81036131d0578382816131c6576131c5614ac1565b5b0492505050613264565b8084116131db575f80fd5b5f8486880990508281118203915080830392505f60018619018616905080860495508084049350600181825f0304019050808302841793505f600287600302189050808702600203810290508087026002038102905080870260020381029050808702600203810290508087026002038102905080870260020381029050808502955050505050505b9392505050565b60605f600283600261327d9190614e91565b6132879190613fd2565b67ffffffffffffffff8111156132a05761329f614ed2565b5b6040519080825280601f01601f1916602001820160405280156132d25781602001600182028036833780820191505090505b5090507f3000000000000000000000000000000000000000000000000000000000000000815f8151811061330957613308613e43565b5b60200101907effffffffffffffffffffffffffffffffffffffffffffffffffffffffffffff191690815f1a9053507f78000000000000000000000000000000000000000000000000000000000000008160018151811061336c5761336b613e43565b5b60200101907effffffffffffffffffffffffffffffffffffffffffffffffffffffffffffff191690815f1a9053505f60018460026133aa9190614e91565b6133b49190613fd2565b90505b6001811115613453577f3031323334353637383961626364656600000000000000000000000000000000600f8616601081106133f6576133f5613e43565b5b1a60f81b82828151811061340d5761340c613e43565b5b60200101907effffffffffffffffffffffffffffffffffffffffffffffffffffffffffffff191690815f1a905350600485901c94508061344c90614eff565b90506133b7565b505f8414613496576040517f08c379a000000000000000000000000000000000000000000000000000000000815260040161348d90614f70565b60405180910390fd5b8091505092915050565b60606134ae84845f856134b7565b90509392505050565b6060824710156134fc576040517f08c379a00000000000000000000000000000000000000000000000000000000081526004016134f390614ffe565b60405180910390fd5b613505856135c7565b613544576040517f08c379a000000000000000000000000000000000000000000000000000000000815260040161353b90615066565b60405180910390fd5b5f808673ffffffffffffffffffffffffffffffffffffffff16858760405161356c91906150c8565b5f6040518083038185875af1925050503d805f81146135a6576040519150601f19603f3d011682016040523d82523d5f602084013e6135ab565b606091505b50915091506135bb8282866135e9565b92505050949350505050565b5f808273ffffffffffffffffffffffffffffffffffffffff163b119050919050565b606083156135f957829050613648565b5f8351111561360b5782518084602001fd5b816040517f08c379a000000000000000000000000000000000000000000000000000000000815260040161363f91906137c5565b60405180910390fd5b9392505050565b5f819050919050565b6136618161364f565b82525050565b5f60208201905061367a5f830184613658565b92915050565b5f80fd5b5f80fd5b5f7fffffffff0000000000000000000000000000000000000000000000000000000082169050919050565b6136bc81613688565b81146136c6575f80fd5b50565b5f813590506136d7816136b3565b92915050565b5f602082840312156136f2576136f1613680565b5b5f6136ff848285016136c9565b91505092915050565b5f8115159050919050565b61371c81613708565b82525050565b5f6020820190506137355f830184613713565b92915050565b5f81519050919050565b5f82825260208201905092915050565b5f5b83811015613772578082015181840152602081019050613757565b5f8484015250505050565b5f601f19601f8301169050919050565b5f6137978261373b565b6137a18185613745565b93506137b1818560208601613755565b6137ba8161377d565b840191505092915050565b5f6020820190508181035f8301526137dd818461378d565b905092915050565b6137ee8161364f565b81146137f8575f80fd5b50565b5f81359050613809816137e5565b92915050565b5f6020828403121561382457613823613680565b5b5f613831848285016137fb565b91505092915050565b5f73ffffffffffffffffffffffffffffffffffffffff82169050919050565b5f6138638261383a565b9050919050565b61387381613859565b811461387d575f80fd5b50565b5f8135905061388e8161386a565b92915050565b5f80604083850312156138aa576138a9613680565b5b5f6138b785828601613880565b92505060206138c8858286016137fb565b9150509250929050565b5f602082840312156138e7576138e6613680565b5b5f6138f484828501613880565b91505092915050565b5f819050919050565b61390f816138fd565b82525050565b5f6020820190506139285f830184613906565b92915050565b5f805f6060848603121561394557613944613680565b5b5f61395286828701613880565b935050602061396386828701613880565b9250506040613974868287016137fb565b9150509250925092565b613987816138fd565b8114613991575f80fd5b50565b5f813590506139a28161397e565b92915050565b5f602082840312156139bd576139bc613680565b5b5f6139ca84828501613994565b91505092915050565b5f80604083850312156139e9576139e8613680565b5b5f6139f685828601613994565b9250506020613a0785828601613880565b9150509250929050565b5f60ff82169050919050565b613a2681613a11565b82525050565b5f602082019050613a3f5f830184613a1d565b92915050565b613a4e81613859565b82525050565b5f602082019050613a675f830184613a45565b92915050565b5f8060408385031215613a8357613a82613680565b5b5f613a90858286016137fb565b9250506020613aa185828601613880565b9150509250929050565b5f805f60608486031215613ac257613ac1613680565b5b5f613acf868287016137fb565b9350506020613ae086828701613880565b9250506040613af186828701613880565b9150509250925092565b5f81519050919050565b5f82825260208201905092915050565b5f819050602082019050919050565b613b2d81613859565b82525050565b5f613b3e8383613b24565b60208301905092915050565b5f602082019050919050565b5f613b6082613afb565b613b6a8185613b05565b9350613b7583613b15565b805f5b83811015613ba5578151613b8c8882613b33565b9750613b9783613b4a565b925050600181019050613b78565b5085935050505092915050565b5f6020820190508181035f830152613bca8184613b56565b905092915050565b5f80fd5b5f80fd5b5f80fd5b5f8083601f840112613bf357613bf2613bd2565b5b8235905067ffffffffffffffff811115613c1057613c0f613bd6565b5b602083019150836001820283011115613c2c57613c2b613bda565b5b9250929050565b5f805f8060608587031215613c4b57613c4a613680565b5b5f613c5887828801613880565b9450506020613c69878288016137fb565b935050604085013567ffffffffffffffff811115613c8a57613c89613684565b5b613c9687828801613bde565b925092505092959194509250565b5f805f60408486031215613cbb57613cba613680565b5b5f613cc886828701613880565b935050602084013567ffffffffffffffff811115613ce957613ce8613684565b5b613cf586828701613bde565b92509250509250925092565b5f8060408385031215613d1757613d16613680565b5b5f613d2485828601613880565b9250506020613d3585828601613880565b9150509250929050565b5f81519050613d4d816137e5565b92915050565b5f60208284031215613d6857613d67613680565b5b5f613d7584828501613d3f565b91505092915050565b7f4e487b71000000000000000000000000000000000000000000000000000000005f52602260045260245ffd5b5f6002820490506001821680613dc257607f821691505b602082108103613dd557613dd4613d7e565b5b50919050565b7f5661756c743a2063616c6c6572206973206e6f742061206d616e6167657200005f82015250565b5f613e0f601e83613745565b9150613e1a82613ddb565b602082019050919050565b5f6020820190508181035f830152613e3c81613e03565b9050919050565b7f4e487b71000000000000000000000000000000000000000000000000000000005f52603260045260245ffd5b7f4e487b71000000000000000000000000000000000000000000000000000000005f52601160045260245ffd5b5f613ea78261364f565b9150613eb28361364f565b9250828203905081811115613eca57613ec9613e70565b5b92915050565b7f4e487b71000000000000000000000000000000000000000000000000000000005f52603160045260245ffd5b5f613f078261364f565b91507fffffffffffffffffffffffffffffffffffffffffffffffffffffffffffffffff8203613f3957613f38613e70565b5b600182019050919050565b7f416363657373436f6e74726f6c3a2063616e206f6e6c792072656e6f756e63655f8201527f20726f6c657320666f722073656c660000000000000000000000000000000000602082015250565b5f613f9e602f83613745565b9150613fa982613f44565b604082019050919050565b5f6020820190508181035f830152613fcb81613f92565b9050919050565b5f613fdc8261364f565b9150613fe78361364f565b9250828201905080821115613fff57613ffe613e70565b5b92915050565b7f455243343632363a206465706f736974206d6f7265207468616e206d617800005f82015250565b5f614039601e83613745565b915061404482614005565b602082019050919050565b5f6020820190508181035f8301526140668161402d565b9050919050565b7f455243343632363a206d696e74206d6f7265207468616e206d617800000000005f82015250565b5f6140a1601b83613745565b91506140ac8261406d565b602082019050919050565b5f6020820190508181035f8301526140ce81614095565b9050919050565b7f45524332303a2064656372656173656420616c6c6f77616e63652062656c6f775f8201527f207a65726f000000000000000000000000000000000000000000000000000000602082015250565b5f61412f602583613745565b915061413a826140d5565b604082019050919050565b5f6020820190508181035f83015261415c81614123565b9050919050565b7f455243343632363a207769746864726177206d6f7265207468616e206d6178005f82015250565b5f614197601f83613745565b91506141a282614163565b602082019050919050565b5f6020820190508181035f8301526141c48161418b565b9050919050565b7f455243343632363a2072656465656d206d6f7265207468616e206d61780000005f82015250565b5f6141ff601d83613745565b915061420a826141cb565b602082019050919050565b5f6020820190508181035f83015261422c816141f3565b9050919050565b7f5661756c743a2063616c6c6572206973206e6f7420616e206167656e740000005f82015250565b5f614267601d83613745565b915061427282614233565b602082019050919050565b5f6020820190508181035f8301526142948161425b565b9050919050565b7f5265656e7472616e637947756172643a207265656e7472616e742063616c6c005f82015250565b5f6142cf601f83613745565b91506142da8261429b565b602082019050919050565b5f6020820190508181035f8301526142fc816142c3565b9050919050565b5f82825260208201905092915050565b828183375f83830152505050565b5f61432c8385614303565b9350614339838584614313565b6143428361377d565b840190509392505050565b5f6040820190506143605f830186613658565b8181036020830152614373818486614321565b9050949350505050565b5f6020820190508181035f830152614396818486614321565b90509392505050565b7f4f776e61626c653a206e6577206f776e657220697320746865207a65726f20615f8201527f6464726573730000000000000000000000000000000000000000000000000000602082015250565b5f6143f9602683613745565b91506144048261439f565b604082019050919050565b5f6020820190508181035f830152614426816143ed565b9050919050565b61443681613a11565b8114614440575f80fd5b50565b5f815190506144518161442d565b92915050565b5f6020828403121561446c5761446b613680565b5b5f61447984828501614443565b91505092915050565b5f8160011c9050919050565b5f808291508390505b60018511156144d7578086048111156144b3576144b2613e70565b5b60018516156144c25780820291505b80810290506144d085614482565b9450614497565b94509492505050565b5f826144ef57600190506145aa565b816144fc575f90506145aa565b8160018114614512576002811461451c5761454b565b60019150506145aa565b60ff84111561452e5761452d613e70565b5b8360020a91508482111561454557614544613e70565b5b506145aa565b5060208310610133831016604e8410600b84101617156145805782820a90508381111561457b5761457a613e70565b5b6145aa565b61458d848484600161448e565b925090508184048111156145a4576145a3613e70565b5b81810290505b9392505050565b5f6145bb8261364f565b91506145c683613a11565b92506145f37fffffffffffffffffffffffffffffffffffffffffffffffffffffffffffffffff84846144e0565b905092915050565b7f45524332303a20617070726f76652066726f6d20746865207a65726f206164645f8201527f7265737300000000000000000000000000000000000000000000000000000000602082015250565b5f614655602483613745565b9150614660826145fb565b604082019050919050565b5f6020820190508181035f83015261468281614649565b9050919050565b7f45524332303a20617070726f766520746f20746865207a65726f2061646472655f8201527f7373000000000000000000000000000000000000000000000000000000000000602082015250565b5f6146e3602283613745565b91506146ee82614689565b604082019050919050565b5f6020820190508181035f830152614710816146d7565b9050919050565b7f45524332303a20696e73756666696369656e7420616c6c6f77616e63650000005f82015250565b5f61474b601d83613745565b915061475682614717565b602082019050919050565b5f6020820190508181035f8301526147788161473f565b9050919050565b7f45524332303a207472616e736665722066726f6d20746865207a65726f2061645f8201527f6472657373000000000000000000000000000000000000000000000000000000602082015250565b5f6147d9602583613745565b91506147e48261477f565b604082019050919050565b5f6020820190508181035f830152614806816147cd565b9050919050565b7f45524332303a207472616e7366657220746f20746865207a65726f20616464725f8201527f6573730000000000000000000000000000000000000000000000000000000000602082015250565b5f614867602383613745565b91506148728261480d565b604082019050919050565b5f6020820190508181035f8301526148948161485b565b9050919050565b7f45524332303a207472616e7366657220616d6f756e74206578636565647320625f8201527f616c616e63650000000000000000000000000000000000000000000000000000602082015250565b5f6148f5602683613745565b91506149008261489b565b604082019050919050565b5f6020820190508181035f830152614922816148e9565b9050919050565b5f60408201905061493c5f830185613658565b6149496020830184613658565b9392505050565b7f4f776e61626c653a2063616c6c6572206973206e6f7420746865206f776e65725f82015250565b5f614984602083613745565b915061498f82614950565b602082019050919050565b5f6020820190508181035f8301526149b181614978565b9050919050565b5f6040820190506149cb5f830185613a45565b6149d86020830184613a45565b9392505050565b7f5361666545524332303a20617070726f76652066726f6d206e6f6e2d7a65726f5f8201527f20746f206e6f6e2d7a65726f20616c6c6f77616e636500000000000000000000602082015250565b5f614a39603683613745565b9150614a44826149df565b604082019050919050565b5f6020820190508181035f830152614a6681614a2d565b9050919050565b5f604082019050614a805f830185613a45565b614a8d6020830184613658565b9392505050565b7f4e487b71000000000000000000000000000000000000000000000000000000005f52602160045260245ffd5b7f4e487b71000000000000000000000000000000000000000000000000000000005f52601260045260245ffd5b5f81905092915050565b7f416363657373436f6e74726f6c3a206163636f756e74200000000000000000005f82015250565b5f614b2c601783614aee565b9150614b3782614af8565b601782019050919050565b5f614b4c8261373b565b614b568185614aee565b9350614b66818560208601613755565b80840191505092915050565b7f206973206d697373696e6720726f6c65200000000000000000000000000000005f82015250565b5f614ba6601183614aee565b9150614bb182614b72565b601182019050919050565b5f614bc682614b20565b9150614bd28285614b42565b9150614bdd82614b9a565b9150614be98284614b42565b91508190509392505050565b5f606082019050614c085f830186613a45565b614c156020830185613a45565b614c226040830184613658565b949350505050565b7f45524332303a206d696e7420746f20746865207a65726f2061646472657373005f82015250565b5f614c5e601f83613745565b9150614c6982614c2a565b602082019050919050565b5f6020820190508181035f830152614c8b81614c52565b9050919050565b7f45524332303a206275726e2066726f6d20746865207a65726f206164647265735f8201527f7300000000000000000000000000000000000000000000000000000000000000602082015250565b5f614cec602183613745565b9150614cf782614c92565b604082019050919050565b5f6020820190508181035f830152614d1981614ce0565b9050919050565b7f45524332303a206275726e20616d6f756e7420657863656564732062616c616e5f8201527f6365000000000000000000000000000000000000000000000000000000000000602082015250565b5f614d7a602283613745565b9150614d8582614d20565b604082019050919050565b5f6020820190508181035f830152614da781614d6e565b9050919050565b614db781613708565b8114614dc1575f80fd5b50565b5f81519050614dd281614dae565b92915050565b5f60208284031215614ded57614dec613680565b5b5f614dfa84828501614dc4565b91505092915050565b7f5361666545524332303a204552433230206f7065726174696f6e20646964206e5f8201527f6f74207375636365656400000000000000000000000000000000000000000000602082015250565b5f614e5d602a83613745565b9150614e6882614e03565b604082019050919050565b5f6020820190508181035f830152614e8a81614e51565b9050919050565b5f614e9b8261364f565b9150614ea68361364f565b9250828202614eb48161364f565b91508282048414831517614ecb57614eca613e70565b5b5092915050565b7f4e487b71000000000000000000000000000000000000000000000000000000005f52604160045260245ffd5b5f614f098261364f565b91505f8203614f1b57614f1a613e70565b5b600182039050919050565b7f537472696e67733a20686578206c656e67746820696e73756666696369656e745f82015250565b5f614f5a602083613745565b9150614f6582614f26565b602082019050919050565b5f6020820190508181035f830152614f8781614f4e565b9050919050565b7f416464726573733a20696e73756666696369656e742062616c616e636520666f5f8201527f722063616c6c0000000000000000000000000000000000000000000000000000602082015250565b5f614fe8602683613745565b9150614ff382614f8e565b604082019050919050565b5f6020820190508181035f83015261501581614fdc565b9050919050565b7f416464726573733a2063616c6c20746f206e6f6e2d636f6e74726163740000005f82015250565b5f615050601d83613745565b915061505b8261501c565b602082019050919050565b5f6020820190508181035f83015261507d81615044565b9050919050565b5f81519050919050565b5f81905092915050565b5f6150a282615084565b6150ac818561508e565b93506150bc818560208601613755565b80840191505092915050565b5f6150d38284615098565b91508190509291505056fea2646970667358221220124f0ac60394b5172938a5c3b57394054123eb19a03b228502a2d50c21a487e364736f6c63430008140033a26469706673582212202389a3fa7aea074f28b3663dc64ee86474015dc8f75a00314bb8376c1be5d73b64736f6c63430008140033",
  "linkReferences": {},
  "deployedLinkReferences": {}
}