{
  "_format": "hh-sol-artifact-1",
  "contractName": "NearVrfYieldStrategy",
  "sourceName": "contracts/NearVrfYieldStrategy.sol",
  "abi": [
    {
      "inputs": [
        {
          "internalType": "address",
          "name": "_vault",
          "type": "address"
        },
        {
          "internalType": "address",
          "name": "_underlying",
          "type": "address"
        },
        {
          "internalType": "address",
          "name": "_yieldSource",
          "type": "address"
        }
      ],
      "stateMutability": "nonpayable",
      "type": "constructor"
    },
    {
      "inputs": [
        {
          "internalType": "bytes",
          "name": "reason",
          "type": "bytes"
        }
      ],
      "name": "ClaimFailed",
      "type": "error"
    },
    {
      "inputs": [
        {
          "internalType": "bytes",
          "name": "reason",
          "type": "bytes"
        }
      ],
      "name": "DepositFailed",
      "type": "error"
    },
    {
      "inputs": [
        {
          "internalType": "bytes",
          "name": "reason",
          "type": "bytes"
        }
      ],
      "name": "GetBalanceFailed",
      "type": "error"
    },
    {
      "inputs": [],
      "name": "InvalidAmount",
      "type": "error"
    },
    {
      "inputs": [],
      "name": "InvalidTokenAddress",
      "type": "error"
    },
    {
      "inputs": [],
      "name": "NoUnderlyingBalance",
      "type": "error"
    },
    {
      "inputs": [],
      "name": "NoVaultSet",
      "type": "error"
    },
    {
      "inputs": [],
      "name": "StrategyPaused",
      "type": "error"
    },
    {
      "inputs": [
        {
          "internalType": "bytes",
          "name": "reason",
          "type": "bytes"
        }
      ],
      "name": "WithdrawFailed",
      "type": "error"
    },
    {
      "anonymous": false,
      "inputs": [
        {
          "indexed": false,
          "internalType": "uint256",
          "name": "amount",
          "type": "uint256"
        }
      ],
      "name": "Claim",
      "type": "event"
    },
    {
      "anonymous": false,
      "inputs": [
        {
          "indexed": false,
          "internalType": "bytes",
          "name": "reason",
          "type": "bytes"
        }
      ],
      "name": "ClaimRewardsFailed",
      "type": "event"
    },
    {
      "anonymous": false,
      "inputs": [
        {
          "indexed": false,
          "internalType": "uint256",
          "name": "amount",
          "type": "uint256"
        }
      ],
      "name": "Deposit",
      "type": "event"
    },
    {
      "anonymous": false,
      "inputs": [
        {
          "indexed": false,
          "internalType": "uint256",
          "name": "balance",
          "type": "uint256"
        },
        {
          "indexed": false,
          "internalType": "bytes",
          "name": "data",
          "type": "bytes"
        }
      ],
      "name": "EmergencyExited",
      "type": "event"
    },
    {
      "anonymous": false,
      "inputs": [
        {
          "indexed": false,
          "internalType": "uint256",
          "name": "amount",
          "type": "uint256"
        },
        {
          "indexed": false,
          "internalType": "bytes",
          "name": "data",
          "type": "bytes"
        }
      ],
      "name": "Executed",
      "type": "event"
    },
    {
      "anonymous": false,
      "inputs": [
        {
          "indexed": false,
          "internalType": "bytes",
          "name": "data",
          "type": "bytes"
        }
      ],
      "name": "Harvested",
      "type": "event"
    },
    {
      "anonymous": false,
      "inputs": [
        {
          "indexed": false,
          "internalType": "bool",
          "name": "isPaused",
          "type": "bool"
        }
      ],
      "name": "PausedState",
      "type": "event"
    },
    {
      "anonymous": false,
      "inputs": [
        {
          "indexed": true,
          "internalType": "address",
          "name": "token",
          "type": "address"
        }
      ],
      "name": "RewardTokenAdded",
      "type": "event"
    },
    {
      "anonymous": false,
      "inputs": [
        {
          "indexed": true,
          "internalType": "address",
          "name": "token",
          "type": "address"
        },
        {
          "indexed": false,
          "internalType": "uint256",
          "name": "amount",
          "type": "uint256"
        }
      ],
      "name": "TokensForwarded",
      "type": "event"
    },
    {
      "anonymous": false,
      "inputs": [
        {
          "indexed": false,
          "internalType": "address",
          "name": "vault",
          "type": "address"
        }
      ],
      "name": "VaultSet",
      "type": "event"
    },
    {
      "anonymous": false,
      "inputs": [
        {
          "indexed": true,
          "internalType": "address",
          "name": "winner",
          "type": "address"
        },
        {
          "indexed": false,
          "internalType": "uint256",
          "name": "amount",
          "type": "uint256"
        }
      ],
      "name": "WinnerAwarded",
      "type": "event"
    },
    {
      "anonymous": false,
      "inputs": [
        {
          "indexed": false,
          "internalType": "uint256",
          "name": "amount",
          "type": "uint256"
        }
      ],
      "name": "Withdraw",
      "type": "event"
    },
    {
      "anonymous": false,
      "inputs": [
        {
          "indexed": false,
          "internalType": "uint256",
          "name": "amount",
          "type": "uint256"
        }
      ],
      "name": "YieldDeposited",
      "type": "event"
    },
    {
      "inputs": [
        {
          "internalType": "address",
          "name": "tokenAddress",
          "type": "address"
        }
      ],
      "name": "addRewardToken",
      "outputs": [],
      "stateMutability": "nonpayable",
      "type": "function"
    },
    {
      "inputs": [
        {
          "internalType": "bytes",
          "name": "data",
          "type": "bytes"
        }
      ],
      "name": "claimRewards",
      "outputs": [],
      "stateMutability": "nonpayable",
      "type": "function"
    },
    {
      "inputs": [],
      "name": "claimSelector",
      "outputs": [
        {
          "internalType": "bytes4",
          "name": "",
          "type": "bytes4"
        }
      ],
      "stateMutability": "pure",
      "type": "function"
    },
    {
      "inputs": [
        {
          "internalType": "address",
          "name": "",
          "type": "address"
        }
      ],
      "name": "depositAmounts",
      "outputs": [
        {
          "internalType": "uint256",
          "name": "",
          "type": "uint256"
        }
      ],
      "stateMutability": "view",
      "type": "function"
    },
    {
      "inputs": [],
      "name": "depositSelector",
      "outputs": [
        {
          "internalType": "bytes4",
          "name": "",
          "type": "bytes4"
        }
      ],
      "stateMutability": "pure",
      "type": "function"
    },
    {
      "inputs": [
        {
          "internalType": "uint256",
          "name": "yieldAmount",
          "type": "uint256"
        }
      ],
      "name": "depositYield",
      "outputs": [],
      "stateMutability": "nonpayable",
      "type": "function"
    },
    {
      "inputs": [
        {
          "internalType": "uint256",
          "name": "",
          "type": "uint256"
        }
      ],
      "name": "depositors",
      "outputs": [
        {
          "internalType": "address",
          "name": "",
          "type": "address"
        }
      ],
      "stateMutability": "view",
      "type": "function"
    },
    {
      "inputs": [
        {
          "internalType": "bytes",
          "name": "data",
          "type": "bytes"
        }
      ],
      "name": "emergencyExit",
      "outputs": [],
      "stateMutability": "nonpayable",
      "type": "function"
    },
    {
      "inputs": [
        {
          "internalType": "uint256",
          "name": "amount",
          "type": "uint256"
        },
        {
          "internalType": "bytes",
          "name": "data",
          "type": "bytes"
        }
      ],
      "name": "execute",
      "outputs": [],
      "stateMutability": "nonpayable",
      "type": "function"
    },
    {
      "inputs": [],
      "name": "getBalance",
      "outputs": [
        {
          "internalType": "uint256",
          "name": "",
          "type": "uint256"
        }
      ],
      "stateMutability": "view",
      "type": "function"
    },
    {
      "inputs": [],
      "name": "getBalanceSelector",
      "outputs": [
        {
          "internalType": "bytes4",
          "name": "",
          "type": "bytes4"
        }
      ],
      "stateMutability": "pure",
      "type": "function"
    },
    {
      "inputs": [
        {
          "internalType": "bytes",
          "name": "data",
          "type": "bytes"
        }
      ],
      "name": "harvest",
      "outputs": [],
      "stateMutability": "nonpayable",
      "type": "function"
    },
    {
      "inputs": [
        {
          "internalType": "address",
          "name": "token",
          "type": "address"
        }
      ],
      "name": "knownRewardTokens",
      "outputs": [
        {
          "internalType": "bool",
          "name": "",
          "type": "bool"
        }
      ],
      "stateMutability": "view",
      "type": "function"
    },
    {
      "inputs": [],
      "name": "lastWinner",
      "outputs": [
        {
          "internalType": "address",
          "name": "",
          "type": "address"
        }
      ],
      "stateMutability": "view",
      "type": "function"
    },
    {
      "inputs": [],
      "name": "paused",
      "outputs": [
        {
          "internalType": "bool",
          "name": "",
          "type": "bool"
        }
      ],
      "stateMutability": "view",
      "type": "function"
    },
    {
      "inputs": [],
      "name": "protocol",
      "outputs": [
        {
          "internalType": "address",
          "name": "",
          "type": "address"
        }
      ],
      "stateMutability": "pure",
      "type": "function"
    },
    {
      "inputs": [
        {
          "internalType": "bytes4",
          "name": "selector",
          "type": "bytes4"
        },
        {
          "internalType": "bytes",
          "name": "params",
          "type": "bytes"
        }
      ],
      "name": "queryProtocol",
      "outputs": [
        {
          "internalType": "bytes",
          "name": "",
          "type": "bytes"
        }
      ],
      "stateMutability": "view",
      "type": "function"
    },
    {
      "inputs": [],
      "name": "rewardTokensList",
      "outputs": [
        {
          "internalType": "address[]",
          "name": "",
          "type": "address[]"
        }
      ],
      "stateMutability": "view",
      "type": "function"
    },
    {
      "inputs": [
        {
          "internalType": "bool",
          "name": "_paused",
          "type": "bool"
        }
      ],
      "name": "setPaused",
      "outputs": [],
      "stateMutability": "nonpayable",
      "type": "function"
    },
    {
      "inputs": [
        {
          "internalType": "address",
          "name": "_vault",
          "type": "address"
        }
      ],
      "name": "setVault",
      "outputs": [],
      "stateMutability": "nonpayable",
      "type": "function"
    },
    {
      "inputs": [],
      "name": "totalDeposited",
      "outputs": [
        {
          "internalType": "uint256",
          "name": "",
          "type": "uint256"
        }
      ],
      "stateMutability": "view",
      "type": "function"
    },
    {
      "inputs": [],
      "name": "underlyingToken",
      "outputs": [
        {
          "internalType": "address",
          "name": "",
          "type": "address"
        }
      ],
      "stateMutability": "view",
      "type": "function"
    },
    {
      "inputs": [],
      "name": "vault",
      "outputs": [
        {
          "internalType": "address",
          "name": "",
          "type": "address"
        }
      ],
      "stateMutability": "view",
      "type": "function"
    },
    {
      "inputs": [],
      "name": "withdrawSelector",
      "outputs": [
        {
          "internalType": "bytes4",
          "name": "",
          "type": "bytes4"
        }
      ],
      "stateMutability": "pure",
      "type": "function"
    },
    {
      "inputs": [],
      "name": "yieldSource",
      "outputs": [
        {
          "internalType": "address",
          "name": "",
          "type": "address"
        }
      ],
      "stateMutability": "view",
      "type": "function"
    }
  ],
  "bytecode": "0x60e060405234801562000010575f80fd5b50604051620024eb380380620024eb833981810160405281019062000036919062000147565b60015f819055508273ffffffffffffffffffffffffffffffffffffffff1660808173ffffffffffffffffffffffffffffffffffffffff16815250508173ffffffffffffffffffffffffffffffffffffffff1660a08173ffffffffffffffffffffffffffffffffffffffff16815250508073ffffffffffffffffffffffffffffffffffffffff1660c08173ffffffffffffffffffffffffffffffffffffffff1681525050505050620001a0565b5f80fd5b5f73ffffffffffffffffffffffffffffffffffffffff82169050919050565b5f6200011182620000e6565b9050919050565b620001238162000105565b81146200012e575f80fd5b50565b5f81519050620001418162000118565b92915050565b5f805f60608486031215620001615762000160620000e2565b5b5f620001708682870162000131565b9350506020620001838682870162000131565b9250506040620001968682870162000131565b9150509250925092565b60805160a05160c0516122c5620002265f395f610c7901525f818161049e015281816105ea0152818161069f01528181610766015281816107ee01528181610bd901528181610d8f01528181610e9b015261100401525f818161053b01528181610610015281816107440152818161089901528181610cfd015261107901526122c55ff3fe608060405234801561000f575f80fd5b5060043610610171575f3560e01c80637cf4c01b116100dc578063ce5c7f6111610095578063ea8ec92a1161006f578063ea8ec92a14610423578063fbfa77cf14610441578063fe1881841461045f578063ff50abdc1461047d57610171565b8063ce5c7f61146103bb578063e190febc146103d7578063e4b2fb79146103f357610171565b80637cf4c01b146102f7578063870240b314610313578063870e4bef146103315780638ce744261461034f578063b2470e5c1461036d578063bf0294d01461038b57610171565b8063504ee05a1161012e578063504ee05a1461023557806359efcb15146102535780635c975abb1461026f5780635d2e04701461028d578063633f14ef146102ab5780636817031b146102db57610171565b806312065fe01461017557806316c38b3c146101935780631c03e6cc146101af5780632495a599146101cb5780632c1c1276146101e957806338c1d46714610205575b5f80fd5b61017d61049b565b60405161018a91906114ee565b60405180910390f35b6101ad60048036038101906101a89190611544565b610539565b005b6101c960048036038101906101c491906115c9565b6105e4565b005b6101d36105e7565b6040516101e09190611603565b60405180910390f35b61020360048036038101906101fe919061167d565b61060e565b005b61021f600480360381019061021a91906115c9565b6107eb565b60405161022c91906116d7565b60405180910390f35b61023d610842565b60405161024a919061172a565b60405180910390f35b61026d6004803603810190610268919061176d565b61084c565b005b610277610b0a565b60405161028491906116d7565b60405180910390f35b610295610b1d565b6040516102a2919061172a565b60405180910390f35b6102c560048036038101906102c091906117f4565b610b27565b6040516102d291906118db565b60405180910390f35b6102f560048036038101906102f091906115c9565b610b41565b005b610311600480360381019061030c91906118fb565b610b44565b005b61031b610c5f565b604051610328919061172a565b60405180910390f35b610339610c69565b604051610346919061172a565b60405180910390f35b610357610c73565b6040516103649190611603565b60405180910390f35b610375610c77565b6040516103829190611603565b60405180910390f35b6103a560048036038101906103a091906115c9565b610c9b565b6040516103b291906114ee565b60405180910390f35b6103d560048036038101906103d0919061167d565b610cb0565b005b6103f160048036038101906103ec919061167d565b610f74565b005b61040d600480360381019061040891906118fb565b610f78565b60405161041a9190611603565b60405180910390f35b61042b610fb3565b60405161043891906119dd565b60405180910390f35b610449611077565b6040516104569190611603565b60405180910390f35b61046761109b565b6040516104749190611603565b60405180910390f35b6104856110c0565b60405161049291906114ee565b60405180910390f35b5f7f000000000000000000000000000000000000000000000000000000000000000073ffffffffffffffffffffffffffffffffffffffff166370a08231306040518263ffffffff1660e01b81526004016104f59190611603565b602060405180830381865afa158015610510573d5f803e3d5ffd5b505050506040513d601f19601f820116820180604052508101906105349190611a11565b905090565b7f000000000000000000000000000000000000000000000000000000000000000073ffffffffffffffffffffffffffffffffffffffff163373ffffffffffffffffffffffffffffffffffffffff16146105c7576040517f08c379a00000000000000000000000000000000000000000000000000000000081526004016105be90611a96565b60405180910390fd5b80600460146101000a81548160ff02191690831515021790555050565b50565b5f7f0000000000000000000000000000000000000000000000000000000000000000905090565b7f000000000000000000000000000000000000000000000000000000000000000073ffffffffffffffffffffffffffffffffffffffff163373ffffffffffffffffffffffffffffffffffffffff161461069c576040517f08c379a000000000000000000000000000000000000000000000000000000000815260040161069390611afe565b60405180910390fd5b5f7f000000000000000000000000000000000000000000000000000000000000000073ffffffffffffffffffffffffffffffffffffffff166370a08231306040518263ffffffff1660e01b81526004016106f69190611603565b602060405180830381865afa158015610711573d5f803e3d5ffd5b505050506040513d601f19601f820116820180604052508101906107359190611a11565b90505f8111156107ab576107aa7f0000000000000000000000000000000000000000000000000000000000000000827f000000000000000000000000000000000000000000000000000000000000000073ffffffffffffffffffffffffffffffffffffffff166110c69092919063ffffffff16565b5b7f33707543538a74978cfbe255a9a187ce79ed7695a03a48d36b5a3cf8b569aa528184846040516107de93929190611b56565b60405180910390a1505050565b5f7f000000000000000000000000000000000000000000000000000000000000000073ffffffffffffffffffffffffffffffffffffffff168273ffffffffffffffffffffffffffffffffffffffff16149050919050565b5f8060e01b905090565b60025f5403610890576040517f08c379a000000000000000000000000000000000000000000000000000000000815260040161088790611bd0565b60405180910390fd5b60025f819055507f000000000000000000000000000000000000000000000000000000000000000073ffffffffffffffffffffffffffffffffffffffff163373ffffffffffffffffffffffffffffffffffffffff1614610925576040517f08c379a000000000000000000000000000000000000000000000000000000000815260040161091c90611c38565b60405180910390fd5b600460149054906101000a900460ff1615610975576040517f08c379a000000000000000000000000000000000000000000000000000000000815260040161096c90611ca0565b60405180910390fd5b5f83116109b7576040517f08c379a00000000000000000000000000000000000000000000000000000000081526004016109ae90611d08565b60405180910390fd5b5f60025f3273ffffffffffffffffffffffffffffffffffffffff1673ffffffffffffffffffffffffffffffffffffffff1681526020019081526020015f205403610a5c57600132908060018154018082558091505060019003905f5260205f20015f9091909190916101000a81548173ffffffffffffffffffffffffffffffffffffffff021916908373ffffffffffffffffffffffffffffffffffffffff1602179055505b8260025f3273ffffffffffffffffffffffffffffffffffffffff1673ffffffffffffffffffffffffffffffffffffffff1681526020019081526020015f205f828254610aa89190611d53565b925050819055508260035f828254610ac09190611d53565b925050819055507f4d6ce1e535dbade1c23defba91e23b8f791ce5edc0cc320257a2b364e4e3842683604051610af691906114ee565b60405180910390a160015f81905550505050565b600460149054906101000a900460ff1681565b5f8060e01b905090565b606060405180602001604052805f81525090509392505050565b50565b60025f5403610b88576040517f08c379a0000000000000000000000000000000000000000000000000000000008152600401610b7f90611bd0565b60405180910390fd5b60025f819055505f8111610bd1576040517f08c379a0000000000000000000000000000000000000000000000000000000008152600401610bc890611dd0565b60405180910390fd5b610c1e3330837f000000000000000000000000000000000000000000000000000000000000000073ffffffffffffffffffffffffffffffffffffffff1661114c909392919063ffffffff16565b7f6efedac2f5ab810f0507b22f5e395fa2d33dec417590d47b2b677e13ecdb061981604051610c4d91906114ee565b60405180910390a160015f8190555050565b5f8060e01b905090565b5f8060e01b905090565b5f90565b7f000000000000000000000000000000000000000000000000000000000000000081565b6002602052805f5260405f205f915090505481565b60025f5403610cf4576040517f08c379a0000000000000000000000000000000000000000000000000000000008152600401610ceb90611bd0565b60405180910390fd5b60025f819055507f000000000000000000000000000000000000000000000000000000000000000073ffffffffffffffffffffffffffffffffffffffff163373ffffffffffffffffffffffffffffffffffffffff1614610d89576040517f08c379a0000000000000000000000000000000000000000000000000000000008152600401610d8090611e38565b60405180910390fd5b5f6003547f000000000000000000000000000000000000000000000000000000000000000073ffffffffffffffffffffffffffffffffffffffff166370a08231306040518263ffffffff1660e01b8152600401610de69190611603565b602060405180830381865afa158015610e01573d5f803e3d5ffd5b505050506040513d601f19601f82011682018060405250810190610e259190611a11565b610e2f9190611e56565b90505f81118015610e4457505f600180549050115b15610f2f575f610e526111d5565b90508060045f6101000a81548173ffffffffffffffffffffffffffffffffffffffff021916908373ffffffffffffffffffffffffffffffffffffffff160217905550610edf81837f000000000000000000000000000000000000000000000000000000000000000073ffffffffffffffffffffffffffffffffffffffff166110c69092919063ffffffff16565b8073ffffffffffffffffffffffffffffffffffffffff167fd1b693e213ce4bf8034bcd0bf93c8892052c4334939c8354078feb05a6ab71e783604051610f2591906114ee565b60405180910390a2505b7fac04581c930eefb60cf2509de6e2388cbcde488697b9c13ca8dc5cddc81718608383604051610f60929190611e89565b60405180910390a15060015f819055505050565b5050565b60018181548110610f87575f80fd5b905f5260205f20015f915054906101000a900473ffffffffffffffffffffffffffffffffffffffff1681565b60605f600167ffffffffffffffff811115610fd157610fd0611eab565b5b604051908082528060200260200182016040528015610fff5781602001602082028036833780820191505090505b5090507f0000000000000000000000000000000000000000000000000000000000000000815f8151811061103657611035611ed8565b5b602002602001019073ffffffffffffffffffffffffffffffffffffffff16908173ffffffffffffffffffffffffffffffffffffffff16815250508091505090565b7f000000000000000000000000000000000000000000000000000000000000000081565b60045f9054906101000a900473ffffffffffffffffffffffffffffffffffffffff1681565b60035481565b6111478363a9059cbb60e01b84846040516024016110e5929190611f05565b604051602081830303815290604052907bffffffffffffffffffffffffffffffffffffffffffffffffffffffff19166020820180517bffffffffffffffffffffffffffffffffffffffffffffffffffffffff8381831617835250505050611262565b505050565b6111cf846323b872dd60e01b85858560405160240161116d93929190611f2c565b604051602081830303815290604052907bffffffffffffffffffffffffffffffffffffffffffffffffffffffff19166020820180517bffffffffffffffffffffffffffffffffffffffffffffffffffffffff8381831617835250505050611262565b50505050565b5f8042446001805490506040516020016111f193929190611f81565b604051602081830303815290604052805190602001205f1c90505f6001805490508261121d9190611fea565b90506001818154811061123357611232611ed8565b5b905f5260205f20015f9054906101000a900473ffffffffffffffffffffffffffffffffffffffff169250505090565b5f6112c3826040518060400160405280602081526020017f5361666545524332303a206c6f772d6c6576656c2063616c6c206661696c65648152508573ffffffffffffffffffffffffffffffffffffffff166113279092919063ffffffff16565b90505f8151111561132257808060200190518101906112e2919061202e565b611321576040517f08c379a0000000000000000000000000000000000000000000000000000000008152600401611318906120c9565b60405180910390fd5b5b505050565b606061133584845f8561133e565b90509392505050565b606082471015611383576040517f08c379a000000000000000000000000000000000000000000000000000000000815260040161137a90612157565b60405180910390fd5b61138c8561144e565b6113cb576040517f08c379a00000000000000000000000000000000000000000000000000000000081526004016113c2906121bf565b60405180910390fd5b5f808673ffffffffffffffffffffffffffffffffffffffff1685876040516113f39190612217565b5f6040518083038185875af1925050503d805f811461142d576040519150601f19603f3d011682016040523d82523d5f602084013e611432565b606091505b5091509150611442828286611470565b92505050949350505050565b5f808273ffffffffffffffffffffffffffffffffffffffff163b119050919050565b60608315611480578290506114cf565b5f835111156114925782518084602001fd5b816040517f08c379a00000000000000000000000000000000000000000000000000000000081526004016114c6919061226f565b60405180910390fd5b9392505050565b5f819050919050565b6114e8816114d6565b82525050565b5f6020820190506115015f8301846114df565b92915050565b5f80fd5b5f80fd5b5f8115159050919050565b6115238161150f565b811461152d575f80fd5b50565b5f8135905061153e8161151a565b92915050565b5f6020828403121561155957611558611507565b5b5f61156684828501611530565b91505092915050565b5f73ffffffffffffffffffffffffffffffffffffffff82169050919050565b5f6115988261156f565b9050919050565b6115a88161158e565b81146115b2575f80fd5b50565b5f813590506115c38161159f565b92915050565b5f602082840312156115de576115dd611507565b5b5f6115eb848285016115b5565b91505092915050565b6115fd8161158e565b82525050565b5f6020820190506116165f8301846115f4565b92915050565b5f80fd5b5f80fd5b5f80fd5b5f8083601f84011261163d5761163c61161c565b5b8235905067ffffffffffffffff81111561165a57611659611620565b5b60208301915083600182028301111561167657611675611624565b5b9250929050565b5f806020838503121561169357611692611507565b5b5f83013567ffffffffffffffff8111156116b0576116af61150b565b5b6116bc85828601611628565b92509250509250929050565b6116d18161150f565b82525050565b5f6020820190506116ea5f8301846116c8565b92915050565b5f7fffffffff0000000000000000000000000000000000000000000000000000000082169050919050565b611724816116f0565b82525050565b5f60208201905061173d5f83018461171b565b92915050565b61174c816114d6565b8114611756575f80fd5b50565b5f8135905061176781611743565b92915050565b5f805f6040848603121561178457611783611507565b5b5f61179186828701611759565b935050602084013567ffffffffffffffff8111156117b2576117b161150b565b5b6117be86828701611628565b92509250509250925092565b6117d3816116f0565b81146117dd575f80fd5b50565b5f813590506117ee816117ca565b92915050565b5f805f6040848603121561180b5761180a611507565b5b5f611818868287016117e0565b935050602084013567ffffffffffffffff8111156118395761183861150b565b5b61184586828701611628565b92509250509250925092565b5f81519050919050565b5f82825260208201905092915050565b5f5b8381101561188857808201518184015260208101905061186d565b5f8484015250505050565b5f601f19601f8301169050919050565b5f6118ad82611851565b6118b7818561185b565b93506118c781856020860161186b565b6118d081611893565b840191505092915050565b5f6020820190508181035f8301526118f381846118a3565b905092915050565b5f602082840312156119105761190f611507565b5b5f61191d84828501611759565b91505092915050565b5f81519050919050565b5f82825260208201905092915050565b5f819050602082019050919050565b6119588161158e565b82525050565b5f611969838361194f565b60208301905092915050565b5f602082019050919050565b5f61198b82611926565b6119958185611930565b93506119a083611940565b805f5b838110156119d05781516119b7888261195e565b97506119c283611975565b9250506001810190506119a3565b5085935050505092915050565b5f6020820190508181035f8301526119f58184611981565b905092915050565b5f81519050611a0b81611743565b92915050565b5f60208284031215611a2657611a25611507565b5b5f611a33848285016119fd565b91505092915050565b5f82825260208201905092915050565b7f4f6e6c79207661756c742063616e2073657420706175736500000000000000005f82015250565b5f611a80601883611a3c565b9150611a8b82611a4c565b602082019050919050565b5f6020820190508181035f830152611aad81611a74565b9050919050565b7f4f6e6c79207661756c742063616e2065786974000000000000000000000000005f82015250565b5f611ae8601383611a3c565b9150611af382611ab4565b602082019050919050565b5f6020820190508181035f830152611b1581611adc565b9050919050565b828183375f83830152505050565b5f611b35838561185b565b9350611b42838584611b1c565b611b4b83611893565b840190509392505050565b5f604082019050611b695f8301866114df565b8181036020830152611b7c818486611b2a565b9050949350505050565b7f5265656e7472616e637947756172643a207265656e7472616e742063616c6c005f82015250565b5f611bba601f83611a3c565b9150611bc582611b86565b602082019050919050565b5f6020820190508181035f830152611be781611bae565b9050919050565b7f4f6e6c79207661756c742063616e2065786563757465000000000000000000005f82015250565b5f611c22601683611a3c565b9150611c2d82611bee565b602082019050919050565b5f6020820190508181035f830152611c4f81611c16565b9050919050565b7f53747261746567792069732070617573656400000000000000000000000000005f82015250565b5f611c8a601283611a3c565b9150611c9582611c56565b602082019050919050565b5f6020820190508181035f830152611cb781611c7e565b9050919050565b7f416d6f756e74206d75737420626520706f7369746976650000000000000000005f82015250565b5f611cf2601783611a3c565b9150611cfd82611cbe565b602082019050919050565b5f6020820190508181035f830152611d1f81611ce6565b9050919050565b7f4e487b71000000000000000000000000000000000000000000000000000000005f52601160045260245ffd5b5f611d5d826114d6565b9150611d68836114d6565b9250828201905080821115611d8057611d7f611d26565b5b92915050565b7f5969656c64206d75737420626520706f736974697665000000000000000000005f82015250565b5f611dba601683611a3c565b9150611dc582611d86565b602082019050919050565b5f6020820190508181035f830152611de781611dae565b9050919050565b7f4f6e6c79207661756c742063616e2063616c6c206861727665737400000000005f82015250565b5f611e22601b83611a3c565b9150611e2d82611dee565b602082019050919050565b5f6020820190508181035f830152611e4f81611e16565b9050919050565b5f611e60826114d6565b9150611e6b836114d6565b9250828203905081811115611e8357611e82611d26565b5b92915050565b5f6020820190508181035f830152611ea2818486611b2a565b90509392505050565b7f4e487b71000000000000000000000000000000000000000000000000000000005f52604160045260245ffd5b7f4e487b71000000000000000000000000000000000000000000000000000000005f52603260045260245ffd5b5f604082019050611f185f8301856115f4565b611f2560208301846114df565b9392505050565b5f606082019050611f3f5f8301866115f4565b611f4c60208301856115f4565b611f5960408301846114df565b949350505050565b5f819050919050565b611f7b611f76826114d6565b611f61565b82525050565b5f611f8c8286611f6a565b602082019150611f9c8285611f6a565b602082019150611fac8284611f6a565b602082019150819050949350505050565b7f4e487b71000000000000000000000000000000000000000000000000000000005f52601260045260245ffd5b5f611ff4826114d6565b9150611fff836114d6565b92508261200f5761200e611fbd565b5b828206905092915050565b5f815190506120288161151a565b92915050565b5f6020828403121561204357612042611507565b5b5f6120508482850161201a565b91505092915050565b7f5361666545524332303a204552433230206f7065726174696f6e20646964206e5f8201527f6f74207375636365656400000000000000000000000000000000000000000000602082015250565b5f6120b3602a83611a3c565b91506120be82612059565b604082019050919050565b5f6020820190508181035f8301526120e0816120a7565b9050919050565b7f416464726573733a20696e73756666696369656e742062616c616e636520666f5f8201527f722063616c6c0000000000000000000000000000000000000000000000000000602082015250565b5f612141602683611a3c565b915061214c826120e7565b604082019050919050565b5f6020820190508181035f83015261216e81612135565b9050919050565b7f416464726573733a2063616c6c20746f206e6f6e2d636f6e74726163740000005f82015250565b5f6121a9601d83611a3c565b91506121b482612175565b602082019050919050565b5f6020820190508181035f8301526121d68161219d565b9050919050565b5f81905092915050565b5f6121f182611851565b6121fb81856121dd565b935061220b81856020860161186b565b80840191505092915050565b5f61222282846121e7565b915081905092915050565b5f81519050919050565b5f6122418261222d565b61224b8185611a3c565b935061225b81856020860161186b565b61226481611893565b840191505092915050565b5f6020820190508181035f8301526122878184612237565b90509291505056fea264697066735822122028b5c5016c16b4bda27385e131da171c6b64509d3fbb6a0e4b559a0f014b5f1064736f6c63430008140033",
  "linkReferences": {},
  "deployedLinkReferences": {}
}