{
  "_format": "hh-sol-artifact-1",
  "contractName": "DicePoker",
  "sourceName": "contracts/CardPoker.sol",
  "abi": [
    {
      "inputs": [],
      "stateMutability": "nonpayable",
      "type": "constructor"
    },
    {
      "anonymous": false,
      "inputs": [
        {
          "indexed": true,
          "internalType": "address",
          "name": "player",
          "type": "address"
        },
        {
          "indexed": false,
          "internalType": "uint256",
          "name": "amount",
          "type": "uint256"
        }
      ],
      "name": "BetPlaced",
      "type": "event"
    },
    {
      "anonymous": false,
      "inputs": [
        {
          "indexed": true,
          "internalType": "address",
          "name": "player",
          "type": "address"
        },
        {
          "indexed": false,
          "internalType": "uint8[5]",
          "name": "dice",
          "type": "uint8[5]"
        }
      ],
      "name": "DiceRolled",
      "type": "event"
    },
    {
      "anonymous": false,
      "inputs": [
        {
          "indexed": true,
          "internalType": "address",
          "name": "player",
          "type": "address"
        }
      ],
      "name": "PlayerJoined",
      "type": "event"
    },
    {
      "anonymous": false,
      "inputs": [
        {
          "indexed": true,
          "internalType": "address",
          "name": "winner",
          "type": "address"
        },
        {
          "indexed": false,
          "internalType": "uint256",
          "name": "payout",
          "type": "uint256"
        }
      ],
      "name": "WinnerDeclared",
      "type": "event"
    },
    {
      "inputs": [],
      "name": "CADENCE_ARCH",
      "outputs": [
        {
          "internalType": "address",
          "name": "",
          "type": "address"
        }
      ],
      "stateMutability": "view",
      "type": "function"
    },
    {
      "inputs": [
        {
          "internalType": "uint256",
          "name": "",
          "type": "uint256"
        }
      ],
      "name": "bets",
      "outputs": [
        {
          "internalType": "uint256",
          "name": "",
          "type": "uint256"
        }
      ],
      "stateMutability": "view",
      "type": "function"
    },
    {
      "inputs": [],
      "name": "call",
      "outputs": [],
      "stateMutability": "payable",
      "type": "function"
    },
    {
      "inputs": [],
      "name": "currentBet",
      "outputs": [
        {
          "internalType": "uint256",
          "name": "",
          "type": "uint256"
        }
      ],
      "stateMutability": "view",
      "type": "function"
    },
    {
      "inputs": [],
      "name": "currentBettor",
      "outputs": [
        {
          "internalType": "address",
          "name": "",
          "type": "address"
        }
      ],
      "stateMutability": "view",
      "type": "function"
    },
    {
      "inputs": [],
      "name": "currentState",
      "outputs": [
        {
          "internalType": "enum DicePoker.GameState",
          "name": "",
          "type": "uint8"
        }
      ],
      "stateMutability": "view",
      "type": "function"
    },
    {
      "inputs": [],
      "name": "fold",
      "outputs": [],
      "stateMutability": "nonpayable",
      "type": "function"
    },
    {
      "inputs": [],
      "name": "gameEndedTimestamp",
      "outputs": [
        {
          "internalType": "uint256",
          "name": "",
          "type": "uint256"
        }
      ],
      "stateMutability": "view",
      "type": "function"
    },
    {
      "inputs": [],
      "name": "gameStarted",
      "outputs": [
        {
          "internalType": "bool",
          "name": "",
          "type": "bool"
        }
      ],
      "stateMutability": "view",
      "type": "function"
    },
    {
      "inputs": [],
      "name": "joinGame",
      "outputs": [],
      "stateMutability": "nonpayable",
      "type": "function"
    },
    {
      "inputs": [],
      "name": "placeBet",
      "outputs": [],
      "stateMutability": "payable",
      "type": "function"
    },
    {
      "inputs": [
        {
          "internalType": "uint256",
          "name": "",
          "type": "uint256"
        },
        {
          "internalType": "uint256",
          "name": "",
          "type": "uint256"
        }
      ],
      "name": "playerDice",
      "outputs": [
        {
          "internalType": "uint8",
          "name": "",
          "type": "uint8"
        }
      ],
      "stateMutability": "view",
      "type": "function"
    },
    {
      "inputs": [
        {
          "internalType": "uint256",
          "name": "",
          "type": "uint256"
        }
      ],
      "name": "players",
      "outputs": [
        {
          "internalType": "address",
          "name": "",
          "type": "address"
        }
      ],
      "stateMutability": "view",
      "type": "function"
    },
    {
      "inputs": [],
      "name": "pot",
      "outputs": [
        {
          "internalType": "uint256",
          "name": "",
          "type": "uint256"
        }
      ],
      "stateMutability": "view",
      "type": "function"
    },
    {
      "inputs": [],
      "name": "resetIfExpired",
      "outputs": [],
      "stateMutability": "nonpayable",
      "type": "function"
    },
    {
      "inputs": [],
      "name": "rollDice",
      "outputs": [],
      "stateMutability": "nonpayable",
      "type": "function"
    },
    {
      "inputs": [
        {
          "internalType": "address",
          "name": "player",
          "type": "address"
        }
      ],
      "name": "roundBet",
      "outputs": [
        {
          "internalType": "uint256",
          "name": "",
          "type": "uint256"
        }
      ],
      "stateMutability": "view",
      "type": "function"
    },
    {
      "inputs": [],
      "name": "winner",
      "outputs": [
        {
          "internalType": "address",
          "name": "",
          "type": "address"
        }
      ],
      "stateMutability": "view",
      "type": "function"
    },
    {
      "stateMutability": "payable",
      "type": "receive"
    }
  ],
  "bytecode": "0x60808060405234603157600e80546001600160a01b031916331790556000805460ff19169055611c8d90816100378239f35b600080fdfe608080604052600436101561001d575b50361561001b57600080fd5b005b60003560e01c9081630c3f6acf146116ae575080631acca80a1461165c57806322af00fa1461163057806328b5e32b1461139c5780634ba2363a1461137e5780635805dc161461135a5780635e123ce4146113375780637880e2fd14611283578063837e7cc614610bb5578063845ed0ab14610b88578063b2c2600a14610b6a578063d4f77b1c1461099b578063d504cb651461097d578063dfbf53ae14610954578063e684f46a146107e9578063f71d96cb146107b3578063f90f45601461026c5763fbbcb343146100f0573861000f565b346102675760003660031901126102675760ff60005416601c81101561025157601b0361021b57600d54600581018091116102055742106101d65760015b600381106101ca5760055b600781106101be5760075b600981106101b25760095b600b811061019057600060038190556004819055600b8054600c80546001600160a01b0319169055825460ff19169092556001600160a81b03199091169055005b806001809201815b8181106101a75750500161014f565b600081558301610198565b60008155600101610144565b60008155600101610139565b6000815560010161012e565b60405162461bcd60e51b81526020600482015260076024820152665761697420357360c81b6044820152606490fd5b634e487b7160e01b600052601160045260246000fd5b60405162461bcd60e51b815260206004820152600e60248201526d11d85b59481b9bdd08195b99195960921b6044820152606490fd5b634e487b7160e01b600052602160045260246000fd5b600080fd5b60003660031901126102675760ff600b54161561077b57600154336001600160a01b03909116036107745760005b60ff6000541690601c82101561025157600482116103ca576102be91503490611aae565b60ff60005416601c811015610251576001810361030e57506000805460ff1916600290811790915554600b8054610100600160a81b03191660089290921b610100600160a81b0316919091179055005b6002810361034e57506000805460ff19166003179055600154600b8054610100600160a81b03191660089290921b610100600160a81b0316919091179055005b60030361038c576000805460ff19166004179055600254600b8054610100600160a81b03191660089290921b610100600160a81b0316919091179055005b6000805460ff19166005178155600154600b8054610100600160a81b031916600892831b610100600160a81b03161790556007829055819055600455005b6000600a83116104eb57506103e191503490611aae565b60ff60005416601c811015610251576007810361042e57506000805460ff19166008908117909155600254600b8054610100600160a81b0319169190921b610100600160a81b0316179055005b6008810361046e57506000805460ff19166009179055600154600b8054610100600160a81b03191660089290921b610100600160a81b0316919091179055005b6009036104ac576000805460ff1916600a179055600254600b8054610100600160a81b03191660089290921b610100600160a81b0316919091179055005b6000805460ff1916600b90811782556001548154610100600160a81b031916600891821b610100600160a81b0316179091556007829055819055600455005b506010821161060b5761050091503490611aae565b60ff60005416601c81101561025157600d810361054f57506000805460ff1916600e179055600254600b8054610100600160a81b03191660089290921b610100600160a81b0316919091179055005b600e810361058f57506000805460ff1916600f179055600154600b8054610100600160a81b03191660089290921b610100600160a81b0316919091179055005b600f036105cd576000805460ff19166010179055600254600b8054610100600160a81b03191660089290921b610100600160a81b0316919091179055005b6000805460ff19166011178155600154600b8054610100600160a81b031916600892831b610100600160a81b03161790556007829055819055600455005b60009160161061073657610620903490611aae565b60ff815416601c811015610722576013810361066c5750805460ff19166014179055600254600b8054610100600160a81b03191660089290921b610100600160a81b0316919091179055005b601481036106aa5750805460ff19166015179055600154600b8054610100600160a81b03191660089290921b610100600160a81b0316919091179055005b6015036106e657805460ff19166016179055600254600b8054610100600160a81b03191660089290921b610100600160a81b0316919091179055005b805460ff19166017178155600154600b8054610100600160a81b031916600892831b610100600160a81b03161790556007829055819055600455005b634e487b7160e01b82526021600452602482fd5b60405162461bcd60e51b8152602060048201526016602482015275139bdd081a5b88184818995d1d1a5b99c81c9bdd5b9960521b6044820152606490fd5b600161029a565b60405162461bcd60e51b815260206004820152601060248201526f11d85b59481b9bdd081cdd185c9d195960821b6044820152606490fd5b3461026757602036600319011261026757600435600281101561026757600101546040516001600160a01b039091168152602090f35b346102675760003660031901126102675761080860ff600b54166116d6565b600154336001600160a01b039091160361094d5760005b60ff60005416601c811015908161025157600481119182159261092c575b8215610905575b82156108de575b5050156108a75760ff1660010360ff81116102055760028110156108915760018060a01b039060010154166001600160601b0360a01b600c541617600c5561001b6119b3565b634e487b7160e01b600052603260045260246000fd5b60405162461bcd60e51b815260206004820152600f60248201526e43616e6e6f7420666f6c64206e6f7760881b6044820152606490fd5b90915061025157601381101590816108f9575b50828061084b565b601691501115826108f1565b80925061025157600d8110158061091d575b91610844565b50600091506010811115610917565b5060009150600781101580610942575b9161083d565b50600a81111561093c565b600161081f565b3461026757600036600319011261026757600c546040516001600160a01b039091168152602090f35b34610267576000366003190112610267576020600454604051908152f35b346102675760003660031901126102675760ff60005416601c81101561025157610b33576001546001600160a01b03163381141580610b1e575b15610ae85715808015610ad5575b15610aa45715610a9d5760005b600281101561089157600101336001600160601b0360a01b825416179055337f31e760aa525306aba638a784082a013b6a1cc0a9a1789f3f22281c0453b10b1f600080a26001546001600160a01b0316151580610a89575b610a4e57005b600160ff1960005416176000556001600b546101008260a81b03825460081b16906affffffffffffffffffffff60a81b161717600b55600080f35b506002546001600160a01b03161515610a48565b60016109f0565b60405162461bcd60e51b815260206004820152600960248201526811d85b5948199d5b1b60ba1b6044820152606490fd5b506002546001600160a01b0316156109e3565b60405162461bcd60e51b815260206004820152600e60248201526d105b1c9958591e481a9bda5b995960921b6044820152606490fd5b506002546001600160a01b03163314156109d5565b60405162461bcd60e51b815260206004820152600f60248201526e43616e6e6f74206a6f696e206e6f7760881b6044820152606490fd5b34610267576000366003190112610267576020600d54604051908152f35b3461026757600036600319011261026757600b5460405160089190911c6001600160a01b03168152602090f35b3461026757600036600319011261026757610bd460ff600b54166116d6565b600154336001600160a01b039091160361127c5760005b60ff60005416601c811015610251576005811480611271575b15610c8c5750610c12611978565b90600281101561089157600901805460ff191660ff9092169190911781556040516000913391600080516020611c38833981519152918190610c54908261173a565b0390a2805460ff19166006179055600254600b8054610100600160a81b03191660089290921b610100600160a81b0316919091179055005b60006006821480611264575b15610d21575050610ca7611978565b90600281101561089157600901805460ff191660ff9092169190911781556040516000913391600080516020611c38833981519152918190610ce9908261173a565b0390a2805460ff19166007179055600154600b8054610100600160a81b03191660089290921b610100600160a81b0316919091179055005b50600b811480611259575b15610db65750610d3a611978565b9060028110156108915760090190815460ff80600160031b9316831b921b1916178155600090600080516020611c3883398151915260405180610d7e33948261173a565b0390a2805460ff1916600c179055600254600b8054610100600160a81b03191660089290921b610100600160a81b0316919091179055005b6000600c82148061124c575b15610e4d575050610dd1611978565b9060028110156108915760090190815460ff80600160031b9316831b921b1916178155600090600080516020611c3883398151915260405180610e1533948261173a565b0390a2805460ff1916600d179055600154600b8054610100600160a81b03191660089290921b610100600160a81b0316919091179055005b506011811480611241575b15610ee25750610e66611978565b9060028110156108915760090190815460ff80600260031b9316831b921b1916178155600090600080516020611c3883398151915260405180610eaa33948261173a565b0390a2805460ff19166012179055600254600b8054610100600160a81b03191660089290921b610100600160a81b0316919091179055005b60006012821480611234575b15610f79575050610efd611978565b9060028110156108915760090190815460ff80600260031b9316831b921b1916178155600090600080516020611c3883398151915260405180610f4133948261173a565b0390a2805460ff19166013179055600154600b8054610100600160a81b03191660089290921b610100600160a81b0316919091179055005b506017811480611229575b1561103f5750610f9261188e565b60ff610f9d8261171d565b51169160028110156108915760ff91610fcc9160090193845484806003801b9316831b921b191617845561172a565b5116600090825460ff80600460031b9316831b921b191617825550600080516020611c388339815191526040518061100533948261173a565b0390a26000805460ff19166018179055600254600b8054610100600160a81b03191660089290921b610100600160a81b0316919091179055005b906018600092148061121c575b156111d75761105961188e565b9060ff6110658361171d565b51169060028110156111c357600901805460189290921b63ff0000001663ff0000001990921691909117815560039160ff906110a09061172a565b511690600491815460ff80600460031b9316831b921b1916178155600080516020611c38833981519152604051806110d933948261173a565b0390a2825460ff191660191783558291829182915b600560ff84161061115d5750505061ffff9182169116808211156111405750506001546001600160a01b031690505b60018060a01b03166001600160601b0360a01b600c541617600c5561001b6119b3565b111561115857506002546001600160a01b031661111d565b61111d565b90919260058410156111b05760016111a660ff92838760051c9889600901611196601f8b169154928460f88d8c1b1694851c1690611962565b9a600a01905054901c1690611962565b94011691906110ee565b634e487b7160e01b865260328352602486fd5b634e487b7160e01b84526032600452602484fd5b60405162461bcd60e51b815260206004820152601d60248201527f4e6f7420696e20612072657665616c20706861736520666f7220796f750000006044820152606490fd5b50600160ff82161461104c565b5060ff821615610f84565b50600160ff841614610eee565b5060ff821615610e58565b50600160ff841614610dc2565b5060ff821615610d2c565b50600160ff841614610c98565b5060ff821615610c04565b6001610beb565b34610267576020366003190112610267576004356001600160a01b03811690819003610267576001546001600160a01b031681149081908115611322575b50156112ee57156112e75760005b60028110156108915760209060070154604051908152f35b60016112cf565b60405162461bcd60e51b815260206004820152600c60248201526b2737ba103090383630bcb2b960a11b6044820152606490fd5b6002546001600160a01b0316149050826112c1565b3461026757600036600319011261026757602060ff600b54166040519015158152f35b34610267576000366003190112610267576020604051680100000000000000018152f35b34610267576000366003190112610267576020600354604051908152f35b6000366003190112610267576113b660ff600b54166116d6565b600154336001600160a01b03909116036116295760005b6004546002821015610891578160070190815490818103908082116102055782146115f25734036115b557611403903490611710565b9055600501611413348254611710565b905561142134600354611710565b6003556040513481527f43e08d78302cdf9c94e1ffd293c2a3696139ee41cf3199b6f5eed9c7f6cc609060203392a260ff60005416601c81101561025157600481116114b257506000805460ff19166005179055600154600b8054610100600160a81b03191660089290921b610100600160a81b03169190911790555b600060075560006008556000600455600080f35b6000600a82116114f65750506000805460ff1916600b9081179091556001548154610100600160a81b03191660089190911b610100600160a81b031617905561149e565b506010811161153a57506000805460ff19166011179055600154600b8054610100600160a81b03191660089290921b610100600160a81b031691909117905561149e565b60009060161061157c57805460ff19166017179055600154600b8054610100600160a81b03191660089290921b610100600160a81b031691909117905561149e565b60405162461bcd60e51b81526020600482015260116024820152704e6f7420696e2063616c6c20706861736560781b6044820152606490fd5b60405162461bcd60e51b8152602060048201526015602482015274125b98dbdc9c9958dd0818d85b1b08185b5bdd5b9d605a1b6044820152606490fd5b60405162461bcd60e51b815260206004820152600f60248201526e139bdd1a1a5b99c81d1bc818d85b1b608a1b6044820152606490fd5b60016113cd565b346102675760203660031901126102675760043560028110156102675760209060050154604051908152f35b346102675760403660031901126102675760043560243560028210156102675760009160058210156116aa57600582901c016009015460405160039290921b60f8161c60ff16815260209150f35b8280fd5b346102675760003660031901126102675760ff6000541690601c821015610251576020918152f35b156116dd57565b60405162461bcd60e51b815260206004820152600b60248201526a139bdd081cdd185c9d195960aa1b6044820152606490fd5b9190820180921161020557565b8051156108915760200190565b8051600110156108915760400190565b919091608060ff60a0830194548181168452818160081c166020850152818160101c166040850152818160181c16606085015260201c16910152565b90601f8019910116810190811067ffffffffffffffff82111761179857604052565b634e487b7160e01b600052604160045260246000fd5b3d156117e9573d9067ffffffffffffffff821161179857604051916117dd601f8201601f191660200184611776565b82523d6000602084013e565b606090565b156117f557565b60405162461bcd60e51b815260206004820152602b60248201527f4661696c656420746f2066657463682072616e646f6d206e756d62657220667260448201526a37b690233637bb902b292360a91b6064820152608490fd5b90816020910312610267575167ffffffffffffffff811681036102675790565b67ffffffffffffffff60019116019067ffffffffffffffff821161020557565b60405190606061189e8184611776565b60028352601f190136602084013760005b60ff8116600281101561195e5760ff611928600667ffffffffffffffff6119216000806040516020810190630382fd5960e51b8252600481526118f3602482611776565b5190680100000000000000015afa61191261190c6117ae565b916117ee565b6020808251830101910161184e565b160661186e565b16906000855182101561194a575060051b84016020015260010160ff166118af565b634e487b7160e01b81526032600452602490fd5b5050565b9061ffff8091169116019061ffff821161020557565b60ff6119af600667ffffffffffffffff6119216000806040516020810190630382fd5960e51b8252600481526118f3602482611776565b1690565b600c546001600160a01b031615611a4757600080808060018060a01b03600c541660035490828215611a3e575bf115611a32575b60018060a01b03600c54167f3cf1af53e79884a92609ce59db1ec9f584d88e2d14c8eaba43a21db81318301e6020600354604051908152a242600d55601b60ff196000541617600055565b6040513d6000823e3d90fd5b506108fc6119e0565b600080808060018060a01b036001541660035460011c90828215611aa5575bf115611a3257600080808060018060a01b036002541660035460011c90828215611a9c575bf16119e7576040513d6000823e3d90fd5b506108fc611a8b565b506108fc611a66565b8115611c005760ff60005416601c81101590816102515760018114918215611bf2575b8215611be1575b8215611bd0575b505015611b5257816004555b60028110156108915780600701611b03838254611710565b9055600501611b13828254611710565b9055611b2181600354611710565b6003556040519081527f43e08d78302cdf9c94e1ffd293c2a3696139ee41cf3199b6f5eed9c7f6cc609060203392a2565b6002811015610891578060070154611b6a8382611710565b600454809110611ba0578390611b808284611710565b11611b8d575b5050611aeb565b611b9691611710565b6004553882611b86565b60405162461bcd60e51b8152602060048201526008602482015267155b99195c98995d60c21b6044820152606490fd5b909150610251576013143880611adf565b80925061025157600d811491611ad8565b506007811491506000611ad1565b60405162461bcd60e51b815260206004820152600f60248201526e0426574206d757374206265203e203608c1b6044820152606490fdfe2379bcc5530a8172a45f07a8b4e41d7a89f81cfb3a9032d2e10c17a4dbffcafea264697066735822122061c1714529465b837923bbb05369304ba6853ccafe2ed5de1427c4a4f5266cf864736f6c634300081c0033",
  "linkReferences": {},
  "deployedLinkReferences": {}
}