{
  "_format": "hh-sol-artifact-1",
  "contractName": "AuroraMultiVault",
  "sourceName": "contracts/deploy_contracts.sol",
  "abi": [
    {
      "inputs": [
        {
          "internalType": "address",
          "name": "_asset",
          "type": "address"
        },
        {
          "internalType": "string",
          "name": "_name",
          "type": "string"
        },
        {
          "internalType": "string",
          "name": "_symbol",
          "type": "string"
        }
      ],
      "stateMutability": "nonpayable",
      "type": "constructor"
    },
    {
      "anonymous": false,
      "inputs": [
        {
          "indexed": true,
          "internalType": "address",
          "name": "owner",
          "type": "address"
        },
        {
          "indexed": true,
          "internalType": "address",
          "name": "spender",
          "type": "address"
        },
        {
          "indexed": false,
          "internalType": "uint256",
          "name": "value",
          "type": "uint256"
        }
      ],
      "name": "Approval",
      "type": "event"
    },
    {
      "anonymous": false,
      "inputs": [
        {
          "indexed": true,
          "internalType": "address",
          "name": "strategy",
          "type": "address"
        },
        {
          "indexed": false,
          "internalType": "uint256",
          "name": "amount",
          "type": "uint256"
        }
      ],
      "name": "EmergencyExit",
      "type": "event"
    },
    {
      "anonymous": false,
      "inputs": [
        {
          "indexed": true,
          "internalType": "address",
          "name": "previousOwner",
          "type": "address"
        },
        {
          "indexed": true,
          "internalType": "address",
          "name": "newOwner",
          "type": "address"
        }
      ],
      "name": "OwnershipTransferred",
      "type": "event"
    },
    {
      "anonymous": false,
      "inputs": [
        {
          "indexed": true,
          "internalType": "address",
          "name": "strategy",
          "type": "address"
        },
        {
          "indexed": false,
          "internalType": "string",
          "name": "name",
          "type": "string"
        },
        {
          "indexed": false,
          "internalType": "uint256",
          "name": "allocation",
          "type": "uint256"
        }
      ],
      "name": "StrategyAdded",
      "type": "event"
    },
    {
      "anonymous": false,
      "inputs": [
        {
          "indexed": true,
          "internalType": "address",
          "name": "strategy",
          "type": "address"
        },
        {
          "indexed": false,
          "internalType": "uint256",
          "name": "oldBalance",
          "type": "uint256"
        },
        {
          "indexed": false,
          "internalType": "uint256",
          "name": "newBalance",
          "type": "uint256"
        }
      ],
      "name": "StrategyRebalanced",
      "type": "event"
    },
    {
      "anonymous": false,
      "inputs": [
        {
          "indexed": true,
          "internalType": "address",
          "name": "from",
          "type": "address"
        },
        {
          "indexed": true,
          "internalType": "address",
          "name": "to",
          "type": "address"
        },
        {
          "indexed": false,
          "internalType": "uint256",
          "name": "value",
          "type": "uint256"
        }
      ],
      "name": "Transfer",
      "type": "event"
    },
    {
      "anonymous": false,
      "inputs": [
        {
          "indexed": true,
          "internalType": "address",
          "name": "strategy",
          "type": "address"
        },
        {
          "indexed": false,
          "internalType": "uint256",
          "name": "amount",
          "type": "uint256"
        }
      ],
      "name": "YieldHarvested",
      "type": "event"
    },
    {
      "inputs": [],
      "name": "REBALANCE_INTERVAL",
      "outputs": [
        {
          "internalType": "uint256",
          "name": "",
          "type": "uint256"
        }
      ],
      "stateMutability": "view",
      "type": "function"
    },
    {
      "inputs": [
        {
          "internalType": "address",
          "name": "_strategy",
          "type": "address"
        },
        {
          "internalType": "string",
          "name": "_name",
          "type": "string"
        },
        {
          "internalType": "uint256",
          "name": "_allocation",
          "type": "uint256"
        }
      ],
      "name": "addStrategy",
      "outputs": [],
      "stateMutability": "nonpayable",
      "type": "function"
    },
    {
      "inputs": [
        {
          "internalType": "address",
          "name": "owner",
          "type": "address"
        },
        {
          "internalType": "address",
          "name": "spender",
          "type": "address"
        }
      ],
      "name": "allowance",
      "outputs": [
        {
          "internalType": "uint256",
          "name": "",
          "type": "uint256"
        }
      ],
      "stateMutability": "view",
      "type": "function"
    },
    {
      "inputs": [
        {
          "internalType": "address",
          "name": "spender",
          "type": "address"
        },
        {
          "internalType": "uint256",
          "name": "amount",
          "type": "uint256"
        }
      ],
      "name": "approve",
      "outputs": [
        {
          "internalType": "bool",
          "name": "",
          "type": "bool"
        }
      ],
      "stateMutability": "nonpayable",
      "type": "function"
    },
    {
      "inputs": [],
      "name": "asset",
      "outputs": [
        {
          "internalType": "contract IERC20",
          "name": "",
          "type": "address"
        }
      ],
      "stateMutability": "view",
      "type": "function"
    },
    {
      "inputs": [
        {
          "internalType": "address",
          "name": "account",
          "type": "address"
        }
      ],
      "name": "balanceOf",
      "outputs": [
        {
          "internalType": "uint256",
          "name": "",
          "type": "uint256"
        }
      ],
      "stateMutability": "view",
      "type": "function"
    },
    {
      "inputs": [
        {
          "internalType": "uint256",
          "name": "shares",
          "type": "uint256"
        }
      ],
      "name": "convertToAssets",
      "outputs": [
        {
          "internalType": "uint256",
          "name": "",
          "type": "uint256"
        }
      ],
      "stateMutability": "view",
      "type": "function"
    },
    {
      "inputs": [
        {
          "internalType": "uint256",
          "name": "assets",
          "type": "uint256"
        }
      ],
      "name": "convertToShares",
      "outputs": [
        {
          "internalType": "uint256",
          "name": "",
          "type": "uint256"
        }
      ],
      "stateMutability": "view",
      "type": "function"
    },
    {
      "inputs": [],
      "name": "decimals",
      "outputs": [
        {
          "internalType": "uint8",
          "name": "",
          "type": "uint8"
        }
      ],
      "stateMutability": "view",
      "type": "function"
    },
    {
      "inputs": [
        {
          "internalType": "address",
          "name": "spender",
          "type": "address"
        },
        {
          "internalType": "uint256",
          "name": "subtractedValue",
          "type": "uint256"
        }
      ],
      "name": "decreaseAllowance",
      "outputs": [
        {
          "internalType": "bool",
          "name": "",
          "type": "bool"
        }
      ],
      "stateMutability": "nonpayable",
      "type": "function"
    },
    {
      "inputs": [
        {
          "internalType": "uint256",
          "name": "assets",
          "type": "uint256"
        },
        {
          "internalType": "address",
          "name": "receiver",
          "type": "address"
        }
      ],
      "name": "deposit",
      "outputs": [
        {
          "internalType": "uint256",
          "name": "shares",
          "type": "uint256"
        }
      ],
      "stateMutability": "nonpayable",
      "type": "function"
    },
    {
      "inputs": [
        {
          "internalType": "address",
          "name": "strategy",
          "type": "address"
        },
        {
          "internalType": "uint256",
          "name": "amount",
          "type": "uint256"
        },
        {
          "internalType": "bytes",
          "name": "data",
          "type": "bytes"
        }
      ],
      "name": "depositToStrategy",
      "outputs": [],
      "stateMutability": "nonpayable",
      "type": "function"
    },
    {
      "inputs": [],
      "name": "emergencyExit",
      "outputs": [],
      "stateMutability": "nonpayable",
      "type": "function"
    },
    {
      "inputs": [],
      "name": "getStrategies",
      "outputs": [
        {
          "components": [
            {
              "internalType": "address",
              "name": "strategyAddress",
              "type": "address"
            },
            {
              "internalType": "uint256",
              "name": "allocation",
              "type": "uint256"
            },
            {
              "internalType": "uint256",
              "name": "balance",
              "type": "uint256"
            },
            {
              "internalType": "bool",
              "name": "active",
              "type": "bool"
            },
            {
              "internalType": "string",
              "name": "name",
              "type": "string"
            }
          ],
          "internalType": "struct AuroraMultiVault.Strategy[]",
          "name": "",
          "type": "tuple[]"
        }
      ],
      "stateMutability": "view",
      "type": "function"
    },
    {
      "inputs": [
        {
          "internalType": "address",
          "name": "strategyAddress",
          "type": "address"
        }
      ],
      "name": "getStrategy",
      "outputs": [
        {
          "components": [
            {
              "internalType": "address",
              "name": "strategyAddress",
              "type": "address"
            },
            {
              "internalType": "uint256",
              "name": "allocation",
              "type": "uint256"
            },
            {
              "internalType": "uint256",
              "name": "balance",
              "type": "uint256"
            },
            {
              "internalType": "bool",
              "name": "active",
              "type": "bool"
            },
            {
              "internalType": "string",
              "name": "name",
              "type": "string"
            }
          ],
          "internalType": "struct AuroraMultiVault.Strategy",
          "name": "",
          "type": "tuple"
        }
      ],
      "stateMutability": "view",
      "type": "function"
    },
    {
      "inputs": [
        {
          "internalType": "address",
          "name": "strategy",
          "type": "address"
        },
        {
          "internalType": "bytes",
          "name": "data",
          "type": "bytes"
        }
      ],
      "name": "harvestStrategy",
      "outputs": [],
      "stateMutability": "nonpayable",
      "type": "function"
    },
    {
      "inputs": [
        {
          "internalType": "address",
          "name": "spender",
          "type": "address"
        },
        {
          "internalType": "uint256",
          "name": "addedValue",
          "type": "uint256"
        }
      ],
      "name": "increaseAllowance",
      "outputs": [
        {
          "internalType": "bool",
          "name": "",
          "type": "bool"
        }
      ],
      "stateMutability": "nonpayable",
      "type": "function"
    },
    {
      "inputs": [
        {
          "internalType": "address",
          "name": "",
          "type": "address"
        }
      ],
      "name": "isStrategy",
      "outputs": [
        {
          "internalType": "bool",
          "name": "",
          "type": "bool"
        }
      ],
      "stateMutability": "view",
      "type": "function"
    },
    {
      "inputs": [],
      "name": "lastRebalance",
      "outputs": [
        {
          "internalType": "uint256",
          "name": "",
          "type": "uint256"
        }
      ],
      "stateMutability": "view",
      "type": "function"
    },
    {
      "inputs": [],
      "name": "name",
      "outputs": [
        {
          "internalType": "string",
          "name": "",
          "type": "string"
        }
      ],
      "stateMutability": "view",
      "type": "function"
    },
    {
      "inputs": [],
      "name": "owner",
      "outputs": [
        {
          "internalType": "address",
          "name": "",
          "type": "address"
        }
      ],
      "stateMutability": "view",
      "type": "function"
    },
    {
      "inputs": [
        {
          "internalType": "address[]",
          "name": "strategyAddresses",
          "type": "address[]"
        },
        {
          "internalType": "uint256[]",
          "name": "targetAmounts",
          "type": "uint256[]"
        }
      ],
      "name": "rebalance",
      "outputs": [],
      "stateMutability": "nonpayable",
      "type": "function"
    },
    {
      "inputs": [],
      "name": "renounceOwnership",
      "outputs": [],
      "stateMutability": "nonpayable",
      "type": "function"
    },
    {
      "inputs": [
        {
          "internalType": "uint256",
          "name": "",
          "type": "uint256"
        }
      ],
      "name": "strategies",
      "outputs": [
        {
          "internalType": "address",
          "name": "strategyAddress",
          "type": "address"
        },
        {
          "internalType": "uint256",
          "name": "allocation",
          "type": "uint256"
        },
        {
          "internalType": "uint256",
          "name": "balance",
          "type": "uint256"
        },
        {
          "internalType": "bool",
          "name": "active",
          "type": "bool"
        },
        {
          "internalType": "string",
          "name": "name",
          "type": "string"
        }
      ],
      "stateMutability": "view",
      "type": "function"
    },
    {
      "inputs": [
        {
          "internalType": "address",
          "name": "",
          "type": "address"
        }
      ],
      "name": "strategyIndex",
      "outputs": [
        {
          "internalType": "uint256",
          "name": "",
          "type": "uint256"
        }
      ],
      "stateMutability": "view",
      "type": "function"
    },
    {
      "inputs": [],
      "name": "symbol",
      "outputs": [
        {
          "internalType": "string",
          "name": "",
          "type": "string"
        }
      ],
      "stateMutability": "view",
      "type": "function"
    },
    {
      "inputs": [],
      "name": "totalAssets",
      "outputs": [
        {
          "internalType": "uint256",
          "name": "",
          "type": "uint256"
        }
      ],
      "stateMutability": "view",
      "type": "function"
    },
    {
      "inputs": [],
      "name": "totalDeployed",
      "outputs": [
        {
          "internalType": "uint256",
          "name": "",
          "type": "uint256"
        }
      ],
      "stateMutability": "view",
      "type": "function"
    },
    {
      "inputs": [],
      "name": "totalSupply",
      "outputs": [
        {
          "internalType": "uint256",
          "name": "",
          "type": "uint256"
        }
      ],
      "stateMutability": "view",
      "type": "function"
    },
    {
      "inputs": [
        {
          "internalType": "address",
          "name": "to",
          "type": "address"
        },
        {
          "internalType": "uint256",
          "name": "amount",
          "type": "uint256"
        }
      ],
      "name": "transfer",
      "outputs": [
        {
          "internalType": "bool",
          "name": "",
          "type": "bool"
        }
      ],
      "stateMutability": "nonpayable",
      "type": "function"
    },
    {
      "inputs": [
        {
          "internalType": "address",
          "name": "from",
          "type": "address"
        },
        {
          "internalType": "address",
          "name": "to",
          "type": "address"
        },
        {
          "internalType": "uint256",
          "name": "amount",
          "type": "uint256"
        }
      ],
      "name": "transferFrom",
      "outputs": [
        {
          "internalType": "bool",
          "name": "",
          "type": "bool"
        }
      ],
      "stateMutability": "nonpayable",
      "type": "function"
    },
    {
      "inputs": [
        {
          "internalType": "address",
          "name": "newOwner",
          "type": "address"
        }
      ],
      "name": "transferOwnership",
      "outputs": [],
      "stateMutability": "nonpayable",
      "type": "function"
    },
    {
      "inputs": [
        {
          "internalType": "uint256",
          "name": "assets",
          "type": "uint256"
        },
        {
          "internalType": "address",
          "name": "receiver",
          "type": "address"
        },
        {
          "internalType": "address",
          "name": "owner",
          "type": "address"
        }
      ],
      "name": "withdraw",
      "outputs": [
        {
          "internalType": "uint256",
          "name": "shares",
          "type": "uint256"
        }
      ],
      "stateMutability": "nonpayable",
      "type": "function"
    }
  ],
  "bytecode": "0x60a060405234801562000010575f80fd5b5060405162005a1438038062005a14833981810160405281019062000036919062000373565b8181816003908162000049919062000641565b5080600490816200005b919062000641565b5050506200007e62000072620000c360201b60201c565b620000ca60201b60201c565b60016006819055508273ffffffffffffffffffffffffffffffffffffffff1660808173ffffffffffffffffffffffffffffffffffffffff168152505050505062000725565b5f33905090565b5f60055f9054906101000a900473ffffffffffffffffffffffffffffffffffffffff1690508160055f6101000a81548173ffffffffffffffffffffffffffffffffffffffff021916908373ffffffffffffffffffffffffffffffffffffffff1602179055508173ffffffffffffffffffffffffffffffffffffffff168173ffffffffffffffffffffffffffffffffffffffff167f8be0079c531659141344cd1fd0a4f28419497f9722a3daafe3b4186f6b6457e060405160405180910390a35050565b5f604051905090565b5f80fd5b5f80fd5b5f73ffffffffffffffffffffffffffffffffffffffff82169050919050565b5f620001c9826200019e565b9050919050565b620001db81620001bd565b8114620001e6575f80fd5b50565b5f81519050620001f981620001d0565b92915050565b5f80fd5b5f80fd5b5f601f19601f8301169050919050565b7f4e487b71000000000000000000000000000000000000000000000000000000005f52604160045260245ffd5b6200024f8262000207565b810181811067ffffffffffffffff8211171562000271576200027062000217565b5b80604052505050565b5f620002856200018d565b905062000293828262000244565b919050565b5f67ffffffffffffffff821115620002b557620002b462000217565b5b620002c08262000207565b9050602081019050919050565b5f5b83811015620002ec578082015181840152602081019050620002cf565b5f8484015250505050565b5f6200030d620003078462000298565b6200027a565b9050828152602081018484840111156200032c576200032b62000203565b5b62000339848285620002cd565b509392505050565b5f82601f830112620003585762000357620001ff565b5b81516200036a848260208601620002f7565b91505092915050565b5f805f606084860312156200038d576200038c62000196565b5b5f6200039c86828701620001e9565b935050602084015167ffffffffffffffff811115620003c057620003bf6200019a565b5b620003ce8682870162000341565b925050604084015167ffffffffffffffff811115620003f257620003f16200019a565b5b620004008682870162000341565b9150509250925092565b5f81519050919050565b7f4e487b71000000000000000000000000000000000000000000000000000000005f52602260045260245ffd5b5f60028204905060018216806200045957607f821691505b6020821081036200046f576200046e62000414565b5b50919050565b5f819050815f5260205f209050919050565b5f6020601f8301049050919050565b5f82821b905092915050565b5f60088302620004d37fffffffffffffffffffffffffffffffffffffffffffffffffffffffffffffffff8262000496565b620004df868362000496565b95508019841693508086168417925050509392505050565b5f819050919050565b5f819050919050565b5f62000529620005236200051d84620004f7565b62000500565b620004f7565b9050919050565b5f819050919050565b620005448362000509565b6200055c620005538262000530565b848454620004a2565b825550505050565b5f90565b6200057262000564565b6200057f81848462000539565b505050565b5b81811015620005a6576200059a5f8262000568565b60018101905062000585565b5050565b601f821115620005f557620005bf8162000475565b620005ca8462000487565b81016020851015620005da578190505b620005f2620005e98562000487565b83018262000584565b50505b505050565b5f82821c905092915050565b5f620006175f1984600802620005fa565b1980831691505092915050565b5f62000631838362000606565b9150826002028217905092915050565b6200064c826200040a565b67ffffffffffffffff81111562000668576200066762000217565b5b62000674825462000441565b62000681828285620005aa565b5f60209050601f831160018114620006b7575f8415620006a2578287015190505b620006ae858262000624565b8655506200071d565b601f198416620006c78662000475565b5f5b82811015620006f057848901518255600182019150602085019450602081019050620006c9565b868310156200071057848901516200070c601f89168262000606565b8355505b6001600288020188555050505b505050505050565b60805161527b620007995f395f81816106c101528181610e5c01528181610f10015281816112200152818161152f015281816115dc0152818161197801528181611a3901528181611ce401528181611dbe0152818161207c015281816121c101528181612eb90152612fc8015261527b5ff3fe608060405234801561000f575f80fd5b50600436106101f9575f3560e01c80635c2da7cd11610118578063b460af94116100ab578063d2b3d6ce1161007a578063d2b3d6ce146105ef578063d574ea3d1461060b578063dd62ed3e1461063f578063f2fde38b1461066f578063f8806a131461068b576101f9565b8063b460af9414610555578063b49a60bb14610585578063bd07fdac146105a3578063c6e6f592146105bf576101f9565b80638da5cb5b116100e75780638da5cb5b146104b957806395d89b41146104d7578063a457c2d7146104f5578063a9059cbb14610525576101f9565b80635c2da7cd146104315780636e553f651461044f57806370a082311461047f578063715018a6146104af576101f9565b806323b872dd11610190578063313ce5671161015f578063313ce567146103bb57806338d52e0f146103d957806339509351146103f75780635641ec0314610427576101f9565b806323b872dd1461032357806326988bc5146103535780632be011901461036f5780632e8ebaae1461038b576101f9565b80630cfb14b0116101cc5780630cfb14b014610299578063106b9ca1146102b757806311451526146102d557806318160ddd14610305576101f9565b806301e1d114146101fd57806306fdde031461021b57806307a2d13a14610239578063095ea7b314610269575b5f80fd5b6102056106bb565b60405161021291906134ec565b60405180910390f35b610223610766565b604051610230919061358f565b60405180910390f35b610253600480360381019061024e91906135ea565b6107f6565b60405161026091906134ec565b60405180910390f35b610283600480360381019061027e919061366f565b610836565b60405161029091906136c7565b60405180910390f35b6102a1610858565b6040516102ae91906134ec565b60405180910390f35b6102bf61085e565b6040516102cc91906134ec565b60405180910390f35b6102ef60048036038101906102ea91906136e0565b610864565b6040516102fc91906134ec565b60405180910390f35b61030d610879565b60405161031a91906134ec565b60405180910390f35b61033d6004803603810190610338919061370b565b610882565b60405161034a91906136c7565b60405180910390f35b61036d60048036038101906103689190613887565b6108b0565b005b610389600480360381019061038491906139a5565b610b7b565b005b6103a560048036038101906103a091906136e0565b6111f9565b6040516103b291906136c7565b60405180910390f35b6103c3611216565b6040516103d09190613a3e565b60405180910390f35b6103e161121e565b6040516103ee9190613ab2565b60405180910390f35b610411600480360381019061040c919061366f565b611242565b60405161041e91906136c7565b60405180910390f35b61042f611278565b005b61043961148c565b60405161044691906134ec565b60405180910390f35b61046960048036038101906104649190613acb565b611492565b60405161047691906134ec565b60405180910390f35b610499600480360381019061049491906136e0565b61168f565b6040516104a691906134ec565b60405180910390f35b6104b76116d4565b005b6104c16116e7565b6040516104ce9190613b18565b60405180910390f35b6104df61170f565b6040516104ec919061358f565b60405180910390f35b61050f600480360381019061050a919061366f565b61179f565b60405161051c91906136c7565b60405180910390f35b61053f600480360381019061053a919061366f565b611814565b60405161054c91906136c7565b60405180910390f35b61056f600480360381019061056a9190613b31565b611836565b60405161057c91906134ec565b60405180910390f35b61058d611ae3565b60405161059a9190613d24565b60405180910390f35b6105bd60048036038101906105b89190613d99565b611c51565b005b6105d960048036038101906105d491906135ea565b611fa8565b6040516105e691906134ec565b60405180910390f35b61060960048036038101906106049190613e0a565b611fe8565b005b610625600480360381019061062091906135ea565b6122bf565b604051610636959493929190613e67565b60405180910390f35b61065960048036038101906106549190613ebf565b6123b1565b60405161066691906134ec565b60405180910390f35b610689600480360381019061068491906136e0565b612433565b005b6106a560048036038101906106a091906136e0565b6124b5565b6040516106b29190613f70565b60405180910390f35b5f600a547f000000000000000000000000000000000000000000000000000000000000000073ffffffffffffffffffffffffffffffffffffffff166370a08231306040518263ffffffff1660e01b81526004016107189190613b18565b602060405180830381865afa158015610733573d5f803e3d5ffd5b505050506040513d601f19601f820116820180604052508101906107579190613fa4565b6107619190613ffc565b905090565b6060600380546107759061405c565b80601f01602080910402602001604051908101604052809291908181526020018280546107a19061405c565b80156107ec5780601f106107c3576101008083540402835291602001916107ec565b820191905f5260205f20905b8154815290600101906020018083116107cf57829003601f168201915b5050505050905090565b5f80610800610879565b90505f811461082c57806108126106bb565b8461081d919061408c565b61082791906140fa565b61082e565b825b915050919050565b5f806108406126c7565b905061084d8185856126ce565b600191505092915050565b600a5481565b600b5481565b6009602052805f5260405f205f915090505481565b5f600254905090565b5f8061088c6126c7565b9050610899858285612891565b6108a485858561291c565b60019150509392505050565b6108b8612b91565b60085f8473ffffffffffffffffffffffffffffffffffffffff1673ffffffffffffffffffffffffffffffffffffffff1681526020019081526020015f205f9054906101000a900460ff1615610942576040517f08c379a000000000000000000000000000000000000000000000000000000000815260040161093990614174565b60405180910390fd5b611388811115610987576040517f08c379a000000000000000000000000000000000000000000000000000000000815260040161097e906141dc565b60405180910390fd5b60076040518060a001604052808573ffffffffffffffffffffffffffffffffffffffff1681526020018381526020015f815260200160011515815260200184815250908060018154018082558091505060019003905f5260205f2090600502015f909190919091505f820151815f015f6101000a81548173ffffffffffffffffffffffffffffffffffffffff021916908373ffffffffffffffffffffffffffffffffffffffff16021790555060208201518160010155604082015181600201556060820151816003015f6101000a81548160ff0219169083151502179055506080820151816004019081610a7b919061438e565b505050600160085f8573ffffffffffffffffffffffffffffffffffffffff1673ffffffffffffffffffffffffffffffffffffffff1681526020019081526020015f205f6101000a81548160ff0219169083151502179055506001600780549050610ae5919061445d565b60095f8573ffffffffffffffffffffffffffffffffffffffff1673ffffffffffffffffffffffffffffffffffffffff1681526020019081526020015f20819055508273ffffffffffffffffffffffffffffffffffffffff167f543e7b8634c9242067ab3532ce2794d4b6eb718cfc76ca756a581f0cfb1c6ce78383604051610b6e929190614490565b60405180910390a2505050565b610b83612b91565b818190508484905014610bcb576040517f08c379a0000000000000000000000000000000000000000000000000000000008152600401610bc290614508565b60405180910390fd5b610e10600b54610bdb9190613ffc565b421015610c1d576040517f08c379a0000000000000000000000000000000000000000000000000000000008152600401610c1490614570565b60405180910390fd5b5f805b83839050811015610c6557838382818110610c3e57610c3d61458e565b5b9050602002013582610c509190613ffc565b91508080610c5d906145bb565b915050610c20565b505f610c6f6106bb565b905080821115610cb4576040517f08c379a0000000000000000000000000000000000000000000000000000000008152600401610cab9061464c565b60405180910390fd5b5f5b6007805490508110156111e9575f60078281548110610cd857610cd761458e565b5b905f5260205f2090600502019050806003015f9054906101000a900460ff16610d0157506111d6565b5f805b89899050811015610dbf57825f015f9054906101000a900473ffffffffffffffffffffffffffffffffffffffff1673ffffffffffffffffffffffffffffffffffffffff168a8a83818110610d5b57610d5a61458e565b5b9050602002016020810190610d7091906136e0565b73ffffffffffffffffffffffffffffffffffffffff1603610dac57878782818110610d9e57610d9d61458e565b5b905060200201359150610dbf565b8080610db7906145bb565b915050610d04565b505f826002015490508183600201541115610e3a575f828460020154610de5919061445d565b9050610e13845f015f9054906101000a900473ffffffffffffffffffffffffffffffffffffffff1682612c0f565b82846002018190555080600a5f828254610e2d919061445d565b925050819055505061115c565b818360020154101561115b575f836002015483610e57919061445d565b90505f7f000000000000000000000000000000000000000000000000000000000000000073ffffffffffffffffffffffffffffffffffffffff166370a08231306040518263ffffffff1660e01b8152600401610eb39190613b18565b602060405180830381865afa158015610ece573d5f803e3d5ffd5b505050506040513d601f19601f82011682018060405250810190610ef29190613fa4565b90505f818311610f025782610f04565b815b90505f811115611157577f000000000000000000000000000000000000000000000000000000000000000073ffffffffffffffffffffffffffffffffffffffff1663095ea7b3875f015f9054906101000a900473ffffffffffffffffffffffffffffffffffffffff16836040518363ffffffff1660e01b8152600401610f8b92919061466a565b6020604051808303815f875af1158015610fa7573d5f803e3d5ffd5b505050506040513d601f19601f82011682018060405250810190610fcb91906146bb565b505f865f015f9054906101000a900473ffffffffffffffffffffffffffffffffffffffff1673ffffffffffffffffffffffffffffffffffffffff168260405160240161101791906134ec565b6040516020818303038152906040527fb6b55f25000000000000000000000000000000000000000000000000000000007bffffffffffffffffffffffffffffffffffffffffffffffffffffffff19166020820180517bffffffffffffffffffffffffffffffffffffffffffffffffffffffff83818316178352505050506040516110a1919061472a565b5f604051808303815f865af19150503d805f81146110da576040519150601f19603f3d011682016040523d82523d5f602084013e6110df565b606091505b5050905080611123576040517f08c379a000000000000000000000000000000000000000000000000000000000815260040161111a9061478a565b60405180910390fd5b81876002015f8282546111369190613ffc565b9250508190555081600a5f82825461114e9190613ffc565b92505081905550505b5050505b5b825f015f9054906101000a900473ffffffffffffffffffffffffffffffffffffffff1673ffffffffffffffffffffffffffffffffffffffff167fcfef212f6c1108beeb1e13f83ff6ea0970cd6b218a3c648d1eb86e57d0bb83f78285600201546040516111ca9291906147a8565b60405180910390a25050505b80806111e1906145bb565b915050610cb6565b5042600b81905550505050505050565b6008602052805f5260405f205f915054906101000a900460ff1681565b5f6012905090565b7f000000000000000000000000000000000000000000000000000000000000000081565b5f8061124c6126c7565b905061126d81858561125e85896123b1565b6112689190613ffc565b6126ce565b600191505092915050565b611280612b91565b5f5b60078054905081101561148957600781815481106112a3576112a261458e565b5b905f5260205f2090600502016003015f9054906101000a900460ff1680156112ed57505f600782815481106112db576112da61458e565b5b905f5260205f20906005020160020154115b1561147657611360600782815481106113095761130861458e565b5b905f5260205f2090600502015f015f9054906101000a900473ffffffffffffffffffffffffffffffffffffffff166007838154811061134b5761134a61458e565b5b905f5260205f20906005020160020154612c0f565b600781815481106113745761137361458e565b5b905f5260205f2090600502015f015f9054906101000a900473ffffffffffffffffffffffffffffffffffffffff1673ffffffffffffffffffffffffffffffffffffffff167ff779df072f94d207563b1ba8c286814086f1e6bb436a2652e307dccc56ed79e8600783815481106113ed576113ec61458e565b5b905f5260205f2090600502016002015460405161140a91906134ec565b60405180910390a2600781815481106114265761142561458e565b5b905f5260205f20906005020160020154600a5f828254611446919061445d565b925050819055505f600782815481106114625761146161458e565b5b905f5260205f209060050201600201819055505b8080611481906145bb565b915050611282565b50565b610e1081565b5f6002600654036114d8576040517f08c379a00000000000000000000000000000000000000000000000000000000081526004016114cf90614819565b60405180910390fd5b60026006819055505f8311611522576040517f08c379a000000000000000000000000000000000000000000000000000000000815260040161151990614881565b60405180910390fd5b61152b83611fa8565b90507f000000000000000000000000000000000000000000000000000000000000000073ffffffffffffffffffffffffffffffffffffffff166323b872dd3330866040518463ffffffff1660e01b815260040161158a9392919061489f565b6020604051808303815f875af11580156115a6573d5f803e3d5ffd5b505050506040513d601f19601f820116820180604052508101906115ca91906146bb565b506115d58282612d49565b633b9aca007f000000000000000000000000000000000000000000000000000000000000000073ffffffffffffffffffffffffffffffffffffffff166370a08231306040518263ffffffff1660e01b81526004016116339190613b18565b602060405180830381865afa15801561164e573d5f803e3d5ffd5b505050506040513d601f19601f820116820180604052508101906116729190613fa4565b111561168157611680612ea0565b5b600160068190555092915050565b5f805f8373ffffffffffffffffffffffffffffffffffffffff1673ffffffffffffffffffffffffffffffffffffffff1681526020019081526020015f20549050919050565b6116dc612b91565b6116e55f6130d9565b565b5f60055f9054906101000a900473ffffffffffffffffffffffffffffffffffffffff16905090565b60606004805461171e9061405c565b80601f016020809104026020016040519081016040528092919081815260200182805461174a9061405c565b80156117955780601f1061176c57610100808354040283529160200191611795565b820191905f5260205f20905b81548152906001019060200180831161177857829003601f168201915b5050505050905090565b5f806117a96126c7565b90505f6117b682866123b1565b9050838110156117fb576040517f08c379a00000000000000000000000000000000000000000000000000000000081526004016117f290614944565b60405180910390fd5b61180882868684036126ce565b60019250505092915050565b5f8061181e6126c7565b905061182b81858561291c565b600191505092915050565b5f60026006540361187c576040517f08c379a000000000000000000000000000000000000000000000000000000000815260040161187390614819565b60405180910390fd5b600260068190555061188d84611fa8565b90506118988261168f565b8111156118da576040517f08c379a00000000000000000000000000000000000000000000000000000000081526004016118d1906149ac565b60405180910390fd5b8173ffffffffffffffffffffffffffffffffffffffff163373ffffffffffffffffffffffffffffffffffffffff1614611975575f61191883336123b1565b90508181101561195d576040517f08c379a000000000000000000000000000000000000000000000000000000000815260040161195490614a14565b60405180910390fd5b6119738333848461196e919061445d565b6126ce565b505b5f7f000000000000000000000000000000000000000000000000000000000000000073ffffffffffffffffffffffffffffffffffffffff166370a08231306040518263ffffffff1660e01b81526004016119cf9190613b18565b602060405180830381865afa1580156119ea573d5f803e3d5ffd5b505050506040513d601f19601f82011682018060405250810190611a0e9190613fa4565b905084811015611a2d57611a2c8186611a27919061445d565b61319c565b5b611a3783836132bb565b7f000000000000000000000000000000000000000000000000000000000000000073ffffffffffffffffffffffffffffffffffffffff1663a9059cbb85876040518363ffffffff1660e01b8152600401611a9292919061466a565b6020604051808303815f875af1158015611aae573d5f803e3d5ffd5b505050506040513d601f19601f82011682018060405250810190611ad291906146bb565b505060016006819055509392505050565b60606007805480602002602001604051908101604052809291908181526020015f905b82821015611c48578382905f5260205f2090600502016040518060a00160405290815f82015f9054906101000a900473ffffffffffffffffffffffffffffffffffffffff1673ffffffffffffffffffffffffffffffffffffffff1673ffffffffffffffffffffffffffffffffffffffff1681526020016001820154815260200160028201548152602001600382015f9054906101000a900460ff16151515158152602001600482018054611bb99061405c565b80601f0160208091040260200160405190810160405280929190818152602001828054611be59061405c565b8015611c305780601f10611c0757610100808354040283529160200191611c30565b820191905f5260205f20905b815481529060010190602001808311611c1357829003601f168201915b50505050508152505081526020019060010190611b06565b50505050905090565b611c59612b91565b60085f8573ffffffffffffffffffffffffffffffffffffffff1673ffffffffffffffffffffffffffffffffffffffff1681526020019081526020015f205f9054906101000a900460ff16611ce2576040517f08c379a0000000000000000000000000000000000000000000000000000000008152600401611cd990614a7c565b60405180910390fd5b7f000000000000000000000000000000000000000000000000000000000000000073ffffffffffffffffffffffffffffffffffffffff166370a08231306040518263ffffffff1660e01b8152600401611d3b9190613b18565b602060405180830381865afa158015611d56573d5f803e3d5ffd5b505050506040513d601f19601f82011682018060405250810190611d7a9190613fa4565b831115611dbc576040517f08c379a0000000000000000000000000000000000000000000000000000000008152600401611db390614ae4565b60405180910390fd5b7f000000000000000000000000000000000000000000000000000000000000000073ffffffffffffffffffffffffffffffffffffffff1663a9059cbb85856040518363ffffffff1660e01b8152600401611e1792919061466a565b6020604051808303815f875af1158015611e33573d5f803e3d5ffd5b505050506040513d601f19601f82011682018060405250810190611e5791906146bb565b505f60095f8673ffffffffffffffffffffffffffffffffffffffff1673ffffffffffffffffffffffffffffffffffffffff1681526020019081526020015f205490508360078281548110611eae57611ead61458e565b5b905f5260205f2090600502016002015f828254611ecb9190613ffc565b9250508190555083600a5f828254611ee39190613ffc565b925050819055505f838390501115611fa1575f8573ffffffffffffffffffffffffffffffffffffffff168484604051611f1d929190614b26565b5f604051808303815f865af19150503d805f8114611f56576040519150601f19603f3d011682016040523d82523d5f602084013e611f5b565b606091505b5050905080611f9f576040517f08c379a0000000000000000000000000000000000000000000000000000000008152600401611f9690614b88565b60405180910390fd5b505b5050505050565b5f80611fb2610879565b90505f8114611fde57611fc36106bb565b8184611fcf919061408c565b611fd991906140fa565b611fe0565b825b915050919050565b611ff0612b91565b60085f8473ffffffffffffffffffffffffffffffffffffffff1673ffffffffffffffffffffffffffffffffffffffff1681526020019081526020015f205f9054906101000a900460ff16612079576040517f08c379a000000000000000000000000000000000000000000000000000000000815260040161207090614a7c565b60405180910390fd5b5f7f000000000000000000000000000000000000000000000000000000000000000073ffffffffffffffffffffffffffffffffffffffff166370a08231306040518263ffffffff1660e01b81526004016120d39190613b18565b602060405180830381865afa1580156120ee573d5f803e3d5ffd5b505050506040513d601f19601f820116820180604052508101906121129190613fa4565b90505f8473ffffffffffffffffffffffffffffffffffffffff16848460405161213c929190614b26565b5f604051808303815f865af19150503d805f8114612175576040519150601f19603f3d011682016040523d82523d5f602084013e61217a565b606091505b50509050806121be576040517f08c379a00000000000000000000000000000000000000000000000000000000081526004016121b590614bf0565b60405180910390fd5b5f7f000000000000000000000000000000000000000000000000000000000000000073ffffffffffffffffffffffffffffffffffffffff166370a08231306040518263ffffffff1660e01b81526004016122189190613b18565b602060405180830381865afa158015612233573d5f803e3d5ffd5b505050506040513d601f19601f820116820180604052508101906122579190613fa4565b90505f8382612266919061445d565b90508673ffffffffffffffffffffffffffffffffffffffff167faf070de27b945892aaad9c44ade61c1ac81cc8459711bba886304b1a2bf847a8826040516122ae91906134ec565b60405180910390a250505050505050565b600781815481106122ce575f80fd5b905f5260205f2090600502015f91509050805f015f9054906101000a900473ffffffffffffffffffffffffffffffffffffffff1690806001015490806002015490806003015f9054906101000a900460ff16908060040180546123309061405c565b80601f016020809104026020016040519081016040528092919081815260200182805461235c9061405c565b80156123a75780601f1061237e576101008083540402835291602001916123a7565b820191905f5260205f20905b81548152906001019060200180831161238a57829003601f168201915b5050505050905085565b5f60015f8473ffffffffffffffffffffffffffffffffffffffff1673ffffffffffffffffffffffffffffffffffffffff1681526020019081526020015f205f8373ffffffffffffffffffffffffffffffffffffffff1673ffffffffffffffffffffffffffffffffffffffff1681526020019081526020015f2054905092915050565b61243b612b91565b5f73ffffffffffffffffffffffffffffffffffffffff168173ffffffffffffffffffffffffffffffffffffffff16036124a9576040517f08c379a00000000000000000000000000000000000000000000000000000000081526004016124a090614c7e565b60405180910390fd5b6124b2816130d9565b50565b6124bd613491565b60085f8373ffffffffffffffffffffffffffffffffffffffff1673ffffffffffffffffffffffffffffffffffffffff1681526020019081526020015f205f9054906101000a900460ff16612546576040517f08c379a000000000000000000000000000000000000000000000000000000000815260040161253d90614a7c565b60405180910390fd5b600760095f8473ffffffffffffffffffffffffffffffffffffffff1673ffffffffffffffffffffffffffffffffffffffff1681526020019081526020015f2054815481106125975761259661458e565b5b905f5260205f2090600502016040518060a00160405290815f82015f9054906101000a900473ffffffffffffffffffffffffffffffffffffffff1673ffffffffffffffffffffffffffffffffffffffff1673ffffffffffffffffffffffffffffffffffffffff1681526020016001820154815260200160028201548152602001600382015f9054906101000a900460ff161515151581526020016004820180546126409061405c565b80601f016020809104026020016040519081016040528092919081815260200182805461266c9061405c565b80156126b75780601f1061268e576101008083540402835291602001916126b7565b820191905f5260205f20905b81548152906001019060200180831161269a57829003601f168201915b5050505050815250509050919050565b5f33905090565b5f73ffffffffffffffffffffffffffffffffffffffff168373ffffffffffffffffffffffffffffffffffffffff160361273c576040517f08c379a000000000000000000000000000000000000000000000000000000000815260040161273390614d0c565b60405180910390fd5b5f73ffffffffffffffffffffffffffffffffffffffff168273ffffffffffffffffffffffffffffffffffffffff16036127aa576040517f08c379a00000000000000000000000000000000000000000000000000000000081526004016127a190614d9a565b60405180910390fd5b8060015f8573ffffffffffffffffffffffffffffffffffffffff1673ffffffffffffffffffffffffffffffffffffffff1681526020019081526020015f205f8473ffffffffffffffffffffffffffffffffffffffff1673ffffffffffffffffffffffffffffffffffffffff1681526020019081526020015f20819055508173ffffffffffffffffffffffffffffffffffffffff168373ffffffffffffffffffffffffffffffffffffffff167f8c5be1e5ebec7d5bd14f71427d1e84f3dd0314c0f7b2291e5b200ac8c7c3b9258360405161288491906134ec565b60405180910390a3505050565b5f61289c84846123b1565b90507fffffffffffffffffffffffffffffffffffffffffffffffffffffffffffffffff81146129165781811015612908576040517f08c379a00000000000000000000000000000000000000000000000000000000081526004016128ff90614e02565b60405180910390fd5b61291584848484036126ce565b5b50505050565b5f73ffffffffffffffffffffffffffffffffffffffff168373ffffffffffffffffffffffffffffffffffffffff160361298a576040517f08c379a000000000000000000000000000000000000000000000000000000000815260040161298190614e90565b60405180910390fd5b5f73ffffffffffffffffffffffffffffffffffffffff168273ffffffffffffffffffffffffffffffffffffffff16036129f8576040517f08c379a00000000000000000000000000000000000000000000000000000000081526004016129ef90614f1e565b60405180910390fd5b612a03838383613487565b5f805f8573ffffffffffffffffffffffffffffffffffffffff1673ffffffffffffffffffffffffffffffffffffffff1681526020019081526020015f2054905081811015612a86576040517f08c379a0000000000000000000000000000000000000000000000000000000008152600401612a7d90614fac565b60405180910390fd5b8181035f808673ffffffffffffffffffffffffffffffffffffffff1673ffffffffffffffffffffffffffffffffffffffff1681526020019081526020015f2081905550815f808573ffffffffffffffffffffffffffffffffffffffff1673ffffffffffffffffffffffffffffffffffffffff1681526020019081526020015f205f828254612b149190613ffc565b925050819055508273ffffffffffffffffffffffffffffffffffffffff168473ffffffffffffffffffffffffffffffffffffffff167fddf252ad1be2c89b69c2b068fc378daa952ba7f163c4a11628f55a4df523b3ef84604051612b7891906134ec565b60405180910390a3612b8b84848461348c565b50505050565b612b996126c7565b73ffffffffffffffffffffffffffffffffffffffff16612bb76116e7565b73ffffffffffffffffffffffffffffffffffffffff1614612c0d576040517f08c379a0000000000000000000000000000000000000000000000000000000008152600401612c0490615014565b60405180910390fd5b565b5f8273ffffffffffffffffffffffffffffffffffffffff1682604051602401612c3891906134ec565b6040516020818303038152906040527f2e1a7d4d000000000000000000000000000000000000000000000000000000007bffffffffffffffffffffffffffffffffffffffffffffffffffffffff19166020820180517bffffffffffffffffffffffffffffffffffffffffffffffffffffffff8381831617835250505050604051612cc2919061472a565b5f604051808303815f865af19150503d805f8114612cfb576040519150601f19603f3d011682016040523d82523d5f602084013e612d00565b606091505b5050905080612d44576040517f08c379a0000000000000000000000000000000000000000000000000000000008152600401612d3b9061507c565b60405180910390fd5b505050565b5f73ffffffffffffffffffffffffffffffffffffffff168273ffffffffffffffffffffffffffffffffffffffff1603612db7576040517f08c379a0000000000000000000000000000000000000000000000000000000008152600401612dae906150e4565b60405180910390fd5b612dc25f8383613487565b8060025f828254612dd39190613ffc565b92505081905550805f808473ffffffffffffffffffffffffffffffffffffffff1673ffffffffffffffffffffffffffffffffffffffff1681526020019081526020015f205f828254612e259190613ffc565b925050819055508173ffffffffffffffffffffffffffffffffffffffff165f73ffffffffffffffffffffffffffffffffffffffff167fddf252ad1be2c89b69c2b068fc378daa952ba7f163c4a11628f55a4df523b3ef83604051612e8991906134ec565b60405180910390a3612e9c5f838361348c565b5050565b610e10600b54612eb09190613ffc565b42106130d7575f7f000000000000000000000000000000000000000000000000000000000000000073ffffffffffffffffffffffffffffffffffffffff166370a08231306040518263ffffffff1660e01b8152600401612f109190613b18565b602060405180830381865afa158015612f2b573d5f803e3d5ffd5b505050506040513d601f19601f82011682018060405250810190612f4f9190613fa4565b90505f5b6007805490508110156130cd575f60078281548110612f7557612f7461458e565b5b905f5260205f2090600502019050806003015f9054906101000a900460ff16612f9e57506130ba565b5f612710826001015485612fb2919061408c565b612fbc91906140fa565b90505f8111156130b7577f000000000000000000000000000000000000000000000000000000000000000073ffffffffffffffffffffffffffffffffffffffff1663a9059cbb835f015f9054906101000a900473ffffffffffffffffffffffffffffffffffffffff16836040518363ffffffff1660e01b815260040161304392919061466a565b6020604051808303815f875af115801561305f573d5f803e3d5ffd5b505050506040513d601f19601f8201168201806040525081019061308391906146bb565b5080826002015f8282546130979190613ffc565b9250508190555080600a5f8282546130af9190613ffc565b925050819055505b50505b80806130c5906145bb565b915050612f53565b5042600b81905550505b565b5f60055f9054906101000a900473ffffffffffffffffffffffffffffffffffffffff1690508160055f6101000a81548173ffffffffffffffffffffffffffffffffffffffff021916908373ffffffffffffffffffffffffffffffffffffffff1602179055508173ffffffffffffffffffffffffffffffffffffffff168173ffffffffffffffffffffffffffffffffffffffff167f8be0079c531659141344cd1fd0a4f28419497f9722a3daafe3b4186f6b6457e060405160405180910390a35050565b5f8190505f60078054905090505b5f8111156132b6575f60076001836131c2919061445d565b815481106131d3576131d261458e565b5b905f5260205f2090600502019050806003015f9054906101000a900460ff16158061320157505f8160020154145b1561320c57506132a3565b5f8160020154841161321e5783613224565b81600201545b9050613252825f015f9054906101000a900473ffffffffffffffffffffffffffffffffffffffff1682612c0f565b80826002015f828254613265919061445d565b9250508190555080600a5f82825461327d919061445d565b925050819055508084613290919061445d565b93505f84036132a05750506132b6565b50505b80806132ae90615102565b9150506131aa565b505050565b5f73ffffffffffffffffffffffffffffffffffffffff168273ffffffffffffffffffffffffffffffffffffffff1603613329576040517f08c379a000000000000000000000000000000000000000000000000000000000815260040161332090615199565b60405180910390fd5b613334825f83613487565b5f805f8473ffffffffffffffffffffffffffffffffffffffff1673ffffffffffffffffffffffffffffffffffffffff1681526020019081526020015f20549050818110156133b7576040517f08c379a00000000000000000000000000000000000000000000000000000000081526004016133ae90615227565b60405180910390fd5b8181035f808573ffffffffffffffffffffffffffffffffffffffff1673ffffffffffffffffffffffffffffffffffffffff1681526020019081526020015f20819055508160025f82825461340b919061445d565b925050819055505f73ffffffffffffffffffffffffffffffffffffffff168373ffffffffffffffffffffffffffffffffffffffff167fddf252ad1be2c89b69c2b068fc378daa952ba7f163c4a11628f55a4df523b3ef8460405161346f91906134ec565b60405180910390a3613482835f8461348c565b505050565b505050565b505050565b6040518060a001604052805f73ffffffffffffffffffffffffffffffffffffffff1681526020015f81526020015f81526020015f15158152602001606081525090565b5f819050919050565b6134e6816134d4565b82525050565b5f6020820190506134ff5f8301846134dd565b92915050565b5f81519050919050565b5f82825260208201905092915050565b5f5b8381101561353c578082015181840152602081019050613521565b5f8484015250505050565b5f601f19601f8301169050919050565b5f61356182613505565b61356b818561350f565b935061357b81856020860161351f565b61358481613547565b840191505092915050565b5f6020820190508181035f8301526135a78184613557565b905092915050565b5f604051905090565b5f80fd5b5f80fd5b6135c9816134d4565b81146135d3575f80fd5b50565b5f813590506135e4816135c0565b92915050565b5f602082840312156135ff576135fe6135b8565b5b5f61360c848285016135d6565b91505092915050565b5f73ffffffffffffffffffffffffffffffffffffffff82169050919050565b5f61363e82613615565b9050919050565b61364e81613634565b8114613658575f80fd5b50565b5f8135905061366981613645565b92915050565b5f8060408385031215613685576136846135b8565b5b5f6136928582860161365b565b92505060206136a3858286016135d6565b9150509250929050565b5f8115159050919050565b6136c1816136ad565b82525050565b5f6020820190506136da5f8301846136b8565b92915050565b5f602082840312156136f5576136f46135b8565b5b5f6137028482850161365b565b91505092915050565b5f805f60608486031215613722576137216135b8565b5b5f61372f8682870161365b565b93505060206137408682870161365b565b9250506040613751868287016135d6565b9150509250925092565b5f80fd5b5f80fd5b7f4e487b71000000000000000000000000000000000000000000000000000000005f52604160045260245ffd5b61379982613547565b810181811067ffffffffffffffff821117156137b8576137b7613763565b5b80604052505050565b5f6137ca6135af565b90506137d68282613790565b919050565b5f67ffffffffffffffff8211156137f5576137f4613763565b5b6137fe82613547565b9050602081019050919050565b828183375f83830152505050565b5f61382b613826846137db565b6137c1565b9050828152602081018484840111156138475761384661375f565b5b61385284828561380b565b509392505050565b5f82601f83011261386e5761386d61375b565b5b813561387e848260208601613819565b91505092915050565b5f805f6060848603121561389e5761389d6135b8565b5b5f6138ab8682870161365b565b935050602084013567ffffffffffffffff8111156138cc576138cb6135bc565b5b6138d88682870161385a565b92505060406138e9868287016135d6565b9150509250925092565b5f80fd5b5f80fd5b5f8083601f8401126139105761390f61375b565b5b8235905067ffffffffffffffff81111561392d5761392c6138f3565b5b602083019150836020820283011115613949576139486138f7565b5b9250929050565b5f8083601f8401126139655761396461375b565b5b8235905067ffffffffffffffff811115613982576139816138f3565b5b60208301915083602082028301111561399e5761399d6138f7565b5b9250929050565b5f805f80604085870312156139bd576139bc6135b8565b5b5f85013567ffffffffffffffff8111156139da576139d96135bc565b5b6139e6878288016138fb565b9450945050602085013567ffffffffffffffff811115613a0957613a086135bc565b5b613a1587828801613950565b925092505092959194509250565b5f60ff82169050919050565b613a3881613a23565b82525050565b5f602082019050613a515f830184613a2f565b92915050565b5f819050919050565b5f613a7a613a75613a7084613615565b613a57565b613615565b9050919050565b5f613a8b82613a60565b9050919050565b5f613a9c82613a81565b9050919050565b613aac81613a92565b82525050565b5f602082019050613ac55f830184613aa3565b92915050565b5f8060408385031215613ae157613ae06135b8565b5b5f613aee858286016135d6565b9250506020613aff8582860161365b565b9150509250929050565b613b1281613634565b82525050565b5f602082019050613b2b5f830184613b09565b92915050565b5f805f60608486031215613b4857613b476135b8565b5b5f613b55868287016135d6565b9350506020613b668682870161365b565b9250506040613b778682870161365b565b9150509250925092565b5f81519050919050565b5f82825260208201905092915050565b5f819050602082019050919050565b613bb381613634565b82525050565b613bc2816134d4565b82525050565b613bd1816136ad565b82525050565b5f82825260208201905092915050565b5f613bf182613505565b613bfb8185613bd7565b9350613c0b81856020860161351f565b613c1481613547565b840191505092915050565b5f60a083015f830151613c345f860182613baa565b506020830151613c476020860182613bb9565b506040830151613c5a6040860182613bb9565b506060830151613c6d6060860182613bc8565b5060808301518482036080860152613c858282613be7565b9150508091505092915050565b5f613c9d8383613c1f565b905092915050565b5f602082019050919050565b5f613cbb82613b81565b613cc58185613b8b565b935083602082028501613cd785613b9b565b805f5b85811015613d125784840389528151613cf38582613c92565b9450613cfe83613ca5565b925060208a01995050600181019050613cda565b50829750879550505050505092915050565b5f6020820190508181035f830152613d3c8184613cb1565b905092915050565b5f8083601f840112613d5957613d5861375b565b5b8235905067ffffffffffffffff811115613d7657613d756138f3565b5b602083019150836001820283011115613d9257613d916138f7565b5b9250929050565b5f805f8060608587031215613db157613db06135b8565b5b5f613dbe8782880161365b565b9450506020613dcf878288016135d6565b935050604085013567ffffffffffffffff811115613df057613def6135bc565b5b613dfc87828801613d44565b925092505092959194509250565b5f805f60408486031215613e2157613e206135b8565b5b5f613e2e8682870161365b565b935050602084013567ffffffffffffffff811115613e4f57613e4e6135bc565b5b613e5b86828701613d44565b92509250509250925092565b5f60a082019050613e7a5f830188613b09565b613e8760208301876134dd565b613e9460408301866134dd565b613ea160608301856136b8565b8181036080830152613eb38184613557565b90509695505050505050565b5f8060408385031215613ed557613ed46135b8565b5b5f613ee28582860161365b565b9250506020613ef38582860161365b565b9150509250929050565b5f60a083015f830151613f125f860182613baa565b506020830151613f256020860182613bb9565b506040830151613f386040860182613bb9565b506060830151613f4b6060860182613bc8565b5060808301518482036080860152613f638282613be7565b9150508091505092915050565b5f6020820190508181035f830152613f888184613efd565b905092915050565b5f81519050613f9e816135c0565b92915050565b5f60208284031215613fb957613fb86135b8565b5b5f613fc684828501613f90565b91505092915050565b7f4e487b71000000000000000000000000000000000000000000000000000000005f52601160045260245ffd5b5f614006826134d4565b9150614011836134d4565b925082820190508082111561402957614028613fcf565b5b92915050565b7f4e487b71000000000000000000000000000000000000000000000000000000005f52602260045260245ffd5b5f600282049050600182168061407357607f821691505b6020821081036140865761408561402f565b5b50919050565b5f614096826134d4565b91506140a1836134d4565b92508282026140af816134d4565b915082820484148315176140c6576140c5613fcf565b5b5092915050565b7f4e487b71000000000000000000000000000000000000000000000000000000005f52601260045260245ffd5b5f614104826134d4565b915061410f836134d4565b92508261411f5761411e6140cd565b5b828204905092915050565b7f53747261746567792065786973747300000000000000000000000000000000005f82015250565b5f61415e600f8361350f565b91506141698261412a565b602082019050919050565b5f6020820190508181035f83015261418b81614152565b9050919050565b7f4d61782035302520616c6c6f636174696f6e00000000000000000000000000005f82015250565b5f6141c660128361350f565b91506141d182614192565b602082019050919050565b5f6020820190508181035f8301526141f3816141ba565b9050919050565b5f819050815f5260205f209050919050565b5f6020601f8301049050919050565b5f82821b905092915050565b5f600883026142567fffffffffffffffffffffffffffffffffffffffffffffffffffffffffffffffff8261421b565b614260868361421b565b95508019841693508086168417925050509392505050565b5f61429261428d614288846134d4565b613a57565b6134d4565b9050919050565b5f819050919050565b6142ab83614278565b6142bf6142b782614299565b848454614227565b825550505050565b5f90565b6142d36142c7565b6142de8184846142a2565b505050565b5b81811015614301576142f65f826142cb565b6001810190506142e4565b5050565b601f82111561434657614317816141fa565b6143208461420c565b8101602085101561432f578190505b61434361433b8561420c565b8301826142e3565b50505b505050565b5f82821c905092915050565b5f6143665f198460080261434b565b1980831691505092915050565b5f61437e8383614357565b9150826002028217905092915050565b61439782613505565b67ffffffffffffffff8111156143b0576143af613763565b5b6143ba825461405c565b6143c5828285614305565b5f60209050601f8311600181146143f6575f84156143e4578287015190505b6143ee8582614373565b865550614455565b601f198416614404866141fa565b5f5b8281101561442b57848901518255600182019150602085019450602081019050614406565b868310156144485784890151614444601f891682614357565b8355505b6001600288020188555050505b505050505050565b5f614467826134d4565b9150614472836134d4565b925082820390508181111561448a57614489613fcf565b5b92915050565b5f6040820190508181035f8301526144a88185613557565b90506144b760208301846134dd565b9392505050565b7f4c656e677468206d69736d6174636800000000000000000000000000000000005f82015250565b5f6144f2600f8361350f565b91506144fd826144be565b602082019050919050565b5f6020820190508181035f83015261451f816144e6565b9050919050565b7f546f6f206672657175656e7400000000000000000000000000000000000000005f82015250565b5f61455a600c8361350f565b915061456582614526565b602082019050919050565b5f6020820190508181035f8301526145878161454e565b9050919050565b7f4e487b71000000000000000000000000000000000000000000000000000000005f52603260045260245ffd5b5f6145c5826134d4565b91507fffffffffffffffffffffffffffffffffffffffffffffffffffffffffffffffff82036145f7576145f6613fcf565b5b600182019050919050565b7f496e73756666696369656e7420617373657473000000000000000000000000005f82015250565b5f61463660138361350f565b915061464182614602565b602082019050919050565b5f6020820190508181035f8301526146638161462a565b9050919050565b5f60408201905061467d5f830185613b09565b61468a60208301846134dd565b9392505050565b61469a816136ad565b81146146a4575f80fd5b50565b5f815190506146b581614691565b92915050565b5f602082840312156146d0576146cf6135b8565b5b5f6146dd848285016146a7565b91505092915050565b5f81519050919050565b5f81905092915050565b5f614704826146e6565b61470e81856146f0565b935061471e81856020860161351f565b80840191505092915050565b5f61473582846146fa565b915081905092915050565b7f5374726174656779206465706f736974206661696c65640000000000000000005f82015250565b5f61477460178361350f565b915061477f82614740565b602082019050919050565b5f6020820190508181035f8301526147a181614768565b9050919050565b5f6040820190506147bb5f8301856134dd565b6147c860208301846134dd565b9392505050565b7f5265656e7472616e637947756172643a207265656e7472616e742063616c6c005f82015250565b5f614803601f8361350f565b915061480e826147cf565b602082019050919050565b5f6020820190508181035f830152614830816147f7565b9050919050565b7f5a65726f206173736574730000000000000000000000000000000000000000005f82015250565b5f61486b600b8361350f565b915061487682614837565b602082019050919050565b5f6020820190508181035f8301526148988161485f565b9050919050565b5f6060820190506148b25f830186613b09565b6148bf6020830185613b09565b6148cc60408301846134dd565b949350505050565b7f45524332303a2064656372656173656420616c6c6f77616e63652062656c6f775f8201527f207a65726f000000000000000000000000000000000000000000000000000000602082015250565b5f61492e60258361350f565b9150614939826148d4565b604082019050919050565b5f6020820190508181035f83015261495b81614922565b9050919050565b7f496e73756666696369656e7420736861726573000000000000000000000000005f82015250565b5f61499660138361350f565b91506149a182614962565b602082019050919050565b5f6020820190508181035f8301526149c38161498a565b9050919050565b7f496e73756666696369656e7420616c6c6f77616e6365000000000000000000005f82015250565b5f6149fe60168361350f565b9150614a09826149ca565b602082019050919050565b5f6020820190508181035f830152614a2b816149f2565b9050919050565b7f496e76616c6964207374726174656779000000000000000000000000000000005f82015250565b5f614a6660108361350f565b9150614a7182614a32565b602082019050919050565b5f6020820190508181035f830152614a9381614a5a565b9050919050565b7f496e73756666696369656e742062616c616e63650000000000000000000000005f82015250565b5f614ace60148361350f565b9150614ad982614a9a565b602082019050919050565b5f6020820190508181035f830152614afb81614ac2565b9050919050565b5f614b0d83856146f0565b9350614b1a83858461380b565b82840190509392505050565b5f614b32828486614b02565b91508190509392505050565b7f53747261746567792063616c6c206661696c65640000000000000000000000005f82015250565b5f614b7260148361350f565b9150614b7d82614b3e565b602082019050919050565b5f6020820190508181035f830152614b9f81614b66565b9050919050565b7f48617276657374206661696c65640000000000000000000000000000000000005f82015250565b5f614bda600e8361350f565b9150614be582614ba6565b602082019050919050565b5f6020820190508181035f830152614c0781614bce565b9050919050565b7f4f776e61626c653a206e6577206f776e657220697320746865207a65726f20615f8201527f6464726573730000000000000000000000000000000000000000000000000000602082015250565b5f614c6860268361350f565b9150614c7382614c0e565b604082019050919050565b5f6020820190508181035f830152614c9581614c5c565b9050919050565b7f45524332303a20617070726f76652066726f6d20746865207a65726f206164645f8201527f7265737300000000000000000000000000000000000000000000000000000000602082015250565b5f614cf660248361350f565b9150614d0182614c9c565b604082019050919050565b5f6020820190508181035f830152614d2381614cea565b9050919050565b7f45524332303a20617070726f766520746f20746865207a65726f2061646472655f8201527f7373000000000000000000000000000000000000000000000000000000000000602082015250565b5f614d8460228361350f565b9150614d8f82614d2a565b604082019050919050565b5f6020820190508181035f830152614db181614d78565b9050919050565b7f45524332303a20696e73756666696369656e7420616c6c6f77616e63650000005f82015250565b5f614dec601d8361350f565b9150614df782614db8565b602082019050919050565b5f6020820190508181035f830152614e1981614de0565b9050919050565b7f45524332303a207472616e736665722066726f6d20746865207a65726f2061645f8201527f6472657373000000000000000000000000000000000000000000000000000000602082015250565b5f614e7a60258361350f565b9150614e8582614e20565b604082019050919050565b5f6020820190508181035f830152614ea781614e6e565b9050919050565b7f45524332303a207472616e7366657220746f20746865207a65726f20616464725f8201527f6573730000000000000000000000000000000000000000000000000000000000602082015250565b5f614f0860238361350f565b9150614f1382614eae565b604082019050919050565b5f6020820190508181035f830152614f3581614efc565b9050919050565b7f45524332303a207472616e7366657220616d6f756e74206578636565647320625f8201527f616c616e63650000000000000000000000000000000000000000000000000000602082015250565b5f614f9660268361350f565b9150614fa182614f3c565b604082019050919050565b5f6020820190508181035f830152614fc381614f8a565b9050919050565b7f4f776e61626c653a2063616c6c6572206973206e6f7420746865206f776e65725f82015250565b5f614ffe60208361350f565b915061500982614fca565b602082019050919050565b5f6020820190508181035f83015261502b81614ff2565b9050919050565b7f5374726174656779207769746864726177616c206661696c65640000000000005f82015250565b5f615066601a8361350f565b915061507182615032565b602082019050919050565b5f6020820190508181035f8301526150938161505a565b9050919050565b7f45524332303a206d696e7420746f20746865207a65726f2061646472657373005f82015250565b5f6150ce601f8361350f565b91506150d98261509a565b602082019050919050565b5f6020820190508181035f8301526150fb816150c2565b9050919050565b5f61510c826134d4565b91505f820361511e5761511d613fcf565b5b600182039050919050565b7f45524332303a206275726e2066726f6d20746865207a65726f206164647265735f8201527f7300000000000000000000000000000000000000000000000000000000000000602082015250565b5f61518360218361350f565b915061518e82615129565b604082019050919050565b5f6020820190508181035f8301526151b081615177565b9050919050565b7f45524332303a206275726e20616d6f756e7420657863656564732062616c616e5f8201527f6365000000000000000000000000000000000000000000000000000000000000602082015250565b5f61521160228361350f565b915061521c826151b7565b604082019050919050565b5f6020820190508181035f83015261523e81615205565b905091905056fea26469706673582212209d9b2544cf9bf40846dcd828703c6028245c93a8b07b7f3283c2b7dc91f6ffd864736f6c63430008140033",
  "linkReferences": {},
  "deployedLinkReferences": {}
}