{
  "_format": "hh-sol-artifact-1",
  "contractName": "AuroraMultiVault",
  "sourceName": "contracts/deploy_contracts.sol",
  "abi": [
    {
      "inputs": [
        {
          "internalType": "address",
          "name": "_asset",
          "type": "address"
        },
        {
          "internalType": "string",
          "name": "_name",
          "type": "string"
        },
        {
          "internalType": "string",
          "name": "_symbol",
          "type": "string"
        }
      ],
      "stateMutability": "nonpayable",
      "type": "constructor"
    },
    {
      "anonymous": false,
      "inputs": [
        {
          "indexed": true,
          "internalType": "address",
          "name": "owner",
          "type": "address"
        },
        {
          "indexed": true,
          "internalType": "address",
          "name": "spender",
          "type": "address"
        },
        {
          "indexed": false,
          "internalType": "uint256",
          "name": "value",
          "type": "uint256"
        }
      ],
      "name": "Approval",
      "type": "event"
    },
    {
      "anonymous": false,
      "inputs": [
        {
          "indexed": true,
          "internalType": "address",
          "name": "strategy",
          "type": "address"
        },
        {
          "indexed": false,
          "internalType": "uint256",
          "name": "amount",
          "type": "uint256"
        }
      ],
      "name": "EmergencyExit",
      "type": "event"
    },
    {
      "anonymous": false,
      "inputs": [
        {
          "indexed": true,
          "internalType": "address",
          "name": "previousOwner",
          "type": "address"
        },
        {
          "indexed": true,
          "internalType": "address",
          "name": "newOwner",
          "type": "address"
        }
      ],
      "name": "OwnershipTransferred",
      "type": "event"
    },
    {
      "anonymous": false,
      "inputs": [
        {
          "indexed": true,
          "internalType": "address",
          "name": "strategy",
          "type": "address"
        },
        {
          "indexed": false,
          "internalType": "string",
          "name": "name",
          "type": "string"
        },
        {
          "indexed": false,
          "internalType": "uint256",
          "name": "allocation",
          "type": "uint256"
        }
      ],
      "name": "StrategyAdded",
      "type": "event"
    },
    {
      "anonymous": false,
      "inputs": [
        {
          "indexed": true,
          "internalType": "address",
          "name": "strategy",
          "type": "address"
        },
        {
          "indexed": false,
          "internalType": "uint256",
          "name": "oldBalance",
          "type": "uint256"
        },
        {
          "indexed": false,
          "internalType": "uint256",
          "name": "newBalance",
          "type": "uint256"
        }
      ],
      "name": "StrategyRebalanced",
      "type": "event"
    },
    {
      "anonymous": false,
      "inputs": [
        {
          "indexed": true,
          "internalType": "address",
          "name": "from",
          "type": "address"
        },
        {
          "indexed": true,
          "internalType": "address",
          "name": "to",
          "type": "address"
        },
        {
          "indexed": false,
          "internalType": "uint256",
          "name": "value",
          "type": "uint256"
        }
      ],
      "name": "Transfer",
      "type": "event"
    },
    {
      "anonymous": false,
      "inputs": [
        {
          "indexed": true,
          "internalType": "address",
          "name": "strategy",
          "type": "address"
        },
        {
          "indexed": false,
          "internalType": "uint256",
          "name": "amount",
          "type": "uint256"
        }
      ],
      "name": "YieldHarvested",
      "type": "event"
    },
    {
      "inputs": [],
      "name": "REBALANCE_INTERVAL",
      "outputs": [
        {
          "internalType": "uint256",
          "name": "",
          "type": "uint256"
        }
      ],
      "stateMutability": "view",
      "type": "function"
    },
    {
      "inputs": [
        {
          "internalType": "address",
          "name": "_strategy",
          "type": "address"
        },
        {
          "internalType": "string",
          "name": "_name",
          "type": "string"
        },
        {
          "internalType": "uint256",
          "name": "_allocation",
          "type": "uint256"
        }
      ],
      "name": "addStrategy",
      "outputs": [],
      "stateMutability": "nonpayable",
      "type": "function"
    },
    {
      "inputs": [
        {
          "internalType": "address",
          "name": "owner",
          "type": "address"
        },
        {
          "internalType": "address",
          "name": "spender",
          "type": "address"
        }
      ],
      "name": "allowance",
      "outputs": [
        {
          "internalType": "uint256",
          "name": "",
          "type": "uint256"
        }
      ],
      "stateMutability": "view",
      "type": "function"
    },
    {
      "inputs": [
        {
          "internalType": "address",
          "name": "spender",
          "type": "address"
        },
        {
          "internalType": "uint256",
          "name": "amount",
          "type": "uint256"
        }
      ],
      "name": "approve",
      "outputs": [
        {
          "internalType": "bool",
          "name": "",
          "type": "bool"
        }
      ],
      "stateMutability": "nonpayable",
      "type": "function"
    },
    {
      "inputs": [],
      "name": "asset",
      "outputs": [
        {
          "internalType": "contract IERC20",
          "name": "",
          "type": "address"
        }
      ],
      "stateMutability": "view",
      "type": "function"
    },
    {
      "inputs": [
        {
          "internalType": "address",
          "name": "account",
          "type": "address"
        }
      ],
      "name": "balanceOf",
      "outputs": [
        {
          "internalType": "uint256",
          "name": "",
          "type": "uint256"
        }
      ],
      "stateMutability": "view",
      "type": "function"
    },
    {
      "inputs": [
        {
          "internalType": "uint256",
          "name": "shares",
          "type": "uint256"
        }
      ],
      "name": "convertToAssets",
      "outputs": [
        {
          "internalType": "uint256",
          "name": "",
          "type": "uint256"
        }
      ],
      "stateMutability": "view",
      "type": "function"
    },
    {
      "inputs": [
        {
          "internalType": "uint256",
          "name": "assets",
          "type": "uint256"
        }
      ],
      "name": "convertToShares",
      "outputs": [
        {
          "internalType": "uint256",
          "name": "",
          "type": "uint256"
        }
      ],
      "stateMutability": "view",
      "type": "function"
    },
    {
      "inputs": [],
      "name": "decimals",
      "outputs": [
        {
          "internalType": "uint8",
          "name": "",
          "type": "uint8"
        }
      ],
      "stateMutability": "view",
      "type": "function"
    },
    {
      "inputs": [
        {
          "internalType": "address",
          "name": "spender",
          "type": "address"
        },
        {
          "internalType": "uint256",
          "name": "subtractedValue",
          "type": "uint256"
        }
      ],
      "name": "decreaseAllowance",
      "outputs": [
        {
          "internalType": "bool",
          "name": "",
          "type": "bool"
        }
      ],
      "stateMutability": "nonpayable",
      "type": "function"
    },
    {
      "inputs": [
        {
          "internalType": "uint256",
          "name": "assets",
          "type": "uint256"
        },
        {
          "internalType": "address",
          "name": "receiver",
          "type": "address"
        }
      ],
      "name": "deposit",
      "outputs": [
        {
          "internalType": "uint256",
          "name": "shares",
          "type": "uint256"
        }
      ],
      "stateMutability": "nonpayable",
      "type": "function"
    },
    {
      "inputs": [
        {
          "internalType": "address",
          "name": "strategy",
          "type": "address"
        },
        {
          "internalType": "uint256",
          "name": "amount",
          "type": "uint256"
        },
        {
          "internalType": "bytes",
          "name": "data",
          "type": "bytes"
        }
      ],
      "name": "depositToStrategy",
      "outputs": [],
      "stateMutability": "nonpayable",
      "type": "function"
    },
    {
      "inputs": [],
      "name": "emergencyExit",
      "outputs": [],
      "stateMutability": "nonpayable",
      "type": "function"
    },
    {
      "inputs": [],
      "name": "getStrategies",
      "outputs": [
        {
          "components": [
            {
              "internalType": "address",
              "name": "strategyAddress",
              "type": "address"
            },
            {
              "internalType": "uint256",
              "name": "allocation",
              "type": "uint256"
            },
            {
              "internalType": "uint256",
              "name": "balance",
              "type": "uint256"
            },
            {
              "internalType": "bool",
              "name": "active",
              "type": "bool"
            },
            {
              "internalType": "string",
              "name": "name",
              "type": "string"
            }
          ],
          "internalType": "struct AuroraMultiVault.Strategy[]",
          "name": "",
          "type": "tuple[]"
        }
      ],
      "stateMutability": "view",
      "type": "function"
    },
    {
      "inputs": [
        {
          "internalType": "address",
          "name": "strategyAddress",
          "type": "address"
        }
      ],
      "name": "getStrategy",
      "outputs": [
        {
          "components": [
            {
              "internalType": "address",
              "name": "strategyAddress",
              "type": "address"
            },
            {
              "internalType": "uint256",
              "name": "allocation",
              "type": "uint256"
            },
            {
              "internalType": "uint256",
              "name": "balance",
              "type": "uint256"
            },
            {
              "internalType": "bool",
              "name": "active",
              "type": "bool"
            },
            {
              "internalType": "string",
              "name": "name",
              "type": "string"
            }
          ],
          "internalType": "struct AuroraMultiVault.Strategy",
          "name": "",
          "type": "tuple"
        }
      ],
      "stateMutability": "view",
      "type": "function"
    },
    {
      "inputs": [
        {
          "internalType": "address",
          "name": "strategy",
          "type": "address"
        },
        {
          "internalType": "bytes",
          "name": "data",
          "type": "bytes"
        }
      ],
      "name": "harvestStrategy",
      "outputs": [],
      "stateMutability": "nonpayable",
      "type": "function"
    },
    {
      "inputs": [
        {
          "internalType": "address",
          "name": "spender",
          "type": "address"
        },
        {
          "internalType": "uint256",
          "name": "addedValue",
          "type": "uint256"
        }
      ],
      "name": "increaseAllowance",
      "outputs": [
        {
          "internalType": "bool",
          "name": "",
          "type": "bool"
        }
      ],
      "stateMutability": "nonpayable",
      "type": "function"
    },
    {
      "inputs": [
        {
          "internalType": "address",
          "name": "",
          "type": "address"
        }
      ],
      "name": "isStrategy",
      "outputs": [
        {
          "internalType": "bool",
          "name": "",
          "type": "bool"
        }
      ],
      "stateMutability": "view",
      "type": "function"
    },
    {
      "inputs": [],
      "name": "lastRebalance",
      "outputs": [
        {
          "internalType": "uint256",
          "name": "",
          "type": "uint256"
        }
      ],
      "stateMutability": "view",
      "type": "function"
    },
    {
      "inputs": [],
      "name": "name",
      "outputs": [
        {
          "internalType": "string",
          "name": "",
          "type": "string"
        }
      ],
      "stateMutability": "view",
      "type": "function"
    },
    {
      "inputs": [],
      "name": "owner",
      "outputs": [
        {
          "internalType": "address",
          "name": "",
          "type": "address"
        }
      ],
      "stateMutability": "view",
      "type": "function"
    },
    {
      "inputs": [
        {
          "internalType": "address[]",
          "name": "strategyAddresses",
          "type": "address[]"
        },
        {
          "internalType": "uint256[]",
          "name": "targetAmounts",
          "type": "uint256[]"
        }
      ],
      "name": "rebalance",
      "outputs": [],
      "stateMutability": "nonpayable",
      "type": "function"
    },
    {
      "inputs": [],
      "name": "renounceOwnership",
      "outputs": [],
      "stateMutability": "nonpayable",
      "type": "function"
    },
    {
      "inputs": [
        {
          "internalType": "uint256",
          "name": "",
          "type": "uint256"
        }
      ],
      "name": "strategies",
      "outputs": [
        {
          "internalType": "address",
          "name": "strategyAddress",
          "type": "address"
        },
        {
          "internalType": "uint256",
          "name": "allocation",
          "type": "uint256"
        },
        {
          "internalType": "uint256",
          "name": "balance",
          "type": "uint256"
        },
        {
          "internalType": "bool",
          "name": "active",
          "type": "bool"
        },
        {
          "internalType": "string",
          "name": "name",
          "type": "string"
        }
      ],
      "stateMutability": "view",
      "type": "function"
    },
    {
      "inputs": [
        {
          "internalType": "address",
          "name": "",
          "type": "address"
        }
      ],
      "name": "strategyIndex",
      "outputs": [
        {
          "internalType": "uint256",
          "name": "",
          "type": "uint256"
        }
      ],
      "stateMutability": "view",
      "type": "function"
    },
    {
      "inputs": [],
      "name": "symbol",
      "outputs": [
        {
          "internalType": "string",
          "name": "",
          "type": "string"
        }
      ],
      "stateMutability": "view",
      "type": "function"
    },
    {
      "inputs": [],
      "name": "totalAssets",
      "outputs": [
        {
          "internalType": "uint256",
          "name": "",
          "type": "uint256"
        }
      ],
      "stateMutability": "view",
      "type": "function"
    },
    {
      "inputs": [],
      "name": "totalDeployed",
      "outputs": [
        {
          "internalType": "uint256",
          "name": "",
          "type": "uint256"
        }
      ],
      "stateMutability": "view",
      "type": "function"
    },
    {
      "inputs": [],
      "name": "totalSupply",
      "outputs": [
        {
          "internalType": "uint256",
          "name": "",
          "type": "uint256"
        }
      ],
      "stateMutability": "view",
      "type": "function"
    },
    {
      "inputs": [
        {
          "internalType": "address",
          "name": "to",
          "type": "address"
        },
        {
          "internalType": "uint256",
          "name": "amount",
          "type": "uint256"
        }
      ],
      "name": "transfer",
      "outputs": [
        {
          "internalType": "bool",
          "name": "",
          "type": "bool"
        }
      ],
      "stateMutability": "nonpayable",
      "type": "function"
    },
    {
      "inputs": [
        {
          "internalType": "address",
          "name": "from",
          "type": "address"
        },
        {
          "internalType": "address",
          "name": "to",
          "type": "address"
        },
        {
          "internalType": "uint256",
          "name": "amount",
          "type": "uint256"
        }
      ],
      "name": "transferFrom",
      "outputs": [
        {
          "internalType": "bool",
          "name": "",
          "type": "bool"
        }
      ],
      "stateMutability": "nonpayable",
      "type": "function"
    },
    {
      "inputs": [
        {
          "internalType": "address",
          "name": "newOwner",
          "type": "address"
        }
      ],
      "name": "transferOwnership",
      "outputs": [],
      "stateMutability": "nonpayable",
      "type": "function"
    },
    {
      "inputs": [
        {
          "internalType": "uint256",
          "name": "assets",
          "type": "uint256"
        },
        {
          "internalType": "address",
          "name": "receiver",
          "type": "address"
        },
        {
          "internalType": "address",
          "name": "owner",
          "type": "address"
        }
      ],
      "name": "withdraw",
      "outputs": [
        {
          "internalType": "uint256",
          "name": "shares",
          "type": "uint256"
        }
      ],
      "stateMutability": "nonpayable",
      "type": "function"
    }
  ],
  "bytecode": "0x60a060405234801562000010575f80fd5b5060405162005bfa38038062005bfa833981810160405281019062000036919062000373565b8181816003908162000049919062000641565b5080600490816200005b919062000641565b5050506200007e62000072620000c360201b60201c565b620000ca60201b60201c565b60016006819055508273ffffffffffffffffffffffffffffffffffffffff1660808173ffffffffffffffffffffffffffffffffffffffff168152505050505062000725565b5f33905090565b5f60055f9054906101000a900473ffffffffffffffffffffffffffffffffffffffff1690508160055f6101000a81548173ffffffffffffffffffffffffffffffffffffffff021916908373ffffffffffffffffffffffffffffffffffffffff1602179055508173ffffffffffffffffffffffffffffffffffffffff168173ffffffffffffffffffffffffffffffffffffffff167f8be0079c531659141344cd1fd0a4f28419497f9722a3daafe3b4186f6b6457e060405160405180910390a35050565b5f604051905090565b5f80fd5b5f80fd5b5f73ffffffffffffffffffffffffffffffffffffffff82169050919050565b5f620001c9826200019e565b9050919050565b620001db81620001bd565b8114620001e6575f80fd5b50565b5f81519050620001f981620001d0565b92915050565b5f80fd5b5f80fd5b5f601f19601f8301169050919050565b7f4e487b71000000000000000000000000000000000000000000000000000000005f52604160045260245ffd5b6200024f8262000207565b810181811067ffffffffffffffff8211171562000271576200027062000217565b5b80604052505050565b5f620002856200018d565b905062000293828262000244565b919050565b5f67ffffffffffffffff821115620002b557620002b462000217565b5b620002c08262000207565b9050602081019050919050565b5f5b83811015620002ec578082015181840152602081019050620002cf565b5f8484015250505050565b5f6200030d620003078462000298565b6200027a565b9050828152602081018484840111156200032c576200032b62000203565b5b62000339848285620002cd565b509392505050565b5f82601f830112620003585762000357620001ff565b5b81516200036a848260208601620002f7565b91505092915050565b5f805f606084860312156200038d576200038c62000196565b5b5f6200039c86828701620001e9565b935050602084015167ffffffffffffffff811115620003c057620003bf6200019a565b5b620003ce8682870162000341565b925050604084015167ffffffffffffffff811115620003f257620003f16200019a565b5b620004008682870162000341565b9150509250925092565b5f81519050919050565b7f4e487b71000000000000000000000000000000000000000000000000000000005f52602260045260245ffd5b5f60028204905060018216806200045957607f821691505b6020821081036200046f576200046e62000414565b5b50919050565b5f819050815f5260205f209050919050565b5f6020601f8301049050919050565b5f82821b905092915050565b5f60088302620004d37fffffffffffffffffffffffffffffffffffffffffffffffffffffffffffffffff8262000496565b620004df868362000496565b95508019841693508086168417925050509392505050565b5f819050919050565b5f819050919050565b5f62000529620005236200051d84620004f7565b62000500565b620004f7565b9050919050565b5f819050919050565b620005448362000509565b6200055c620005538262000530565b848454620004a2565b825550505050565b5f90565b6200057262000564565b6200057f81848462000539565b505050565b5b81811015620005a6576200059a5f8262000568565b60018101905062000585565b5050565b601f821115620005f557620005bf8162000475565b620005ca8462000487565b81016020851015620005da578190505b620005f2620005e98562000487565b83018262000584565b50505b505050565b5f82821c905092915050565b5f620006175f1984600802620005fa565b1980831691505092915050565b5f62000631838362000606565b9150826002028217905092915050565b6200064c826200040a565b67ffffffffffffffff81111562000668576200066762000217565b5b62000674825462000441565b62000681828285620005aa565b5f60209050601f831160018114620006b7575f8415620006a2578287015190505b620006ae858262000624565b8655506200071d565b601f198416620006c78662000475565b5f5b82811015620006f057848901518255600182019150602085019450602081019050620006c9565b868310156200071057848901516200070c601f89168262000606565b8355505b6001600288020188555050505b505050505050565b608051615461620007995f395f81816106c101528181610e5c01528181610f10015281816112200152818161152f015281816115dc0152818161197801528181611a3901528181611ce401528181611dbe0152818161207c015281816121c101528181612eb90152612fc801526154615ff3fe608060405234801561000f575f80fd5b50600436106101f9575f3560e01c80635c2da7cd11610118578063b460af94116100ab578063d2b3d6ce1161007a578063d2b3d6ce146105ef578063d574ea3d1461060b578063dd62ed3e1461063f578063f2fde38b1461066f578063f8806a131461068b576101f9565b8063b460af9414610555578063b49a60bb14610585578063bd07fdac146105a3578063c6e6f592146105bf576101f9565b80638da5cb5b116100e75780638da5cb5b146104b957806395d89b41146104d7578063a457c2d7146104f5578063a9059cbb14610525576101f9565b80635c2da7cd146104315780636e553f651461044f57806370a082311461047f578063715018a6146104af576101f9565b806323b872dd11610190578063313ce5671161015f578063313ce567146103bb57806338d52e0f146103d957806339509351146103f75780635641ec0314610427576101f9565b806323b872dd1461032357806326988bc5146103535780632be011901461036f5780632e8ebaae1461038b576101f9565b80630cfb14b0116101cc5780630cfb14b014610299578063106b9ca1146102b757806311451526146102d557806318160ddd14610305576101f9565b806301e1d114146101fd57806306fdde031461021b57806307a2d13a14610239578063095ea7b314610269575b5f80fd5b6102056106bb565b6040516102129190613644565b60405180910390f35b610223610766565b60405161023091906136e7565b60405180910390f35b610253600480360381019061024e9190613742565b6107f6565b6040516102609190613644565b60405180910390f35b610283600480360381019061027e91906137c7565b610836565b604051610290919061381f565b60405180910390f35b6102a1610858565b6040516102ae9190613644565b60405180910390f35b6102bf61085e565b6040516102cc9190613644565b60405180910390f35b6102ef60048036038101906102ea9190613838565b610864565b6040516102fc9190613644565b60405180910390f35b61030d610879565b60405161031a9190613644565b60405180910390f35b61033d60048036038101906103389190613863565b610882565b60405161034a919061381f565b60405180910390f35b61036d600480360381019061036891906139df565b6108b0565b005b61038960048036038101906103849190613afd565b610b7b565b005b6103a560048036038101906103a09190613838565b6111f9565b6040516103b2919061381f565b60405180910390f35b6103c3611216565b6040516103d09190613b96565b60405180910390f35b6103e161121e565b6040516103ee9190613c0a565b60405180910390f35b610411600480360381019061040c91906137c7565b611242565b60405161041e919061381f565b60405180910390f35b61042f611278565b005b61043961148c565b6040516104469190613644565b60405180910390f35b61046960048036038101906104649190613c23565b611492565b6040516104769190613644565b60405180910390f35b61049960048036038101906104949190613838565b61168f565b6040516104a69190613644565b60405180910390f35b6104b76116d4565b005b6104c16116e7565b6040516104ce9190613c70565b60405180910390f35b6104df61170f565b6040516104ec91906136e7565b60405180910390f35b61050f600480360381019061050a91906137c7565b61179f565b60405161051c919061381f565b60405180910390f35b61053f600480360381019061053a91906137c7565b611814565b60405161054c919061381f565b60405180910390f35b61056f600480360381019061056a9190613c89565b611836565b60405161057c9190613644565b60405180910390f35b61058d611ae3565b60405161059a9190613e7c565b60405180910390f35b6105bd60048036038101906105b89190613ef1565b611c51565b005b6105d960048036038101906105d49190613742565b611fa8565b6040516105e69190613644565b60405180910390f35b61060960048036038101906106049190613f62565b611fe8565b005b61062560048036038101906106209190613742565b6122bf565b604051610636959493929190613fbf565b60405180910390f35b61065960048036038101906106549190614017565b6123b1565b6040516106669190613644565b60405180910390f35b61068960048036038101906106849190613838565b612433565b005b6106a560048036038101906106a09190613838565b6124b5565b6040516106b291906140c8565b60405180910390f35b5f600a547f000000000000000000000000000000000000000000000000000000000000000073ffffffffffffffffffffffffffffffffffffffff166370a08231306040518263ffffffff1660e01b81526004016107189190613c70565b602060405180830381865afa158015610733573d5f803e3d5ffd5b505050506040513d601f19601f8201168201806040525081019061075791906140fc565b6107619190614154565b905090565b606060038054610775906141b4565b80601f01602080910402602001604051908101604052809291908181526020018280546107a1906141b4565b80156107ec5780601f106107c3576101008083540402835291602001916107ec565b820191905f5260205f20905b8154815290600101906020018083116107cf57829003601f168201915b5050505050905090565b5f80610800610879565b90505f811461082c57806108126106bb565b8461081d91906141e4565b6108279190614252565b61082e565b825b915050919050565b5f806108406126c7565b905061084d8185856126ce565b600191505092915050565b600a5481565b600b5481565b6009602052805f5260405f205f915090505481565b5f600254905090565b5f8061088c6126c7565b9050610899858285612891565b6108a485858561291c565b60019150509392505050565b6108b8612b91565b60085f8473ffffffffffffffffffffffffffffffffffffffff1673ffffffffffffffffffffffffffffffffffffffff1681526020019081526020015f205f9054906101000a900460ff1615610942576040517f08c379a0000000000000000000000000000000000000000000000000000000008152600401610939906142cc565b60405180910390fd5b611388811115610987576040517f08c379a000000000000000000000000000000000000000000000000000000000815260040161097e90614334565b60405180910390fd5b60076040518060a001604052808573ffffffffffffffffffffffffffffffffffffffff1681526020018381526020015f815260200160011515815260200184815250908060018154018082558091505060019003905f5260205f2090600502015f909190919091505f820151815f015f6101000a81548173ffffffffffffffffffffffffffffffffffffffff021916908373ffffffffffffffffffffffffffffffffffffffff16021790555060208201518160010155604082015181600201556060820151816003015f6101000a81548160ff0219169083151502179055506080820151816004019081610a7b91906144e6565b505050600160085f8573ffffffffffffffffffffffffffffffffffffffff1673ffffffffffffffffffffffffffffffffffffffff1681526020019081526020015f205f6101000a81548160ff0219169083151502179055506001600780549050610ae591906145b5565b60095f8573ffffffffffffffffffffffffffffffffffffffff1673ffffffffffffffffffffffffffffffffffffffff1681526020019081526020015f20819055508273ffffffffffffffffffffffffffffffffffffffff167f543e7b8634c9242067ab3532ce2794d4b6eb718cfc76ca756a581f0cfb1c6ce78383604051610b6e9291906145e8565b60405180910390a2505050565b610b83612b91565b818190508484905014610bcb576040517f08c379a0000000000000000000000000000000000000000000000000000000008152600401610bc290614660565b60405180910390fd5b610e10600b54610bdb9190614154565b421015610c1d576040517f08c379a0000000000000000000000000000000000000000000000000000000008152600401610c14906146c8565b60405180910390fd5b5f805b83839050811015610c6557838382818110610c3e57610c3d6146e6565b5b9050602002013582610c509190614154565b91508080610c5d90614713565b915050610c20565b505f610c6f6106bb565b905080821115610cb4576040517f08c379a0000000000000000000000000000000000000000000000000000000008152600401610cab906147a4565b60405180910390fd5b5f5b6007805490508110156111e9575f60078281548110610cd857610cd76146e6565b5b905f5260205f2090600502019050806003015f9054906101000a900460ff16610d0157506111d6565b5f805b89899050811015610dbf57825f015f9054906101000a900473ffffffffffffffffffffffffffffffffffffffff1673ffffffffffffffffffffffffffffffffffffffff168a8a83818110610d5b57610d5a6146e6565b5b9050602002016020810190610d709190613838565b73ffffffffffffffffffffffffffffffffffffffff1603610dac57878782818110610d9e57610d9d6146e6565b5b905060200201359150610dbf565b8080610db790614713565b915050610d04565b505f826002015490508183600201541115610e3a575f828460020154610de591906145b5565b9050610e13845f015f9054906101000a900473ffffffffffffffffffffffffffffffffffffffff1682612c0f565b82846002018190555080600a5f828254610e2d91906145b5565b925050819055505061115c565b818360020154101561115b575f836002015483610e5791906145b5565b90505f7f000000000000000000000000000000000000000000000000000000000000000073ffffffffffffffffffffffffffffffffffffffff166370a08231306040518263ffffffff1660e01b8152600401610eb39190613c70565b602060405180830381865afa158015610ece573d5f803e3d5ffd5b505050506040513d601f19601f82011682018060405250810190610ef291906140fc565b90505f818311610f025782610f04565b815b90505f811115611157577f000000000000000000000000000000000000000000000000000000000000000073ffffffffffffffffffffffffffffffffffffffff1663095ea7b3875f015f9054906101000a900473ffffffffffffffffffffffffffffffffffffffff16836040518363ffffffff1660e01b8152600401610f8b9291906147c2565b6020604051808303815f875af1158015610fa7573d5f803e3d5ffd5b505050506040513d601f19601f82011682018060405250810190610fcb9190614813565b505f865f015f9054906101000a900473ffffffffffffffffffffffffffffffffffffffff1673ffffffffffffffffffffffffffffffffffffffff16826040516024016110179190613644565b6040516020818303038152906040527fb6b55f25000000000000000000000000000000000000000000000000000000007bffffffffffffffffffffffffffffffffffffffffffffffffffffffff19166020820180517bffffffffffffffffffffffffffffffffffffffffffffffffffffffff83818316178352505050506040516110a19190614882565b5f604051808303815f865af19150503d805f81146110da576040519150601f19603f3d011682016040523d82523d5f602084013e6110df565b606091505b5050905080611123576040517f08c379a000000000000000000000000000000000000000000000000000000000815260040161111a906148e2565b60405180910390fd5b81876002015f8282546111369190614154565b9250508190555081600a5f82825461114e9190614154565b92505081905550505b5050505b5b825f015f9054906101000a900473ffffffffffffffffffffffffffffffffffffffff1673ffffffffffffffffffffffffffffffffffffffff167fcfef212f6c1108beeb1e13f83ff6ea0970cd6b218a3c648d1eb86e57d0bb83f78285600201546040516111ca929190614900565b60405180910390a25050505b80806111e190614713565b915050610cb6565b5042600b81905550505050505050565b6008602052805f5260405f205f915054906101000a900460ff1681565b5f6012905090565b7f000000000000000000000000000000000000000000000000000000000000000081565b5f8061124c6126c7565b905061126d81858561125e85896123b1565b6112689190614154565b6126ce565b600191505092915050565b611280612b91565b5f5b60078054905081101561148957600781815481106112a3576112a26146e6565b5b905f5260205f2090600502016003015f9054906101000a900460ff1680156112ed57505f600782815481106112db576112da6146e6565b5b905f5260205f20906005020160020154115b156114765761136060078281548110611309576113086146e6565b5b905f5260205f2090600502015f015f9054906101000a900473ffffffffffffffffffffffffffffffffffffffff166007838154811061134b5761134a6146e6565b5b905f5260205f20906005020160020154612c0f565b60078181548110611374576113736146e6565b5b905f5260205f2090600502015f015f9054906101000a900473ffffffffffffffffffffffffffffffffffffffff1673ffffffffffffffffffffffffffffffffffffffff167ff779df072f94d207563b1ba8c286814086f1e6bb436a2652e307dccc56ed79e8600783815481106113ed576113ec6146e6565b5b905f5260205f2090600502016002015460405161140a9190613644565b60405180910390a260078181548110611426576114256146e6565b5b905f5260205f20906005020160020154600a5f82825461144691906145b5565b925050819055505f60078281548110611462576114616146e6565b5b905f5260205f209060050201600201819055505b808061148190614713565b915050611282565b50565b610e1081565b5f6002600654036114d8576040517f08c379a00000000000000000000000000000000000000000000000000000000081526004016114cf90614971565b60405180910390fd5b60026006819055505f8311611522576040517f08c379a0000000000000000000000000000000000000000000000000000000008152600401611519906149d9565b60405180910390fd5b61152b83611fa8565b90507f000000000000000000000000000000000000000000000000000000000000000073ffffffffffffffffffffffffffffffffffffffff166323b872dd3330866040518463ffffffff1660e01b815260040161158a939291906149f7565b6020604051808303815f875af11580156115a6573d5f803e3d5ffd5b505050506040513d601f19601f820116820180604052508101906115ca9190614813565b506115d58282612d49565b633b9aca007f000000000000000000000000000000000000000000000000000000000000000073ffffffffffffffffffffffffffffffffffffffff166370a08231306040518263ffffffff1660e01b81526004016116339190613c70565b602060405180830381865afa15801561164e573d5f803e3d5ffd5b505050506040513d601f19601f8201168201806040525081019061167291906140fc565b111561168157611680612ea0565b5b600160068190555092915050565b5f805f8373ffffffffffffffffffffffffffffffffffffffff1673ffffffffffffffffffffffffffffffffffffffff1681526020019081526020015f20549050919050565b6116dc612b91565b6116e55f613231565b565b5f60055f9054906101000a900473ffffffffffffffffffffffffffffffffffffffff16905090565b60606004805461171e906141b4565b80601f016020809104026020016040519081016040528092919081815260200182805461174a906141b4565b80156117955780601f1061176c57610100808354040283529160200191611795565b820191905f5260205f20905b81548152906001019060200180831161177857829003601f168201915b5050505050905090565b5f806117a96126c7565b90505f6117b682866123b1565b9050838110156117fb576040517f08c379a00000000000000000000000000000000000000000000000000000000081526004016117f290614a9c565b60405180910390fd5b61180882868684036126ce565b60019250505092915050565b5f8061181e6126c7565b905061182b81858561291c565b600191505092915050565b5f60026006540361187c576040517f08c379a000000000000000000000000000000000000000000000000000000000815260040161187390614971565b60405180910390fd5b600260068190555061188d84611fa8565b90506118988261168f565b8111156118da576040517f08c379a00000000000000000000000000000000000000000000000000000000081526004016118d190614b04565b60405180910390fd5b8173ffffffffffffffffffffffffffffffffffffffff163373ffffffffffffffffffffffffffffffffffffffff1614611975575f61191883336123b1565b90508181101561195d576040517f08c379a000000000000000000000000000000000000000000000000000000000815260040161195490614b6c565b60405180910390fd5b6119738333848461196e91906145b5565b6126ce565b505b5f7f000000000000000000000000000000000000000000000000000000000000000073ffffffffffffffffffffffffffffffffffffffff166370a08231306040518263ffffffff1660e01b81526004016119cf9190613c70565b602060405180830381865afa1580156119ea573d5f803e3d5ffd5b505050506040513d601f19601f82011682018060405250810190611a0e91906140fc565b905084811015611a2d57611a2c8186611a2791906145b5565b6132f4565b5b611a378383613413565b7f000000000000000000000000000000000000000000000000000000000000000073ffffffffffffffffffffffffffffffffffffffff1663a9059cbb85876040518363ffffffff1660e01b8152600401611a929291906147c2565b6020604051808303815f875af1158015611aae573d5f803e3d5ffd5b505050506040513d601f19601f82011682018060405250810190611ad29190614813565b505060016006819055509392505050565b60606007805480602002602001604051908101604052809291908181526020015f905b82821015611c48578382905f5260205f2090600502016040518060a00160405290815f82015f9054906101000a900473ffffffffffffffffffffffffffffffffffffffff1673ffffffffffffffffffffffffffffffffffffffff1673ffffffffffffffffffffffffffffffffffffffff1681526020016001820154815260200160028201548152602001600382015f9054906101000a900460ff16151515158152602001600482018054611bb9906141b4565b80601f0160208091040260200160405190810160405280929190818152602001828054611be5906141b4565b8015611c305780601f10611c0757610100808354040283529160200191611c30565b820191905f5260205f20905b815481529060010190602001808311611c1357829003601f168201915b50505050508152505081526020019060010190611b06565b50505050905090565b611c59612b91565b60085f8573ffffffffffffffffffffffffffffffffffffffff1673ffffffffffffffffffffffffffffffffffffffff1681526020019081526020015f205f9054906101000a900460ff16611ce2576040517f08c379a0000000000000000000000000000000000000000000000000000000008152600401611cd990614bd4565b60405180910390fd5b7f000000000000000000000000000000000000000000000000000000000000000073ffffffffffffffffffffffffffffffffffffffff166370a08231306040518263ffffffff1660e01b8152600401611d3b9190613c70565b602060405180830381865afa158015611d56573d5f803e3d5ffd5b505050506040513d601f19601f82011682018060405250810190611d7a91906140fc565b831115611dbc576040517f08c379a0000000000000000000000000000000000000000000000000000000008152600401611db390614c3c565b60405180910390fd5b7f000000000000000000000000000000000000000000000000000000000000000073ffffffffffffffffffffffffffffffffffffffff1663a9059cbb85856040518363ffffffff1660e01b8152600401611e179291906147c2565b6020604051808303815f875af1158015611e33573d5f803e3d5ffd5b505050506040513d601f19601f82011682018060405250810190611e579190614813565b505f60095f8673ffffffffffffffffffffffffffffffffffffffff1673ffffffffffffffffffffffffffffffffffffffff1681526020019081526020015f205490508360078281548110611eae57611ead6146e6565b5b905f5260205f2090600502016002015f828254611ecb9190614154565b9250508190555083600a5f828254611ee39190614154565b925050819055505f838390501115611fa1575f8573ffffffffffffffffffffffffffffffffffffffff168484604051611f1d929190614c7e565b5f604051808303815f865af19150503d805f8114611f56576040519150601f19603f3d011682016040523d82523d5f602084013e611f5b565b606091505b5050905080611f9f576040517f08c379a0000000000000000000000000000000000000000000000000000000008152600401611f9690614ce0565b60405180910390fd5b505b5050505050565b5f80611fb2610879565b90505f8114611fde57611fc36106bb565b8184611fcf91906141e4565b611fd99190614252565b611fe0565b825b915050919050565b611ff0612b91565b60085f8473ffffffffffffffffffffffffffffffffffffffff1673ffffffffffffffffffffffffffffffffffffffff1681526020019081526020015f205f9054906101000a900460ff16612079576040517f08c379a000000000000000000000000000000000000000000000000000000000815260040161207090614bd4565b60405180910390fd5b5f7f000000000000000000000000000000000000000000000000000000000000000073ffffffffffffffffffffffffffffffffffffffff166370a08231306040518263ffffffff1660e01b81526004016120d39190613c70565b602060405180830381865afa1580156120ee573d5f803e3d5ffd5b505050506040513d601f19601f8201168201806040525081019061211291906140fc565b90505f8473ffffffffffffffffffffffffffffffffffffffff16848460405161213c929190614c7e565b5f604051808303815f865af19150503d805f8114612175576040519150601f19603f3d011682016040523d82523d5f602084013e61217a565b606091505b50509050806121be576040517f08c379a00000000000000000000000000000000000000000000000000000000081526004016121b590614d48565b60405180910390fd5b5f7f000000000000000000000000000000000000000000000000000000000000000073ffffffffffffffffffffffffffffffffffffffff166370a08231306040518263ffffffff1660e01b81526004016122189190613c70565b602060405180830381865afa158015612233573d5f803e3d5ffd5b505050506040513d601f19601f8201168201806040525081019061225791906140fc565b90505f838261226691906145b5565b90508673ffffffffffffffffffffffffffffffffffffffff167faf070de27b945892aaad9c44ade61c1ac81cc8459711bba886304b1a2bf847a8826040516122ae9190613644565b60405180910390a250505050505050565b600781815481106122ce575f80fd5b905f5260205f2090600502015f91509050805f015f9054906101000a900473ffffffffffffffffffffffffffffffffffffffff1690806001015490806002015490806003015f9054906101000a900460ff1690806004018054612330906141b4565b80601f016020809104026020016040519081016040528092919081815260200182805461235c906141b4565b80156123a75780601f1061237e576101008083540402835291602001916123a7565b820191905f5260205f20905b81548152906001019060200180831161238a57829003601f168201915b5050505050905085565b5f60015f8473ffffffffffffffffffffffffffffffffffffffff1673ffffffffffffffffffffffffffffffffffffffff1681526020019081526020015f205f8373ffffffffffffffffffffffffffffffffffffffff1673ffffffffffffffffffffffffffffffffffffffff1681526020019081526020015f2054905092915050565b61243b612b91565b5f73ffffffffffffffffffffffffffffffffffffffff168173ffffffffffffffffffffffffffffffffffffffff16036124a9576040517f08c379a00000000000000000000000000000000000000000000000000000000081526004016124a090614dd6565b60405180910390fd5b6124b281613231565b50565b6124bd6135e9565b60085f8373ffffffffffffffffffffffffffffffffffffffff1673ffffffffffffffffffffffffffffffffffffffff1681526020019081526020015f205f9054906101000a900460ff16612546576040517f08c379a000000000000000000000000000000000000000000000000000000000815260040161253d90614bd4565b60405180910390fd5b600760095f8473ffffffffffffffffffffffffffffffffffffffff1673ffffffffffffffffffffffffffffffffffffffff1681526020019081526020015f205481548110612597576125966146e6565b5b905f5260205f2090600502016040518060a00160405290815f82015f9054906101000a900473ffffffffffffffffffffffffffffffffffffffff1673ffffffffffffffffffffffffffffffffffffffff1673ffffffffffffffffffffffffffffffffffffffff1681526020016001820154815260200160028201548152602001600382015f9054906101000a900460ff16151515158152602001600482018054612640906141b4565b80601f016020809104026020016040519081016040528092919081815260200182805461266c906141b4565b80156126b75780601f1061268e576101008083540402835291602001916126b7565b820191905f5260205f20905b81548152906001019060200180831161269a57829003601f168201915b5050505050815250509050919050565b5f33905090565b5f73ffffffffffffffffffffffffffffffffffffffff168373ffffffffffffffffffffffffffffffffffffffff160361273c576040517f08c379a000000000000000000000000000000000000000000000000000000000815260040161273390614e64565b60405180910390fd5b5f73ffffffffffffffffffffffffffffffffffffffff168273ffffffffffffffffffffffffffffffffffffffff16036127aa576040517f08c379a00000000000000000000000000000000000000000000000000000000081526004016127a190614ef2565b60405180910390fd5b8060015f8573ffffffffffffffffffffffffffffffffffffffff1673ffffffffffffffffffffffffffffffffffffffff1681526020019081526020015f205f8473ffffffffffffffffffffffffffffffffffffffff1673ffffffffffffffffffffffffffffffffffffffff1681526020019081526020015f20819055508173ffffffffffffffffffffffffffffffffffffffff168373ffffffffffffffffffffffffffffffffffffffff167f8c5be1e5ebec7d5bd14f71427d1e84f3dd0314c0f7b2291e5b200ac8c7c3b925836040516128849190613644565b60405180910390a3505050565b5f61289c84846123b1565b90507fffffffffffffffffffffffffffffffffffffffffffffffffffffffffffffffff81146129165781811015612908576040517f08c379a00000000000000000000000000000000000000000000000000000000081526004016128ff90614f5a565b60405180910390fd5b61291584848484036126ce565b5b50505050565b5f73ffffffffffffffffffffffffffffffffffffffff168373ffffffffffffffffffffffffffffffffffffffff160361298a576040517f08c379a000000000000000000000000000000000000000000000000000000000815260040161298190614fe8565b60405180910390fd5b5f73ffffffffffffffffffffffffffffffffffffffff168273ffffffffffffffffffffffffffffffffffffffff16036129f8576040517f08c379a00000000000000000000000000000000000000000000000000000000081526004016129ef90615076565b60405180910390fd5b612a038383836135df565b5f805f8573ffffffffffffffffffffffffffffffffffffffff1673ffffffffffffffffffffffffffffffffffffffff1681526020019081526020015f2054905081811015612a86576040517f08c379a0000000000000000000000000000000000000000000000000000000008152600401612a7d90615104565b60405180910390fd5b8181035f808673ffffffffffffffffffffffffffffffffffffffff1673ffffffffffffffffffffffffffffffffffffffff1681526020019081526020015f2081905550815f808573ffffffffffffffffffffffffffffffffffffffff1673ffffffffffffffffffffffffffffffffffffffff1681526020019081526020015f205f828254612b149190614154565b925050819055508273ffffffffffffffffffffffffffffffffffffffff168473ffffffffffffffffffffffffffffffffffffffff167fddf252ad1be2c89b69c2b068fc378daa952ba7f163c4a11628f55a4df523b3ef84604051612b789190613644565b60405180910390a3612b8b8484846135e4565b50505050565b612b996126c7565b73ffffffffffffffffffffffffffffffffffffffff16612bb76116e7565b73ffffffffffffffffffffffffffffffffffffffff1614612c0d576040517f08c379a0000000000000000000000000000000000000000000000000000000008152600401612c049061516c565b60405180910390fd5b565b5f8273ffffffffffffffffffffffffffffffffffffffff1682604051602401612c389190613644565b6040516020818303038152906040527f2e1a7d4d000000000000000000000000000000000000000000000000000000007bffffffffffffffffffffffffffffffffffffffffffffffffffffffff19166020820180517bffffffffffffffffffffffffffffffffffffffffffffffffffffffff8381831617835250505050604051612cc29190614882565b5f604051808303815f865af19150503d805f8114612cfb576040519150601f19603f3d011682016040523d82523d5f602084013e612d00565b606091505b5050905080612d44576040517f08c379a0000000000000000000000000000000000000000000000000000000008152600401612d3b906151d4565b60405180910390fd5b505050565b5f73ffffffffffffffffffffffffffffffffffffffff168273ffffffffffffffffffffffffffffffffffffffff1603612db7576040517f08c379a0000000000000000000000000000000000000000000000000000000008152600401612dae9061523c565b60405180910390fd5b612dc25f83836135df565b8060025f828254612dd39190614154565b92505081905550805f808473ffffffffffffffffffffffffffffffffffffffff1673ffffffffffffffffffffffffffffffffffffffff1681526020019081526020015f205f828254612e259190614154565b925050819055508173ffffffffffffffffffffffffffffffffffffffff165f73ffffffffffffffffffffffffffffffffffffffff167fddf252ad1be2c89b69c2b068fc378daa952ba7f163c4a11628f55a4df523b3ef83604051612e899190613644565b60405180910390a3612e9c5f83836135e4565b5050565b610e10600b54612eb09190614154565b421061322f575f7f000000000000000000000000000000000000000000000000000000000000000073ffffffffffffffffffffffffffffffffffffffff166370a08231306040518263ffffffff1660e01b8152600401612f109190613c70565b602060405180830381865afa158015612f2b573d5f803e3d5ffd5b505050506040513d601f19601f82011682018060405250810190612f4f91906140fc565b90505f5b600780549050811015613225575f60078281548110612f7557612f746146e6565b5b905f5260205f2090600502019050806003015f9054906101000a900460ff16612f9e5750613212565b5f612710826001015485612fb291906141e4565b612fbc9190614252565b90505f81111561320f577f000000000000000000000000000000000000000000000000000000000000000073ffffffffffffffffffffffffffffffffffffffff1663095ea7b3835f015f9054906101000a900473ffffffffffffffffffffffffffffffffffffffff16836040518363ffffffff1660e01b81526004016130439291906147c2565b6020604051808303815f875af115801561305f573d5f803e3d5ffd5b505050506040513d601f19601f820116820180604052508101906130839190614813565b505f825f015f9054906101000a900473ffffffffffffffffffffffffffffffffffffffff1673ffffffffffffffffffffffffffffffffffffffff16826040516024016130cf9190613644565b6040516020818303038152906040527fb6b55f25000000000000000000000000000000000000000000000000000000007bffffffffffffffffffffffffffffffffffffffffffffffffffffffff19166020820180517bffffffffffffffffffffffffffffffffffffffffffffffffffffffff83818316178352505050506040516131599190614882565b5f604051808303815f865af19150503d805f8114613192576040519150601f19603f3d011682016040523d82523d5f602084013e613197565b606091505b50509050806131db576040517f08c379a00000000000000000000000000000000000000000000000000000000081526004016131d2906152ca565b60405180910390fd5b81836002015f8282546131ee9190614154565b9250508190555081600a5f8282546132069190614154565b92505081905550505b50505b808061321d90614713565b915050612f53565b5042600b81905550505b565b5f60055f9054906101000a900473ffffffffffffffffffffffffffffffffffffffff1690508160055f6101000a81548173ffffffffffffffffffffffffffffffffffffffff021916908373ffffffffffffffffffffffffffffffffffffffff1602179055508173ffffffffffffffffffffffffffffffffffffffff168173ffffffffffffffffffffffffffffffffffffffff167f8be0079c531659141344cd1fd0a4f28419497f9722a3daafe3b4186f6b6457e060405160405180910390a35050565b5f8190505f60078054905090505b5f81111561340e575f600760018361331a91906145b5565b8154811061332b5761332a6146e6565b5b905f5260205f2090600502019050806003015f9054906101000a900460ff16158061335957505f8160020154145b1561336457506133fb565b5f81600201548411613376578361337c565b81600201545b90506133aa825f015f9054906101000a900473ffffffffffffffffffffffffffffffffffffffff1682612c0f565b80826002015f8282546133bd91906145b5565b9250508190555080600a5f8282546133d591906145b5565b9250508190555080846133e891906145b5565b93505f84036133f857505061340e565b50505b8080613406906152e8565b915050613302565b505050565b5f73ffffffffffffffffffffffffffffffffffffffff168273ffffffffffffffffffffffffffffffffffffffff1603613481576040517f08c379a00000000000000000000000000000000000000000000000000000000081526004016134789061537f565b60405180910390fd5b61348c825f836135df565b5f805f8473ffffffffffffffffffffffffffffffffffffffff1673ffffffffffffffffffffffffffffffffffffffff1681526020019081526020015f205490508181101561350f576040517f08c379a00000000000000000000000000000000000000000000000000000000081526004016135069061540d565b60405180910390fd5b8181035f808573ffffffffffffffffffffffffffffffffffffffff1673ffffffffffffffffffffffffffffffffffffffff1681526020019081526020015f20819055508160025f82825461356391906145b5565b925050819055505f73ffffffffffffffffffffffffffffffffffffffff168373ffffffffffffffffffffffffffffffffffffffff167fddf252ad1be2c89b69c2b068fc378daa952ba7f163c4a11628f55a4df523b3ef846040516135c79190613644565b60405180910390a36135da835f846135e4565b505050565b505050565b505050565b6040518060a001604052805f73ffffffffffffffffffffffffffffffffffffffff1681526020015f81526020015f81526020015f15158152602001606081525090565b5f819050919050565b61363e8161362c565b82525050565b5f6020820190506136575f830184613635565b92915050565b5f81519050919050565b5f82825260208201905092915050565b5f5b83811015613694578082015181840152602081019050613679565b5f8484015250505050565b5f601f19601f8301169050919050565b5f6136b98261365d565b6136c38185613667565b93506136d3818560208601613677565b6136dc8161369f565b840191505092915050565b5f6020820190508181035f8301526136ff81846136af565b905092915050565b5f604051905090565b5f80fd5b5f80fd5b6137218161362c565b811461372b575f80fd5b50565b5f8135905061373c81613718565b92915050565b5f6020828403121561375757613756613710565b5b5f6137648482850161372e565b91505092915050565b5f73ffffffffffffffffffffffffffffffffffffffff82169050919050565b5f6137968261376d565b9050919050565b6137a68161378c565b81146137b0575f80fd5b50565b5f813590506137c18161379d565b92915050565b5f80604083850312156137dd576137dc613710565b5b5f6137ea858286016137b3565b92505060206137fb8582860161372e565b9150509250929050565b5f8115159050919050565b61381981613805565b82525050565b5f6020820190506138325f830184613810565b92915050565b5f6020828403121561384d5761384c613710565b5b5f61385a848285016137b3565b91505092915050565b5f805f6060848603121561387a57613879613710565b5b5f613887868287016137b3565b9350506020613898868287016137b3565b92505060406138a98682870161372e565b9150509250925092565b5f80fd5b5f80fd5b7f4e487b71000000000000000000000000000000000000000000000000000000005f52604160045260245ffd5b6138f18261369f565b810181811067ffffffffffffffff821117156139105761390f6138bb565b5b80604052505050565b5f613922613707565b905061392e82826138e8565b919050565b5f67ffffffffffffffff82111561394d5761394c6138bb565b5b6139568261369f565b9050602081019050919050565b828183375f83830152505050565b5f61398361397e84613933565b613919565b90508281526020810184848401111561399f5761399e6138b7565b5b6139aa848285613963565b509392505050565b5f82601f8301126139c6576139c56138b3565b5b81356139d6848260208601613971565b91505092915050565b5f805f606084860312156139f6576139f5613710565b5b5f613a03868287016137b3565b935050602084013567ffffffffffffffff811115613a2457613a23613714565b5b613a30868287016139b2565b9250506040613a418682870161372e565b9150509250925092565b5f80fd5b5f80fd5b5f8083601f840112613a6857613a676138b3565b5b8235905067ffffffffffffffff811115613a8557613a84613a4b565b5b602083019150836020820283011115613aa157613aa0613a4f565b5b9250929050565b5f8083601f840112613abd57613abc6138b3565b5b8235905067ffffffffffffffff811115613ada57613ad9613a4b565b5b602083019150836020820283011115613af657613af5613a4f565b5b9250929050565b5f805f8060408587031215613b1557613b14613710565b5b5f85013567ffffffffffffffff811115613b3257613b31613714565b5b613b3e87828801613a53565b9450945050602085013567ffffffffffffffff811115613b6157613b60613714565b5b613b6d87828801613aa8565b925092505092959194509250565b5f60ff82169050919050565b613b9081613b7b565b82525050565b5f602082019050613ba95f830184613b87565b92915050565b5f819050919050565b5f613bd2613bcd613bc88461376d565b613baf565b61376d565b9050919050565b5f613be382613bb8565b9050919050565b5f613bf482613bd9565b9050919050565b613c0481613bea565b82525050565b5f602082019050613c1d5f830184613bfb565b92915050565b5f8060408385031215613c3957613c38613710565b5b5f613c468582860161372e565b9250506020613c57858286016137b3565b9150509250929050565b613c6a8161378c565b82525050565b5f602082019050613c835f830184613c61565b92915050565b5f805f60608486031215613ca057613c9f613710565b5b5f613cad8682870161372e565b9350506020613cbe868287016137b3565b9250506040613ccf868287016137b3565b9150509250925092565b5f81519050919050565b5f82825260208201905092915050565b5f819050602082019050919050565b613d0b8161378c565b82525050565b613d1a8161362c565b82525050565b613d2981613805565b82525050565b5f82825260208201905092915050565b5f613d498261365d565b613d538185613d2f565b9350613d63818560208601613677565b613d6c8161369f565b840191505092915050565b5f60a083015f830151613d8c5f860182613d02565b506020830151613d9f6020860182613d11565b506040830151613db26040860182613d11565b506060830151613dc56060860182613d20565b5060808301518482036080860152613ddd8282613d3f565b9150508091505092915050565b5f613df58383613d77565b905092915050565b5f602082019050919050565b5f613e1382613cd9565b613e1d8185613ce3565b935083602082028501613e2f85613cf3565b805f5b85811015613e6a5784840389528151613e4b8582613dea565b9450613e5683613dfd565b925060208a01995050600181019050613e32565b50829750879550505050505092915050565b5f6020820190508181035f830152613e948184613e09565b905092915050565b5f8083601f840112613eb157613eb06138b3565b5b8235905067ffffffffffffffff811115613ece57613ecd613a4b565b5b602083019150836001820283011115613eea57613ee9613a4f565b5b9250929050565b5f805f8060608587031215613f0957613f08613710565b5b5f613f16878288016137b3565b9450506020613f278782880161372e565b935050604085013567ffffffffffffffff811115613f4857613f47613714565b5b613f5487828801613e9c565b925092505092959194509250565b5f805f60408486031215613f7957613f78613710565b5b5f613f86868287016137b3565b935050602084013567ffffffffffffffff811115613fa757613fa6613714565b5b613fb386828701613e9c565b92509250509250925092565b5f60a082019050613fd25f830188613c61565b613fdf6020830187613635565b613fec6040830186613635565b613ff96060830185613810565b818103608083015261400b81846136af565b90509695505050505050565b5f806040838503121561402d5761402c613710565b5b5f61403a858286016137b3565b925050602061404b858286016137b3565b9150509250929050565b5f60a083015f83015161406a5f860182613d02565b50602083015161407d6020860182613d11565b5060408301516140906040860182613d11565b5060608301516140a36060860182613d20565b50608083015184820360808601526140bb8282613d3f565b9150508091505092915050565b5f6020820190508181035f8301526140e08184614055565b905092915050565b5f815190506140f681613718565b92915050565b5f6020828403121561411157614110613710565b5b5f61411e848285016140e8565b91505092915050565b7f4e487b71000000000000000000000000000000000000000000000000000000005f52601160045260245ffd5b5f61415e8261362c565b91506141698361362c565b925082820190508082111561418157614180614127565b5b92915050565b7f4e487b71000000000000000000000000000000000000000000000000000000005f52602260045260245ffd5b5f60028204905060018216806141cb57607f821691505b6020821081036141de576141dd614187565b5b50919050565b5f6141ee8261362c565b91506141f98361362c565b92508282026142078161362c565b9150828204841483151761421e5761421d614127565b5b5092915050565b7f4e487b71000000000000000000000000000000000000000000000000000000005f52601260045260245ffd5b5f61425c8261362c565b91506142678361362c565b92508261427757614276614225565b5b828204905092915050565b7f53747261746567792065786973747300000000000000000000000000000000005f82015250565b5f6142b6600f83613667565b91506142c182614282565b602082019050919050565b5f6020820190508181035f8301526142e3816142aa565b9050919050565b7f4d61782035302520616c6c6f636174696f6e00000000000000000000000000005f82015250565b5f61431e601283613667565b9150614329826142ea565b602082019050919050565b5f6020820190508181035f83015261434b81614312565b9050919050565b5f819050815f5260205f209050919050565b5f6020601f8301049050919050565b5f82821b905092915050565b5f600883026143ae7fffffffffffffffffffffffffffffffffffffffffffffffffffffffffffffffff82614373565b6143b88683614373565b95508019841693508086168417925050509392505050565b5f6143ea6143e56143e08461362c565b613baf565b61362c565b9050919050565b5f819050919050565b614403836143d0565b61441761440f826143f1565b84845461437f565b825550505050565b5f90565b61442b61441f565b6144368184846143fa565b505050565b5b818110156144595761444e5f82614423565b60018101905061443c565b5050565b601f82111561449e5761446f81614352565b61447884614364565b81016020851015614487578190505b61449b61449385614364565b83018261443b565b50505b505050565b5f82821c905092915050565b5f6144be5f19846008026144a3565b1980831691505092915050565b5f6144d683836144af565b9150826002028217905092915050565b6144ef8261365d565b67ffffffffffffffff811115614508576145076138bb565b5b61451282546141b4565b61451d82828561445d565b5f60209050601f83116001811461454e575f841561453c578287015190505b61454685826144cb565b8655506145ad565b601f19841661455c86614352565b5f5b828110156145835784890151825560018201915060208501945060208101905061455e565b868310156145a0578489015161459c601f8916826144af565b8355505b6001600288020188555050505b505050505050565b5f6145bf8261362c565b91506145ca8361362c565b92508282039050818111156145e2576145e1614127565b5b92915050565b5f6040820190508181035f83015261460081856136af565b905061460f6020830184613635565b9392505050565b7f4c656e677468206d69736d6174636800000000000000000000000000000000005f82015250565b5f61464a600f83613667565b915061465582614616565b602082019050919050565b5f6020820190508181035f8301526146778161463e565b9050919050565b7f546f6f206672657175656e7400000000000000000000000000000000000000005f82015250565b5f6146b2600c83613667565b91506146bd8261467e565b602082019050919050565b5f6020820190508181035f8301526146df816146a6565b9050919050565b7f4e487b71000000000000000000000000000000000000000000000000000000005f52603260045260245ffd5b5f61471d8261362c565b91507fffffffffffffffffffffffffffffffffffffffffffffffffffffffffffffffff820361474f5761474e614127565b5b600182019050919050565b7f496e73756666696369656e7420617373657473000000000000000000000000005f82015250565b5f61478e601383613667565b91506147998261475a565b602082019050919050565b5f6020820190508181035f8301526147bb81614782565b9050919050565b5f6040820190506147d55f830185613c61565b6147e26020830184613635565b9392505050565b6147f281613805565b81146147fc575f80fd5b50565b5f8151905061480d816147e9565b92915050565b5f6020828403121561482857614827613710565b5b5f614835848285016147ff565b91505092915050565b5f81519050919050565b5f81905092915050565b5f61485c8261483e565b6148668185614848565b9350614876818560208601613677565b80840191505092915050565b5f61488d8284614852565b915081905092915050565b7f5374726174656779206465706f736974206661696c65640000000000000000005f82015250565b5f6148cc601783613667565b91506148d782614898565b602082019050919050565b5f6020820190508181035f8301526148f9816148c0565b9050919050565b5f6040820190506149135f830185613635565b6149206020830184613635565b9392505050565b7f5265656e7472616e637947756172643a207265656e7472616e742063616c6c005f82015250565b5f61495b601f83613667565b915061496682614927565b602082019050919050565b5f6020820190508181035f8301526149888161494f565b9050919050565b7f5a65726f206173736574730000000000000000000000000000000000000000005f82015250565b5f6149c3600b83613667565b91506149ce8261498f565b602082019050919050565b5f6020820190508181035f8301526149f0816149b7565b9050919050565b5f606082019050614a0a5f830186613c61565b614a176020830185613c61565b614a246040830184613635565b949350505050565b7f45524332303a2064656372656173656420616c6c6f77616e63652062656c6f775f8201527f207a65726f000000000000000000000000000000000000000000000000000000602082015250565b5f614a86602583613667565b9150614a9182614a2c565b604082019050919050565b5f6020820190508181035f830152614ab381614a7a565b9050919050565b7f496e73756666696369656e7420736861726573000000000000000000000000005f82015250565b5f614aee601383613667565b9150614af982614aba565b602082019050919050565b5f6020820190508181035f830152614b1b81614ae2565b9050919050565b7f496e73756666696369656e7420616c6c6f77616e6365000000000000000000005f82015250565b5f614b56601683613667565b9150614b6182614b22565b602082019050919050565b5f6020820190508181035f830152614b8381614b4a565b9050919050565b7f496e76616c6964207374726174656779000000000000000000000000000000005f82015250565b5f614bbe601083613667565b9150614bc982614b8a565b602082019050919050565b5f6020820190508181035f830152614beb81614bb2565b9050919050565b7f496e73756666696369656e742062616c616e63650000000000000000000000005f82015250565b5f614c26601483613667565b9150614c3182614bf2565b602082019050919050565b5f6020820190508181035f830152614c5381614c1a565b9050919050565b5f614c658385614848565b9350614c72838584613963565b82840190509392505050565b5f614c8a828486614c5a565b91508190509392505050565b7f53747261746567792063616c6c206661696c65640000000000000000000000005f82015250565b5f614cca601483613667565b9150614cd582614c96565b602082019050919050565b5f6020820190508181035f830152614cf781614cbe565b9050919050565b7f48617276657374206661696c65640000000000000000000000000000000000005f82015250565b5f614d32600e83613667565b9150614d3d82614cfe565b602082019050919050565b5f6020820190508181035f830152614d5f81614d26565b9050919050565b7f4f776e61626c653a206e6577206f776e657220697320746865207a65726f20615f8201527f6464726573730000000000000000000000000000000000000000000000000000602082015250565b5f614dc0602683613667565b9150614dcb82614d66565b604082019050919050565b5f6020820190508181035f830152614ded81614db4565b9050919050565b7f45524332303a20617070726f76652066726f6d20746865207a65726f206164645f8201527f7265737300000000000000000000000000000000000000000000000000000000602082015250565b5f614e4e602483613667565b9150614e5982614df4565b604082019050919050565b5f6020820190508181035f830152614e7b81614e42565b9050919050565b7f45524332303a20617070726f766520746f20746865207a65726f2061646472655f8201527f7373000000000000000000000000000000000000000000000000000000000000602082015250565b5f614edc602283613667565b9150614ee782614e82565b604082019050919050565b5f6020820190508181035f830152614f0981614ed0565b9050919050565b7f45524332303a20696e73756666696369656e7420616c6c6f77616e63650000005f82015250565b5f614f44601d83613667565b9150614f4f82614f10565b602082019050919050565b5f6020820190508181035f830152614f7181614f38565b9050919050565b7f45524332303a207472616e736665722066726f6d20746865207a65726f2061645f8201527f6472657373000000000000000000000000000000000000000000000000000000602082015250565b5f614fd2602583613667565b9150614fdd82614f78565b604082019050919050565b5f6020820190508181035f830152614fff81614fc6565b9050919050565b7f45524332303a207472616e7366657220746f20746865207a65726f20616464725f8201527f6573730000000000000000000000000000000000000000000000000000000000602082015250565b5f615060602383613667565b915061506b82615006565b604082019050919050565b5f6020820190508181035f83015261508d81615054565b9050919050565b7f45524332303a207472616e7366657220616d6f756e74206578636565647320625f8201527f616c616e63650000000000000000000000000000000000000000000000000000602082015250565b5f6150ee602683613667565b91506150f982615094565b604082019050919050565b5f6020820190508181035f83015261511b816150e2565b9050919050565b7f4f776e61626c653a2063616c6c6572206973206e6f7420746865206f776e65725f82015250565b5f615156602083613667565b915061516182615122565b602082019050919050565b5f6020820190508181035f8301526151838161514a565b9050919050565b7f5374726174656779207769746864726177616c206661696c65640000000000005f82015250565b5f6151be601a83613667565b91506151c98261518a565b602082019050919050565b5f6020820190508181035f8301526151eb816151b2565b9050919050565b7f45524332303a206d696e7420746f20746865207a65726f2061646472657373005f82015250565b5f615226601f83613667565b9150615231826151f2565b602082019050919050565b5f6020820190508181035f8301526152538161521a565b9050919050565b7f4175746f526562616c616e63653a205374726174656779206465706f736974205f8201527f6661696c65640000000000000000000000000000000000000000000000000000602082015250565b5f6152b4602683613667565b91506152bf8261525a565b604082019050919050565b5f6020820190508181035f8301526152e1816152a8565b9050919050565b5f6152f28261362c565b91505f820361530457615303614127565b5b600182039050919050565b7f45524332303a206275726e2066726f6d20746865207a65726f206164647265735f8201527f7300000000000000000000000000000000000000000000000000000000000000602082015250565b5f615369602183613667565b91506153748261530f565b604082019050919050565b5f6020820190508181035f8301526153968161535d565b9050919050565b7f45524332303a206275726e20616d6f756e7420657863656564732062616c616e5f8201527f6365000000000000000000000000000000000000000000000000000000000000602082015250565b5f6153f7602283613667565b91506154028261539d565b604082019050919050565b5f6020820190508181035f830152615424816153eb565b905091905056fea2646970667358221220598c35844cfe53330771bd56d0c8b0afd1685d53555b5f6b7cab4ccecb185ef064736f6c63430008140033",
  "linkReferences": {},
  "deployedLinkReferences": {}
}