{
  "_format": "hh-sol-artifact-1",
  "contractName": "TriSolarisStrategy",
  "sourceName": "contracts/deploy_contracts.sol",
  "abi": [
    {
      "inputs": [
        {
          "internalType": "address",
          "name": "_asset",
          "type": "address"
        },
        {
          "internalType": "address",
          "name": "_vault",
          "type": "address"
        }
      ],
      "stateMutability": "nonpayable",
      "type": "constructor"
    },
    {
      "inputs": [],
      "name": "TRI_ROUTER",
      "outputs": [
        {
          "internalType": "address",
          "name": "",
          "type": "address"
        }
      ],
      "stateMutability": "view",
      "type": "function"
    },
    {
      "inputs": [],
      "name": "asset",
      "outputs": [
        {
          "internalType": "contract IERC20",
          "name": "",
          "type": "address"
        }
      ],
      "stateMutability": "view",
      "type": "function"
    },
    {
      "inputs": [
        {
          "internalType": "uint256",
          "name": "amount",
          "type": "uint256"
        }
      ],
      "name": "deposit",
      "outputs": [],
      "stateMutability": "nonpayable",
      "type": "function"
    },
    {
      "inputs": [],
      "name": "getBalance",
      "outputs": [
        {
          "internalType": "uint256",
          "name": "",
          "type": "uint256"
        }
      ],
      "stateMutability": "view",
      "type": "function"
    },
    {
      "inputs": [],
      "name": "harvest",
      "outputs": [],
      "stateMutability": "nonpayable",
      "type": "function"
    },
    {
      "inputs": [],
      "name": "vault",
      "outputs": [
        {
          "internalType": "address",
          "name": "",
          "type": "address"
        }
      ],
      "stateMutability": "view",
      "type": "function"
    },
    {
      "inputs": [
        {
          "internalType": "uint256",
          "name": "amount",
          "type": "uint256"
        }
      ],
      "name": "withdraw",
      "outputs": [],
      "stateMutability": "nonpayable",
      "type": "function"
    }
  ],
  "bytecode": "0x60c060405234801561000f575f80fd5b506040516109f73803806109f7833981810160405281019061003191906100fe565b8173ffffffffffffffffffffffffffffffffffffffff1660808173ffffffffffffffffffffffffffffffffffffffff16815250508073ffffffffffffffffffffffffffffffffffffffff1660a08173ffffffffffffffffffffffffffffffffffffffff1681525050505061013c565b5f80fd5b5f73ffffffffffffffffffffffffffffffffffffffff82169050919050565b5f6100cd826100a4565b9050919050565b6100dd816100c3565b81146100e7575f80fd5b50565b5f815190506100f8816100d4565b92915050565b5f8060408385031215610114576101136100a0565b5b5f610121858286016100ea565b9250506020610132858286016100ea565b9150509250929050565b60805160a0516108626101955f395f81816101d9015281816102a301528181610362015281816103f2015281816104bc015261054101525f818161013c0152818161026701528181610326015261048001526108625ff3fe608060405234801561000f575f80fd5b506004361061007b575f3560e01c80633a0d466e116100595780633a0d466e146100d75780634641257d146100f5578063b6b55f25146100ff578063fbfa77cf1461011b5761007b565b806312065fe01461007f5780632e1a7d4d1461009d57806338d52e0f146100b9575b5f80fd5b610087610139565b604051610094919061057b565b60405180910390f35b6100b760048036038101906100b291906105c2565b6101d7565b005b6100c1610324565b6040516100ce9190610667565b60405180910390f35b6100df610348565b6040516100ec91906106a0565b60405180910390f35b6100fd610360565b005b610119600480360381019061011491906105c2565b6103f0565b005b61012361053f565b60405161013091906106a0565b60405180910390f35b5f7f000000000000000000000000000000000000000000000000000000000000000073ffffffffffffffffffffffffffffffffffffffff166370a08231306040518263ffffffff1660e01b815260040161019391906106a0565b602060405180830381865afa1580156101ae573d5f803e3d5ffd5b505050506040513d601f19601f820116820180604052508101906101d291906106cd565b905090565b7f000000000000000000000000000000000000000000000000000000000000000073ffffffffffffffffffffffffffffffffffffffff163373ffffffffffffffffffffffffffffffffffffffff1614610265576040517f08c379a000000000000000000000000000000000000000000000000000000000815260040161025c90610752565b60405180910390fd5b7f000000000000000000000000000000000000000000000000000000000000000073ffffffffffffffffffffffffffffffffffffffff1663a9059cbb7f0000000000000000000000000000000000000000000000000000000000000000836040518363ffffffff1660e01b81526004016102e0929190610770565b6020604051808303815f875af11580156102fc573d5f803e3d5ffd5b505050506040513d601f19601f8201168201806040525081019061032091906107cc565b5050565b7f000000000000000000000000000000000000000000000000000000000000000081565b732cb45edb4517d5947afde3beabf95a582506858b81565b7f000000000000000000000000000000000000000000000000000000000000000073ffffffffffffffffffffffffffffffffffffffff163373ffffffffffffffffffffffffffffffffffffffff16146103ee576040517f08c379a00000000000000000000000000000000000000000000000000000000081526004016103e590610752565b60405180910390fd5b565b7f000000000000000000000000000000000000000000000000000000000000000073ffffffffffffffffffffffffffffffffffffffff163373ffffffffffffffffffffffffffffffffffffffff161461047e576040517f08c379a000000000000000000000000000000000000000000000000000000000815260040161047590610752565b60405180910390fd5b7f000000000000000000000000000000000000000000000000000000000000000073ffffffffffffffffffffffffffffffffffffffff166323b872dd7f000000000000000000000000000000000000000000000000000000000000000030846040518463ffffffff1660e01b81526004016104fb939291906107f7565b6020604051808303815f875af1158015610517573d5f803e3d5ffd5b505050506040513d601f19601f8201168201806040525081019061053b91906107cc565b5050565b7f000000000000000000000000000000000000000000000000000000000000000081565b5f819050919050565b61057581610563565b82525050565b5f60208201905061058e5f83018461056c565b92915050565b5f80fd5b6105a181610563565b81146105ab575f80fd5b50565b5f813590506105bc81610598565b92915050565b5f602082840312156105d7576105d6610594565b5b5f6105e4848285016105ae565b91505092915050565b5f73ffffffffffffffffffffffffffffffffffffffff82169050919050565b5f819050919050565b5f61062f61062a610625846105ed565b61060c565b6105ed565b9050919050565b5f61064082610615565b9050919050565b5f61065182610636565b9050919050565b61066181610647565b82525050565b5f60208201905061067a5f830184610658565b92915050565b5f61068a826105ed565b9050919050565b61069a81610680565b82525050565b5f6020820190506106b35f830184610691565b92915050565b5f815190506106c781610598565b92915050565b5f602082840312156106e2576106e1610594565b5b5f6106ef848285016106b9565b91505092915050565b5f82825260208201905092915050565b7f4f6e6c79207661756c74000000000000000000000000000000000000000000005f82015250565b5f61073c600a836106f8565b915061074782610708565b602082019050919050565b5f6020820190508181035f83015261076981610730565b9050919050565b5f6040820190506107835f830185610691565b610790602083018461056c565b9392505050565b5f8115159050919050565b6107ab81610797565b81146107b5575f80fd5b50565b5f815190506107c6816107a2565b92915050565b5f602082840312156107e1576107e0610594565b5b5f6107ee848285016107b8565b91505092915050565b5f60608201905061080a5f830186610691565b6108176020830185610691565b610824604083018461056c565b94935050505056fea26469706673582212205cc4894a7098d5547817bc3ac9ecebb33c1d072fe45b6e32fb846e1324a84fd164736f6c63430008140033",
  "linkReferences": {},
  "deployedLinkReferences": {}
}